{
  "contractName": "Bank",
  "abi": [
    {
      "inputs": [
        {
          "internalType": "uint256",
          "name": "_reserveBalance",
          "type": "uint256"
        }
      ],
      "stateMutability": "nonpayable",
      "type": "constructor"
    },
    {
      "anonymous": false,
      "inputs": [
        {
          "indexed": true,
          "internalType": "uint256",
          "name": "loanId",
          "type": "uint256"
        },
        {
          "indexed": false,
          "internalType": "address",
          "name": "userAddr",
          "type": "address"
        },
        {
          "indexed": false,
          "internalType": "bool",
          "name": "status",
          "type": "bool"
        }
      ],
      "name": "ApproveOrRejectLoan",
      "type": "event"
    },
    {
      "anonymous": false,
      "inputs": [
        {
          "indexed": true,
          "internalType": "uint256",
          "name": "loanId",
          "type": "uint256"
        },
        {
          "indexed": false,
          "internalType": "address",
          "name": "userAddr",
          "type": "address"
        }
      ],
      "name": "CancelLoanRequest",
      "type": "event"
    },
    {
      "anonymous": false,
      "inputs": [
        {
          "indexed": false,
          "internalType": "address",
          "name": "userAddress",
          "type": "address"
        }
      ],
      "name": "CreateAccount",
      "type": "event"
    },
    {
      "anonymous": false,
      "inputs": [
        {
          "indexed": true,
          "internalType": "address",
          "name": "userAddr",
          "type": "address"
        },
        {
          "indexed": false,
          "internalType": "uint256",
          "name": "amount",
          "type": "uint256"
        }
      ],
      "name": "Deposit",
      "type": "event"
    },
    {
      "anonymous": false,
      "inputs": [
        {
          "indexed": false,
          "internalType": "uint256",
          "name": "amount",
          "type": "uint256"
        }
      ],
      "name": "DepositEthToBank",
      "type": "event"
    },
    {
      "anonymous": false,
      "inputs": [
        {
          "indexed": true,
          "internalType": "uint256",
          "name": "fdId",
          "type": "uint256"
        },
        {
          "indexed": false,
          "internalType": "address",
          "name": "userAddr",
          "type": "address"
        },
        {
          "indexed": false,
          "internalType": "uint256",
          "name": "amount",
          "type": "uint256"
        },
        {
          "indexed": false,
          "internalType": "uint256",
          "name": "tariffId",
          "type": "uint256"
        }
      ],
      "name": "FixedDeposit",
      "type": "event"
    },
    {
      "anonymous": false,
      "inputs": [
        {
          "indexed": false,
          "internalType": "uint256",
          "name": "reserveBalance",
          "type": "uint256"
        }
      ],
      "name": "IncreaseReserveBalance",
      "type": "event"
    },
    {
      "anonymous": false,
      "inputs": [
        {
          "indexed": true,
          "internalType": "uint256",
          "name": "loanId",
          "type": "uint256"
        },
        {
          "indexed": false,
          "internalType": "address",
          "name": "userAddr",
          "type": "address"
        }
      ],
      "name": "LoanClosed",
      "type": "event"
    },
    {
      "anonymous": false,
      "inputs": [
        {
          "indexed": true,
          "internalType": "uint256",
          "name": "loanId",
          "type": "uint256"
        },
        {
          "indexed": false,
          "internalType": "address",
          "name": "userAddr",
          "type": "address"
        }
      ],
      "name": "LoanDeadLineCrosssed",
      "type": "event"
    },
    {
      "anonymous": false,
      "inputs": [
        {
          "indexed": false,
          "internalType": "uint256",
          "name": "amount",
          "type": "uint256"
        }
      ],
      "name": "OwnerWithdraw",
      "type": "event"
    },
    {
      "anonymous": false,
      "inputs": [
        {
          "indexed": true,
          "internalType": "address",
          "name": "previousOwner",
          "type": "address"
        },
        {
          "indexed": true,
          "internalType": "address",
          "name": "newOwner",
          "type": "address"
        }
      ],
      "name": "OwnershipTransferred",
      "type": "event"
    },
    {
      "anonymous": false,
      "inputs": [],
      "name": "PausedNewDeposits",
      "type": "event"
    },
    {
      "anonymous": false,
      "inputs": [],
      "name": "PausedNewLoans",
      "type": "event"
    },
    {
      "anonymous": false,
      "inputs": [
        {
          "indexed": false,
          "internalType": "uint256",
          "name": "tariffId",
          "type": "uint256"
        }
      ],
      "name": "RemoveFDDurationAndInterest",
      "type": "event"
    },
    {
      "anonymous": false,
      "inputs": [
        {
          "indexed": false,
          "internalType": "uint256",
          "name": "tariffId",
          "type": "uint256"
        }
      ],
      "name": "RemoveLoanDurationAndInterest",
      "type": "event"
    },
    {
      "anonymous": false,
      "inputs": [
        {
          "indexed": true,
          "internalType": "uint256",
          "name": "loanId",
          "type": "uint256"
        },
        {
          "indexed": false,
          "internalType": "address",
          "name": "userAddr",
          "type": "address"
        },
        {
          "indexed": false,
          "internalType": "uint256",
          "name": "amount",
          "type": "uint256"
        }
      ],
      "name": "RepayLoan",
      "type": "event"
    },
    {
      "anonymous": false,
      "inputs": [
        {
          "indexed": true,
          "internalType": "uint256",
          "name": "loanId",
          "type": "uint256"
        },
        {
          "indexed": false,
          "internalType": "address",
          "name": "userAddr",
          "type": "address"
        },
        {
          "indexed": false,
          "internalType": "uint256",
          "name": "amount",
          "type": "uint256"
        },
        {
          "indexed": false,
          "internalType": "uint256",
          "name": "tariffId",
          "type": "uint256"
        }
      ],
      "name": "RequestLoan",
      "type": "event"
    },
    {
      "anonymous": false,
      "inputs": [],
      "name": "ResumedNewDeposits",
      "type": "event"
    },
    {
      "anonymous": false,
      "inputs": [],
      "name": "ResumedNewLoans",
      "type": "event"
    },
    {
      "anonymous": false,
      "inputs": [
        {
          "indexed": false,
          "internalType": "uint256",
          "name": "tariffId",
          "type": "uint256"
        },
        {
          "indexed": false,
          "internalType": "uint256",
          "name": "duration",
          "type": "uint256"
        },
        {
          "indexed": false,
          "internalType": "uint256",
          "name": "interest",
          "type": "uint256"
        }
      ],
      "name": "SetFDDurationAndInterest",
      "type": "event"
    },
    {
      "anonymous": false,
      "inputs": [
        {
          "indexed": false,
          "internalType": "uint256",
          "name": "tariffId",
          "type": "uint256"
        },
        {
          "indexed": false,
          "internalType": "uint256",
          "name": "duration",
          "type": "uint256"
        },
        {
          "indexed": false,
          "internalType": "uint256",
          "name": "interest",
          "type": "uint256"
        }
      ],
      "name": "SetLoanDurationAndInterest",
      "type": "event"
    },
    {
      "anonymous": false,
      "inputs": [
        {
          "indexed": false,
          "internalType": "address",
          "name": "managerAddrs",
          "type": "address"
        }
      ],
      "name": "SetManager",
      "type": "event"
    },
    {
      "anonymous": false,
      "inputs": [
        {
          "indexed": true,
          "internalType": "address",
          "name": "userAddr",
          "type": "address"
        },
        {
          "indexed": false,
          "internalType": "uint256",
          "name": "amount",
          "type": "uint256"
        }
      ],
      "name": "Withdraw",
      "type": "event"
    },
    {
      "anonymous": false,
      "inputs": [
        {
          "indexed": true,
          "internalType": "uint256",
          "name": "fdId",
          "type": "uint256"
        },
        {
          "indexed": false,
          "internalType": "address",
          "name": "userAddr",
          "type": "address"
        },
        {
          "indexed": false,
          "internalType": "uint256",
          "name": "amount",
          "type": "uint256"
        }
      ],
      "name": "WithdrawFD",
      "type": "event"
    },
    {
      "anonymous": false,
      "inputs": [
        {
          "indexed": true,
          "internalType": "uint256",
          "name": "fdId",
          "type": "uint256"
        },
        {
          "indexed": false,
          "internalType": "address",
          "name": "userAddr",
          "type": "address"
        },
        {
          "indexed": false,
          "internalType": "uint256",
          "name": "amount",
          "type": "uint256"
        }
      ],
      "name": "WithdrawFDBeforeMaturity",
      "type": "event"
    },
    {
      "inputs": [],
      "name": "acceptDeposit",
      "outputs": [
        {
          "internalType": "bool",
          "name": "",
          "type": "bool"
        }
      ],
      "stateMutability": "view",
      "type": "function"
    },
    {
      "inputs": [],
      "name": "contractBalance",
      "outputs": [
        {
          "internalType": "uint256",
          "name": "",
          "type": "uint256"
        }
      ],
      "stateMutability": "view",
      "type": "function"
    },
    {
      "inputs": [
        {
          "internalType": "uint256",
          "name": "",
          "type": "uint256"
        }
      ],
      "name": "fdTariffIdToFdTfIdIndex",
      "outputs": [
        {
          "internalType": "uint256",
          "name": "",
          "type": "uint256"
        }
      ],
      "stateMutability": "view",
      "type": "function"
    },
    {
      "inputs": [
        {
          "internalType": "uint256",
          "name": "",
          "type": "uint256"
        }
      ],
      "name": "fdTariffIdToInfo",
      "outputs": [
        {
          "internalType": "uint256",
          "name": "duration",
          "type": "uint256"
        },
        {
          "internalType": "uint256",
          "name": "interest",
          "type": "uint256"
        }
      ],
      "stateMutability": "view",
      "type": "function"
    },
    {
      "inputs": [
        {
          "internalType": "uint256",
          "name": "",
          "type": "uint256"
        }
      ],
      "name": "fdTfId",
      "outputs": [
        {
          "internalType": "uint256",
          "name": "",
          "type": "uint256"
        }
      ],
      "stateMutability": "view",
      "type": "function"
    },
    {
      "inputs": [],
      "name": "isOwner",
      "outputs": [
        {
          "internalType": "bool",
          "name": "",
          "type": "bool"
        }
      ],
      "stateMutability": "view",
      "type": "function"
    },
    {
      "inputs": [
        {
          "internalType": "uint256",
          "name": "",
          "type": "uint256"
        }
      ],
      "name": "lnTariffIdToInfo",
      "outputs": [
        {
          "internalType": "uint256",
          "name": "duration",
          "type": "uint256"
        },
        {
          "internalType": "uint256",
          "name": "interest",
          "type": "uint256"
        }
      ],
      "stateMutability": "view",
      "type": "function"
    },
    {
      "inputs": [
        {
          "internalType": "uint256",
          "name": "",
          "type": "uint256"
        }
      ],
      "name": "lnTariffIdToLnTfIdIndex",
      "outputs": [
        {
          "internalType": "uint256",
          "name": "",
          "type": "uint256"
        }
      ],
      "stateMutability": "view",
      "type": "function"
    },
    {
      "inputs": [
        {
          "internalType": "uint256",
          "name": "",
          "type": "uint256"
        }
      ],
      "name": "lnTfId",
      "outputs": [
        {
          "internalType": "uint256",
          "name": "",
          "type": "uint256"
        }
      ],
      "stateMutability": "view",
      "type": "function"
    },
    {
      "inputs": [],
      "name": "loanAvailable",
      "outputs": [
        {
          "internalType": "bool",
          "name": "",
          "type": "bool"
        }
      ],
      "stateMutability": "view",
      "type": "function"
    },
    {
      "inputs": [],
      "name": "loanInterestAmountShare",
      "outputs": [
        {
          "internalType": "uint256",
          "name": "",
          "type": "uint256"
        }
      ],
      "stateMutability": "view",
      "type": "function"
    },
    {
      "inputs": [],
      "name": "managerAddress",
      "outputs": [
        {
          "internalType": "address",
          "name": "",
          "type": "address"
        }
      ],
      "stateMutability": "view",
      "type": "function"
    },
    {
      "inputs": [],
      "name": "owner",
      "outputs": [
        {
          "internalType": "address",
          "name": "",
          "type": "address"
        }
      ],
      "stateMutability": "view",
      "type": "function"
    },
    {
      "inputs": [],
      "name": "renounceOwnership",
      "outputs": [],
      "stateMutability": "nonpayable",
      "type": "function"
    },
    {
      "inputs": [],
      "name": "totalFixedDeposit",
      "outputs": [
        {
          "internalType": "uint256",
          "name": "",
          "type": "uint256"
        }
      ],
      "stateMutability": "view",
      "type": "function"
    },
    {
      "inputs": [
        {
          "internalType": "address",
          "name": "newOwner",
          "type": "address"
        }
      ],
      "name": "transferOwnership",
      "outputs": [],
      "stateMutability": "nonpayable",
      "type": "function"
    },
    {
      "inputs": [],
      "name": "deposit",
      "outputs": [],
      "stateMutability": "payable",
      "type": "function"
    },
    {
      "inputs": [
        {
          "internalType": "uint256",
          "name": "_amount",
          "type": "uint256"
        }
      ],
      "name": "withdraw",
      "outputs": [],
      "stateMutability": "nonpayable",
      "type": "function"
    },
    {
      "inputs": [
        {
          "internalType": "uint256",
          "name": "_tariffId",
          "type": "uint256"
        }
      ],
      "name": "fixedDeposit",
      "outputs": [],
      "stateMutability": "payable",
      "type": "function"
    },
    {
      "inputs": [
        {
          "internalType": "uint256",
          "name": "_fdIndex",
          "type": "uint256"
        }
      ],
      "name": "withdrawFD",
      "outputs": [],
      "stateMutability": "nonpayable",
      "type": "function"
    },
    {
      "inputs": [
        {
          "internalType": "uint256",
          "name": "_fdIndex",
          "type": "uint256"
        }
      ],
      "name": "withdrawFDBeforeMaturity",
      "outputs": [],
      "stateMutability": "nonpayable",
      "type": "function"
    },
    {
      "inputs": [
        {
          "internalType": "uint256",
          "name": "_amount",
          "type": "uint256"
        },
        {
          "internalType": "uint256",
          "name": "_tariffId",
          "type": "uint256"
        }
      ],
      "name": "requestLoan",
      "outputs": [],
      "stateMutability": "nonpayable",
      "type": "function"
    },
    {
      "inputs": [
        {
          "internalType": "uint256",
          "name": "_loanIndex",
          "type": "uint256"
        }
      ],
      "name": "repayLoan",
      "outputs": [],
      "stateMutability": "payable",
      "type": "function"
    },
    {
      "inputs": [
        {
          "internalType": "uint256",
          "name": "_cancelLoanId",
          "type": "uint256"
        }
      ],
      "name": "cancelLoanRequest",
      "outputs": [],
      "stateMutability": "nonpayable",
      "type": "function"
    },
    {
      "inputs": [
        {
          "internalType": "uint256",
          "name": "_cursor",
          "type": "uint256"
        },
        {
          "internalType": "uint256",
          "name": "_count",
          "type": "uint256"
        }
      ],
      "name": "viewLoanRequests",
      "outputs": [
        {
          "internalType": "uint256[]",
          "name": "_loanIds",
          "type": "uint256[]"
        },
        {
          "internalType": "address[]",
          "name": "_userAddrs",
          "type": "address[]"
        },
        {
          "internalType": "uint256[]",
          "name": "_amounts",
          "type": "uint256[]"
        },
        {
          "internalType": "uint256[]",
          "name": "_durations",
          "type": "uint256[]"
        },
        {
          "internalType": "uint256[]",
          "name": "_interests",
          "type": "uint256[]"
        }
      ],
      "stateMutability": "view",
      "type": "function"
    },
    {
      "inputs": [
        {
          "internalType": "uint256",
          "name": "_loanId",
          "type": "uint256"
        },
        {
          "internalType": "bool",
          "name": "_approve",
          "type": "bool"
        }
      ],
      "name": "approveOrRejectLoan",
      "outputs": [],
      "stateMutability": "nonpayable",
      "type": "function"
    },
    {
      "inputs": [
        {
          "internalType": "uint256",
          "name": "_loanId",
          "type": "uint256"
        }
      ],
      "name": "deadLineCrossed",
      "outputs": [],
      "stateMutability": "nonpayable",
      "type": "function"
    },
    {
      "inputs": [
        {
          "internalType": "uint256",
          "name": "_duration",
          "type": "uint256"
        },
        {
          "internalType": "uint256",
          "name": "_interest",
          "type": "uint256"
        }
      ],
      "name": "setLoanDurationAndInterest",
      "outputs": [],
      "stateMutability": "nonpayable",
      "type": "function"
    },
    {
      "inputs": [
        {
          "internalType": "uint256",
          "name": "_cursor",
          "type": "uint256"
        },
        {
          "internalType": "uint256",
          "name": "_count",
          "type": "uint256"
        }
      ],
      "name": "getLoanDurationAndInterest",
      "outputs": [
        {
          "internalType": "uint256[]",
          "name": "_duration",
          "type": "uint256[]"
        },
        {
          "internalType": "uint256[]",
          "name": "_interest",
          "type": "uint256[]"
        }
      ],
      "stateMutability": "view",
      "type": "function"
    },
    {
      "inputs": [
        {
          "internalType": "uint256",
          "name": "_tariffId",
          "type": "uint256"
        }
      ],
      "name": "removeLoanDurationAndInterest",
      "outputs": [],
      "stateMutability": "nonpayable",
      "type": "function"
    },
    {
      "inputs": [
        {
          "internalType": "uint256",
          "name": "_duration",
          "type": "uint256"
        },
        {
          "internalType": "uint256",
          "name": "_interest",
          "type": "uint256"
        }
      ],
      "name": "setFDDurationAndInterest",
      "outputs": [],
      "stateMutability": "nonpayable",
      "type": "function"
    },
    {
      "inputs": [
        {
          "internalType": "uint256",
          "name": "_cursor",
          "type": "uint256"
        },
        {
          "internalType": "uint256",
          "name": "_count",
          "type": "uint256"
        }
      ],
      "name": "getFDDurationAndInterest",
      "outputs": [
        {
          "internalType": "uint256[]",
          "name": "_duration",
          "type": "uint256[]"
        },
        {
          "internalType": "uint256[]",
          "name": "_interest",
          "type": "uint256[]"
        }
      ],
      "stateMutability": "view",
      "type": "function"
    },
    {
      "inputs": [
        {
          "internalType": "uint256",
          "name": "_tariffId",
          "type": "uint256"
        }
      ],
      "name": "removeFDDurationAndInterest",
      "outputs": [],
      "stateMutability": "nonpayable",
      "type": "function"
    },
    {
      "inputs": [
        {
          "internalType": "uint256",
          "name": "_amount",
          "type": "uint256"
        }
      ],
      "name": "increaseReserveBalance",
      "outputs": [],
      "stateMutability": "nonpayable",
      "type": "function"
    },
    {
      "inputs": [
        {
          "internalType": "address",
          "name": "_managerAddrs",
          "type": "address"
        }
      ],
      "name": "setManager",
      "outputs": [],
      "stateMutability": "nonpayable",
      "type": "function"
    },
    {
      "inputs": [],
      "name": "getAllUsers",
      "outputs": [
        {
          "internalType": "address[]",
          "name": "_userAddrs",
          "type": "address[]"
        }
      ],
      "stateMutability": "view",
      "type": "function"
    }
  ],
  "bytecode": "0x60806040523480156200001157600080fd5b506040516200664d3803806200664d833981810160405281019062000037919062000117565b336000806101000a81548173ffffffffffffffffffffffffffffffffffffffff021916908373ffffffffffffffffffffffffffffffffffffffff16021790555060008054906101000a900473ffffffffffffffffffffffffffffffffffffffff1673ffffffffffffffffffffffffffffffffffffffff16600073ffffffffffffffffffffffffffffffffffffffff167f8be0079c531659141344cd1fd0a4f28419497f9722a3daafe3b4186f6b6457e060405160405180910390a3806003819055505062000167565b60008151905062000111816200014d565b92915050565b6000602082840312156200012a57600080fd5b60006200013a8482850162000100565b91505092915050565b6000819050919050565b620001588162000143565b81146200016457600080fd5b50565b6164d680620001776000396000f3fe60806040526004361061020f5760003560e01c80639642f16111610118578063d0ebdbe7116100a0578063e2842d791161006f578063e2842d7914610777578063f2fde38b146107a2578063f8feb717146107cb578063fc5c5be8146107f4578063ff92d19c1461081d5761020f565b8063d0ebdbe7146106bb578063d28b7103146106e4578063d4a3803f14610721578063d79d06d81461074c5761020f565b8063aa452fa6116100e7578063aa452fa614610618578063ab7b1c8914610641578063c84242b11461065d578063cf73a1bc14610686578063d0e30db0146106b15761020f565b80639642f1611461053757806396713d8914610575578063a42644b8146105b2578063a9a7cfaa146105db5761020f565b80635a6803671161019b5780638b7afe2e1161016a5780638b7afe2e146104505780638da5cb5b1461047b5780638f32d59b146104a657806390eaab0f146104d1578063922cff801461050e5761020f565b80635a680367146103be5780635f9570aa146103e7578063715018a614610410578063834a9cf5146104275761020f565b80632e1a7d4d116101e25780632e1a7d4d146102e75780633333cb67146103105780634986094b146103395780634bae6659146103645780634f954d87146103805761020f565b806304c814c3146102145780630d95e3c61461023d57806320d8c7fa1461027e57806328fbdc69146102a9575b600080fd5b34801561022057600080fd5b5061023b60048036038101906102369190615652565b61085b565b005b34801561024957600080fd5b50610264600480360381019061025f91906156b7565b610a2b565b604051610275959493929190615b98565b60405180910390f35b34801561028a57600080fd5b50610293610edc565b6040516102a09190615c45565b60405180910390f35b3480156102b557600080fd5b506102d060048036038101906102cb91906156b7565b610eef565b6040516102de929190615c0e565b60405180910390f35b3480156102f357600080fd5b5061030e60048036038101906103099190615652565b611081565b005b34801561031c57600080fd5b50610337600480360381019061033291906156b7565b611299565b005b34801561034557600080fd5b5061034e611438565b60405161035b9190615e22565b60405180910390f35b61037e60048036038101906103799190615652565b61143e565b005b34801561038c57600080fd5b506103a760048036038101906103a29190615652565b61174c565b6040516103b5929190615e3d565b60405180910390f35b3480156103ca57600080fd5b506103e560048036038101906103e09190615652565b611770565b005b3480156103f357600080fd5b5061040e60048036038101906104099190615652565b611d8e565b005b34801561041c57600080fd5b50610425612576565b005b34801561043357600080fd5b5061044e6004803603810190610449919061567b565b612645565b005b34801561045c57600080fd5b50610465612cb1565b6040516104729190615e22565b60405180910390f35b34801561048757600080fd5b50610490612cb7565b60405161049d9190615ad2565b60405180910390f35b3480156104b257600080fd5b506104bb612ce0565b6040516104c89190615c45565b60405180910390f35b3480156104dd57600080fd5b506104f860048036038101906104f39190615652565b612d37565b6040516105059190615e22565b60405180910390f35b34801561051a57600080fd5b5061053560048036038101906105309190615652565b612d4f565b005b34801561054357600080fd5b5061055e600480360381019061055991906156b7565b612f1f565b60405161056c929190615c0e565b60405180910390f35b34801561058157600080fd5b5061059c60048036038101906105979190615652565b6130b1565b6040516105a99190615e22565b60405180910390f35b3480156105be57600080fd5b506105d960048036038101906105d49190615652565b6130d5565b005b3480156105e757600080fd5b5061060260048036038101906105fd9190615652565b61394c565b60405161060f9190615e22565b60405180910390f35b34801561062457600080fd5b5061063f600480360381019061063a91906156b7565b613964565b005b61065b60048036038101906106569190615652565b613db5565b005b34801561066957600080fd5b50610684600480360381019061067f9190615652565b6148f0565b005b34801561069257600080fd5b5061069b614958565b6040516106a89190615ad2565b60405180910390f35b6106b961497e565b005b3480156106c757600080fd5b506106e260048036038101906106dd9190615629565b614adb565b005b3480156106f057600080fd5b5061070b60048036038101906107069190615652565b614b67565b6040516107189190615e22565b60405180910390f35b34801561072d57600080fd5b50610736614b8b565b6040516107439190615c45565b60405180910390f35b34801561075857600080fd5b50610761614b9e565b60405161076e9190615e22565b60405180910390f35b34801561078357600080fd5b5061078c614ba3565b6040516107999190615b76565b60405180910390f35b3480156107ae57600080fd5b506107c960048036038101906107c49190615629565b614cc1565b005b3480156107d757600080fd5b506107f260048036038101906107ed9190615652565b614cde565b005b34801561080057600080fd5b5061081b600480360381019061081691906156b7565b614fb0565b005b34801561082957600080fd5b50610844600480360381019061083f9190615652565b61514f565b604051610852929190615e3d565b60405180910390f35b3373ffffffffffffffffffffffffffffffffffffffff16600260009054906101000a900473ffffffffffffffffffffffffffffffffffffffff1673ffffffffffffffffffffffffffffffffffffffff16146108eb576040517f08c379a00000000000000000000000000000000000000000000000000000000081526004016108e290615ca2565b60405180910390fd5b6008610906600160088054905061517390919063ffffffff16565b8154811061093d577f4e487b7100000000000000000000000000000000000000000000000000000000600052603260045260246000fd5b90600052602060002001546008601160008481526020019081526020016000205481548110610995577f4e487b7100000000000000000000000000000000000000000000000000000000600052603260045260246000fd5b906000526020600020018190555060088054806109db577f4e487b7100000000000000000000000000000000000000000000000000000000600052603160045260246000fd5b600190038181906000526020600020016000905590557f5fbf03b0b0838391bce5038e7a3ba900984a3f4d2d9476980da3d4fce41bcc1881604051610a209190615e22565b60405180910390a150565b60608060608060603373ffffffffffffffffffffffffffffffffffffffff16600260009054906101000a900473ffffffffffffffffffffffffffffffffffffffff1673ffffffffffffffffffffffffffffffffffffffff1614610ac3576040517f08c379a0000000000000000000000000000000000000000000000000000000008152600401610aba90615ca2565b60405180910390fd5b6000806000808a90505b60078054905081108015610af65750898b610ae89190615f2b565b811080610af5575060008a145b5b15610ece5760078181548110610b35577f4e487b7100000000000000000000000000000000000000000000000000000000600052603260045260246000fd5b90600052602060002001549350600c600085815260200190815260200160002060009054906101000a900473ffffffffffffffffffffffffffffffffffffffff169150600e600085815260200190815260200160002054925083898281518110610bc8577f4e487b7100000000000000000000000000000000000000000000000000000000600052603260045260246000fd5b60200260200101818152505081888281518110610c0e577f4e487b7100000000000000000000000000000000000000000000000000000000600052603260045260246000fd5b602002602001019073ffffffffffffffffffffffffffffffffffffffff16908173ffffffffffffffffffffffffffffffffffffffff1681525050600b60008373ffffffffffffffffffffffffffffffffffffffff1673ffffffffffffffffffffffffffffffffffffffff1681526020019081526020016000206003018381548110610cc2577f4e487b7100000000000000000000000000000000000000000000000000000000600052603260045260246000fd5b906000526020600020906007020160010154878281518110610d0d577f4e487b7100000000000000000000000000000000000000000000000000000000600052603260045260246000fd5b602002602001018181525050600b60008373ffffffffffffffffffffffffffffffffffffffff1673ffffffffffffffffffffffffffffffffffffffff1681526020019081526020016000206003018381548110610d93577f4e487b7100000000000000000000000000000000000000000000000000000000600052603260045260246000fd5b906000526020600020906007020160020154868281518110610dde577f4e487b7100000000000000000000000000000000000000000000000000000000600052603260045260246000fd5b602002602001018181525050600b60008373ffffffffffffffffffffffffffffffffffffffff1673ffffffffffffffffffffffffffffffffffffffff1681526020019081526020016000206003018381548110610e64577f4e487b7100000000000000000000000000000000000000000000000000000000600052603260045260246000fd5b906000526020600020906007020160030154858281518110610eaf577f4e487b7100000000000000000000000000000000000000000000000000000000600052603260045260246000fd5b6020026020010181815250508080610ec6906160bb565b915050610acd565b505050509295509295909350565b600a60019054906101000a900460ff1681565b60608060008490505b60098054905081108015610f2157508385610f139190615f2b565b811080610f205750600084145b5b15611079576010600060098381548110610f64577f4e487b7100000000000000000000000000000000000000000000000000000000600052603260045260246000fd5b9060005260206000200154815260200190815260200160002060000154838281518110610fba577f4e487b7100000000000000000000000000000000000000000000000000000000600052603260045260246000fd5b6020026020010181815250506010600060098381548110611004577f4e487b7100000000000000000000000000000000000000000000000000000000600052603260045260246000fd5b906000526020600020015481526020019081526020016000206001015482828151811061105a577f4e487b7100000000000000000000000000000000000000000000000000000000600052603260045260246000fd5b6020026020010181815250508080611071906160bb565b915050610ef8565b509250929050565b80600b60003373ffffffffffffffffffffffffffffffffffffffff1673ffffffffffffffffffffffffffffffffffffffff168152602001908152602001600020600101541015611106576040517f08c379a00000000000000000000000000000000000000000000000000000000081526004016110fd90615da2565b60405180910390fd5b80600454101561114b576040517f08c379a000000000000000000000000000000000000000000000000000000000815260040161114290615d42565b60405180910390fd5b6111a081600b60003373ffffffffffffffffffffffffffffffffffffffff1673ffffffffffffffffffffffffffffffffffffffff1681526020019081526020016000206001015461517390919063ffffffff16565b600b60003373ffffffffffffffffffffffffffffffffffffffff1673ffffffffffffffffffffffffffffffffffffffff168152602001908152602001600020600101819055506111fb8160045461517390919063ffffffff16565b6004819055503373ffffffffffffffffffffffffffffffffffffffff166108fc829081150290604051600060405180830381858888f19350505050158015611247573d6000803e3d6000fd5b503373ffffffffffffffffffffffffffffffffffffffff167f884edad9ce6fa2440d8a54cc123490eb96d2768479d49ff9c7366125a94243648260405161128e9190615e22565b60405180910390a250565b3373ffffffffffffffffffffffffffffffffffffffff16600260009054906101000a900473ffffffffffffffffffffffffffffffffffffffff1673ffffffffffffffffffffffffffffffffffffffff1614611329576040517f08c379a000000000000000000000000000000000000000000000000000000000815260040161132090615ca2565b60405180910390fd5b6000600880549050428460405160200161134593929190615a95565b6040516020818303038152906040528051906020012060001c90506008819080600181540180825580915050600190039060005260206000200160009091909190915055604051806040016040528084815260200183815250600f600083815260200190815260200160002060008201518160000155602082015181600101559050506113e1600160088054905061517390919063ffffffff16565b60116000838152602001908152602001600020819055507f7e119130fab57aa1f7f6c422daa875057f82701b631a137460c685b55583eff781848460405161142b93929190615e66565b60405180910390a1505050565b60065481565b600a60009054906101000a900460ff1661148d576040517f08c379a000000000000000000000000000000000000000000000000000000000815260040161148490615c82565b60405180910390fd5b6114956151bd565b6114ea34600b60003373ffffffffffffffffffffffffffffffffffffffff1673ffffffffffffffffffffffffffffffffffffffff1681526020019081526020016000206002015461530990919063ffffffff16565b600b60003373ffffffffffffffffffffffffffffffffffffffff1673ffffffffffffffffffffffffffffffffffffffff168152602001908152602001600020600201819055506000600b60003373ffffffffffffffffffffffffffffffffffffffff1673ffffffffffffffffffffffffffffffffffffffff16815260200190815260200160002060040180549050423360405160200161158c93929190615a58565b6040516020818303038152906040528051906020012060001c9050600b60003373ffffffffffffffffffffffffffffffffffffffff1673ffffffffffffffffffffffffffffffffffffffff1681526020019081526020016000206004016040518060a00160405280838152602001348152602001600f6000868152602001908152602001600020600001548152602001600f600086815260200190815260200160002060010154815260200161167661166762015180600f60008981526020019081526020016000206000015461536790919063ffffffff16565b4261530990919063ffffffff16565b8152509080600181540180825580915050600190039060005260206000209060050201600090919091909150600082015181600001556020820151816001015560408201518160020155606082015181600301556080820151816004015550506116eb3460045461530990919063ffffffff16565b6004819055506117063460065461530990919063ffffffff16565b600681905550807fa123d26d0d55f5bf1072b31ac2df8ba9e7da00dbb95088f2e2df528a2bbf909533348560405161174093929190615b3f565b60405180910390a25050565b60106020528060005260406000206000915090508060000154908060010154905082565b600060038111156117aa577f4e487b7100000000000000000000000000000000000000000000000000000000600052602160045260246000fd5b600b60003373ffffffffffffffffffffffffffffffffffffffff1673ffffffffffffffffffffffffffffffffffffffff168152602001908152602001600020600301600e60008481526020019081526020016000205481548110611837577f4e487b7100000000000000000000000000000000000000000000000000000000600052603260045260246000fd5b906000526020600020906007020160060160009054906101000a900460ff16600381111561188e577f4e487b7100000000000000000000000000000000000000000000000000000000600052602160045260246000fd5b146118ce576040517f08c379a00000000000000000000000000000000000000000000000000000000081526004016118c590615dc2565b60405180910390fd5b600d600082815260200190815260200160002054600d60006007611901600160078054905061517390919063ffffffff16565b81548110611938577f4e487b7100000000000000000000000000000000000000000000000000000000600052603260045260246000fd5b90600052602060002001548152602001908152602001600020819055506007611970600160078054905061517390919063ffffffff16565b815481106119a7577f4e487b7100000000000000000000000000000000000000000000000000000000600052603260045260246000fd5b90600052602060002001546007600d600084815260200190815260200160002054815481106119ff577f4e487b7100000000000000000000000000000000000000000000000000000000600052603260045260246000fd5b90600052602060002001819055506007805480611a45577f4e487b7100000000000000000000000000000000000000000000000000000000600052603160045260246000fd5b600190038181906000526020600020016000905590556000600b60003373ffffffffffffffffffffffffffffffffffffffff1673ffffffffffffffffffffffffffffffffffffffff168152602001908152602001600020600301805490509050600b60003373ffffffffffffffffffffffffffffffffffffffff1673ffffffffffffffffffffffffffffffffffffffff168152602001908152602001600020600301611afb60018361517390919063ffffffff16565b81548110611b32577f4e487b7100000000000000000000000000000000000000000000000000000000600052603260045260246000fd5b9060005260206000209060070201600b60003373ffffffffffffffffffffffffffffffffffffffff1673ffffffffffffffffffffffffffffffffffffffff168152602001908152602001600020600301600e60008581526020019081526020016000205481548110611bcd577f4e487b7100000000000000000000000000000000000000000000000000000000600052603260045260246000fd5b90600052602060002090600702016000820154816000015560018201548160010155600282015481600201556003820154816003015560048201548160040155600582015481600501556006820160009054906101000a900460ff168160060160006101000a81548160ff02191690836003811115611c75577f4e487b7100000000000000000000000000000000000000000000000000000000600052602160045260246000fd5b0217905550905050600b60003373ffffffffffffffffffffffffffffffffffffffff1673ffffffffffffffffffffffffffffffffffffffff168152602001908152602001600020600301805480611cf5577f4e487b7100000000000000000000000000000000000000000000000000000000600052603160045260246000fd5b6001900381819060005260206000209060070201600080820160009055600182016000905560028201600090556003820160009055600482016000905560058201600090556006820160006101000a81549060ff021916905550509055817fb8c46d7a9085898800a987ac9416359765dea360d380829245ee1356cb45407133604051611d829190615ad2565b60405180910390a25050565b42600b60003373ffffffffffffffffffffffffffffffffffffffff1673ffffffffffffffffffffffffffffffffffffffff1681526020019081526020016000206004018281548110611e09577f4e487b7100000000000000000000000000000000000000000000000000000000600052603260045260246000fd5b90600052602060002090600502016004015410611e2e57611e29816130d5565b612573565b6000600b60003373ffffffffffffffffffffffffffffffffffffffff1673ffffffffffffffffffffffffffffffffffffffff168152602001908152602001600020600401805490509050808210611eba576040517f08c379a0000000000000000000000000000000000000000000000000000000008152600401611eb190615de2565b60405180910390fd5b6000600b60003373ffffffffffffffffffffffffffffffffffffffff1673ffffffffffffffffffffffffffffffffffffffff1681526020019081526020016000206004018381548110611f36577f4e487b7100000000000000000000000000000000000000000000000000000000600052603260045260246000fd5b90600052602060002090600502016003015490506000611fff62015180611ff142600b60003373ffffffffffffffffffffffffffffffffffffffff1673ffffffffffffffffffffffffffffffffffffffff1681526020019081526020016000206004018881548110611fd1577f4e487b7100000000000000000000000000000000000000000000000000000000600052603260045260246000fd5b90600052602060002090600502016004015461517390919063ffffffff16565b6153e290919063ffffffff16565b90506000600b60003373ffffffffffffffffffffffffffffffffffffffff1673ffffffffffffffffffffffffffffffffffffffff168152602001908152602001600020600401858154811061207d577f4e487b7100000000000000000000000000000000000000000000000000000000600052603260045260246000fd5b906000526020600020906005020160010154905060006120cd61016d6120bf866120b16064876153e290919063ffffffff16565b61536790919063ffffffff16565b6153e290919063ffffffff16565b90506120e2838261536790919063ffffffff16565b90506120f7818361530990919063ffffffff16565b915061213261212360056121156064856153e290919063ffffffff16565b61536790919063ffffffff16565b8361517390919063ffffffff16565b9150816004541015612179576040517f08c379a000000000000000000000000000000000000000000000000000000000815260040161217090615d02565b60405180910390fd5b6121ce82600b60003373ffffffffffffffffffffffffffffffffffffffff1673ffffffffffffffffffffffffffffffffffffffff1681526020019081526020016000206002015461517390919063ffffffff16565b600b60003373ffffffffffffffffffffffffffffffffffffffff1673ffffffffffffffffffffffffffffffffffffffff168152602001908152602001600020600201819055506122298260045461517390919063ffffffff16565b6004819055506122448260065461517390919063ffffffff16565b6006819055506000600b60003373ffffffffffffffffffffffffffffffffffffffff1673ffffffffffffffffffffffffffffffffffffffff16815260200190815260200160002060040187815481106122c6577f4e487b7100000000000000000000000000000000000000000000000000000000600052603260045260246000fd5b9060005260206000209060050201600001549050600b60003373ffffffffffffffffffffffffffffffffffffffff1673ffffffffffffffffffffffffffffffffffffffff16815260200190815260200160002060040161233060018861517390919063ffffffff16565b81548110612367577f4e487b7100000000000000000000000000000000000000000000000000000000600052603260045260246000fd5b9060005260206000209060050201600b60003373ffffffffffffffffffffffffffffffffffffffff1673ffffffffffffffffffffffffffffffffffffffff16815260200190815260200160002060040188815481106123ef577f4e487b7100000000000000000000000000000000000000000000000000000000600052603260045260246000fd5b90600052602060002090600502016000820154816000015560018201548160010155600282015481600201556003820154816003015560048201548160040155905050600b60003373ffffffffffffffffffffffffffffffffffffffff1673ffffffffffffffffffffffffffffffffffffffff1681526020019081526020016000206004018054806124aa577f4e487b7100000000000000000000000000000000000000000000000000000000600052603160045260246000fd5b60019003818190600052602060002090600502016000808201600090556001820160009055600282016000905560038201600090556004820160009055505090553373ffffffffffffffffffffffffffffffffffffffff166108fc849081150290604051600060405180830381858888f19350505050158015612531573d6000803e3d6000fd5b50807fff75e181e68c7bca3b737ffb2e8c1a1eb457f80910b791dcaf80d81f90131a143385604051612564929190615b16565b60405180910390a25050505050505b50565b61257e612ce0565b61258757600080fd5b600073ffffffffffffffffffffffffffffffffffffffff1660008054906101000a900473ffffffffffffffffffffffffffffffffffffffff1673ffffffffffffffffffffffffffffffffffffffff167f8be0079c531659141344cd1fd0a4f28419497f9722a3daafe3b4186f6b6457e060405160405180910390a360008060006101000a81548173ffffffffffffffffffffffffffffffffffffffff021916908373ffffffffffffffffffffffffffffffffffffffff160217905550565b3373ffffffffffffffffffffffffffffffffffffffff16600260009054906101000a900473ffffffffffffffffffffffffffffffffffffffff1673ffffffffffffffffffffffffffffffffffffffff16146126d5576040517f08c379a00000000000000000000000000000000000000000000000000000000081526004016126cc90615ca2565b60405180910390fd5b6000600c600084815260200190815260200160002060009054906101000a900473ffffffffffffffffffffffffffffffffffffffff1690506000600e60008581526020019081526020016000205490506000600b60008473ffffffffffffffffffffffffffffffffffffffff1673ffffffffffffffffffffffffffffffffffffffff16815260200190815260200160002060030182815481106127a1577f4e487b7100000000000000000000000000000000000000000000000000000000600052603260045260246000fd5b90600052602060002090600702016001015490508315612a8f57600354816004546127cc919061600c565b1161280c576040517f08c379a000000000000000000000000000000000000000000000000000000000815260040161280390615da2565b60405180910390fd5b6128bf6128b062015180600b60008773ffffffffffffffffffffffffffffffffffffffff1673ffffffffffffffffffffffffffffffffffffffff1681526020019081526020016000206003018581548110612890577f4e487b7100000000000000000000000000000000000000000000000000000000600052603260045260246000fd5b90600052602060002090600702016002015461536790919063ffffffff16565b4261530990919063ffffffff16565b600b60008573ffffffffffffffffffffffffffffffffffffffff1673ffffffffffffffffffffffffffffffffffffffff1681526020019081526020016000206003018381548110612939577f4e487b7100000000000000000000000000000000000000000000000000000000600052603260045260246000fd5b9060005260206000209060070201600401819055506001600b60008573ffffffffffffffffffffffffffffffffffffffff1673ffffffffffffffffffffffffffffffffffffffff16815260200190815260200160002060030183815481106129ca577f4e487b7100000000000000000000000000000000000000000000000000000000600052603260045260246000fd5b906000526020600020906007020160060160006101000a81548160ff02191690836003811115612a23577f4e487b7100000000000000000000000000000000000000000000000000000000600052602160045260246000fd5b02179055508273ffffffffffffffffffffffffffffffffffffffff166108fc829081150290604051600060405180830381858888f19350505050158015612a6e573d6000803e3d6000fd5b50612a848160045461517390919063ffffffff16565b600481905550612b6a565b6002600b60008573ffffffffffffffffffffffffffffffffffffffff1673ffffffffffffffffffffffffffffffffffffffff1681526020019081526020016000206003018381548110612b0b577f4e487b7100000000000000000000000000000000000000000000000000000000600052603260045260246000fd5b906000526020600020906007020160060160006101000a81548160ff02191690836003811115612b64577f4e487b7100000000000000000000000000000000000000000000000000000000600052602160045260246000fd5b02179055505b6007612b85600160078054905061517390919063ffffffff16565b81548110612bbc577f4e487b7100000000000000000000000000000000000000000000000000000000600052603260045260246000fd5b90600052602060002001546007600d60008881526020019081526020016000205481548110612c14577f4e487b7100000000000000000000000000000000000000000000000000000000600052603260045260246000fd5b90600052602060002001819055506007805480612c5a577f4e487b7100000000000000000000000000000000000000000000000000000000600052603160045260246000fd5b60019003818190600052602060002001600090559055847f7aaeba210f793a9180a7d04cbaa4338ec277e58454aaa2545314841e1b4d2d7f8486604051612ca2929190615aed565b60405180910390a25050505050565b60045481565b60008060009054906101000a900473ffffffffffffffffffffffffffffffffffffffff16905090565b60008060009054906101000a900473ffffffffffffffffffffffffffffffffffffffff1673ffffffffffffffffffffffffffffffffffffffff163373ffffffffffffffffffffffffffffffffffffffff1614905090565b60116020528060005260406000206000915090505481565b3373ffffffffffffffffffffffffffffffffffffffff16600260009054906101000a900473ffffffffffffffffffffffffffffffffffffffff1673ffffffffffffffffffffffffffffffffffffffff1614612ddf576040517f08c379a0000000000000000000000000000000000000000000000000000000008152600401612dd690615ca2565b60405180910390fd5b6009612dfa600160098054905061517390919063ffffffff16565b81548110612e31577f4e487b7100000000000000000000000000000000000000000000000000000000600052603260045260246000fd5b90600052602060002001546009601160008481526020019081526020016000205481548110612e89577f4e487b7100000000000000000000000000000000000000000000000000000000600052603260045260246000fd5b90600052602060002001819055506009805480612ecf577f4e487b7100000000000000000000000000000000000000000000000000000000600052603160045260246000fd5b600190038181906000526020600020016000905590557f60aad2455364b944d1a72a42bb88a32a65314ea7d27e873df76920e1ad7311c881604051612f149190615e22565b60405180910390a150565b60608060008490505b60088054905081108015612f5157508385612f439190615f2b565b811080612f505750600084145b5b156130a957600f600060088381548110612f94577f4e487b7100000000000000000000000000000000000000000000000000000000600052603260045260246000fd5b9060005260206000200154815260200190815260200160002060000154838281518110612fea577f4e487b7100000000000000000000000000000000000000000000000000000000600052603260045260246000fd5b602002602001018181525050600f600060088381548110613034577f4e487b7100000000000000000000000000000000000000000000000000000000600052603260045260246000fd5b906000526020600020015481526020019081526020016000206001015482828151811061308a577f4e487b7100000000000000000000000000000000000000000000000000000000600052603260045260246000fd5b60200260200101818152505080806130a1906160bb565b915050612f28565b509250929050565b600981815481106130c157600080fd5b906000526020600020016000915090505481565b6000600b60003373ffffffffffffffffffffffffffffffffffffffff1673ffffffffffffffffffffffffffffffffffffffff168152602001908152602001600020600401805490509050808210613161576040517f08c379a000000000000000000000000000000000000000000000000000000000815260040161315890615de2565b60405180910390fd5b42600b60003373ffffffffffffffffffffffffffffffffffffffff1673ffffffffffffffffffffffffffffffffffffffff16815260200190815260200160002060040183815481106131dc577f4e487b7100000000000000000000000000000000000000000000000000000000600052603260045260246000fd5b906000526020600020906005020160040154101561322f576040517f08c379a000000000000000000000000000000000000000000000000000000000815260040161322690615e02565b60405180910390fd5b6000600b60003373ffffffffffffffffffffffffffffffffffffffff1673ffffffffffffffffffffffffffffffffffffffff16815260200190815260200160002060040183815481106132ab577f4e487b7100000000000000000000000000000000000000000000000000000000600052603260045260246000fd5b9060005260206000209060050201600301549050600061341161337762015180613369600b60003373ffffffffffffffffffffffffffffffffffffffff1673ffffffffffffffffffffffffffffffffffffffff1681526020019081526020016000206004018881548110613348577f4e487b7100000000000000000000000000000000000000000000000000000000600052603260045260246000fd5b9060005260206000209060050201600401544261517390919063ffffffff16565b6153e290919063ffffffff16565b600b60003373ffffffffffffffffffffffffffffffffffffffff1673ffffffffffffffffffffffffffffffffffffffff16815260200190815260200160002060040186815481106133f1577f4e487b7100000000000000000000000000000000000000000000000000000000600052603260045260246000fd5b90600052602060002090600502016002015461530990919063ffffffff16565b90506000600b60003373ffffffffffffffffffffffffffffffffffffffff1673ffffffffffffffffffffffffffffffffffffffff168152602001908152602001600020600401858154811061348f577f4e487b7100000000000000000000000000000000000000000000000000000000600052603260045260246000fd5b906000526020600020906005020160010154905060006134df61016d6134d1866134c36064876153e290919063ffffffff16565b61536790919063ffffffff16565b6153e290919063ffffffff16565b90506134f4838261536790919063ffffffff16565b9050613509818361530990919063ffffffff16565b91506000600b60003373ffffffffffffffffffffffffffffffffffffffff1673ffffffffffffffffffffffffffffffffffffffff1681526020019081526020016000206004018781548110613587577f4e487b7100000000000000000000000000000000000000000000000000000000600052603260045260246000fd5b90600052602060002090600502016000015490508260045410156135e0576040517f08c379a00000000000000000000000000000000000000000000000000000000081526004016135d790615d02565b60405180910390fd5b61363583600b60003373ffffffffffffffffffffffffffffffffffffffff1673ffffffffffffffffffffffffffffffffffffffff1681526020019081526020016000206002015461517390919063ffffffff16565b600b60003373ffffffffffffffffffffffffffffffffffffffff1673ffffffffffffffffffffffffffffffffffffffff168152602001908152602001600020600201819055506136908360045461517390919063ffffffff16565b6004819055506136ab8360065461517390919063ffffffff16565b600681905550600b60003373ffffffffffffffffffffffffffffffffffffffff1673ffffffffffffffffffffffffffffffffffffffff16815260200190815260200160002060040161370760018861517390919063ffffffff16565b8154811061373e577f4e487b7100000000000000000000000000000000000000000000000000000000600052603260045260246000fd5b9060005260206000209060050201600b60003373ffffffffffffffffffffffffffffffffffffffff1673ffffffffffffffffffffffffffffffffffffffff16815260200190815260200160002060040188815481106137c6577f4e487b7100000000000000000000000000000000000000000000000000000000600052603260045260246000fd5b90600052602060002090600502016000820154816000015560018201548160010155600282015481600201556003820154816003015560048201548160040155905050600b60003373ffffffffffffffffffffffffffffffffffffffff1673ffffffffffffffffffffffffffffffffffffffff168152602001908152602001600020600401805480613881577f4e487b7100000000000000000000000000000000000000000000000000000000600052603160045260246000fd5b60019003818190600052602060002090600502016000808201600090556001820160009055600282016000905560038201600090556004820160009055505090553373ffffffffffffffffffffffffffffffffffffffff166108fc849081150290604051600060405180830381858888f19350505050158015613908573d6000803e3d6000fd5b50807ffd064f8a401a58afd87a45b07127ca97644f02168c9052380316c4cadea57cf7338560405161393b929190615b16565b60405180910390a250505050505050565b60126020528060005260406000206000915090505481565b600a60019054906101000a900460ff166139b3576040517f08c379a00000000000000000000000000000000000000000000000000000000081526004016139aa90615ce2565b60405180910390fd5b6139bb6151bd565b6000600b60003373ffffffffffffffffffffffffffffffffffffffff1673ffffffffffffffffffffffffffffffffffffffff168152602001908152602001600020600301805490504233604051602001613a1793929190615a58565b6040516020818303038152906040528051906020012060001c90506000613abe613aaf6010600086815260200190815260200160002060000154613aa161016d613a93601060008a815260200190815260200160002060010154613a8560648c6153e290919063ffffffff16565b61536790919063ffffffff16565b6153e290919063ffffffff16565b61536790919063ffffffff16565b8561530990919063ffffffff16565b9050600b60003373ffffffffffffffffffffffffffffffffffffffff1673ffffffffffffffffffffffffffffffffffffffff1681526020019081526020016000206003016040518060e0016040528084815260200186815260200160106000878152602001908152602001600020600001548152602001601060008781526020019081526020016000206001015481526020016000815260200183815260200160006003811115613b98577f4e487b7100000000000000000000000000000000000000000000000000000000600052602160045260246000fd5b8152509080600181540180825580915050600190039060005260206000209060070201600090919091909150600082015181600001556020820151816001015560408201518160020155606082015181600301556080820151816004015560a0820151816005015560c08201518160060160006101000a81548160ff02191690836003811115613c51577f4e487b7100000000000000000000000000000000000000000000000000000000600052602160045260246000fd5b02179055505050613cb16001600b60003373ffffffffffffffffffffffffffffffffffffffff1673ffffffffffffffffffffffffffffffffffffffff1681526020019081526020016000206003018054905061517390919063ffffffff16565b600e60008481526020019081526020016000208190555033600c600084815260200190815260200160002060006101000a81548173ffffffffffffffffffffffffffffffffffffffff021916908373ffffffffffffffffffffffffffffffffffffffff1602179055506007829080600181540180825580915050600190039060005260206000200160009091909190915055613d5c600160078054905061517390919063ffffffff16565b600d600084815260200190815260200160002081905550817f6c5b635903e300a53470ec4c5153e85ef116217101a53c0d74b0aecb37da65d7338686604051613da793929190615b3f565b60405180910390a250505050565b60003490506000600b60003373ffffffffffffffffffffffffffffffffffffffff1673ffffffffffffffffffffffffffffffffffffffff168152602001908152602001600020600301805490509050808310613e46576040517f08c379a0000000000000000000000000000000000000000000000000000000008152600401613e3d90615de2565b60405180910390fd5b42600b60003373ffffffffffffffffffffffffffffffffffffffff1673ffffffffffffffffffffffffffffffffffffffff1681526020019081526020016000206003018481548110613ec1577f4e487b7100000000000000000000000000000000000000000000000000000000600052603260045260246000fd5b9060005260206000209060070201600401541061407a576003600b60003373ffffffffffffffffffffffffffffffffffffffff1673ffffffffffffffffffffffffffffffffffffffff1681526020019081526020016000206003018481548110613f54577f4e487b7100000000000000000000000000000000000000000000000000000000600052603260045260246000fd5b906000526020600020906007020160060160006101000a81548160ff02191690836003811115613fad577f4e487b7100000000000000000000000000000000000000000000000000000000600052602160045260246000fd5b0217905550600b60003373ffffffffffffffffffffffffffffffffffffffff1673ffffffffffffffffffffffffffffffffffffffff168152602001908152602001600020600301838154811061402c577f4e487b7100000000000000000000000000000000000000000000000000000000600052603260045260246000fd5b9060005260206000209060070201600001547f89753c7b58bfc293194132c57d8fc1ac6a4d453b350c9bca28cc88c8903665003360405161406d9190615ad2565b60405180910390a26148eb565b6000600b60003373ffffffffffffffffffffffffffffffffffffffff1673ffffffffffffffffffffffffffffffffffffffff16815260200190815260200160002060030184815481106140f6577f4e487b7100000000000000000000000000000000000000000000000000000000600052603260045260246000fd5b90600052602060002090600702016005015490508083111561414d576040517f08c379a000000000000000000000000000000000000000000000000000000000815260040161414490615d82565b60405180910390fd5b6141eb83600b60003373ffffffffffffffffffffffffffffffffffffffff1673ffffffffffffffffffffffffffffffffffffffff16815260200190815260200160002060030186815481106141cb577f4e487b7100000000000000000000000000000000000000000000000000000000600052603260045260246000fd5b90600052602060002090600702016005015461517390919063ffffffff16565b600b60003373ffffffffffffffffffffffffffffffffffffffff1673ffffffffffffffffffffffffffffffffffffffff1681526020019081526020016000206003018581548110614265577f4e487b7100000000000000000000000000000000000000000000000000000000600052603260045260246000fd5b90600052602060002090600702016005018190555061428f8360045461530990919063ffffffff16565b6004819055506000600b60003373ffffffffffffffffffffffffffffffffffffffff1673ffffffffffffffffffffffffffffffffffffffff1681526020019081526020016000206003018581548110614311577f4e487b7100000000000000000000000000000000000000000000000000000000600052603260045260246000fd5b906000526020600020906007020160050154141561482457600b60003373ffffffffffffffffffffffffffffffffffffffff1673ffffffffffffffffffffffffffffffffffffffff16815260200190815260200160002060030184815481106143a3577f4e487b7100000000000000000000000000000000000000000000000000000000600052603260045260246000fd5b9060005260206000209060070201600001547f19fac8cdcd0bcf1377b5f3516205a8db06089e32e286f2a98bfe4889de35b832336040516143e49190615ad2565b60405180910390a26000614550600a6145426064614534600b60003373ffffffffffffffffffffffffffffffffffffffff1673ffffffffffffffffffffffffffffffffffffffff1681526020019081526020016000206003018a81548110614475577f4e487b7100000000000000000000000000000000000000000000000000000000600052603260045260246000fd5b9060005260206000209060070201600301546145266064600b60003373ffffffffffffffffffffffffffffffffffffffff1673ffffffffffffffffffffffffffffffffffffffff1681526020019081526020016000206003018d81548110614506577f4e487b7100000000000000000000000000000000000000000000000000000000600052603260045260246000fd5b9060005260206000209060070201600101546153e290919063ffffffff16565b61536790919063ffffffff16565b6153e290919063ffffffff16565b61536790919063ffffffff16565b90506145678160055461530990919063ffffffff16565b6005819055506145828160045461517390919063ffffffff16565b600481905550600b60003373ffffffffffffffffffffffffffffffffffffffff1673ffffffffffffffffffffffffffffffffffffffff1681526020019081526020016000206003016145de60018561517390919063ffffffff16565b81548110614615577f4e487b7100000000000000000000000000000000000000000000000000000000600052603260045260246000fd5b9060005260206000209060070201600b60003373ffffffffffffffffffffffffffffffffffffffff1673ffffffffffffffffffffffffffffffffffffffff168152602001908152602001600020600301868154811061469d577f4e487b7100000000000000000000000000000000000000000000000000000000600052603260045260246000fd5b90600052602060002090600702016000820154816000015560018201548160010155600282015481600201556003820154816003015560048201548160040155600582015481600501556006820160009054906101000a900460ff168160060160006101000a81548160ff02191690836003811115614745577f4e487b7100000000000000000000000000000000000000000000000000000000600052602160045260246000fd5b0217905550905050600b60003373ffffffffffffffffffffffffffffffffffffffff1673ffffffffffffffffffffffffffffffffffffffff1681526020019081526020016000206003018054806147c5577f4e487b7100000000000000000000000000000000000000000000000000000000600052603160045260246000fd5b6001900381819060005260206000209060070201600080820160009055600182016000905560028201600090556003820160009055600482016000905560058201600090556006820160006101000a81549060ff021916905550509055505b600b60003373ffffffffffffffffffffffffffffffffffffffff1673ffffffffffffffffffffffffffffffffffffffff168152602001908152602001600020600301848154811061489e577f4e487b7100000000000000000000000000000000000000000000000000000000600052603260045260246000fd5b9060005260206000209060070201600001547f56f4bd331ad656b18a885f48e538fa57df28aaa74314d9ed1f7a4db564d4fbe133856040516148e1929190615b16565b60405180910390a2505b505050565b6148f8612ce0565b61490157600080fd5b6149168160035461530990919063ffffffff16565b6003819055507fcd27308a347486a5c5d40f1a851c65e2ee84b53c4644d06fd342b059f9eb29fd60035460405161494d9190615e22565b60405180910390a150565b600260009054906101000a900473ffffffffffffffffffffffffffffffffffffffff1681565b600a60009054906101000a900460ff166149cd576040517f08c379a00000000000000000000000000000000000000000000000000000000081526004016149c490615c82565b60405180910390fd5b6149d56151bd565b614a2a34600b60003373ffffffffffffffffffffffffffffffffffffffff1673ffffffffffffffffffffffffffffffffffffffff1681526020019081526020016000206001015461530990919063ffffffff16565b600b60003373ffffffffffffffffffffffffffffffffffffffff1673ffffffffffffffffffffffffffffffffffffffff16815260200190815260200160002060010181905550614a853460045461530990919063ffffffff16565b6004819055503373ffffffffffffffffffffffffffffffffffffffff167fe1fffcc4923d04b559f4d29a8bfc6cda04eb5b0d3c460751c2402c5c5cc9109c34604051614ad19190615e22565b60405180910390a2565b614ae3612ce0565b614aec57600080fd5b80600260006101000a81548173ffffffffffffffffffffffffffffffffffffffff021916908373ffffffffffffffffffffffffffffffffffffffff1602179055507f54a6385aa0292b04e1ef8513253c17d1863f7cdfc87029d77fd55cc4c2e717e281604051614b5c9190615ad2565b60405180910390a150565b60088181548110614b7757600080fd5b906000526020600020016000915090505481565b600a60009054906101000a900460ff1681565b600a81565b60603373ffffffffffffffffffffffffffffffffffffffff16600260009054906101000a900473ffffffffffffffffffffffffffffffffffffffff1673ffffffffffffffffffffffffffffffffffffffff1614614c35576040517f08c379a0000000000000000000000000000000000000000000000000000000008152600401614c2c90615ca2565b60405180910390fd5b6001805480602002602001604051908101604052809291908181526020018280548015614cb757602002820191906000526020600020905b8160009054906101000a900473ffffffffffffffffffffffffffffffffffffffff1673ffffffffffffffffffffffffffffffffffffffff1681526020019060010190808311614c6d575b5050505050905090565b614cc9612ce0565b614cd257600080fd5b614cdb8161542c565b50565b3373ffffffffffffffffffffffffffffffffffffffff16600260009054906101000a900473ffffffffffffffffffffffffffffffffffffffff1673ffffffffffffffffffffffffffffffffffffffff1614614d6e576040517f08c379a0000000000000000000000000000000000000000000000000000000008152600401614d6590615ca2565b60405180910390fd5b6000600c600083815260200190815260200160002060009054906101000a900473ffffffffffffffffffffffffffffffffffffffff16905042600b60008373ffffffffffffffffffffffffffffffffffffffff1673ffffffffffffffffffffffffffffffffffffffff168152602001908152602001600020600301600e60008581526020019081526020016000205481548110614e34577f4e487b7100000000000000000000000000000000000000000000000000000000600052603260045260246000fd5b9060005260206000209060070201600401541115614e87576040517f08c379a0000000000000000000000000000000000000000000000000000000008152600401614e7e90615d62565b60405180910390fd5b6003600b60008373ffffffffffffffffffffffffffffffffffffffff1673ffffffffffffffffffffffffffffffffffffffff168152602001908152602001600020600301600e60008581526020019081526020016000205481548110614f16577f4e487b7100000000000000000000000000000000000000000000000000000000600052603260045260246000fd5b906000526020600020906007020160060160006101000a81548160ff02191690836003811115614f6f577f4e487b7100000000000000000000000000000000000000000000000000000000600052602160045260246000fd5b0217905550817f89753c7b58bfc293194132c57d8fc1ac6a4d453b350c9bca28cc88c89036650082604051614fa49190615ad2565b60405180910390a25050565b3373ffffffffffffffffffffffffffffffffffffffff16600260009054906101000a900473ffffffffffffffffffffffffffffffffffffffff1673ffffffffffffffffffffffffffffffffffffffff1614615040576040517f08c379a000000000000000000000000000000000000000000000000000000000815260040161503790615ca2565b60405180910390fd5b6000600980549050428460405160200161505c93929190615a95565b6040516020818303038152906040528051906020012060001c905060098190806001815401808255809150506001900390600052602060002001600090919091909150556040518060400160405280848152602001838152506010600083815260200190815260200160002060008201518160000155602082015181600101559050506150f8600160098054905061517390919063ffffffff16565b60126000838152602001908152602001600020819055507fe57b5a3f90a02eb83b7ca7f3546fc090127f0eab09a224edc9f64ccd4b18b1c581848460405161514293929190615e66565b60405180910390a1505050565b600f6020528060005260406000206000915090508060000154908060010154905082565b60006151b583836040518060400160405280601e81526020017f536166654d6174683a207375627472616374696f6e206f766572666c6f770000815250615523565b905092915050565b600b60003373ffffffffffffffffffffffffffffffffffffffff1673ffffffffffffffffffffffffffffffffffffffff16815260200190815260200160002060000160009054906101000a900460ff16615307576001600b60003373ffffffffffffffffffffffffffffffffffffffff1673ffffffffffffffffffffffffffffffffffffffff16815260200190815260200160002060000160006101000a81548160ff0219169083151502179055506001339080600181540180825580915050600190039060005260206000200160009091909190916101000a81548173ffffffffffffffffffffffffffffffffffffffff021916908373ffffffffffffffffffffffffffffffffffffffff1602179055507f2921fdc6b33de0e91685031b6c5b9958c91317946af501315b29f1ec45778249336040516152fe9190615ad2565b60405180910390a15b565b60008082846153189190615f2b565b90508381101561535d576040517f08c379a000000000000000000000000000000000000000000000000000000000815260040161535490615cc2565b60405180910390fd5b8091505092915050565b60008083141561537a57600090506153dc565b600082846153889190615fb2565b90508284826153979190615f81565b146153d7576040517f08c379a00000000000000000000000000000000000000000000000000000000081526004016153ce90615d22565b60405180910390fd5b809150505b92915050565b600061542483836040518060400160405280601a81526020017f536166654d6174683a206469766973696f6e206279207a65726f000000000000815250615587565b905092915050565b600073ffffffffffffffffffffffffffffffffffffffff168173ffffffffffffffffffffffffffffffffffffffff16141561546657600080fd5b8073ffffffffffffffffffffffffffffffffffffffff1660008054906101000a900473ffffffffffffffffffffffffffffffffffffffff1673ffffffffffffffffffffffffffffffffffffffff167f8be0079c531659141344cd1fd0a4f28419497f9722a3daafe3b4186f6b6457e060405160405180910390a3806000806101000a81548173ffffffffffffffffffffffffffffffffffffffff021916908373ffffffffffffffffffffffffffffffffffffffff16021790555050565b600083831115829061556b576040517f08c379a00000000000000000000000000000000000000000000000000000000081526004016155629190615c60565b60405180910390fd5b506000838561557a919061600c565b9050809150509392505050565b600080831182906155ce576040517f08c379a00000000000000000000000000000000000000000000000000000000081526004016155c59190615c60565b60405180910390fd5b50600083856155dd9190615f81565b9050809150509392505050565b6000813590506155f98161645b565b92915050565b60008135905061560e81616472565b92915050565b60008135905061562381616489565b92915050565b60006020828403121561563b57600080fd5b6000615649848285016155ea565b91505092915050565b60006020828403121561566457600080fd5b600061567284828501615614565b91505092915050565b6000806040838503121561568e57600080fd5b600061569c85828601615614565b92505060206156ad858286016155ff565b9150509250929050565b600080604083850312156156ca57600080fd5b60006156d885828601615614565b92505060206156e985828601615614565b9150509250929050565b60006156ff8383615723565b60208301905092915050565b60006157178383615a23565b60208301905092915050565b61572c81616040565b82525050565b61573b81616040565b82525050565b61575261574d82616040565b616104565b82525050565b600061576382615ebd565b61576d8185615ef8565b935061577883615e9d565b8060005b838110156157a957815161579088826156f3565b975061579b83615ede565b92505060018101905061577c565b5085935050505092915050565b60006157c182615ec8565b6157cb8185615f09565b93506157d683615ead565b8060005b838110156158075781516157ee888261570b565b97506157f983615eeb565b9250506001810190506157da565b5085935050505092915050565b61581d81616052565b82525050565b600061582e82615ed3565b6158388185615f1a565b9350615848818560208601616088565b61585181616190565b840191505092915050565b6000615869602183615f1a565b9150615874826161ae565b604082019050919050565b600061588c602183615f1a565b9150615897826161fd565b604082019050919050565b60006158af601b83615f1a565b91506158ba8261624c565b602082019050919050565b60006158d2601183615f1a565b91506158dd82616275565b602082019050919050565b60006158f5602083615f1a565b91506159008261629e565b602082019050919050565b6000615918602183615f1a565b9150615923826162c7565b604082019050919050565b600061593b601d83615f1a565b915061594682616316565b602082019050919050565b600061595e601883615f1a565b91506159698261633f565b602082019050919050565b6000615981600e83615f1a565b915061598c82616368565b602082019050919050565b60006159a4601483615f1a565b91506159af82616391565b602082019050919050565b60006159c7601083615f1a565b91506159d2826163ba565b602082019050919050565b60006159ea600e83615f1a565b91506159f5826163e3565b602082019050919050565b6000615a0d602183615f1a565b9150615a188261640c565b604082019050919050565b615a2c8161607e565b82525050565b615a3b8161607e565b82525050565b615a52615a4d8261607e565b616128565b82525050565b6000615a648286615a41565b602082019150615a748285615a41565b602082019150615a848284615741565b601482019150819050949350505050565b6000615aa18286615a41565b602082019150615ab18285615a41565b602082019150615ac18284615a41565b602082019150819050949350505050565b6000602082019050615ae76000830184615732565b92915050565b6000604082019050615b026000830185615732565b615b0f6020830184615814565b9392505050565b6000604082019050615b2b6000830185615732565b615b386020830184615a32565b9392505050565b6000606082019050615b546000830186615732565b615b616020830185615a32565b615b6e6040830184615a32565b949350505050565b60006020820190508181036000830152615b908184615758565b905092915050565b600060a0820190508181036000830152615bb281886157b6565b90508181036020830152615bc68187615758565b90508181036040830152615bda81866157b6565b90508181036060830152615bee81856157b6565b90508181036080830152615c0281846157b6565b90509695505050505050565b60006040820190508181036000830152615c2881856157b6565b90508181036020830152615c3c81846157b6565b90509392505050565b6000602082019050615c5a6000830184615814565b92915050565b60006020820190508181036000830152615c7a8184615823565b905092915050565b60006020820190508181036000830152615c9b8161585c565b9050919050565b60006020820190508181036000830152615cbb8161587f565b9050919050565b60006020820190508181036000830152615cdb816158a2565b9050919050565b60006020820190508181036000830152615cfb816158c5565b9050919050565b60006020820190508181036000830152615d1b816158e8565b9050919050565b60006020820190508181036000830152615d3b8161590b565b9050919050565b60006020820190508181036000830152615d5b8161592e565b9050919050565b60006020820190508181036000830152615d7b81615951565b9050919050565b60006020820190508181036000830152615d9b81615974565b9050919050565b60006020820190508181036000830152615dbb81615997565b9050919050565b60006020820190508181036000830152615ddb816159ba565b9050919050565b60006020820190508181036000830152615dfb816159dd565b9050919050565b60006020820190508181036000830152615e1b81615a00565b9050919050565b6000602082019050615e376000830184615a32565b92915050565b6000604082019050615e526000830185615a32565b615e5f6020830184615a32565b9392505050565b6000606082019050615e7b6000830186615a32565b615e886020830185615a32565b615e956040830184615a32565b949350505050565b6000819050602082019050919050565b6000819050602082019050919050565b600081519050919050565b600081519050919050565b600081519050919050565b6000602082019050919050565b6000602082019050919050565b600082825260208201905092915050565b600082825260208201905092915050565b600082825260208201905092915050565b6000615f368261607e565b9150615f418361607e565b9250827fffffffffffffffffffffffffffffffffffffffffffffffffffffffffffffffff03821115615f7657615f75616132565b5b828201905092915050565b6000615f8c8261607e565b9150615f978361607e565b925082615fa757615fa6616161565b5b828204905092915050565b6000615fbd8261607e565b9150615fc88361607e565b9250817fffffffffffffffffffffffffffffffffffffffffffffffffffffffffffffffff048311821515161561600157616000616132565b5b828202905092915050565b60006160178261607e565b91506160228361607e565b92508282101561603557616034616132565b5b828203905092915050565b600061604b8261605e565b9050919050565b60008115159050919050565b600073ffffffffffffffffffffffffffffffffffffffff82169050919050565b6000819050919050565b60005b838110156160a657808201518184015260208101905061608b565b838111156160b5576000848401525b50505050565b60006160c68261607e565b91507fffffffffffffffffffffffffffffffffffffffffffffffffffffffffffffffff8214156160f9576160f8616132565b5b600182019050919050565b600061610f82616116565b9050919050565b6000616121826161a1565b9050919050565b6000819050919050565b7f4e487b7100000000000000000000000000000000000000000000000000000000600052601160045260246000fd5b7f4e487b7100000000000000000000000000000000000000000000000000000000600052601260045260246000fd5b6000601f19601f8301169050919050565b60008160601b9050919050565b7f4465706f7369742066756e6374696f6e20667265657a6564206279204f776e6560008201527f7200000000000000000000000000000000000000000000000000000000000000602082015250565b7f416363657373207265737472696374656420746f204d616e61676572206f6e6c60008201527f7900000000000000000000000000000000000000000000000000000000000000602082015250565b7f536166654d6174683a206164646974696f6e206f766572666c6f770000000000600082015250565b7f4c6f616e7320556e617661696c61626c65000000000000000000000000000000600082015250565b7f496e73756666696369656e742062616c616e636520696e20636f6e7472616374600082015250565b7f536166654d6174683a206d756c7469706c69636174696f6e206f766572666c6f60008201527f7700000000000000000000000000000000000000000000000000000000000000602082015250565b7f496e73756666696369656e7420436f6e74726163742042616c616e6365000000600082015250565b7f4e6f7420726561636865642074686520446561646c696e650000000000000000600082015250565b7f457863657373205061796d656e74000000000000000000000000000000000000600082015250565b7f496e73756666696369656e742042616c616e6365000000000000000000000000600082015250565b7f556e61626c6520746f2063616e63656c00000000000000000000000000000000600082015250565b7f496e76616c69642063686f696365000000000000000000000000000000000000600082015250565b7f54686973204669786564206465706f736974206973206e6f74206d617475726560008201527f6400000000000000000000000000000000000000000000000000000000000000602082015250565b61646481616040565b811461646f57600080fd5b50565b61647b81616052565b811461648657600080fd5b50565b6164928161607e565b811461649d57600080fd5b5056fea264697066735822122076006ac41047de2367d65b9c646b16cdae29b9b7b5a029ac43cf3961a8a19aee64736f6c63430008010033",
  "immutableReferences": {},
  "source": "// SPDX-License-Identifier: UNLICENSED\r\n\r\npragma solidity >=0.6.0;\r\n     \r\n/* Imports */\r\nimport \"./SafeMath.sol\"; \r\nimport \"./ownable.sol\";\r\n     \r\n/**\r\n * @author Joby Augustine\r\n * @notice You use this contract for banking operations. \r\n * @dev The main Bank contract for banking operations.\r\n * @title Decentralized Bank\r\n */     \r\n/*Contract */\r\ncontract Bank is Ownable {\r\n    \r\n    /* library */\r\n    using SafeMath for uint256;\r\n    \r\n    /* Enuns */\r\n    \r\n    // Loan Status.\r\n    enum LnStatus { \r\n                \r\n        WaitingForCollateralVerification, // Waiting for collateral verification by the Manager.\r\n        Approved, // Loan approved by Manager after collateral verification.\r\n        Rejected, // Loan rejected by Manager.\r\n        CrossedDeadline // Failed to repay the loan.\r\n    }\r\n            \r\n            \r\n    /* Structs */\r\n    \r\n    // Store Loan information.\r\n    struct LnInfo { \r\n        \r\n        uint256 loanId; // loan Id.\r\n        uint256 amount; // Loan amount.\r\n        uint256 duration; // Duration of Loan in Days. \r\n        uint256 interest; // Interest for the Loan.\r\n        uint256 endTime; // Loan end time\r\n        uint256 repayAmountBal; // Repayment amount left.\r\n        LnStatus loanStatus; //Loan status\r\n    }\r\n    \r\n    // Store Fixed Deposit information.\r\n    struct FxDptInfo {\r\n            \r\n        uint256 fdId; // Fixied deposit Id.\r\n        uint256 amount; // Fixed Deposit amount.\r\n        uint256 duration; // Duration of Fixed Deposit in Days.\r\n        uint256 interest; // Interest for the Fixed Deposit.\r\n        uint256 endTime; // Fixed Deposit end time.\r\n    }\r\n     \r\n    // Store information of the User.\r\n    struct UsrInfo{\r\n        \r\n        bool accStatus; // Account status. `true` value denoted existing user.\r\n        uint256 balance; // Balance amount.\r\n        uint256 totalUsrFD; // Sum total of all Fixed Deposit.\r\n        LnInfo[] loanInfo; // Store details of all Loans of an User.\r\n        FxDptInfo[] fdInfo; // Store details of all Fixed Deposits of an User.\r\n    }\r\n    \r\n    // Loan tariff\r\n    struct LoanTariff{\r\n\r\n        uint256 duration; // Loan duration in Days.\r\n        uint256 interest; // Loan intrest.\r\n    }\r\n    \r\n    \r\n    // Fixed Deposit tariff\r\n    struct FdTariff{\r\n        \r\n        uint256 duration; // Fixed Deposit duration in Days.\r\n        uint256 interest; // Fixed Deposit intrest.\r\n    }\r\n    \r\n    \r\n    /*Events */\r\n    \r\n    /**\r\n     * @dev Emitted when User deposits to his/her account.\r\n     * @param userAddr User address.\r\n     * @param amount Amount deposited.\r\n     */\r\n    event Deposit(address indexed userAddr, uint amount);  \r\n    \r\n    /**\r\n     * @dev Emitted when User withdraws from his/her account.\r\n     * @param userAddr User address.\r\n     * @param amount Amount withdrawn.\r\n     */\r\n    event Withdraw(address indexed userAddr, uint256 amount);  \r\n    \r\n    /**\r\n     * @dev Emitted when User deposits an amount for a fixed duration.\r\n     * @param fdId Fixed deposit Id\r\n     * @param userAddr User address.\r\n     * @param amount Deposit amount.\r\n     * @param tariffId Tariff Id for fixed deposit.\r\n     */\r\n    event FixedDeposit(uint256 indexed fdId, address userAddr, uint256 amount, uint256 tariffId); \r\n        \r\n    /**\r\n     * @dev Emitted when User withdraws his/her fixed deposit.\r\n     * @param fdId Fixed deposit Id\r\n     * @param userAddr User address.\r\n     * @param amount Amount withdrawn.\r\n     */\r\n    event WithdrawFD(uint256 indexed fdId, address userAddr, uint256 amount);  \r\n        \r\n    /**\r\n     * @dev Emitted when User withdraws his/her fixed deposit before maturity period.\r\n     * @param fdId Fixed deposit Id\r\n     * @param userAddr User address.\r\n     * @param amount Amount withdrawn.\r\n     */\r\n    event WithdrawFDBeforeMaturity(uint256 indexed fdId, address userAddr, uint256 amount);  \r\n         \r\n    /**\r\n     * @dev Emitted when User requests for a loan.\r\n     * @param loanId Loan id.\r\n     * @param userAddr User address.\r\n     * @param amount Loan amount.\r\n     * @param tariffId Tariff Id for Loan.\r\n     */\r\n    event RequestLoan(uint256 indexed loanId, address userAddr, uint256 amount, uint256 tariffId);  \r\n    \r\n    /**\r\n     * @dev Emitted when User cancel Loan request.\r\n     * @param loanId Loan id.\r\n     * @param userAddr User address.\r\n     */\r\n    event CancelLoanRequest(uint256 indexed loanId, address userAddr); \r\n        \r\n    /**\r\n     * @dev Emitted when User repays the loan.\r\n     * @param loanId Loan id.\r\n     * @param userAddr User address.\r\n     * @param amount Repay amount.\r\n     */\r\n    event RepayLoan(uint256 indexed loanId, address userAddr, uint256 amount);   \r\n    \r\n    /**\r\n     * @dev Emitted when User failed to repay loan.\r\n     * @param loanId Loan id.\r\n     * @param userAddr User address.\r\n     */\r\n    event LoanDeadLineCrosssed(uint256 indexed loanId, address userAddr); \r\n    \r\n    /**\r\n     * @dev Emitted when Loan is closed.\r\n     * @param loanId Loan Id.\r\n     * @param userAddr User address.\r\n     */\r\n    event LoanClosed(uint256 indexed loanId, address userAddr); \r\n        \r\n    /**\r\n     * @dev Emitted when Manager approve or reject loan.\r\n     * @param loanId Loan Id\r\n     * @param userAddr User address.\r\n     * @param status Loan status, if `true` then loan approved else if `false` then loan rejected.\r\n     */\r\n    event ApproveOrRejectLoan(uint indexed loanId, address userAddr, bool status);  \r\n        \r\n    /**\r\n     * @dev Emitted when new deposits are freezed.\r\n     */\r\n    event PausedNewDeposits();  \r\n        \r\n    /**\r\n     * @dev Emitted when allows new deposits.\r\n     */\r\n    event ResumedNewDeposits();  \r\n        \r\n    /**\r\n     * @dev Emitted when new loans are freezed.\r\n     */\r\n    event PausedNewLoans();  \r\n        \r\n    /**\r\n     * @dev Emitted when new loans are available.\r\n     */\r\n    event ResumedNewLoans();  \r\n        \r\n    /**\r\n     * @dev Emitted when Owner deposits Eth to the Bank.\r\n     * @param amount Deposit amount.\r\n     */\r\n    event DepositEthToBank(uint256 amount);   \r\n        \r\n    /**\r\n     * @dev Emitted when Owner withdraws profit.\r\n     * @param amount Withdraw amount.\r\n     */\r\n    event OwnerWithdraw(uint256 amount);  \r\n        \r\n    /**\r\n     * @dev Emitted when Manager sets a loan duration and its interest rate.\r\n     * @param tariffId Loan tarrif Id.\r\n     * @param duration Loan duration.\r\n     * @param interest Loan interest.\r\n     * \r\n     */\r\n    event SetLoanDurationAndInterest(uint256 tariffId, uint256 duration, uint256 interest);  \r\n\r\n    /**\r\n     * @dev Emitted when Manager remove a loan duration and its interest rate.\r\n     * @param tariffId Loan tariff Id.\r\n     */\r\n    event RemoveLoanDurationAndInterest(uint256 tariffId);\r\n        \r\n    /**\r\n     * @dev Emitted when Manager sets a Fixed deposit duration and its interest rate.\r\n     * @param tariffId Fixed deposit tarrif Id.\r\n     * @param duration of Fixed deposit.\r\n     * @param interest Fixed deposit interest.\r\n     */\r\n    event SetFDDurationAndInterest(uint256 tariffId, uint256 duration, uint256 interest); \r\n    \r\n     /**\r\n     * @dev Emitted when Manager remove a fixed deposit duration and its interest rate.\r\n     * @param tariffId Fixed deposit tariff Id.\r\n     */\r\n    event RemoveFDDurationAndInterest(uint256 tariffId);  \r\n        \r\n    /**\r\n     * @dev Emitted when Owner increases reserve balance.\r\n     * @param reserveBalance New reserve balance amount.\r\n     */\r\n    event IncreaseReserveBalance(uint256 reserveBalance );  \r\n\r\n     /**\r\n     * @dev Emitted when Owner changes the manager.\r\n     * @param managerAddrs Manager's address.\r\n     */\r\n    event SetManager(address managerAddrs); \r\n\r\n    /**\r\n     * @dev Emitted when a new user is added.\r\n     * @param userAddress User's address.\r\n     */\r\n    event CreateAccount(address userAddress);  \r\n\r\n        \r\n    \r\n     /* Storage */\r\n    \r\n    address[] userAddress; // Array of User addresses.\r\n    address public managerAddress; // Managers's Address.\r\n    uint256 reserveBalance; // Reserve balance that is to be maintained in the contract.\r\n    \r\n    uint256 public contractBalance; // Balance amount of the contract.\r\n    uint256 private ownerBalance; // Owner Balance.\r\n    uint256 constant public loanInterestAmountShare = 10 ; // Loan interest amount share for owner in percent.\r\n    uint256 public totalFixedDeposit; // Total fixed deposit.\r\n    uint256[] private loanIdsOfPendingRequests; // Loan ids of pending Loan requests.\r\n    uint256[] public fdTfId; // Fixed Deposit tariff Ids.\r\n    uint256[] public lnTfId; // Loan tariff Ids.\r\n    \r\n    bool public acceptDeposit; // User can deposit Eth only if `acceptDeposit` is `true`;\r\n    bool public loanAvailable; // User can request Loan only if `loanAvailable` is `true`;\r\n    \r\n    mapping(address => UsrInfo) userInfo; // Information of User.\r\n    mapping(uint256 => address) loanIdToUser; // Mapping from loan ids of pending Loan requests to user address .\r\n    mapping(uint256 => uint256) loanIdToPendingRequestIndex; //Mapping from Loan Id to loanIdsOfPendingRequest array index.\r\n    mapping(uint256 => uint256) loanIdToUserLoanInfoIndex; //Mapping from Loan Id to user's loanInfo array index.\r\n    mapping(uint256 => FdTariff) public fdTariffIdToInfo; // Mapping from Fixed deposit tariff Id to information(Fd duration and interest).\r\n    mapping(uint256 => LoanTariff) public lnTariffIdToInfo; // Mapping from Loan tariff Id to information(Loan duration and interest).\r\n    mapping(uint256 => uint256) public fdTariffIdToFdTfIdIndex; // Mapping from Fixed deposit tariff Id to fdTfId index.\r\n    mapping(uint256 => uint256) public lnTariffIdToLnTfIdIndex; // Mapping from Loan tariff Id to lnTfId index.\r\n\r\n    \r\n    /* Modifiers */\r\n    \r\n    /** @dev Requires that the sender is the Manager */\r\n    modifier onlyByManager() {\r\n        require(managerAddress == msg.sender, \"Access restricted to Manager only\");\r\n        _;\r\n        \r\n    }\r\n    \r\n    \r\n    /*Constructor */\r\n\r\n    /** @dev Constructs the Bank contract.\r\n     *  @param _reserveBalance Reserve balance that is to be maintained in the contract.\r\n     */\r\n    \r\n    constructor (uint256 _reserveBalance) {\r\n        \r\n        reserveBalance = _reserveBalance;\r\n    }\r\n    \r\n    \r\n    /* Functions */\r\n    \r\n\r\n    /**\r\n     * @notice Send eth to deposit it in the account.\r\n     * @dev User deposits to his/her account.\r\n     */\r\n    function deposit() external payable{\r\n        \r\n        require(acceptDeposit,\"Deposit function freezed by Owner\");\r\n\r\n        _createAccount();\r\n\r\n        userInfo[msg.sender].balance = userInfo[msg.sender].balance.add(msg.value);\r\n        contractBalance = contractBalance.add(msg.value);\r\n        \r\n        emit Deposit(msg.sender, msg.value);\r\n    }\r\n    \r\n    /**\r\n     * @notice Withdraw an amount from account. \r\n     * @dev User withdraw from his/her account.\r\n     * @param _amount Withdrawal amount.\r\n     */\r\n    function withdraw(uint256 _amount) external {\r\n        \r\n        require(userInfo[msg.sender].balance >= _amount, \"Insufficient Balance\");\r\n        require(contractBalance >= _amount, \"Insufficient Contract Balance\");\r\n\r\n        userInfo[msg.sender].balance = userInfo[msg.sender].balance.sub(_amount);\r\n        contractBalance = contractBalance.sub(_amount);\r\n        payable(msg.sender).transfer(_amount);\r\n        \r\n        emit Withdraw(msg.sender, _amount);\r\n    }\r\n    \r\n    /**\r\n     * @notice Send fixed deposit amount in Eth and choose a tariff.\r\n     * @dev User deposits an amount for a fixed duration.\r\n     * @param _tariffId Tariff id for fixed deposit.\r\n     */\r\n    function fixedDeposit(uint256 _tariffId) external payable {\r\n        \r\n        require(acceptDeposit,\"Deposit function freezed by Owner\");\r\n\r\n        _createAccount();\r\n        \r\n        userInfo[msg.sender].totalUsrFD = userInfo[msg.sender].totalUsrFD.add(msg.value);\r\n        \r\n        uint256 _fdId = uint256(keccak256(abi.encodePacked(userInfo[msg.sender].fdInfo.length, block.timestamp, msg.sender)));\r\n        userInfo[msg.sender].fdInfo.push(\r\n            FxDptInfo(\r\n                _fdId,\r\n                msg.value,\r\n                fdTariffIdToInfo[_tariffId].duration,\r\n                fdTariffIdToInfo[_tariffId].interest,\r\n                block.timestamp.add(fdTariffIdToInfo[_tariffId].duration.mul(1 days) )\r\n            ));\r\n        \r\n        contractBalance = contractBalance.add(msg.value); \r\n        totalFixedDeposit = totalFixedDeposit.add(msg.value);\r\n        \r\n        emit FixedDeposit(_fdId, msg.sender, msg.value, _tariffId);\r\n    }\r\n    \r\n    /**\r\n     * @notice Withdraw fixed deposit.\r\n     * @dev User withdraws his/her fixed deposit with interest.\r\n     * @param _fdIndex Index of the Fixed deposit to be withdrawn.\r\n     */\r\n    function withdrawFD(uint256 _fdIndex) public {\r\n        \r\n        uint256 _fdCount = userInfo[msg.sender].fdInfo.length;\r\n        require(_fdIndex < _fdCount, \"Invalid choice\");\r\n        require(userInfo[msg.sender].fdInfo[_fdIndex].endTime >= block.timestamp, \"This Fixed deposit is not matured\");\r\n    \r\n        uint256 _interest =  userInfo[msg.sender].fdInfo[_fdIndex].interest;\r\n        uint256 _numOfDays = userInfo[msg.sender].fdInfo[_fdIndex].duration\r\n            .add((block.timestamp.sub(userInfo[msg.sender].fdInfo[_fdIndex].endTime))\r\n            .div(1 days));\r\n        uint256 _amount =  userInfo[msg.sender].fdInfo[_fdIndex].amount;\r\n        uint256 _interestAmt = (_amount.div(100).mul(_interest)).div(365); // Interest Amount for 1 day.\r\n        _interestAmt = _interestAmt.mul(_numOfDays);\r\n        _amount = _amount.add(_interestAmt);\r\n        \r\n        uint256 _fdId = userInfo[msg.sender].fdInfo[_fdIndex].fdId;\r\n        \r\n        require(contractBalance >= _amount, \"Insufficient balance in contract\");\r\n        userInfo[msg.sender].totalUsrFD = userInfo[msg.sender].totalUsrFD.sub(_amount);\r\n        contractBalance = contractBalance.sub(_amount); \r\n        totalFixedDeposit = totalFixedDeposit.sub(_amount);\r\n    \r\n        userInfo[msg.sender].fdInfo[_fdIndex] =  userInfo[msg.sender].fdInfo[_fdCount.sub(1)];\r\n        userInfo[msg.sender].fdInfo.pop();\r\n        \r\n        payable(msg.sender).transfer(_amount);\r\n        \r\n        emit WithdrawFD(_fdId, msg.sender, _amount);\r\n    }\r\n    \r\n    /**\r\n     * @notice Withdraw fixed deposit before maturity period.\r\n     * @dev User withdraws his/her fixed deposit before maturity period with penality of 5 percent of the FD Interest.\r\n     * @param _fdIndex Index of the Fixed deposit to be withdrawn.\r\n     */\r\n    function withdrawFDBeforeMaturity(uint256 _fdIndex) external {\r\n        \r\n        if(userInfo[msg.sender].fdInfo[_fdIndex].endTime >= block.timestamp) {\r\n            withdrawFD(_fdIndex);\r\n        }\r\n        else {\r\n            uint256 _fdCount = userInfo[msg.sender].fdInfo.length;\r\n            \r\n            require(_fdIndex < _fdCount, \"Invalid choice\");\r\n            uint256 _interest =  userInfo[msg.sender].fdInfo[_fdIndex].interest;\r\n            uint256 _numOfDays = (userInfo[msg.sender].fdInfo[_fdIndex].endTime.sub(block.timestamp)).div(1 days);\r\n            uint256 _amount =  userInfo[msg.sender].fdInfo[_fdIndex].amount;\r\n            uint256 _interestAmt = (_amount.div(100).mul(_interest)).div(365); // Interest Amount for 1 day.\r\n            _interestAmt = _interestAmt.mul(_numOfDays);\r\n            _amount = _amount.add(_interestAmt);\r\n            _amount = _amount.sub(_interestAmt.div(100).mul(5)); // Penality deducted.\r\n            \r\n            require(contractBalance >= _amount, \"Insufficient balance in contract\");\r\n            userInfo[msg.sender].totalUsrFD = userInfo[msg.sender].totalUsrFD.sub(_amount);\r\n            contractBalance = contractBalance.sub(_amount); \r\n            totalFixedDeposit = totalFixedDeposit.sub(_amount);\r\n            \r\n            uint256 _fdId = userInfo[msg.sender].fdInfo[_fdIndex].fdId;\r\n            \r\n            userInfo[msg.sender].fdInfo[_fdIndex] =  userInfo[msg.sender].fdInfo[_fdCount.sub(1)];\r\n            userInfo[msg.sender].fdInfo.pop();\r\n            \r\n            payable(msg.sender).transfer(_amount);\r\n            \r\n            emit WithdrawFDBeforeMaturity(_fdId, msg.sender, _amount);\r\n        }\r\n    }\r\n    \r\n    /**\r\n     * @notice Request for a loan.\r\n     * @dev User requests for a loan.\r\n     * @param _amount Loan amount.\r\n     * @param _tariffId Tariff id for Loan.\r\n     */\r\n    function requestLoan(uint256 _amount, uint256 _tariffId) external {\r\n        \r\n        require(loanAvailable,\"Loans Unavailable\");\r\n        \r\n        _createAccount();\r\n        \r\n        uint256 _loanId = uint256(keccak256(abi.encodePacked(userInfo[msg.sender].loanInfo.length, block.timestamp, msg.sender)));\r\n        uint256 _repayAmountBal = _amount.add(\r\n            (_amount.div(100).mul(lnTariffIdToInfo[_tariffId].interest))\r\n            .div(365).mul(lnTariffIdToInfo[_tariffId].duration)\r\n            );\r\n        userInfo[msg.sender].loanInfo.push(\r\n            LnInfo(\r\n                _loanId,\r\n                _amount,\r\n                lnTariffIdToInfo[_tariffId].duration,\r\n                lnTariffIdToInfo[_tariffId].interest,\r\n                0,\r\n                _repayAmountBal,\r\n                LnStatus.WaitingForCollateralVerification\r\n            ));\r\n        loanIdToUserLoanInfoIndex[_loanId] = userInfo[msg.sender].loanInfo.length.sub(1);\r\n        loanIdToUser[_loanId] = msg.sender;\r\n\r\n        loanIdsOfPendingRequests.push(_loanId);\r\n        loanIdToPendingRequestIndex[_loanId] = loanIdsOfPendingRequests.length.sub(1);\r\n         \r\n        emit RequestLoan(_loanId, msg.sender, _amount, _tariffId);\r\n    }\r\n    \r\n    /**\r\n     * @notice Repay loan partially or completely.\r\n      * @dev User repays the loan.\r\n     * @param _loanIndex Index of this Loan.\r\n     */\r\n    function repayLoan(uint256 _loanIndex) external payable {\r\n        \r\n        uint256 _amount = msg.value; \r\n        uint256 _lnCount = userInfo[msg.sender].loanInfo.length;\r\n        \r\n        require(_loanIndex < _lnCount, \"Invalid choice\");\r\n        \r\n         if(userInfo[msg.sender].loanInfo[_loanIndex].endTime >= block.timestamp){\r\n            userInfo[msg.sender].loanInfo[_loanIndex].loanStatus = LnStatus.CrossedDeadline;\r\n            emit LoanDeadLineCrosssed(userInfo[msg.sender].loanInfo[_loanIndex].loanId, msg.sender );\r\n        }\r\n        else{\r\n            uint256 _repayAmount = userInfo[msg.sender].loanInfo[_loanIndex].repayAmountBal;\r\n            \r\n            require(_amount <= _repayAmount , \"Excess Payment\");\r\n            userInfo[msg.sender].loanInfo[_loanIndex].repayAmountBal = userInfo[msg.sender].loanInfo[_loanIndex].repayAmountBal.sub(_amount); \r\n            contractBalance = contractBalance.add(_amount);\r\n            \r\n            \r\n            if( userInfo[msg.sender].loanInfo[_loanIndex].repayAmountBal == 0 ) {\r\n                emit LoanClosed(userInfo[msg.sender].loanInfo[_loanIndex].loanId, msg.sender);  \r\n                \r\n                uint256 _ownerShare = (userInfo[msg.sender].loanInfo[_loanIndex].amount\r\n                    .div(100)\r\n                    .mul(userInfo[msg.sender].loanInfo[_loanIndex].interest)\r\n                    )\r\n                    .div(100)\r\n                    .mul(loanInterestAmountShare); // `loanInterestAmountShare` percent of intrest amount\r\n                ownerBalance = ownerBalance.add(_ownerShare);\r\n                contractBalance = contractBalance.sub(_ownerShare);\r\n                userInfo[msg.sender].loanInfo[_loanIndex] =  userInfo[msg.sender].loanInfo[_lnCount.sub(1)];\r\n                userInfo[msg.sender].loanInfo.pop();\r\n            }\r\n\r\n            emit RepayLoan(userInfo[msg.sender].loanInfo[_loanIndex].loanId, msg.sender, _amount);\r\n        }\r\n    }\r\n    \r\n    /** \r\n     * @notice Cancel Loan Request.\r\n     * @dev User cancels requested loan.\r\n     * @param _cancelLoanId id of the loan to be cancelled.\r\n     */\r\n    function cancelLoanRequest(uint256 _cancelLoanId) external {\r\n        \r\n        require(userInfo[msg.sender].loanInfo[ loanIdToUserLoanInfoIndex[_cancelLoanId]].loanStatus == LnStatus.WaitingForCollateralVerification, \"Unable to cancel\");\r\n\r\n        loanIdToPendingRequestIndex[loanIdsOfPendingRequests[loanIdsOfPendingRequests.length.sub(1)]] = loanIdToPendingRequestIndex[_cancelLoanId]; // Updating loanIdToPendingRequestIndex of last element with the index of cancelled loan id's index.\r\n        \r\n        loanIdsOfPendingRequests[loanIdToPendingRequestIndex[_cancelLoanId]] = loanIdsOfPendingRequests[loanIdsOfPendingRequests.length.sub(1)]; // Replacing the cancelled loan request id in the  loanIdsOfPendingRequests array with last element of the array.\r\n        loanIdsOfPendingRequests.pop();\r\n\r\n        uint256 _lnCount = userInfo[msg.sender].loanInfo.length;\r\n        userInfo[msg.sender].loanInfo[loanIdToUserLoanInfoIndex[_cancelLoanId]] =  userInfo[msg.sender].loanInfo[_lnCount.sub(1)];\r\n        userInfo[msg.sender].loanInfo.pop();\r\n        \r\n        emit CancelLoanRequest(_cancelLoanId, msg.sender);\r\n    }\r\n    \r\n    /**\r\n     * @notice View loan requests.\r\n     * @dev Manager can view all loan requests waiting for approval.\r\n     * @param _cursor Starting value of the index that is to be fetched from loanIdsOfPendingRequests array.\r\n     * @param _count Number of loan requests that is to be fetched from the array. In order to fetch entire array, set count to zero or a number higher than the last index of the array. \r\n     */\r\n    function viewLoanRequests(uint256 _cursor, uint256 _count) external onlyByManager view returns(uint[] memory _loanIds, address[] memory _userAddrs, uint256[] memory _amounts, uint256[] memory _durations, uint256[] memory _interests) {\r\n             \r\n        uint256 _lnId;\r\n        uint256 _userLoanIndex;\r\n        address _usrAdrs;\r\n        \r\n        for (uint256 i = _cursor; i < loanIdsOfPendingRequests.length && (i < _cursor + _count || _count == 0 ); i++) {\r\n            _lnId = loanIdsOfPendingRequests[i];\r\n            _usrAdrs = loanIdToUser[_lnId];\r\n            _userLoanIndex = loanIdToUserLoanInfoIndex[_lnId];\r\n            \r\n            _loanIds[i] = _lnId;\r\n            _userAddrs[i] = _usrAdrs;\r\n            _amounts[i] = userInfo[_usrAdrs].loanInfo[_userLoanIndex].amount;\r\n            _durations[i] = userInfo[_usrAdrs].loanInfo[_userLoanIndex].duration;\r\n            _interests[i] = userInfo[_usrAdrs].loanInfo[_userLoanIndex].interest;\r\n                \r\n        }\r\n        return(_loanIds, _userAddrs, _amounts, _durations, _interests);\r\n    }\r\n    \r\n    /**\r\n     * @notice Approve or reject loan.\r\n     * @dev Manager approve or reject loan.\r\n     * @param _loanId Loan Id.\r\n     * @param _approve `true` value indicates the approval and `false` indicates rejection.\r\n     */\r\n    function approveOrRejectLoan(uint _loanId, bool _approve) external onlyByManager {\r\n\r\n        address _userAddrs = loanIdToUser[_loanId];\r\n        uint256 _userLoanIndex = loanIdToUserLoanInfoIndex[_loanId];\r\n        uint256 _loanAmount = userInfo[_userAddrs].loanInfo[_userLoanIndex].amount;\r\n        \r\n        if(_approve){\r\n            require( contractBalance - _loanAmount  > reserveBalance, \"Insufficient Balance\");\r\n            userInfo[_userAddrs].loanInfo[_userLoanIndex].endTime = block.timestamp.add(userInfo[_userAddrs].loanInfo[_userLoanIndex].duration.mul(1 days));\r\n            userInfo[_userAddrs].loanInfo[_userLoanIndex].loanStatus = LnStatus.Approved;\r\n            payable(_userAddrs).transfer(_loanAmount);\r\n            contractBalance = contractBalance.sub(_loanAmount);\r\n        }\r\n        else{\r\n            userInfo[_userAddrs].loanInfo[_userLoanIndex].loanStatus = LnStatus.Rejected;\r\n        }\r\n\r\n        loanIdsOfPendingRequests[loanIdToPendingRequestIndex[_loanId]] = loanIdsOfPendingRequests[loanIdsOfPendingRequests.length.sub(1)]; // Copy last element to current element's position.\r\n        loanIdsOfPendingRequests.pop(); // Remove last element\r\n\r\n        emit ApproveOrRejectLoan(_loanId,_userAddrs, _approve);\r\n    }\r\n    \r\n    /**\r\n     * @notice Change Loan status to deadline crossed.\r\n     * @dev Change Loan status to deadline crossed.\r\n     * @param _loanId Loan Id of the loan.\r\n     */\r\n    function deadLineCrossed(uint256 _loanId) external onlyByManager {\r\n        \r\n        address _userAddrs = loanIdToUser[_loanId];\r\n\r\n        require(userInfo[_userAddrs].loanInfo[loanIdToUserLoanInfoIndex[_loanId]].endTime <= block.timestamp, \"Not reached the Deadline\" );\r\n        \r\n        userInfo[_userAddrs].loanInfo[loanIdToUserLoanInfoIndex[_loanId]].loanStatus = LnStatus.CrossedDeadline;\r\n        \r\n        emit LoanDeadLineCrosssed(_loanId, _userAddrs);\r\n    }\r\n    \r\n\r\n    \r\n    \r\n    /**\r\n     * @notice Set a loan duration and its interest rate.\r\n     * @dev Owner sets a loan duration and its interest rate.\r\n     * @param _duration Loan duration.\r\n     * @param _interest Loan interest.\r\n     * \r\n     */\r\n    function setLoanDurationAndInterest(uint256 _duration, uint256 _interest) external onlyByManager{\r\n        uint256 _tariffId = uint256(keccak256(abi.encodePacked(lnTfId.length, block.timestamp, _duration)));\r\n        lnTfId.push(_tariffId);\r\n        lnTariffIdToInfo[_tariffId] = LoanTariff(_duration, _interest);\r\n        lnTariffIdToLnTfIdIndex[_tariffId] = lnTfId.length.sub(1);\r\n        \r\n        emit SetLoanDurationAndInterest(_tariffId, _duration, _interest);\r\n    }\r\n    \r\n    /**\r\n     * @notice Get all loan durations and their interest rates\r\n     * @dev Get all loan durations and their interest rates.\r\n     * @param _cursor Starting value of the index that is to be fetched from lnTariffToInfo array.\r\n     * @param _count Number of tariff that is to be fetched from  lnTariffToInfo array. In order to fetch entire array, set count to zero or a number higher than the last index of the array. \r\n     * @return _duration Loan duration.\r\n     * @return _interest Loan interest.\r\n     */\r\n    function getLoanDurationAndInterest(uint256 _cursor, uint256 _count) external view returns(uint256[] memory _duration, uint256[] memory  _interest) {\r\n        for (uint256 i = _cursor; i < lnTfId.length && (i < _cursor + _count || _count == 0 ); i++) {\r\n            _duration[i] = lnTariffIdToInfo[lnTfId[i]].duration;\r\n            _interest[i] = lnTariffIdToInfo[lnTfId[i]].interest;\r\n        }\r\n    }\r\n    \r\n    /**\r\n     * @notice Owner can remove a loan duration and its interest rate.\r\n     * @dev Owner remove a loan duration and its interest rate.\r\n     * @param _tariffId Loan tariff Id..\r\n     */\r\n    function removeLoanDurationAndInterest(uint256 _tariffId) external onlyByManager {\r\n\r\n        lnTfId[fdTariffIdToFdTfIdIndex[_tariffId]] = lnTfId[lnTfId.length.sub(1)];\r\n        lnTfId.pop();\r\n\r\n        emit RemoveLoanDurationAndInterest(_tariffId);\r\n    }\r\n    \r\n    \r\n    /**\r\n     * @notice Owner sets fixed deposit duration and its interest rate.\r\n     * @dev Owner sets fixed deposit duration and its interest rate\r\n     * @param _duration Fixed deposit duration.\r\n     * @param _interest Interest rate for fixed deposit.\r\n     */\r\n    function setFDDurationAndInterest(uint256 _duration, uint256 _interest) external onlyByManager{\r\n        \r\n        uint256 _tariffId = uint256(keccak256(abi.encodePacked(fdTfId.length, block.timestamp, _duration)));\r\n        fdTfId.push(_tariffId);\r\n        fdTariffIdToInfo[_tariffId] = FdTariff(_duration, _interest);\r\n        fdTariffIdToFdTfIdIndex[_tariffId] = fdTfId.length.sub(1);\r\n\r\n        emit SetFDDurationAndInterest(_tariffId, _duration, _interest);\r\n    }\r\n    \r\n    /**\r\n     * @notice Get all fixed deposit durations and their interest rates.\r\n     * @dev Get all fixed deposit durations and their interest rates. \r\n     * @param _cursor Starting value of the index that is to be fetched from fdTariffToInfo array.\r\n     * @param _count Number of tariff that is to be fetched from  fdTariffToInfo array. In order to fetch entire array, set count to zero or a number higher than the last index of the array. \r\n     * @return _duration Fixed deposit duration.\r\n     * @return _interest Interest rate for fixed deposit.\r\n     */\r\n    function getFDDurationAndInterest(uint256 _cursor, uint256 _count) external view returns (uint256[] memory _duration, uint256[] memory _interest) {\r\n\r\n        for (uint256 i = _cursor; i < fdTfId.length && (i < _cursor + _count || _count == 0 ); i++) {\r\n            _duration[i] = fdTariffIdToInfo[fdTfId[i]].duration;\r\n            _interest[i] = fdTariffIdToInfo[fdTfId[i]].interest;\r\n        }\r\n    }\r\n    \r\n    \r\n     /**\r\n     * @notice Owner can remove a fixed deposit duration and its interest rate.\r\n     * @dev Owner remove a fixed deposit duration and its interest rate.\r\n     * @param _tariffId Fixed deposit tariff.\r\n     */\r\n    function removeFDDurationAndInterest(uint256 _tariffId) external onlyByManager {\r\n\r\n        fdTfId[fdTariffIdToFdTfIdIndex[_tariffId]] = fdTfId[fdTfId.length.sub(1)];\r\n        fdTfId.pop();\r\n\r\n        emit RemoveFDDurationAndInterest(_tariffId);\r\n    }\r\n\r\n    /**\r\n     * @notice Owner can increase the reserve balance that is to be maintained in the contract. \r\n     * @dev Owner increase the reserveBalance.\r\n     * @param _amount Amount that is to be increased.\r\n     */\r\n    function increaseReserveBalance(uint256 _amount) external onlyOwner {\r\n        \r\n        reserveBalance = reserveBalance.add(_amount);\r\n\r\n        emit IncreaseReserveBalance(reserveBalance);\r\n    }\r\n    \r\n    /**\r\n     * @notice Owner can change the manager. \r\n     * @dev Owner changes the manager.\r\n     * @param _managerAddrs Manager's address.\r\n     */\r\n    function setManager(address _managerAddrs) external onlyOwner {\r\n        \r\n        managerAddress = _managerAddrs; \r\n        \r\n        emit SetManager(_managerAddrs);\r\n    }\r\n    \r\n    /**\r\n     * @notice Manager can get addresses of all Users. \r\n     * @dev Manager can get addresses of all Users\r\n     * @return _userAddrs Addresses of all Users.\r\n     */\r\n     \r\n    function getAllUsers() external view onlyByManager returns(address[] memory _userAddrs) {\r\n        \r\n        _userAddrs = userAddress;\r\n    }\r\n\r\n    /* Internal */\r\n    \r\n    /**\r\n     * @notice Adds user account.\r\n     * @dev Adds user address to userInfo array.\r\n     */\r\n    function _createAccount() internal {\r\n\r\n        if(!userInfo[msg.sender].accStatus) {\r\n            userInfo[msg.sender].accStatus = true;\r\n            userAddress.push(msg.sender);\r\n\r\n            emit CreateAccount(msg.sender);\r\n        }\r\n\r\n    }\r\n}\r\n",
  "sourcePath": "E:/Blockchain/Bank-dApp/contracts/Bank.sol",
  "compiler": {
    "name": "solc",
    "version": "0.8.1+commit.df193b15.Emscripten.clang"
  },
  "schemaVersion": "3.3.3",
  "updatedAt": "2021-02-03T12:28:11.114Z",
  "devdoc": {
    "author": "Joby Augustine",
    "details": "The main Bank contract for banking operations.",
    "events": {
      "ApproveOrRejectLoan(uint256,address,bool)": {
        "details": "Emitted when Manager approve or reject loan.",
        "params": {
          "loanId": "Loan Id",
          "status": "Loan status, if `true` then loan approved else if `false` then loan rejected.",
          "userAddr": "User address."
        }
      },
      "CancelLoanRequest(uint256,address)": {
        "details": "Emitted when User cancel Loan request.",
        "params": {
          "loanId": "Loan id.",
          "userAddr": "User address."
        }
      },
      "CreateAccount(address)": {
        "details": "Emitted when a new user is added.",
        "params": {
          "userAddress": "User's address."
        }
      },
      "Deposit(address,uint256)": {
        "details": "Emitted when User deposits to his/her account.",
        "params": {
          "amount": "Amount deposited.",
          "userAddr": "User address."
        }
      },
      "DepositEthToBank(uint256)": {
        "details": "Emitted when Owner deposits Eth to the Bank.",
        "params": {
          "amount": "Deposit amount."
        }
      },
      "FixedDeposit(uint256,address,uint256,uint256)": {
        "details": "Emitted when User deposits an amount for a fixed duration.",
        "params": {
          "amount": "Deposit amount.",
          "fdId": "Fixed deposit Id",
          "tariffId": "Tariff Id for fixed deposit.",
          "userAddr": "User address."
        }
      },
      "IncreaseReserveBalance(uint256)": {
        "details": "Emitted when Owner increases reserve balance.",
        "params": {
          "reserveBalance": "New reserve balance amount."
        }
      },
      "LoanClosed(uint256,address)": {
        "details": "Emitted when Loan is closed.",
        "params": {
          "loanId": "Loan Id.",
          "userAddr": "User address."
        }
      },
      "LoanDeadLineCrosssed(uint256,address)": {
        "details": "Emitted when User failed to repay loan.",
        "params": {
          "loanId": "Loan id.",
          "userAddr": "User address."
        }
      },
      "OwnerWithdraw(uint256)": {
        "details": "Emitted when Owner withdraws profit.",
        "params": {
          "amount": "Withdraw amount."
        }
      },
      "PausedNewDeposits()": {
        "details": "Emitted when new deposits are freezed."
      },
      "PausedNewLoans()": {
        "details": "Emitted when new loans are freezed."
      },
      "RemoveFDDurationAndInterest(uint256)": {
        "details": "Emitted when Manager remove a fixed deposit duration and its interest rate.",
        "params": {
          "tariffId": "Fixed deposit tariff Id."
        }
      },
      "RemoveLoanDurationAndInterest(uint256)": {
        "details": "Emitted when Manager remove a loan duration and its interest rate.",
        "params": {
          "tariffId": "Loan tariff Id."
        }
      },
      "RepayLoan(uint256,address,uint256)": {
        "details": "Emitted when User repays the loan.",
        "params": {
          "amount": "Repay amount.",
          "loanId": "Loan id.",
          "userAddr": "User address."
        }
      },
      "RequestLoan(uint256,address,uint256,uint256)": {
        "details": "Emitted when User requests for a loan.",
        "params": {
          "amount": "Loan amount.",
          "loanId": "Loan id.",
          "tariffId": "Tariff Id for Loan.",
          "userAddr": "User address."
        }
      },
      "ResumedNewDeposits()": {
        "details": "Emitted when allows new deposits."
      },
      "ResumedNewLoans()": {
        "details": "Emitted when new loans are available."
      },
      "SetFDDurationAndInterest(uint256,uint256,uint256)": {
        "details": "Emitted when Manager sets a Fixed deposit duration and its interest rate.",
        "params": {
          "duration": "of Fixed deposit.",
          "interest": "Fixed deposit interest.",
          "tariffId": "Fixed deposit tarrif Id."
        }
      },
      "SetLoanDurationAndInterest(uint256,uint256,uint256)": {
        "details": "Emitted when Manager sets a loan duration and its interest rate.",
        "params": {
          "duration": "Loan duration.",
          "interest": "Loan interest. ",
          "tariffId": "Loan tarrif Id."
        }
      },
      "SetManager(address)": {
        "details": "Emitted when Owner changes the manager.",
        "params": {
          "managerAddrs": "Manager's address."
        }
      },
      "Withdraw(address,uint256)": {
        "details": "Emitted when User withdraws from his/her account.",
        "params": {
          "amount": "Amount withdrawn.",
          "userAddr": "User address."
        }
      },
      "WithdrawFD(uint256,address,uint256)": {
        "details": "Emitted when User withdraws his/her fixed deposit.",
        "params": {
          "amount": "Amount withdrawn.",
          "fdId": "Fixed deposit Id",
          "userAddr": "User address."
        }
      },
      "WithdrawFDBeforeMaturity(uint256,address,uint256)": {
        "details": "Emitted when User withdraws his/her fixed deposit before maturity period.",
        "params": {
          "amount": "Amount withdrawn.",
          "fdId": "Fixed deposit Id",
          "userAddr": "User address."
        }
      }
    },
    "kind": "dev",
    "methods": {
      "approveOrRejectLoan(uint256,bool)": {
        "details": "Manager approve or reject loan.",
        "params": {
          "_approve": "`true` value indicates the approval and `false` indicates rejection.",
          "_loanId": "Loan Id."
        }
      },
      "cancelLoanRequest(uint256)": {
        "details": "User cancels requested loan.",
        "params": {
          "_cancelLoanId": "id of the loan to be cancelled."
        }
      },
      "constructor": {
        "details": "Constructs the Bank contract.",
        "params": {
          "_reserveBalance": "Reserve balance that is to be maintained in the contract."
        }
      },
      "deadLineCrossed(uint256)": {
        "details": "Change Loan status to deadline crossed.",
        "params": {
          "_loanId": "Loan Id of the loan."
        }
      },
      "deposit()": {
        "details": "User deposits to his/her account."
      },
      "fixedDeposit(uint256)": {
        "details": "User deposits an amount for a fixed duration.",
        "params": {
          "_tariffId": "Tariff id for fixed deposit."
        }
      },
      "getAllUsers()": {
        "details": "Manager can get addresses of all Users",
        "returns": {
          "_userAddrs": "Addresses of all Users."
        }
      },
      "getFDDurationAndInterest(uint256,uint256)": {
        "details": "Get all fixed deposit durations and their interest rates. ",
        "params": {
          "_count": "Number of tariff that is to be fetched from  fdTariffToInfo array. In order to fetch entire array, set count to zero or a number higher than the last index of the array. ",
          "_cursor": "Starting value of the index that is to be fetched from fdTariffToInfo array."
        },
        "returns": {
          "_duration": "Fixed deposit duration.",
          "_interest": "Interest rate for fixed deposit."
        }
      },
      "getLoanDurationAndInterest(uint256,uint256)": {
        "details": "Get all loan durations and their interest rates.",
        "params": {
          "_count": "Number of tariff that is to be fetched from  lnTariffToInfo array. In order to fetch entire array, set count to zero or a number higher than the last index of the array. ",
          "_cursor": "Starting value of the index that is to be fetched from lnTariffToInfo array."
        },
        "returns": {
          "_duration": "Loan duration.",
          "_interest": "Loan interest."
        }
      },
      "increaseReserveBalance(uint256)": {
        "details": "Owner increase the reserveBalance.",
        "params": {
          "_amount": "Amount that is to be increased."
        }
      },
      "isOwner()": {
        "returns": {
          "_0": "true if `msg.sender` is the owner of the contract."
        }
      },
      "owner()": {
        "returns": {
          "_0": "the address of the owner."
        }
      },
      "removeFDDurationAndInterest(uint256)": {
        "details": "Owner remove a fixed deposit duration and its interest rate.",
        "params": {
          "_tariffId": "Fixed deposit tariff."
        }
      },
      "removeLoanDurationAndInterest(uint256)": {
        "details": "Owner remove a loan duration and its interest rate.",
        "params": {
          "_tariffId": "Loan tariff Id.."
        }
      },
      "renounceOwnership()": {
        "details": "Allows the current owner to relinquish control of the contract."
      },
      "repayLoan(uint256)": {
        "details": "User repays the loan.",
        "params": {
          "_loanIndex": "Index of this Loan."
        }
      },
      "requestLoan(uint256,uint256)": {
        "details": "User requests for a loan.",
        "params": {
          "_amount": "Loan amount.",
          "_tariffId": "Tariff id for Loan."
        }
      },
      "setFDDurationAndInterest(uint256,uint256)": {
        "details": "Owner sets fixed deposit duration and its interest rate",
        "params": {
          "_duration": "Fixed deposit duration.",
          "_interest": "Interest rate for fixed deposit."
        }
      },
      "setLoanDurationAndInterest(uint256,uint256)": {
        "details": "Owner sets a loan duration and its interest rate.",
        "params": {
          "_duration": "Loan duration.",
          "_interest": "Loan interest. "
        }
      },
      "setManager(address)": {
        "details": "Owner changes the manager.",
        "params": {
          "_managerAddrs": "Manager's address."
        }
      },
      "transferOwnership(address)": {
        "details": "Allows the current owner to transfer control of the contract to a newOwner.",
        "params": {
          "newOwner": "The address to transfer ownership to."
        }
      },
      "viewLoanRequests(uint256,uint256)": {
        "details": "Manager can view all loan requests waiting for approval.",
        "params": {
          "_count": "Number of loan requests that is to be fetched from the array. In order to fetch entire array, set count to zero or a number higher than the last index of the array. ",
          "_cursor": "Starting value of the index that is to be fetched from loanIdsOfPendingRequests array."
        }
      },
      "withdraw(uint256)": {
        "details": "User withdraw from his/her account.",
        "params": {
          "_amount": "Withdrawal amount."
        }
      },
      "withdrawFD(uint256)": {
        "details": "User withdraws his/her fixed deposit with interest.",
        "params": {
          "_fdIndex": "Index of the Fixed deposit to be withdrawn."
        }
      },
      "withdrawFDBeforeMaturity(uint256)": {
        "details": "User withdraws his/her fixed deposit before maturity period with penality of 5 percent of the FD Interest.",
        "params": {
          "_fdIndex": "Index of the Fixed deposit to be withdrawn."
        }
      }
    },
    "title": "Decentralized Bank",
    "version": 1
  },
  "userdoc": {
    "kind": "user",
    "methods": {
      "approveOrRejectLoan(uint256,bool)": {
        "notice": "Approve or reject loan."
      },
      "cancelLoanRequest(uint256)": {
        "notice": "Cancel Loan Request."
      },
      "deadLineCrossed(uint256)": {
        "notice": "Change Loan status to deadline crossed."
      },
      "deposit()": {
        "notice": "Send eth to deposit it in the account."
      },
      "fixedDeposit(uint256)": {
        "notice": "Send fixed deposit amount in Eth and choose a tariff."
      },
      "getAllUsers()": {
        "notice": "Manager can get addresses of all Users. "
      },
      "getFDDurationAndInterest(uint256,uint256)": {
        "notice": "Get all fixed deposit durations and their interest rates."
      },
      "getLoanDurationAndInterest(uint256,uint256)": {
        "notice": "Get all loan durations and their interest rates"
      },
      "increaseReserveBalance(uint256)": {
        "notice": "Owner can increase the reserve balance that is to be maintained in the contract. "
      },
      "removeFDDurationAndInterest(uint256)": {
        "notice": "Owner can remove a fixed deposit duration and its interest rate."
      },
      "removeLoanDurationAndInterest(uint256)": {
        "notice": "Owner can remove a loan duration and its interest rate."
      },
      "renounceOwnership()": {
        "notice": "Renouncing to ownership will leave the contract without an owner. It will not be possible to call the functions with the `onlyOwner` modifier anymore."
      },
      "repayLoan(uint256)": {
        "notice": "Repay loan partially or completely."
      },
      "requestLoan(uint256,uint256)": {
        "notice": "Request for a loan."
      },
      "setFDDurationAndInterest(uint256,uint256)": {
        "notice": "Owner sets fixed deposit duration and its interest rate."
      },
      "setLoanDurationAndInterest(uint256,uint256)": {
        "notice": "Set a loan duration and its interest rate."
      },
      "setManager(address)": {
        "notice": "Owner can change the manager. "
      },
      "viewLoanRequests(uint256,uint256)": {
        "notice": "View loan requests."
      },
      "withdraw(uint256)": {
        "notice": "Withdraw an amount from account. "
      },
      "withdrawFD(uint256)": {
        "notice": "Withdraw fixed deposit."
      },
      "withdrawFDBeforeMaturity(uint256)": {
        "notice": "Withdraw fixed deposit before maturity period."
      }
    },
    "notice": "You use this contract for banking operations. ",
    "version": 1
  }
}