{
  "contractName": "BankStorage",
  "abi": [
    {
      "anonymous": false,
      "inputs": [
        {
          "indexed": true,
          "internalType": "uint256",
          "name": "loanId",
          "type": "uint256"
        },
        {
          "indexed": false,
          "internalType": "address",
          "name": "userAddr",
          "type": "address"
        },
        {
          "indexed": false,
          "internalType": "bool",
          "name": "status",
          "type": "bool"
        }
      ],
      "name": "ApproveOrRejectLoan",
      "type": "event"
    },
    {
      "anonymous": false,
      "inputs": [
        {
          "indexed": true,
          "internalType": "uint256",
          "name": "loanId",
          "type": "uint256"
        },
        {
          "indexed": false,
          "internalType": "address",
          "name": "userAddr",
          "type": "address"
        }
      ],
      "name": "CancelLoanRequest",
      "type": "event"
    },
    {
      "anonymous": false,
      "inputs": [
        {
          "indexed": false,
          "internalType": "address",
          "name": "userAddress",
          "type": "address"
        }
      ],
      "name": "CreateAccount",
      "type": "event"
    },
    {
      "anonymous": false,
      "inputs": [
        {
          "indexed": true,
          "internalType": "address",
          "name": "userAddr",
          "type": "address"
        },
        {
          "indexed": false,
          "internalType": "uint256",
          "name": "amount",
          "type": "uint256"
        }
      ],
      "name": "Deposit",
      "type": "event"
    },
    {
      "anonymous": false,
      "inputs": [
        {
          "indexed": false,
          "internalType": "uint256",
          "name": "amount",
          "type": "uint256"
        }
      ],
      "name": "DepositEthToBank",
      "type": "event"
    },
    {
      "anonymous": false,
      "inputs": [
        {
          "indexed": true,
          "internalType": "uint256",
          "name": "fdId",
          "type": "uint256"
        },
        {
          "indexed": false,
          "internalType": "address",
          "name": "userAddr",
          "type": "address"
        },
        {
          "indexed": false,
          "internalType": "uint256",
          "name": "amount",
          "type": "uint256"
        },
        {
          "indexed": false,
          "internalType": "uint256",
          "name": "tariffId",
          "type": "uint256"
        }
      ],
      "name": "FixedDeposit",
      "type": "event"
    },
    {
      "anonymous": false,
      "inputs": [
        {
          "indexed": false,
          "internalType": "uint256",
          "name": "reserveBalance",
          "type": "uint256"
        }
      ],
      "name": "IncreaseReserveBalance",
      "type": "event"
    },
    {
      "anonymous": false,
      "inputs": [
        {
          "indexed": true,
          "internalType": "uint256",
          "name": "loanId",
          "type": "uint256"
        },
        {
          "indexed": false,
          "internalType": "address",
          "name": "userAddr",
          "type": "address"
        }
      ],
      "name": "LoanClosed",
      "type": "event"
    },
    {
      "anonymous": false,
      "inputs": [
        {
          "indexed": true,
          "internalType": "uint256",
          "name": "loanId",
          "type": "uint256"
        },
        {
          "indexed": false,
          "internalType": "address",
          "name": "userAddr",
          "type": "address"
        }
      ],
      "name": "LoanDeadLineCrosssed",
      "type": "event"
    },
    {
      "anonymous": false,
      "inputs": [
        {
          "indexed": false,
          "internalType": "uint256",
          "name": "amount",
          "type": "uint256"
        }
      ],
      "name": "OwnerWithdraw",
      "type": "event"
    },
    {
      "anonymous": false,
      "inputs": [
        {
          "indexed": true,
          "internalType": "address",
          "name": "previousOwner",
          "type": "address"
        },
        {
          "indexed": true,
          "internalType": "address",
          "name": "newOwner",
          "type": "address"
        }
      ],
      "name": "OwnershipTransferred",
      "type": "event"
    },
    {
      "anonymous": false,
      "inputs": [],
      "name": "PausedNewDeposits",
      "type": "event"
    },
    {
      "anonymous": false,
      "inputs": [],
      "name": "PausedNewLoans",
      "type": "event"
    },
    {
      "anonymous": false,
      "inputs": [
        {
          "indexed": false,
          "internalType": "uint256",
          "name": "tariffId",
          "type": "uint256"
        }
      ],
      "name": "RemoveFDDurationAndInterest",
      "type": "event"
    },
    {
      "anonymous": false,
      "inputs": [
        {
          "indexed": false,
          "internalType": "uint256",
          "name": "tariffId",
          "type": "uint256"
        }
      ],
      "name": "RemoveLoanDurationAndInterest",
      "type": "event"
    },
    {
      "anonymous": false,
      "inputs": [
        {
          "indexed": true,
          "internalType": "uint256",
          "name": "loanId",
          "type": "uint256"
        },
        {
          "indexed": false,
          "internalType": "address",
          "name": "userAddr",
          "type": "address"
        },
        {
          "indexed": false,
          "internalType": "uint256",
          "name": "amount",
          "type": "uint256"
        }
      ],
      "name": "RepayLoan",
      "type": "event"
    },
    {
      "anonymous": false,
      "inputs": [
        {
          "indexed": true,
          "internalType": "uint256",
          "name": "loanId",
          "type": "uint256"
        },
        {
          "indexed": false,
          "internalType": "address",
          "name": "userAddr",
          "type": "address"
        },
        {
          "indexed": false,
          "internalType": "uint256",
          "name": "amount",
          "type": "uint256"
        },
        {
          "indexed": false,
          "internalType": "uint256",
          "name": "tariffId",
          "type": "uint256"
        }
      ],
      "name": "RequestLoan",
      "type": "event"
    },
    {
      "anonymous": false,
      "inputs": [],
      "name": "ResumedNewDeposits",
      "type": "event"
    },
    {
      "anonymous": false,
      "inputs": [],
      "name": "ResumedNewLoans",
      "type": "event"
    },
    {
      "anonymous": false,
      "inputs": [
        {
          "indexed": false,
          "internalType": "uint256",
          "name": "tariffId",
          "type": "uint256"
        },
        {
          "indexed": false,
          "internalType": "uint256",
          "name": "duration",
          "type": "uint256"
        },
        {
          "indexed": false,
          "internalType": "uint256",
          "name": "interest",
          "type": "uint256"
        }
      ],
      "name": "SetFDDurationAndInterest",
      "type": "event"
    },
    {
      "anonymous": false,
      "inputs": [
        {
          "indexed": false,
          "internalType": "uint256",
          "name": "tariffId",
          "type": "uint256"
        },
        {
          "indexed": false,
          "internalType": "uint256",
          "name": "duration",
          "type": "uint256"
        },
        {
          "indexed": false,
          "internalType": "uint256",
          "name": "interest",
          "type": "uint256"
        }
      ],
      "name": "SetLoanDurationAndInterest",
      "type": "event"
    },
    {
      "anonymous": false,
      "inputs": [
        {
          "indexed": false,
          "internalType": "address",
          "name": "managerAddrs",
          "type": "address"
        }
      ],
      "name": "SetManager",
      "type": "event"
    },
    {
      "anonymous": false,
      "inputs": [
        {
          "indexed": true,
          "internalType": "address",
          "name": "userAddr",
          "type": "address"
        },
        {
          "indexed": false,
          "internalType": "uint256",
          "name": "amount",
          "type": "uint256"
        }
      ],
      "name": "Withdraw",
      "type": "event"
    },
    {
      "anonymous": false,
      "inputs": [
        {
          "indexed": true,
          "internalType": "uint256",
          "name": "fdId",
          "type": "uint256"
        },
        {
          "indexed": false,
          "internalType": "address",
          "name": "userAddr",
          "type": "address"
        },
        {
          "indexed": false,
          "internalType": "uint256",
          "name": "amount",
          "type": "uint256"
        }
      ],
      "name": "WithdrawFD",
      "type": "event"
    },
    {
      "anonymous": false,
      "inputs": [
        {
          "indexed": true,
          "internalType": "uint256",
          "name": "fdId",
          "type": "uint256"
        },
        {
          "indexed": false,
          "internalType": "address",
          "name": "userAddr",
          "type": "address"
        },
        {
          "indexed": false,
          "internalType": "uint256",
          "name": "amount",
          "type": "uint256"
        }
      ],
      "name": "WithdrawFDBeforeMaturity",
      "type": "event"
    },
    {
      "inputs": [],
      "name": "acceptDeposit",
      "outputs": [
        {
          "internalType": "bool",
          "name": "",
          "type": "bool"
        }
      ],
      "stateMutability": "view",
      "type": "function"
    },
    {
      "inputs": [],
      "name": "contractBalance",
      "outputs": [
        {
          "internalType": "uint256",
          "name": "",
          "type": "uint256"
        }
      ],
      "stateMutability": "view",
      "type": "function"
    },
    {
      "inputs": [
        {
          "internalType": "uint256",
          "name": "",
          "type": "uint256"
        }
      ],
      "name": "fdTariffIdToFdTfIdIndex",
      "outputs": [
        {
          "internalType": "uint256",
          "name": "",
          "type": "uint256"
        }
      ],
      "stateMutability": "view",
      "type": "function"
    },
    {
      "inputs": [
        {
          "internalType": "uint256",
          "name": "",
          "type": "uint256"
        }
      ],
      "name": "fdTariffIdToInfo",
      "outputs": [
        {
          "internalType": "uint256",
          "name": "duration",
          "type": "uint256"
        },
        {
          "internalType": "uint256",
          "name": "interest",
          "type": "uint256"
        }
      ],
      "stateMutability": "view",
      "type": "function"
    },
    {
      "inputs": [
        {
          "internalType": "uint256",
          "name": "",
          "type": "uint256"
        }
      ],
      "name": "fdTfId",
      "outputs": [
        {
          "internalType": "uint256",
          "name": "",
          "type": "uint256"
        }
      ],
      "stateMutability": "view",
      "type": "function"
    },
    {
      "inputs": [],
      "name": "isOwner",
      "outputs": [
        {
          "internalType": "bool",
          "name": "",
          "type": "bool"
        }
      ],
      "stateMutability": "view",
      "type": "function"
    },
    {
      "inputs": [
        {
          "internalType": "uint256",
          "name": "",
          "type": "uint256"
        }
      ],
      "name": "lnTariffIdToInfo",
      "outputs": [
        {
          "internalType": "uint256",
          "name": "duration",
          "type": "uint256"
        },
        {
          "internalType": "uint256",
          "name": "interest",
          "type": "uint256"
        }
      ],
      "stateMutability": "view",
      "type": "function"
    },
    {
      "inputs": [
        {
          "internalType": "uint256",
          "name": "",
          "type": "uint256"
        }
      ],
      "name": "lnTariffIdToLnTfIdIndex",
      "outputs": [
        {
          "internalType": "uint256",
          "name": "",
          "type": "uint256"
        }
      ],
      "stateMutability": "view",
      "type": "function"
    },
    {
      "inputs": [
        {
          "internalType": "uint256",
          "name": "",
          "type": "uint256"
        }
      ],
      "name": "lnTfId",
      "outputs": [
        {
          "internalType": "uint256",
          "name": "",
          "type": "uint256"
        }
      ],
      "stateMutability": "view",
      "type": "function"
    },
    {
      "inputs": [],
      "name": "loanAvailable",
      "outputs": [
        {
          "internalType": "bool",
          "name": "",
          "type": "bool"
        }
      ],
      "stateMutability": "view",
      "type": "function"
    },
    {
      "inputs": [],
      "name": "loanInterestAmountShare",
      "outputs": [
        {
          "internalType": "uint256",
          "name": "",
          "type": "uint256"
        }
      ],
      "stateMutability": "view",
      "type": "function"
    },
    {
      "inputs": [],
      "name": "managerAddress",
      "outputs": [
        {
          "internalType": "address",
          "name": "",
          "type": "address"
        }
      ],
      "stateMutability": "view",
      "type": "function"
    },
    {
      "inputs": [],
      "name": "owner",
      "outputs": [
        {
          "internalType": "address",
          "name": "",
          "type": "address"
        }
      ],
      "stateMutability": "view",
      "type": "function"
    },
    {
      "inputs": [],
      "name": "renounceOwnership",
      "outputs": [],
      "stateMutability": "nonpayable",
      "type": "function"
    },
    {
      "inputs": [],
      "name": "totalFixedDeposit",
      "outputs": [
        {
          "internalType": "uint256",
          "name": "",
          "type": "uint256"
        }
      ],
      "stateMutability": "view",
      "type": "function"
    },
    {
      "inputs": [
        {
          "internalType": "address",
          "name": "newOwner",
          "type": "address"
        }
      ],
      "name": "transferOwnership",
      "outputs": [],
      "stateMutability": "nonpayable",
      "type": "function"
    },
    {
      "inputs": [
        {
          "internalType": "uint256",
          "name": "_loanId",
          "type": "uint256"
        },
        {
          "internalType": "bool",
          "name": "_approve",
          "type": "bool"
        }
      ],
      "name": "approveOrRejectLoan",
      "outputs": [],
      "stateMutability": "nonpayable",
      "type": "function"
    },
    {
      "inputs": [
        {
          "internalType": "uint256",
          "name": "_loanId",
          "type": "uint256"
        }
      ],
      "name": "deadLineCrossed",
      "outputs": [],
      "stateMutability": "nonpayable",
      "type": "function"
    },
    {
      "inputs": [],
      "name": "pauseNewDeposits",
      "outputs": [],
      "stateMutability": "nonpayable",
      "type": "function"
    },
    {
      "inputs": [],
      "name": "resumeNewDeposits",
      "outputs": [],
      "stateMutability": "nonpayable",
      "type": "function"
    },
    {
      "inputs": [],
      "name": "pauseNewLoans",
      "outputs": [],
      "stateMutability": "nonpayable",
      "type": "function"
    },
    {
      "inputs": [],
      "name": "resumeNewLoans",
      "outputs": [],
      "stateMutability": "nonpayable",
      "type": "function"
    },
    {
      "inputs": [],
      "name": "depositEthToBank",
      "outputs": [],
      "stateMutability": "payable",
      "type": "function"
    },
    {
      "inputs": [
        {
          "internalType": "uint256",
          "name": "_amount",
          "type": "uint256"
        }
      ],
      "name": "ownerWithdraw",
      "outputs": [],
      "stateMutability": "nonpayable",
      "type": "function"
    },
    {
      "inputs": [
        {
          "internalType": "uint256",
          "name": "_cursor",
          "type": "uint256"
        },
        {
          "internalType": "uint256",
          "name": "_count",
          "type": "uint256"
        }
      ],
      "name": "getUserFdDetails",
      "outputs": [
        {
          "internalType": "uint256[]",
          "name": "_fdIndexes",
          "type": "uint256[]"
        },
        {
          "internalType": "uint256[]",
          "name": "_fdIds",
          "type": "uint256[]"
        },
        {
          "internalType": "uint256[]",
          "name": "_amounts",
          "type": "uint256[]"
        },
        {
          "internalType": "uint256[]",
          "name": "_durations",
          "type": "uint256[]"
        },
        {
          "internalType": "uint256[]",
          "name": "_interests",
          "type": "uint256[]"
        },
        {
          "internalType": "uint256[]",
          "name": "_endTimes",
          "type": "uint256[]"
        }
      ],
      "stateMutability": "view",
      "type": "function"
    },
    {
      "inputs": [],
      "name": "getUserDepositDetails",
      "outputs": [
        {
          "internalType": "uint256",
          "name": "_balance",
          "type": "uint256"
        },
        {
          "internalType": "uint256",
          "name": "_totalFdAmount",
          "type": "uint256"
        }
      ],
      "stateMutability": "view",
      "type": "function"
    },
    {
      "inputs": [
        {
          "internalType": "uint256",
          "name": "_cursor",
          "type": "uint256"
        },
        {
          "internalType": "uint256",
          "name": "_count",
          "type": "uint256"
        }
      ],
      "name": "getUserLoanDetails",
      "outputs": [
        {
          "internalType": "uint256[]",
          "name": "_loanIndexes",
          "type": "uint256[]"
        },
        {
          "internalType": "uint256[]",
          "name": "_loanIds",
          "type": "uint256[]"
        },
        {
          "internalType": "uint256[]",
          "name": "_amounts",
          "type": "uint256[]"
        },
        {
          "internalType": "uint256[]",
          "name": "_durations",
          "type": "uint256[]"
        },
        {
          "internalType": "uint256[]",
          "name": "_interests",
          "type": "uint256[]"
        },
        {
          "internalType": "uint256[]",
          "name": "_endTimes",
          "type": "uint256[]"
        },
        {
          "internalType": "uint256[]",
          "name": "_loanStatus",
          "type": "uint256[]"
        }
      ],
      "stateMutability": "view",
      "type": "function"
    }
  ],
  "bytecode": "0x608060405234801561001057600080fd5b50336000806101000a81548173ffffffffffffffffffffffffffffffffffffffff021916908373ffffffffffffffffffffffffffffffffffffffff16021790555060008054906101000a900473ffffffffffffffffffffffffffffffffffffffff1673ffffffffffffffffffffffffffffffffffffffff16600073ffffffffffffffffffffffffffffffffffffffff167f8be0079c531659141344cd1fd0a4f28419497f9722a3daafe3b4186f6b6457e060405160405180910390a361359c806100db6000396000f3fe60806040526004361061019c5760003560e01c80638b7afe2e116100ec578063d28b71031161008a578063f2fde38b11610064578063f2fde38b146105a1578063f38250e0146105ca578063f8feb717146105d4578063ff92d19c146105fd5761019c565b8063d28b71031461050e578063d4a3803f1461054b578063d79d06d8146105765761019c565b806390eaab0f116100c657806390eaab0f1461042c57806396713d8914610469578063a9a7cfaa146104a6578063cf73a1bc146104e35761019c565b80638b7afe2e146103ab5780638da5cb5b146103d65780638f32d59b146104015761019c565b806333f707d1116101595780636cc9aaeb116101335780636cc9aaeb1461033d578063715018a6146103545780637c33fc051461036b578063834a9cf5146103825761019c565b806333f707d1146102ab5780634986094b146102d45780634f954d87146102ff5761019c565b80630952680f146101a157806317ad7155146101b85780631f3a11f9146101fb57806320d8c7fa1461023d57806326971883146102685780632bda0c851461027f575b600080fd5b3480156101ad57600080fd5b506101b661063b565b005b3480156101c457600080fd5b506101df60048036038101906101da9190612c2d565b610714565b6040516101f29796959493929190612f18565b60405180910390f35b34801561020757600080fd5b50610222600480360381019061021d9190612c2d565b611215565b60405161023496959493929190612e8d565b60405180910390f35b34801561024957600080fd5b506102526117a0565b60405161025f9190612fb8565b60405180910390f35b34801561027457600080fd5b5061027d6117b3565b005b34801561028b57600080fd5b5061029461188c565b6040516102a29291906130f0565b60405180910390f35b3480156102b757600080fd5b506102d260048036038101906102cd9190612bc8565b6119b2565b005b3480156102e057600080fd5b506102e9611b17565b6040516102f691906130d5565b60405180910390f35b34801561030b57600080fd5b5061032660048036038101906103219190612bc8565b611b1d565b6040516103349291906130f0565b60405180910390f35b34801561034957600080fd5b50610352611b41565b005b34801561036057600080fd5b50610369611c1a565b005b34801561037757600080fd5b50610380611ce9565b005b34801561038e57600080fd5b506103a960048036038101906103a49190612bf1565b611dc2565b005b3480156103b757600080fd5b506103c061242e565b6040516103cd91906130d5565b60405180910390f35b3480156103e257600080fd5b506103eb612434565b6040516103f89190612e49565b60405180910390f35b34801561040d57600080fd5b5061041661245d565b6040516104239190612fb8565b60405180910390f35b34801561043857600080fd5b50610453600480360381019061044e9190612bc8565b6124b4565b60405161046091906130d5565b60405180910390f35b34801561047557600080fd5b50610490600480360381019061048b9190612bc8565b6124cc565b60405161049d91906130d5565b60405180910390f35b3480156104b257600080fd5b506104cd60048036038101906104c89190612bc8565b6124f0565b6040516104da91906130d5565b60405180910390f35b3480156104ef57600080fd5b506104f8612508565b6040516105059190612e49565b60405180910390f35b34801561051a57600080fd5b5061053560048036038101906105309190612bc8565b61252e565b60405161054291906130d5565b60405180910390f35b34801561055757600080fd5b50610560612552565b60405161056d9190612fb8565b60405180910390f35b34801561058257600080fd5b5061058b612565565b60405161059891906130d5565b60405180910390f35b3480156105ad57600080fd5b506105c860048036038101906105c39190612b9f565b61256a565b005b6105d2612587565b005b3480156105e057600080fd5b506105fb60048036038101906105f69190612bc8565b6125ec565b005b34801561060957600080fd5b50610624600480360381019061061f9190612bc8565b6128be565b6040516106329291906130f0565b60405180910390f35b3373ffffffffffffffffffffffffffffffffffffffff16600260009054906101000a900473ffffffffffffffffffffffffffffffffffffffff1673ffffffffffffffffffffffffffffffffffffffff16146106cb576040517f08c379a00000000000000000000000000000000000000000000000000000000081526004016106c290613015565b60405180910390fd5b6000600a60016101000a81548160ff0219169083151502179055507fe3e20cc9304e7e46208466a4d4d61fd8e52b0bfa9843411f77ac350d11d5c3af60405160405180910390a1565b6060806060806060806060600b60003373ffffffffffffffffffffffffffffffffffffffff1673ffffffffffffffffffffffffffffffffffffffff16815260200190815260200160002060000160009054906101000a900460ff166107ae576040517f08c379a00000000000000000000000000000000000000000000000000000000081526004016107a590612ff5565b60405180910390fd5b600033905060008a90505b600b60008373ffffffffffffffffffffffffffffffffffffffff1673ffffffffffffffffffffffffffffffffffffffff16815260200190815260200160002060030180549050811080156108225750898b610814919061316e565b811080610821575060008a145b5b156112075780898281518110610861577f4e487b7100000000000000000000000000000000000000000000000000000000600052603260045260246000fd5b602002602001018181525050600b60008373ffffffffffffffffffffffffffffffffffffffff1673ffffffffffffffffffffffffffffffffffffffff16815260200190815260200160002060030181815481106108e7577f4e487b7100000000000000000000000000000000000000000000000000000000600052603260045260246000fd5b906000526020600020906007020160000154888281518110610932577f4e487b7100000000000000000000000000000000000000000000000000000000600052603260045260246000fd5b602002602001018181525050600b60008373ffffffffffffffffffffffffffffffffffffffff1673ffffffffffffffffffffffffffffffffffffffff16815260200190815260200160002060030181815481106109b8577f4e487b7100000000000000000000000000000000000000000000000000000000600052603260045260246000fd5b906000526020600020906007020160010154878281518110610a03577f4e487b7100000000000000000000000000000000000000000000000000000000600052603260045260246000fd5b602002602001018181525050600b60008373ffffffffffffffffffffffffffffffffffffffff1673ffffffffffffffffffffffffffffffffffffffff1681526020019081526020016000206003018181548110610a89577f4e487b7100000000000000000000000000000000000000000000000000000000600052603260045260246000fd5b906000526020600020906007020160020154868281518110610ad4577f4e487b7100000000000000000000000000000000000000000000000000000000600052603260045260246000fd5b602002602001018181525050600b60008373ffffffffffffffffffffffffffffffffffffffff1673ffffffffffffffffffffffffffffffffffffffff1681526020019081526020016000206003018181548110610b5a577f4e487b7100000000000000000000000000000000000000000000000000000000600052603260045260246000fd5b906000526020600020906007020160030154858281518110610ba5577f4e487b7100000000000000000000000000000000000000000000000000000000600052603260045260246000fd5b602002602001018181525050600b60008373ffffffffffffffffffffffffffffffffffffffff1673ffffffffffffffffffffffffffffffffffffffff1681526020019081526020016000206003018181548110610c2b577f4e487b7100000000000000000000000000000000000000000000000000000000600052603260045260246000fd5b906000526020600020906007020160040154848281518110610c76577f4e487b7100000000000000000000000000000000000000000000000000000000600052603260045260246000fd5b60200260200101818152505060006003811115610cbc577f4e487b7100000000000000000000000000000000000000000000000000000000600052602160045260246000fd5b600b60008473ffffffffffffffffffffffffffffffffffffffff1673ffffffffffffffffffffffffffffffffffffffff1681526020019081526020016000206003018281548110610d36577f4e487b7100000000000000000000000000000000000000000000000000000000600052603260045260246000fd5b906000526020600020906007020160060160009054906101000a900460ff166003811115610d8d577f4e487b7100000000000000000000000000000000000000000000000000000000600052602160045260246000fd5b1415610ddf576001838281518110610dce577f4e487b7100000000000000000000000000000000000000000000000000000000600052603260045260246000fd5b6020026020010181815250506111f4565b60016003811115610e19577f4e487b7100000000000000000000000000000000000000000000000000000000600052602160045260246000fd5b600b60008473ffffffffffffffffffffffffffffffffffffffff1673ffffffffffffffffffffffffffffffffffffffff1681526020019081526020016000206003018281548110610e93577f4e487b7100000000000000000000000000000000000000000000000000000000600052603260045260246000fd5b906000526020600020906007020160060160009054906101000a900460ff166003811115610eea577f4e487b7100000000000000000000000000000000000000000000000000000000600052602160045260246000fd5b1415610f3c576002838281518110610f2b577f4e487b7100000000000000000000000000000000000000000000000000000000600052603260045260246000fd5b6020026020010181815250506111f3565b60026003811115610f76577f4e487b7100000000000000000000000000000000000000000000000000000000600052602160045260246000fd5b600b60008473ffffffffffffffffffffffffffffffffffffffff1673ffffffffffffffffffffffffffffffffffffffff1681526020019081526020016000206003018281548110610ff0577f4e487b7100000000000000000000000000000000000000000000000000000000600052603260045260246000fd5b906000526020600020906007020160060160009054906101000a900460ff166003811115611047577f4e487b7100000000000000000000000000000000000000000000000000000000600052602160045260246000fd5b1415611099576003838281518110611088577f4e487b7100000000000000000000000000000000000000000000000000000000600052603260045260246000fd5b6020026020010181815250506111f2565b6003808111156110d2577f4e487b7100000000000000000000000000000000000000000000000000000000600052602160045260246000fd5b600b60008473ffffffffffffffffffffffffffffffffffffffff1673ffffffffffffffffffffffffffffffffffffffff168152602001908152602001600020600301828154811061114c577f4e487b7100000000000000000000000000000000000000000000000000000000600052603260045260246000fd5b906000526020600020906007020160060160009054906101000a900460ff1660038111156111a3577f4e487b7100000000000000000000000000000000000000000000000000000000600052602160045260246000fd5b14156111f15760048382815181106111e4577f4e487b7100000000000000000000000000000000000000000000000000000000600052603260045260246000fd5b6020026020010181815250505b5b5b5b80806111ff906132fe565b9150506107b9565b505092959891949750929550565b606080606080606080600b60003373ffffffffffffffffffffffffffffffffffffffff1673ffffffffffffffffffffffffffffffffffffffff16815260200190815260200160002060000160009054906101000a900460ff166112ad576040517f08c379a00000000000000000000000000000000000000000000000000000000081526004016112a490612ff5565b60405180910390fd5b600033905060008990505b600b60008373ffffffffffffffffffffffffffffffffffffffff1673ffffffffffffffffffffffffffffffffffffffff16815260200190815260200160002060040180549050811080156113215750888a611313919061316e565b8110806113205750600089145b5b156117945780888281518110611360577f4e487b7100000000000000000000000000000000000000000000000000000000600052603260045260246000fd5b602002602001018181525050600b60008373ffffffffffffffffffffffffffffffffffffffff1673ffffffffffffffffffffffffffffffffffffffff16815260200190815260200160002060040181815481106113e6577f4e487b7100000000000000000000000000000000000000000000000000000000600052603260045260246000fd5b906000526020600020906005020160000154878281518110611431577f4e487b7100000000000000000000000000000000000000000000000000000000600052603260045260246000fd5b602002602001018181525050600b60008373ffffffffffffffffffffffffffffffffffffffff1673ffffffffffffffffffffffffffffffffffffffff16815260200190815260200160002060040181815481106114b7577f4e487b7100000000000000000000000000000000000000000000000000000000600052603260045260246000fd5b906000526020600020906005020160010154868281518110611502577f4e487b7100000000000000000000000000000000000000000000000000000000600052603260045260246000fd5b602002602001018181525050600b60008373ffffffffffffffffffffffffffffffffffffffff1673ffffffffffffffffffffffffffffffffffffffff1681526020019081526020016000206004018181548110611588577f4e487b7100000000000000000000000000000000000000000000000000000000600052603260045260246000fd5b9060005260206000209060050201600201548582815181106115d3577f4e487b7100000000000000000000000000000000000000000000000000000000600052603260045260246000fd5b602002602001018181525050600b60008373ffffffffffffffffffffffffffffffffffffffff1673ffffffffffffffffffffffffffffffffffffffff1681526020019081526020016000206004018181548110611659577f4e487b7100000000000000000000000000000000000000000000000000000000600052603260045260246000fd5b9060005260206000209060050201600301548482815181106116a4577f4e487b7100000000000000000000000000000000000000000000000000000000600052603260045260246000fd5b602002602001018181525050600b60008373ffffffffffffffffffffffffffffffffffffffff1673ffffffffffffffffffffffffffffffffffffffff168152602001908152602001600020600401818154811061172a577f4e487b7100000000000000000000000000000000000000000000000000000000600052603260045260246000fd5b906000526020600020906005020160040154838281518110611775577f4e487b7100000000000000000000000000000000000000000000000000000000600052603260045260246000fd5b602002602001018181525050808061178c906132fe565b9150506112b8565b50509295509295509295565b600a60019054906101000a900460ff1681565b3373ffffffffffffffffffffffffffffffffffffffff16600260009054906101000a900473ffffffffffffffffffffffffffffffffffffffff1673ffffffffffffffffffffffffffffffffffffffff1614611843576040517f08c379a000000000000000000000000000000000000000000000000000000000815260040161183a90613015565b60405180910390fd5b6000600a60006101000a81548160ff0219169083151502179055507fe3e20cc9304e7e46208466a4d4d61fd8e52b0bfa9843411f77ac350d11d5c3af60405160405180910390a1565b600080600b60003373ffffffffffffffffffffffffffffffffffffffff1673ffffffffffffffffffffffffffffffffffffffff16815260200190815260200160002060000160009054906101000a900460ff1661191e576040517f08c379a000000000000000000000000000000000000000000000000000000000815260040161191590612ff5565b60405180910390fd5b6000339050600b60008273ffffffffffffffffffffffffffffffffffffffff1673ffffffffffffffffffffffffffffffffffffffff168152602001908152602001600020600101549250600b60008273ffffffffffffffffffffffffffffffffffffffff1673ffffffffffffffffffffffffffffffffffffffff168152602001908152602001600020600201549150509091565b6119ba61245d565b6119c357600080fd5b600554811115611a08576040517f08c379a00000000000000000000000000000000000000000000000000000000081526004016119ff90613055565b60405180910390fd5b600354611a20826004546128e290919063ffffffff16565b11611a60576040517f08c379a0000000000000000000000000000000000000000000000000000000008152600401611a57906130b5565b60405180910390fd5b611a75816004546128e290919063ffffffff16565b600481905550611a90816005546128e290919063ffffffff16565b6005819055503373ffffffffffffffffffffffffffffffffffffffff166108fc829081150290604051600060405180830381858888f19350505050158015611adc573d6000803e3d6000fd5b507fa20809e697380eaea0fd13bf4d14b00e2ef29559ef361501189d3be2e9b0ec8581604051611b0c91906130d5565b60405180910390a150565b60065481565b60106020528060005260406000206000915090508060000154908060010154905082565b3373ffffffffffffffffffffffffffffffffffffffff16600260009054906101000a900473ffffffffffffffffffffffffffffffffffffffff1673ffffffffffffffffffffffffffffffffffffffff1614611bd1576040517f08c379a0000000000000000000000000000000000000000000000000000000008152600401611bc890613015565b60405180910390fd5b6001600a60016101000a81548160ff0219169083151502179055507fb208bcac273d115c3c6e50674a1f6aabe56c60aa269d723be76d8b12d57b67d060405160405180910390a1565b611c2261245d565b611c2b57600080fd5b600073ffffffffffffffffffffffffffffffffffffffff1660008054906101000a900473ffffffffffffffffffffffffffffffffffffffff1673ffffffffffffffffffffffffffffffffffffffff167f8be0079c531659141344cd1fd0a4f28419497f9722a3daafe3b4186f6b6457e060405160405180910390a360008060006101000a81548173ffffffffffffffffffffffffffffffffffffffff021916908373ffffffffffffffffffffffffffffffffffffffff160217905550565b3373ffffffffffffffffffffffffffffffffffffffff16600260009054906101000a900473ffffffffffffffffffffffffffffffffffffffff1673ffffffffffffffffffffffffffffffffffffffff1614611d79576040517f08c379a0000000000000000000000000000000000000000000000000000000008152600401611d7090613015565b60405180910390fd5b6001600a60006101000a81548160ff0219169083151502179055507fa35ec68af9d45be222786f2d15214338e6a43668598f19c67733155ffec5cdb860405160405180910390a1565b3373ffffffffffffffffffffffffffffffffffffffff16600260009054906101000a900473ffffffffffffffffffffffffffffffffffffffff1673ffffffffffffffffffffffffffffffffffffffff1614611e52576040517f08c379a0000000000000000000000000000000000000000000000000000000008152600401611e4990613015565b60405180910390fd5b6000600c600084815260200190815260200160002060009054906101000a900473ffffffffffffffffffffffffffffffffffffffff1690506000600e60008581526020019081526020016000205490506000600b60008473ffffffffffffffffffffffffffffffffffffffff1673ffffffffffffffffffffffffffffffffffffffff1681526020019081526020016000206003018281548110611f1e577f4e487b7100000000000000000000000000000000000000000000000000000000600052603260045260246000fd5b9060005260206000209060070201600101549050831561220c5760035481600454611f49919061324f565b11611f89576040517f08c379a0000000000000000000000000000000000000000000000000000000008152600401611f80906130b5565b60405180910390fd5b61203c61202d62015180600b60008773ffffffffffffffffffffffffffffffffffffffff1673ffffffffffffffffffffffffffffffffffffffff168152602001908152602001600020600301858154811061200d577f4e487b7100000000000000000000000000000000000000000000000000000000600052603260045260246000fd5b90600052602060002090600702016002015461292c90919063ffffffff16565b426129a790919063ffffffff16565b600b60008573ffffffffffffffffffffffffffffffffffffffff1673ffffffffffffffffffffffffffffffffffffffff16815260200190815260200160002060030183815481106120b6577f4e487b7100000000000000000000000000000000000000000000000000000000600052603260045260246000fd5b9060005260206000209060070201600401819055506001600b60008573ffffffffffffffffffffffffffffffffffffffff1673ffffffffffffffffffffffffffffffffffffffff1681526020019081526020016000206003018381548110612147577f4e487b7100000000000000000000000000000000000000000000000000000000600052603260045260246000fd5b906000526020600020906007020160060160006101000a81548160ff021916908360038111156121a0577f4e487b7100000000000000000000000000000000000000000000000000000000600052602160045260246000fd5b02179055508273ffffffffffffffffffffffffffffffffffffffff166108fc829081150290604051600060405180830381858888f193505050501580156121eb573d6000803e3d6000fd5b50612201816004546128e290919063ffffffff16565b6004819055506122e7565b6002600b60008573ffffffffffffffffffffffffffffffffffffffff1673ffffffffffffffffffffffffffffffffffffffff1681526020019081526020016000206003018381548110612288577f4e487b7100000000000000000000000000000000000000000000000000000000600052603260045260246000fd5b906000526020600020906007020160060160006101000a81548160ff021916908360038111156122e1577f4e487b7100000000000000000000000000000000000000000000000000000000600052602160045260246000fd5b02179055505b600761230260016007805490506128e290919063ffffffff16565b81548110612339577f4e487b7100000000000000000000000000000000000000000000000000000000600052603260045260246000fd5b90600052602060002001546007600d60008881526020019081526020016000205481548110612391577f4e487b7100000000000000000000000000000000000000000000000000000000600052603260045260246000fd5b906000526020600020018190555060078054806123d7577f4e487b7100000000000000000000000000000000000000000000000000000000600052603160045260246000fd5b60019003818190600052602060002001600090559055847f7aaeba210f793a9180a7d04cbaa4338ec277e58454aaa2545314841e1b4d2d7f848660405161241f929190612e64565b60405180910390a25050505050565b60045481565b60008060009054906101000a900473ffffffffffffffffffffffffffffffffffffffff16905090565b60008060009054906101000a900473ffffffffffffffffffffffffffffffffffffffff1673ffffffffffffffffffffffffffffffffffffffff163373ffffffffffffffffffffffffffffffffffffffff1614905090565b60116020528060005260406000206000915090505481565b600981815481106124dc57600080fd5b906000526020600020016000915090505481565b60126020528060005260406000206000915090505481565b600260009054906101000a900473ffffffffffffffffffffffffffffffffffffffff1681565b6008818154811061253e57600080fd5b906000526020600020016000915090505481565b600a60009054906101000a900460ff1681565b600a81565b61257261245d565b61257b57600080fd5b61258481612a05565b50565b61258f61245d565b61259857600080fd5b6125ad346004546129a790919063ffffffff16565b6004819055507f81bb4299a1a34702f45bf19a704351eb83dce855cf8ff5014c64b704efb7f645346040516125e291906130d5565b60405180910390a1565b3373ffffffffffffffffffffffffffffffffffffffff16600260009054906101000a900473ffffffffffffffffffffffffffffffffffffffff1673ffffffffffffffffffffffffffffffffffffffff161461267c576040517f08c379a000000000000000000000000000000000000000000000000000000000815260040161267390613015565b60405180910390fd5b6000600c600083815260200190815260200160002060009054906101000a900473ffffffffffffffffffffffffffffffffffffffff16905042600b60008373ffffffffffffffffffffffffffffffffffffffff1673ffffffffffffffffffffffffffffffffffffffff168152602001908152602001600020600301600e60008581526020019081526020016000205481548110612742577f4e487b7100000000000000000000000000000000000000000000000000000000600052603260045260246000fd5b9060005260206000209060070201600401541115612795576040517f08c379a000000000000000000000000000000000000000000000000000000000815260040161278c90613095565b60405180910390fd5b6003600b60008373ffffffffffffffffffffffffffffffffffffffff1673ffffffffffffffffffffffffffffffffffffffff168152602001908152602001600020600301600e60008581526020019081526020016000205481548110612824577f4e487b7100000000000000000000000000000000000000000000000000000000600052603260045260246000fd5b906000526020600020906007020160060160006101000a81548160ff0219169083600381111561287d577f4e487b7100000000000000000000000000000000000000000000000000000000600052602160045260246000fd5b0217905550817f89753c7b58bfc293194132c57d8fc1ac6a4d453b350c9bca28cc88c890366500826040516128b29190612e49565b60405180910390a25050565b600f6020528060005260406000206000915090508060000154908060010154905082565b600061292483836040518060400160405280601e81526020017f536166654d6174683a207375627472616374696f6e206f766572666c6f770000815250612afc565b905092915050565b60008083141561293f57600090506129a1565b6000828461294d91906131f5565b905082848261295c91906131c4565b1461299c576040517f08c379a000000000000000000000000000000000000000000000000000000000815260040161299390613075565b60405180910390fd5b809150505b92915050565b60008082846129b6919061316e565b9050838110156129fb576040517f08c379a00000000000000000000000000000000000000000000000000000000081526004016129f290613035565b60405180910390fd5b8091505092915050565b600073ffffffffffffffffffffffffffffffffffffffff168173ffffffffffffffffffffffffffffffffffffffff161415612a3f57600080fd5b8073ffffffffffffffffffffffffffffffffffffffff1660008054906101000a900473ffffffffffffffffffffffffffffffffffffffff1673ffffffffffffffffffffffffffffffffffffffff167f8be0079c531659141344cd1fd0a4f28419497f9722a3daafe3b4186f6b6457e060405160405180910390a3806000806101000a81548173ffffffffffffffffffffffffffffffffffffffff021916908373ffffffffffffffffffffffffffffffffffffffff16021790555050565b6000838311158290612b44576040517f08c379a0000000000000000000000000000000000000000000000000000000008152600401612b3b9190612fd3565b60405180910390fd5b5060008385612b53919061324f565b9050809150509392505050565b600081359050612b6f81613521565b92915050565b600081359050612b8481613538565b92915050565b600081359050612b998161354f565b92915050565b600060208284031215612bb157600080fd5b6000612bbf84828501612b60565b91505092915050565b600060208284031215612bda57600080fd5b6000612be884828501612b8a565b91505092915050565b60008060408385031215612c0457600080fd5b6000612c1285828601612b8a565b9250506020612c2385828601612b75565b9150509250929050565b60008060408385031215612c4057600080fd5b6000612c4e85828601612b8a565b9250506020612c5f85828601612b8a565b9150509250929050565b6000612c758383612e2b565b60208301905092915050565b612c8a81613283565b82525050565b6000612c9b82613129565b612ca5818561314c565b9350612cb083613119565b8060005b83811015612ce1578151612cc88882612c69565b9750612cd38361313f565b925050600181019050612cb4565b5085935050505092915050565b612cf781613295565b82525050565b6000612d0882613134565b612d12818561315d565b9350612d228185602086016132cb565b612d2b816133a5565b840191505092915050565b6000612d43600e8361315d565b9150612d4e826133b6565b602082019050919050565b6000612d6660218361315d565b9150612d71826133df565b604082019050919050565b6000612d89601b8361315d565b9150612d948261342e565b602082019050919050565b6000612dac601a8361315d565b9150612db782613457565b602082019050919050565b6000612dcf60218361315d565b9150612dda82613480565b604082019050919050565b6000612df260188361315d565b9150612dfd826134cf565b602082019050919050565b6000612e1560148361315d565b9150612e20826134f8565b602082019050919050565b612e34816132c1565b82525050565b612e43816132c1565b82525050565b6000602082019050612e5e6000830184612c81565b92915050565b6000604082019050612e796000830185612c81565b612e866020830184612cee565b9392505050565b600060c0820190508181036000830152612ea78189612c90565b90508181036020830152612ebb8188612c90565b90508181036040830152612ecf8187612c90565b90508181036060830152612ee38186612c90565b90508181036080830152612ef78185612c90565b905081810360a0830152612f0b8184612c90565b9050979650505050505050565b600060e0820190508181036000830152612f32818a612c90565b90508181036020830152612f468189612c90565b90508181036040830152612f5a8188612c90565b90508181036060830152612f6e8187612c90565b90508181036080830152612f828186612c90565b905081810360a0830152612f968185612c90565b905081810360c0830152612faa8184612c90565b905098975050505050505050565b6000602082019050612fcd6000830184612cee565b92915050565b60006020820190508181036000830152612fed8184612cfd565b905092915050565b6000602082019050818103600083015261300e81612d36565b9050919050565b6000602082019050818103600083015261302e81612d59565b9050919050565b6000602082019050818103600083015261304e81612d7c565b9050919050565b6000602082019050818103600083015261306e81612d9f565b9050919050565b6000602082019050818103600083015261308e81612dc2565b9050919050565b600060208201905081810360008301526130ae81612de5565b9050919050565b600060208201905081810360008301526130ce81612e08565b9050919050565b60006020820190506130ea6000830184612e3a565b92915050565b60006040820190506131056000830185612e3a565b6131126020830184612e3a565b9392505050565b6000819050602082019050919050565b600081519050919050565b600081519050919050565b6000602082019050919050565b600082825260208201905092915050565b600082825260208201905092915050565b6000613179826132c1565b9150613184836132c1565b9250827fffffffffffffffffffffffffffffffffffffffffffffffffffffffffffffffff038211156131b9576131b8613347565b5b828201905092915050565b60006131cf826132c1565b91506131da836132c1565b9250826131ea576131e9613376565b5b828204905092915050565b6000613200826132c1565b915061320b836132c1565b9250817fffffffffffffffffffffffffffffffffffffffffffffffffffffffffffffffff048311821515161561324457613243613347565b5b828202905092915050565b600061325a826132c1565b9150613265836132c1565b92508282101561327857613277613347565b5b828203905092915050565b600061328e826132a1565b9050919050565b60008115159050919050565b600073ffffffffffffffffffffffffffffffffffffffff82169050919050565b6000819050919050565b60005b838110156132e95780820151818401526020810190506132ce565b838111156132f8576000848401525b50505050565b6000613309826132c1565b91507fffffffffffffffffffffffffffffffffffffffffffffffffffffffffffffffff82141561333c5761333b613347565b5b600182019050919050565b7f4e487b7100000000000000000000000000000000000000000000000000000000600052601160045260246000fd5b7f4e487b7100000000000000000000000000000000000000000000000000000000600052601260045260246000fd5b6000601f19601f8301169050919050565b7f496e76616c696420416363657373000000000000000000000000000000000000600082015250565b7f416363657373207265737472696374656420746f204d616e61676572206f6e6c60008201527f7900000000000000000000000000000000000000000000000000000000000000602082015250565b7f536166654d6174683a206164646974696f6e206f766572666c6f770000000000600082015250565b7f496e73756666696369656e74206f776e65722062616c616e6365000000000000600082015250565b7f536166654d6174683a206d756c7469706c69636174696f6e206f766572666c6f60008201527f7700000000000000000000000000000000000000000000000000000000000000602082015250565b7f4e6f7420726561636865642074686520446561646c696e650000000000000000600082015250565b7f496e73756666696369656e742042616c616e6365000000000000000000000000600082015250565b61352a81613283565b811461353557600080fd5b50565b61354181613295565b811461354c57600080fd5b50565b613558816132c1565b811461356357600080fd5b5056fea264697066735822122044d075c3e8545d974d1d7f1ffdf8771adf3808b4643b485ea3d8cd72e9148de764736f6c63430008010033",
  "immutableReferences": {},
  "source": "// SPDX-License-Identifier: UNLICENSED\r\n\r\npragma solidity >=0.6.0;\r\n    import \"./ownable.sol\";\r\n    import \"./SafeMath.sol\"; \r\n/**\r\n * @author Joby Augustine\r\n * @notice You use this contract for banking operations. \r\n * @dev The main Bank contract for banking operations.\r\n * @title Decentralized Bank\r\n */     \r\n\r\n/*Contract */\r\ncontract BankStorage is Ownable{\r\n\r\n    /* library */\r\n    using SafeMath for uint256;\r\n\r\n    /* Enuns */\r\n    \r\n    // Loan Status.\r\n    enum LnStatus { \r\n                \r\n        WaitingForCollateralVerification, // Waiting for collateral verification by the Manager.\r\n        Approved, // Loan approved by Manager after collateral verification.\r\n        Rejected, // Loan rejected by Manager.\r\n        CrossedDeadline // Failed to repay the loan.\r\n    }\r\n            \r\n            \r\n    /* Structs */\r\n    \r\n    // Store Loan information.\r\n    struct LnInfo { \r\n        \r\n        uint256 loanId; // loan Id.\r\n        uint256 amount; // Loan amount.\r\n        uint256 duration; // Duration of Loan in Days. \r\n        uint256 interest; // Interest for the Loan.\r\n        uint256 endTime; // Loan end time\r\n        uint256 repayAmountBal; // Repayment amount left.\r\n        LnStatus loanStatus; //Loan status\r\n    }\r\n    \r\n    // Store Fixed Deposit information.\r\n    struct FxDptInfo {\r\n            \r\n        uint256 fdId; // Fixied deposit Id.\r\n        uint256 amount; // Fixed Deposit amount.\r\n        uint256 duration; // Duration of Fixed Deposit in Days.\r\n        uint256 interest; // Interest for the Fixed Deposit.\r\n        uint256 endTime; // Fixed Deposit end time.\r\n    }\r\n     \r\n    // Store information of the User.\r\n    struct UsrInfo{\r\n        \r\n        bool accStatus; // Account status. `true` value denoted existing user.\r\n        uint256 balance; // Balance amount.\r\n        uint256 totalUsrFD; // Sum total of all Fixed Deposit.\r\n        LnInfo[] loanInfo; // Store details of all Loans of an User.\r\n        FxDptInfo[] fdInfo; // Store details of all Fixed Deposits of an User.\r\n    }\r\n    \r\n    // Loan tariff\r\n    struct LoanTariff{\r\n\r\n        uint256 duration; // Loan duration in Days.\r\n        uint256 interest; // Loan intrest.\r\n    }\r\n    \r\n    \r\n    // Fixed Deposit tariff\r\n    struct FdTariff{\r\n        \r\n        uint256 duration; // Fixed Deposit duration in Days.\r\n        uint256 interest; // Fixed Deposit intrest.\r\n    }\r\n    \r\n /*Events */\r\n    \r\n    /**\r\n     * @dev Emitted when User deposits to his/her account.\r\n     * @param userAddr User address.\r\n     * @param amount Amount deposited.\r\n     */\r\n    event Deposit(address indexed userAddr, uint amount);  \r\n    \r\n    /**\r\n     * @dev Emitted when User withdraws from his/her account.\r\n     * @param userAddr User address.\r\n     * @param amount Amount withdrawn.\r\n     */\r\n    event Withdraw(address indexed userAddr, uint256 amount);  \r\n    \r\n    /**\r\n     * @dev Emitted when User deposits an amount for a fixed duration.\r\n     * @param fdId Fixed deposit Id\r\n     * @param userAddr User address.\r\n     * @param amount Deposit amount.\r\n     * @param tariffId Tariff Id for fixed deposit.\r\n     */\r\n    event FixedDeposit(uint256 indexed fdId, address userAddr, uint256 amount, uint256 tariffId); \r\n        \r\n    /**\r\n     * @dev Emitted when User withdraws his/her fixed deposit.\r\n     * @param fdId Fixed deposit Id\r\n     * @param userAddr User address.\r\n     * @param amount Amount withdrawn.\r\n     */\r\n    event WithdrawFD(uint256 indexed fdId, address userAddr, uint256 amount);  \r\n        \r\n    /**\r\n     * @dev Emitted when User withdraws his/her fixed deposit before maturity period.\r\n     * @param fdId Fixed deposit Id\r\n     * @param userAddr User address.\r\n     * @param amount Amount withdrawn.\r\n     */\r\n    event WithdrawFDBeforeMaturity(uint256 indexed fdId, address userAddr, uint256 amount);  \r\n         \r\n    /**\r\n     * @dev Emitted when User requests for a loan.\r\n     * @param loanId Loan id.\r\n     * @param userAddr User address.\r\n     * @param amount Loan amount.\r\n     * @param tariffId Tariff Id for Loan.\r\n     */\r\n    event RequestLoan(uint256 indexed loanId, address userAddr, uint256 amount, uint256 tariffId);  \r\n    \r\n    /**\r\n     * @dev Emitted when User cancel Loan request.\r\n     * @param loanId Loan id.\r\n     * @param userAddr User address.\r\n     */\r\n    event CancelLoanRequest(uint256 indexed loanId, address userAddr); \r\n        \r\n    /**\r\n     * @dev Emitted when User repays the loan.\r\n     * @param loanId Loan id.\r\n     * @param userAddr User address.\r\n     * @param amount Repay amount.\r\n     */\r\n    event RepayLoan(uint256 indexed loanId, address userAddr, uint256 amount);   \r\n    \r\n    /**\r\n     * @dev Emitted when User failed to repay loan.\r\n     * @param loanId Loan id.\r\n     * @param userAddr User address.\r\n     */\r\n    event LoanDeadLineCrosssed(uint256 indexed loanId, address userAddr); \r\n    \r\n    /**\r\n     * @dev Emitted when Loan is closed.\r\n     * @param loanId Loan Id.\r\n     * @param userAddr User address.\r\n     */\r\n    event LoanClosed(uint256 indexed loanId, address userAddr); \r\n        \r\n    /**\r\n     * @dev Emitted when Manager approve or reject loan.\r\n     * @param loanId Loan Id\r\n     * @param userAddr User address.\r\n     * @param status Loan status, if `true` then loan approved else if `false` then loan rejected.\r\n     */\r\n    event ApproveOrRejectLoan(uint indexed loanId, address userAddr, bool status);  \r\n        \r\n    /**\r\n     * @dev Emitted when new deposits are freezed.\r\n     */\r\n    event PausedNewDeposits();  \r\n        \r\n    /**\r\n     * @dev Emitted when allows new deposits.\r\n     */\r\n    event ResumedNewDeposits();  \r\n        \r\n    /**\r\n     * @dev Emitted when new loans are freezed.\r\n     */\r\n    event PausedNewLoans();  \r\n        \r\n    /**\r\n     * @dev Emitted when new loans are available.\r\n     */\r\n    event ResumedNewLoans();  \r\n        \r\n    /**\r\n     * @dev Emitted when Owner deposits Eth to the Bank.\r\n     * @param amount Deposit amount.\r\n     */\r\n    event DepositEthToBank(uint256 amount);   \r\n        \r\n    /**\r\n     * @dev Emitted when Owner withdraws profit.\r\n     * @param amount Withdraw amount.\r\n     */\r\n    event OwnerWithdraw(uint256 amount);  \r\n        \r\n    /**\r\n     * @dev Emitted when Manager sets a loan duration and its interest rate.\r\n     * @param tariffId Loan tarrif Id.\r\n     * @param duration Loan duration.\r\n     * @param interest Loan interest.\r\n     * \r\n     */\r\n    event SetLoanDurationAndInterest(uint256 tariffId, uint256 duration, uint256 interest);  \r\n\r\n    /**\r\n     * @dev Emitted when Manager remove a loan duration and its interest rate.\r\n     * @param tariffId Loan tariff Id.\r\n     */\r\n    event RemoveLoanDurationAndInterest(uint256 tariffId);\r\n        \r\n    /**\r\n     * @dev Emitted when Manager sets a Fixed deposit duration and its interest rate.\r\n     * @param tariffId Fixed deposit tarrif Id.\r\n     * @param duration of Fixed deposit.\r\n     * @param interest Fixed deposit interest.\r\n     */\r\n    event SetFDDurationAndInterest(uint256 tariffId, uint256 duration, uint256 interest); \r\n    \r\n     /**\r\n     * @dev Emitted when Manager remove a fixed deposit duration and its interest rate.\r\n     * @param tariffId Fixed deposit tariff Id.\r\n     */\r\n    event RemoveFDDurationAndInterest(uint256 tariffId);  \r\n        \r\n    /**\r\n     * @dev Emitted when Owner increases reserve balance.\r\n     * @param reserveBalance New reserve balance amount.\r\n     */\r\n    event IncreaseReserveBalance(uint256 reserveBalance );  \r\n\r\n     /**\r\n     * @dev Emitted when Owner changes the manager.\r\n     * @param managerAddrs Manager's address.\r\n     */\r\n    event SetManager(address managerAddrs); \r\n\r\n    /**\r\n     * @dev Emitted when a new user is added.\r\n     * @param userAddress User's address.\r\n     */\r\n    event CreateAccount(address userAddress);  \r\n\r\n\r\n       /* Storage */\r\n    \r\n    address[]  userAddress; // Array of User addresses.\r\n    address public managerAddress; // Managers's Address.\r\n    uint256 reserveBalance; // Reserve balance that is to be maintained in the contract.\r\n    \r\n    uint256 public contractBalance; // Balance amount of the contract.\r\n    uint256 ownerBalance; // Owner Balance.\r\n    uint256 constant public loanInterestAmountShare = 10 ; // Loan interest amount share for owner in percent.\r\n    uint256 public totalFixedDeposit; // Total fixed deposit.\r\n    uint256[] loanIdsOfPendingRequests; // Loan ids of pending Loan requests.\r\n    uint256[] public fdTfId; // Fixed Deposit tariff Ids.\r\n    uint256[] public lnTfId; // Loan tariff Ids.\r\n    \r\n    bool public acceptDeposit; // User can deposit Eth only if `acceptDeposit` is `true`;\r\n    bool public loanAvailable; // User can request Loan only if `loanAvailable` is `true`;\r\n    \r\n    mapping(address => UsrInfo) userInfo; // Information of User.\r\n    mapping(uint256 => address) loanIdToUser; // Mapping from loan ids of pending Loan requests to user address .\r\n    mapping(uint256 => uint256) loanIdToPendingRequestIndex; //Mapping from Loan Id to loanIdsOfPendingRequest array index.\r\n    mapping(uint256 => uint256) loanIdToUserLoanInfoIndex; //Mapping from Loan Id to user's loanInfo array index.\r\n    mapping(uint256 => FdTariff) public fdTariffIdToInfo; // Mapping from Fixed deposit tariff Id to information(Fd duration and interest).\r\n    mapping(uint256 => LoanTariff) public lnTariffIdToInfo; // Mapping from Loan tariff Id to information(Loan duration and interest).\r\n    mapping(uint256 => uint256) public fdTariffIdToFdTfIdIndex; // Mapping from Fixed deposit tariff Id to fdTfId index.\r\n    mapping(uint256 => uint256) public lnTariffIdToLnTfIdIndex; // Mapping from Loan tariff Id to lnTfId index.\r\n\r\n    \r\n    /* Modifiers */\r\n    \r\n    /** @dev Requires that the sender is the Manager */\r\n    modifier onlyByManager() {\r\n        require(managerAddress == msg.sender, \"Access restricted to Manager only\");\r\n        _;\r\n        \r\n    }\r\n\r\n\r\n      /**\r\n     * @notice Approve or reject loan.\r\n     * @dev Manager approve or reject loan.\r\n     * @param _loanId Loan Id.\r\n     * @param _approve `true` value indicates the approval and `false` indicates rejection.\r\n     */\r\n    function approveOrRejectLoan(uint _loanId, bool _approve) external onlyByManager {\r\n\r\n        address _userAddrs = loanIdToUser[_loanId];\r\n        uint256 _userLoanIndex = loanIdToUserLoanInfoIndex[_loanId];\r\n        uint256 _loanAmount = userInfo[_userAddrs].loanInfo[_userLoanIndex].amount;\r\n        \r\n        if(_approve){\r\n            require( contractBalance - _loanAmount  > reserveBalance, \"Insufficient Balance\");\r\n            userInfo[_userAddrs].loanInfo[_userLoanIndex].endTime = block.timestamp.add(userInfo[_userAddrs].loanInfo[_userLoanIndex].duration.mul(1 days));\r\n            userInfo[_userAddrs].loanInfo[_userLoanIndex].loanStatus = LnStatus.Approved;\r\n            payable(_userAddrs).transfer(_loanAmount);\r\n            contractBalance = contractBalance.sub(_loanAmount);\r\n        }\r\n        else{\r\n            userInfo[_userAddrs].loanInfo[_userLoanIndex].loanStatus = LnStatus.Rejected;\r\n        }\r\n\r\n        loanIdsOfPendingRequests[loanIdToPendingRequestIndex[_loanId]] = loanIdsOfPendingRequests[loanIdsOfPendingRequests.length.sub(1)]; // Copy last element to current element's position.\r\n        loanIdsOfPendingRequests.pop(); // Remove last element\r\n\r\n        emit ApproveOrRejectLoan(_loanId,_userAddrs, _approve);\r\n    }\r\n    \r\n    /**\r\n     * @notice Change Loan status to deadline crossed.\r\n     * @dev Change Loan status to deadline crossed.\r\n     * @param _loanId Loan Id of the loan.\r\n     */\r\n    function deadLineCrossed(uint256 _loanId) external onlyByManager {\r\n        \r\n        address _userAddrs = loanIdToUser[_loanId];\r\n\r\n        require(userInfo[_userAddrs].loanInfo[loanIdToUserLoanInfoIndex[_loanId]].endTime <= block.timestamp, \"Not reached the Deadline\" );\r\n        \r\n        userInfo[_userAddrs].loanInfo[loanIdToUserLoanInfoIndex[_loanId]].loanStatus = LnStatus.CrossedDeadline;\r\n        \r\n        emit LoanDeadLineCrosssed(_loanId, _userAddrs);\r\n    }\r\n    \r\n    /**\r\n     * @notice Prevent new deposits.\r\n     * @dev Prevent new deposits.\r\n     */\r\n    function pauseNewDeposits() external onlyByManager {\r\n        \r\n        acceptDeposit = false;\r\n        emit PausedNewDeposits();\r\n    }\r\n    \r\n    /**\r\n     * @notice Allow new deposits.\r\n     * @dev Allow new deposits.\r\n     */\r\n    function resumeNewDeposits() external onlyByManager {\r\n        \r\n        acceptDeposit = true;\r\n        emit ResumedNewDeposits();\r\n    }\r\n    \r\n    /**\r\n     * @notice Prevent new loans.\r\n     * @dev Prevent new loans.\r\n     */\r\n    function pauseNewLoans() external onlyByManager {\r\n        \r\n        loanAvailable = false;\r\n        emit PausedNewDeposits();\r\n        \r\n    }\r\n    \r\n    /**\r\n     * @notice Allow new loans.\r\n     * @dev Allow new loans.\r\n     */\r\n    function resumeNewLoans() external onlyByManager {\r\n        \r\n        loanAvailable = true;\r\n        emit ResumedNewLoans();\r\n    }\r\n    \r\n    /**\r\n     * @notice Deposits Eth to the Bank.\r\n     * @dev Owner deposits Eth to the Bank.\r\n     */\r\n    function depositEthToBank() external onlyOwner payable {\r\n    \r\n        contractBalance = contractBalance.add(msg.value);\r\n        emit DepositEthToBank(msg.value);\r\n    }\r\n    \r\n    /**\r\n     * @notice Owner can withdraws profit.\r\n     * @dev Owner withdraws profit.\r\n     * @param _amount Withdraw amount.\r\n     */\r\n    function ownerWithdraw(uint256 _amount) external onlyOwner {\r\n        \r\n        require( _amount <= ownerBalance, \"Insufficient owner balance\");\r\n        require( contractBalance.sub(_amount) > reserveBalance, \"Insufficient Balance\");\r\n        contractBalance = contractBalance.sub(_amount);\r\n        ownerBalance = ownerBalance.sub(_amount);\r\n        payable(msg.sender).transfer(_amount);\r\n        \r\n        emit OwnerWithdraw(_amount);\r\n    }\r\n    \r\n    /**\r\n     * @notice Get the fixed deposit details of an user.\r\n     * @dev Get the fixed deposit details of an user.\r\n     * @param _cursor Starting value of the index that is to be fetched from user's fdInfo array.\r\n     * @param _count Number of fd status that is to be fetched from user's fdInfo array. In order to fetch entire array, set count to zero or a number higher than the last index of the array. \r\n     */\r\n    function getUserFdDetails( uint256 _cursor, uint256 _count ) public view returns(uint[] memory _fdIndexes, uint256[] memory _fdIds, uint256[] memory _amounts, uint256[] memory _durations, uint256[] memory _interests, uint256[] memory _endTimes) {\r\n       \r\n        require(userInfo[msg.sender].accStatus, \"Invalid Access\");\r\n        address _userAddrs = msg.sender;\r\n            \r\n        for (uint256 i = _cursor; i < userInfo[_userAddrs].fdInfo.length && (i < _cursor + _count || _count == 0 ); i++) {\r\n            \r\n            _fdIndexes[i] = i;\r\n            _fdIds[i] = userInfo[_userAddrs].fdInfo[i].fdId;\r\n            _amounts[i] = userInfo[_userAddrs].fdInfo[i].amount;\r\n            _durations[i] = userInfo[_userAddrs].fdInfo[i].duration;\r\n            _interests[i] = userInfo[_userAddrs].fdInfo[i].interest;\r\n            _endTimes[i] =userInfo[_userAddrs].fdInfo[i].endTime;\r\n        }\r\n        return( _fdIndexes, _fdIds, _amounts, _durations, _interests, _endTimes);\r\n    }\r\n    \r\n    /**\r\n     * @notice Get the deposit details of an user.\r\n     * @dev Get the deposit details of an user.\r\n     */\r\n    function getUserDepositDetails() public view returns(uint256 _balance, uint256 _totalFdAmount) {\r\n        require(userInfo[msg.sender].accStatus, \"Invalid Access\");\r\n        address _userAddrs = msg.sender;\r\n        _balance = userInfo[_userAddrs].balance;\r\n        _totalFdAmount = userInfo[_userAddrs].totalUsrFD;\r\n    }\r\n    \r\n    /**\r\n     * @notice Get the loan details of an user.\r\n     * @dev Get the loan details of an user.\r\n     * @param _cursor Starting value of the index that is to be fetched from user's loanInfo array.\r\n     * @param _count Number of loan status that is to be fetched from user's loanInfo array. In order to fetch entire array, set count to zero or a number higher than the last index of the array. \r\n     */\r\n    function getUserLoanDetails(uint256 _cursor, uint256 _count) public view \r\n        returns(uint256[] memory _loanIndexes, uint256[] memory _loanIds, uint256[] memory _amounts,\r\n        uint256[] memory _durations, uint256[] memory _interests, uint256[] memory _endTimes, uint256[] memory _loanStatus) {\r\n            \r\n        require(userInfo[msg.sender].accStatus, \"Invalid Access\");\r\n        address _userAddrs = msg.sender;\r\n\r\n        for (uint256 i = _cursor; i < userInfo[_userAddrs].loanInfo.length && (i < _cursor + _count || _count == 0 ); i++) {\r\n            _loanIndexes[i] = i;\r\n            _loanIds[i] = userInfo[_userAddrs].loanInfo[i].loanId;\r\n            _amounts[i] = userInfo[_userAddrs].loanInfo[i].amount;\r\n            _durations[i] = userInfo[_userAddrs].loanInfo[i].duration;\r\n            _interests[i] = userInfo[_userAddrs].loanInfo[i].interest;\r\n            _endTimes[i] = userInfo[_userAddrs].loanInfo[i].endTime;\r\n\r\n            if(userInfo[_userAddrs].loanInfo[i].loanStatus == LnStatus.WaitingForCollateralVerification) {\r\n                _loanStatus[i] = 1;\r\n            }else if(userInfo[_userAddrs].loanInfo[i].loanStatus == LnStatus.Approved) {\r\n                _loanStatus[i] = 2;\r\n            }else if(userInfo[_userAddrs].loanInfo[i].loanStatus == LnStatus.Rejected) {\r\n                _loanStatus[i] = 3;\r\n            }else if(userInfo[_userAddrs].loanInfo[i].loanStatus == LnStatus.CrossedDeadline) {\r\n                _loanStatus[i] = 4;\r\n            }\r\n        }\r\n    }\r\n\r\n}\r\n",
  "sourcePath": "E:/Blockchain/Bank-dApp/contracts/BankStorage.sol",
  "compiler": {
    "name": "solc",
    "version": "0.8.1+commit.df193b15.Emscripten.clang"
  },
  "schemaVersion": "3.3.3",
  "updatedAt": "2021-02-03T17:47:57.715Z",
  "devdoc": {
    "author": "Joby Augustine",
    "details": "The main Bank contract for banking operations.",
    "events": {
      "ApproveOrRejectLoan(uint256,address,bool)": {
        "details": "Emitted when Manager approve or reject loan.",
        "params": {
          "loanId": "Loan Id",
          "status": "Loan status, if `true` then loan approved else if `false` then loan rejected.",
          "userAddr": "User address."
        }
      },
      "CancelLoanRequest(uint256,address)": {
        "details": "Emitted when User cancel Loan request.",
        "params": {
          "loanId": "Loan id.",
          "userAddr": "User address."
        }
      },
      "CreateAccount(address)": {
        "details": "Emitted when a new user is added.",
        "params": {
          "userAddress": "User's address."
        }
      },
      "Deposit(address,uint256)": {
        "details": "Emitted when User deposits to his/her account.",
        "params": {
          "amount": "Amount deposited.",
          "userAddr": "User address."
        }
      },
      "DepositEthToBank(uint256)": {
        "details": "Emitted when Owner deposits Eth to the Bank.",
        "params": {
          "amount": "Deposit amount."
        }
      },
      "FixedDeposit(uint256,address,uint256,uint256)": {
        "details": "Emitted when User deposits an amount for a fixed duration.",
        "params": {
          "amount": "Deposit amount.",
          "fdId": "Fixed deposit Id",
          "tariffId": "Tariff Id for fixed deposit.",
          "userAddr": "User address."
        }
      },
      "IncreaseReserveBalance(uint256)": {
        "details": "Emitted when Owner increases reserve balance.",
        "params": {
          "reserveBalance": "New reserve balance amount."
        }
      },
      "LoanClosed(uint256,address)": {
        "details": "Emitted when Loan is closed.",
        "params": {
          "loanId": "Loan Id.",
          "userAddr": "User address."
        }
      },
      "LoanDeadLineCrosssed(uint256,address)": {
        "details": "Emitted when User failed to repay loan.",
        "params": {
          "loanId": "Loan id.",
          "userAddr": "User address."
        }
      },
      "OwnerWithdraw(uint256)": {
        "details": "Emitted when Owner withdraws profit.",
        "params": {
          "amount": "Withdraw amount."
        }
      },
      "PausedNewDeposits()": {
        "details": "Emitted when new deposits are freezed."
      },
      "PausedNewLoans()": {
        "details": "Emitted when new loans are freezed."
      },
      "RemoveFDDurationAndInterest(uint256)": {
        "details": "Emitted when Manager remove a fixed deposit duration and its interest rate.",
        "params": {
          "tariffId": "Fixed deposit tariff Id."
        }
      },
      "RemoveLoanDurationAndInterest(uint256)": {
        "details": "Emitted when Manager remove a loan duration and its interest rate.",
        "params": {
          "tariffId": "Loan tariff Id."
        }
      },
      "RepayLoan(uint256,address,uint256)": {
        "details": "Emitted when User repays the loan.",
        "params": {
          "amount": "Repay amount.",
          "loanId": "Loan id.",
          "userAddr": "User address."
        }
      },
      "RequestLoan(uint256,address,uint256,uint256)": {
        "details": "Emitted when User requests for a loan.",
        "params": {
          "amount": "Loan amount.",
          "loanId": "Loan id.",
          "tariffId": "Tariff Id for Loan.",
          "userAddr": "User address."
        }
      },
      "ResumedNewDeposits()": {
        "details": "Emitted when allows new deposits."
      },
      "ResumedNewLoans()": {
        "details": "Emitted when new loans are available."
      },
      "SetFDDurationAndInterest(uint256,uint256,uint256)": {
        "details": "Emitted when Manager sets a Fixed deposit duration and its interest rate.",
        "params": {
          "duration": "of Fixed deposit.",
          "interest": "Fixed deposit interest.",
          "tariffId": "Fixed deposit tarrif Id."
        }
      },
      "SetLoanDurationAndInterest(uint256,uint256,uint256)": {
        "details": "Emitted when Manager sets a loan duration and its interest rate.",
        "params": {
          "duration": "Loan duration.",
          "interest": "Loan interest. ",
          "tariffId": "Loan tarrif Id."
        }
      },
      "SetManager(address)": {
        "details": "Emitted when Owner changes the manager.",
        "params": {
          "managerAddrs": "Manager's address."
        }
      },
      "Withdraw(address,uint256)": {
        "details": "Emitted when User withdraws from his/her account.",
        "params": {
          "amount": "Amount withdrawn.",
          "userAddr": "User address."
        }
      },
      "WithdrawFD(uint256,address,uint256)": {
        "details": "Emitted when User withdraws his/her fixed deposit.",
        "params": {
          "amount": "Amount withdrawn.",
          "fdId": "Fixed deposit Id",
          "userAddr": "User address."
        }
      },
      "WithdrawFDBeforeMaturity(uint256,address,uint256)": {
        "details": "Emitted when User withdraws his/her fixed deposit before maturity period.",
        "params": {
          "amount": "Amount withdrawn.",
          "fdId": "Fixed deposit Id",
          "userAddr": "User address."
        }
      }
    },
    "kind": "dev",
    "methods": {
      "approveOrRejectLoan(uint256,bool)": {
        "details": "Manager approve or reject loan.",
        "params": {
          "_approve": "`true` value indicates the approval and `false` indicates rejection.",
          "_loanId": "Loan Id."
        }
      },
      "deadLineCrossed(uint256)": {
        "details": "Change Loan status to deadline crossed.",
        "params": {
          "_loanId": "Loan Id of the loan."
        }
      },
      "depositEthToBank()": {
        "details": "Owner deposits Eth to the Bank."
      },
      "getUserDepositDetails()": {
        "details": "Get the deposit details of an user."
      },
      "getUserFdDetails(uint256,uint256)": {
        "details": "Get the fixed deposit details of an user.",
        "params": {
          "_count": "Number of fd status that is to be fetched from user's fdInfo array. In order to fetch entire array, set count to zero or a number higher than the last index of the array. ",
          "_cursor": "Starting value of the index that is to be fetched from user's fdInfo array."
        }
      },
      "getUserLoanDetails(uint256,uint256)": {
        "details": "Get the loan details of an user.",
        "params": {
          "_count": "Number of loan status that is to be fetched from user's loanInfo array. In order to fetch entire array, set count to zero or a number higher than the last index of the array. ",
          "_cursor": "Starting value of the index that is to be fetched from user's loanInfo array."
        }
      },
      "isOwner()": {
        "returns": {
          "_0": "true if `msg.sender` is the owner of the contract."
        }
      },
      "owner()": {
        "returns": {
          "_0": "the address of the owner."
        }
      },
      "ownerWithdraw(uint256)": {
        "details": "Owner withdraws profit.",
        "params": {
          "_amount": "Withdraw amount."
        }
      },
      "pauseNewDeposits()": {
        "details": "Prevent new deposits."
      },
      "pauseNewLoans()": {
        "details": "Prevent new loans."
      },
      "renounceOwnership()": {
        "details": "Allows the current owner to relinquish control of the contract."
      },
      "resumeNewDeposits()": {
        "details": "Allow new deposits."
      },
      "resumeNewLoans()": {
        "details": "Allow new loans."
      },
      "transferOwnership(address)": {
        "details": "Allows the current owner to transfer control of the contract to a newOwner.",
        "params": {
          "newOwner": "The address to transfer ownership to."
        }
      }
    },
    "title": "Decentralized Bank",
    "version": 1
  },
  "userdoc": {
    "kind": "user",
    "methods": {
      "approveOrRejectLoan(uint256,bool)": {
        "notice": "Approve or reject loan."
      },
      "deadLineCrossed(uint256)": {
        "notice": "Change Loan status to deadline crossed."
      },
      "depositEthToBank()": {
        "notice": "Deposits Eth to the Bank."
      },
      "getUserDepositDetails()": {
        "notice": "Get the deposit details of an user."
      },
      "getUserFdDetails(uint256,uint256)": {
        "notice": "Get the fixed deposit details of an user."
      },
      "getUserLoanDetails(uint256,uint256)": {
        "notice": "Get the loan details of an user."
      },
      "ownerWithdraw(uint256)": {
        "notice": "Owner can withdraws profit."
      },
      "pauseNewDeposits()": {
        "notice": "Prevent new deposits."
      },
      "pauseNewLoans()": {
        "notice": "Prevent new loans."
      },
      "renounceOwnership()": {
        "notice": "Renouncing to ownership will leave the contract without an owner. It will not be possible to call the functions with the `onlyOwner` modifier anymore."
      },
      "resumeNewDeposits()": {
        "notice": "Allow new deposits."
      },
      "resumeNewLoans()": {
        "notice": "Allow new loans."
      }
    },
    "notice": "You use this contract for banking operations. ",
    "version": 1
  }
}