{
  "contractName": "BankLogic",
  "abi": [
    {
      "inputs": [
        {
          "internalType": "uint256",
          "name": "_reserveBalance",
          "type": "uint256"
        }
      ],
      "stateMutability": "nonpayable",
      "type": "constructor"
    },
    {
      "anonymous": false,
      "inputs": [
        {
          "indexed": true,
          "internalType": "uint256",
          "name": "loanId",
          "type": "uint256"
        },
        {
          "indexed": false,
          "internalType": "address",
          "name": "userAddr",
          "type": "address"
        },
        {
          "indexed": false,
          "internalType": "bool",
          "name": "status",
          "type": "bool"
        }
      ],
      "name": "ApproveOrRejectLoan",
      "type": "event"
    },
    {
      "anonymous": false,
      "inputs": [
        {
          "indexed": true,
          "internalType": "uint256",
          "name": "loanId",
          "type": "uint256"
        },
        {
          "indexed": false,
          "internalType": "address",
          "name": "userAddr",
          "type": "address"
        }
      ],
      "name": "CancelLoanRequest",
      "type": "event"
    },
    {
      "anonymous": false,
      "inputs": [
        {
          "indexed": false,
          "internalType": "address",
          "name": "userAddress",
          "type": "address"
        }
      ],
      "name": "CreateAccount",
      "type": "event"
    },
    {
      "anonymous": false,
      "inputs": [
        {
          "indexed": true,
          "internalType": "address",
          "name": "userAddr",
          "type": "address"
        },
        {
          "indexed": false,
          "internalType": "uint256",
          "name": "amount",
          "type": "uint256"
        }
      ],
      "name": "Deposit",
      "type": "event"
    },
    {
      "anonymous": false,
      "inputs": [
        {
          "indexed": false,
          "internalType": "uint256",
          "name": "amount",
          "type": "uint256"
        }
      ],
      "name": "DepositEthToBank",
      "type": "event"
    },
    {
      "anonymous": false,
      "inputs": [
        {
          "indexed": true,
          "internalType": "uint256",
          "name": "fdId",
          "type": "uint256"
        },
        {
          "indexed": false,
          "internalType": "address",
          "name": "userAddr",
          "type": "address"
        },
        {
          "indexed": false,
          "internalType": "uint256",
          "name": "amount",
          "type": "uint256"
        },
        {
          "indexed": false,
          "internalType": "uint256",
          "name": "tariffId",
          "type": "uint256"
        }
      ],
      "name": "FixedDeposit",
      "type": "event"
    },
    {
      "anonymous": false,
      "inputs": [
        {
          "indexed": false,
          "internalType": "uint256",
          "name": "reserveBalance",
          "type": "uint256"
        }
      ],
      "name": "IncreaseReserveBalance",
      "type": "event"
    },
    {
      "anonymous": false,
      "inputs": [
        {
          "indexed": true,
          "internalType": "uint256",
          "name": "loanId",
          "type": "uint256"
        },
        {
          "indexed": false,
          "internalType": "address",
          "name": "userAddr",
          "type": "address"
        }
      ],
      "name": "LoanClosed",
      "type": "event"
    },
    {
      "anonymous": false,
      "inputs": [
        {
          "indexed": true,
          "internalType": "uint256",
          "name": "loanId",
          "type": "uint256"
        },
        {
          "indexed": false,
          "internalType": "address",
          "name": "userAddr",
          "type": "address"
        }
      ],
      "name": "LoanDeadLineCrosssed",
      "type": "event"
    },
    {
      "anonymous": false,
      "inputs": [
        {
          "indexed": false,
          "internalType": "uint256",
          "name": "amount",
          "type": "uint256"
        }
      ],
      "name": "OwnerWithdraw",
      "type": "event"
    },
    {
      "anonymous": false,
      "inputs": [
        {
          "indexed": true,
          "internalType": "address",
          "name": "previousOwner",
          "type": "address"
        },
        {
          "indexed": true,
          "internalType": "address",
          "name": "newOwner",
          "type": "address"
        }
      ],
      "name": "OwnershipTransferred",
      "type": "event"
    },
    {
      "anonymous": false,
      "inputs": [],
      "name": "PausedNewDeposits",
      "type": "event"
    },
    {
      "anonymous": false,
      "inputs": [],
      "name": "PausedNewLoans",
      "type": "event"
    },
    {
      "anonymous": false,
      "inputs": [
        {
          "indexed": false,
          "internalType": "uint256",
          "name": "tariffId",
          "type": "uint256"
        }
      ],
      "name": "RemoveFDDurationAndInterest",
      "type": "event"
    },
    {
      "anonymous": false,
      "inputs": [
        {
          "indexed": false,
          "internalType": "uint256",
          "name": "tariffId",
          "type": "uint256"
        }
      ],
      "name": "RemoveLoanDurationAndInterest",
      "type": "event"
    },
    {
      "anonymous": false,
      "inputs": [
        {
          "indexed": true,
          "internalType": "uint256",
          "name": "loanId",
          "type": "uint256"
        },
        {
          "indexed": false,
          "internalType": "address",
          "name": "userAddr",
          "type": "address"
        },
        {
          "indexed": false,
          "internalType": "uint256",
          "name": "amount",
          "type": "uint256"
        }
      ],
      "name": "RepayLoan",
      "type": "event"
    },
    {
      "anonymous": false,
      "inputs": [
        {
          "indexed": true,
          "internalType": "uint256",
          "name": "loanId",
          "type": "uint256"
        },
        {
          "indexed": false,
          "internalType": "address",
          "name": "userAddr",
          "type": "address"
        },
        {
          "indexed": false,
          "internalType": "uint256",
          "name": "amount",
          "type": "uint256"
        },
        {
          "indexed": false,
          "internalType": "uint256",
          "name": "tariffId",
          "type": "uint256"
        }
      ],
      "name": "RequestLoan",
      "type": "event"
    },
    {
      "anonymous": false,
      "inputs": [],
      "name": "ResumedNewDeposits",
      "type": "event"
    },
    {
      "anonymous": false,
      "inputs": [],
      "name": "ResumedNewLoans",
      "type": "event"
    },
    {
      "anonymous": false,
      "inputs": [
        {
          "indexed": false,
          "internalType": "uint256",
          "name": "tariffId",
          "type": "uint256"
        },
        {
          "indexed": false,
          "internalType": "uint256",
          "name": "duration",
          "type": "uint256"
        },
        {
          "indexed": false,
          "internalType": "uint256",
          "name": "interest",
          "type": "uint256"
        }
      ],
      "name": "SetFDDurationAndInterest",
      "type": "event"
    },
    {
      "anonymous": false,
      "inputs": [
        {
          "indexed": false,
          "internalType": "uint256",
          "name": "tariffId",
          "type": "uint256"
        },
        {
          "indexed": false,
          "internalType": "uint256",
          "name": "duration",
          "type": "uint256"
        },
        {
          "indexed": false,
          "internalType": "uint256",
          "name": "interest",
          "type": "uint256"
        }
      ],
      "name": "SetLoanDurationAndInterest",
      "type": "event"
    },
    {
      "anonymous": false,
      "inputs": [
        {
          "indexed": false,
          "internalType": "address",
          "name": "managerAddrs",
          "type": "address"
        }
      ],
      "name": "SetManager",
      "type": "event"
    },
    {
      "anonymous": false,
      "inputs": [
        {
          "indexed": true,
          "internalType": "address",
          "name": "userAddr",
          "type": "address"
        },
        {
          "indexed": false,
          "internalType": "uint256",
          "name": "amount",
          "type": "uint256"
        }
      ],
      "name": "Withdraw",
      "type": "event"
    },
    {
      "anonymous": false,
      "inputs": [
        {
          "indexed": true,
          "internalType": "uint256",
          "name": "fdId",
          "type": "uint256"
        },
        {
          "indexed": false,
          "internalType": "address",
          "name": "userAddr",
          "type": "address"
        },
        {
          "indexed": false,
          "internalType": "uint256",
          "name": "amount",
          "type": "uint256"
        }
      ],
      "name": "WithdrawFD",
      "type": "event"
    },
    {
      "anonymous": false,
      "inputs": [
        {
          "indexed": true,
          "internalType": "uint256",
          "name": "fdId",
          "type": "uint256"
        },
        {
          "indexed": false,
          "internalType": "address",
          "name": "userAddr",
          "type": "address"
        },
        {
          "indexed": false,
          "internalType": "uint256",
          "name": "amount",
          "type": "uint256"
        }
      ],
      "name": "WithdrawFDBeforeMaturity",
      "type": "event"
    },
    {
      "inputs": [],
      "name": "acceptDeposit",
      "outputs": [
        {
          "internalType": "bool",
          "name": "",
          "type": "bool"
        }
      ],
      "stateMutability": "view",
      "type": "function"
    },
    {
      "inputs": [
        {
          "internalType": "uint256",
          "name": "_loanId",
          "type": "uint256"
        },
        {
          "internalType": "bool",
          "name": "_approve",
          "type": "bool"
        }
      ],
      "name": "approveOrRejectLoan",
      "outputs": [],
      "stateMutability": "nonpayable",
      "type": "function"
    },
    {
      "inputs": [],
      "name": "contractBalance",
      "outputs": [
        {
          "internalType": "uint256",
          "name": "",
          "type": "uint256"
        }
      ],
      "stateMutability": "view",
      "type": "function"
    },
    {
      "inputs": [
        {
          "internalType": "uint256",
          "name": "_loanId",
          "type": "uint256"
        }
      ],
      "name": "deadLineCrossed",
      "outputs": [],
      "stateMutability": "nonpayable",
      "type": "function"
    },
    {
      "inputs": [],
      "name": "depositEthToBank",
      "outputs": [],
      "stateMutability": "payable",
      "type": "function"
    },
    {
      "inputs": [
        {
          "internalType": "uint256",
          "name": "",
          "type": "uint256"
        }
      ],
      "name": "fdTariffIdToFdTfIdIndex",
      "outputs": [
        {
          "internalType": "uint256",
          "name": "",
          "type": "uint256"
        }
      ],
      "stateMutability": "view",
      "type": "function"
    },
    {
      "inputs": [
        {
          "internalType": "uint256",
          "name": "",
          "type": "uint256"
        }
      ],
      "name": "fdTariffIdToInfo",
      "outputs": [
        {
          "internalType": "uint256",
          "name": "duration",
          "type": "uint256"
        },
        {
          "internalType": "uint256",
          "name": "interest",
          "type": "uint256"
        }
      ],
      "stateMutability": "view",
      "type": "function"
    },
    {
      "inputs": [
        {
          "internalType": "uint256",
          "name": "",
          "type": "uint256"
        }
      ],
      "name": "fdTfId",
      "outputs": [
        {
          "internalType": "uint256",
          "name": "",
          "type": "uint256"
        }
      ],
      "stateMutability": "view",
      "type": "function"
    },
    {
      "inputs": [],
      "name": "getUserDepositDetails",
      "outputs": [
        {
          "internalType": "uint256",
          "name": "_balance",
          "type": "uint256"
        },
        {
          "internalType": "uint256",
          "name": "_totalFdAmount",
          "type": "uint256"
        }
      ],
      "stateMutability": "view",
      "type": "function"
    },
    {
      "inputs": [
        {
          "internalType": "uint256",
          "name": "_cursor",
          "type": "uint256"
        },
        {
          "internalType": "uint256",
          "name": "_count",
          "type": "uint256"
        }
      ],
      "name": "getUserFdDetails",
      "outputs": [
        {
          "internalType": "uint256[]",
          "name": "_fdIndexes",
          "type": "uint256[]"
        },
        {
          "internalType": "uint256[]",
          "name": "_fdIds",
          "type": "uint256[]"
        },
        {
          "internalType": "uint256[]",
          "name": "_amounts",
          "type": "uint256[]"
        },
        {
          "internalType": "uint256[]",
          "name": "_durations",
          "type": "uint256[]"
        },
        {
          "internalType": "uint256[]",
          "name": "_interests",
          "type": "uint256[]"
        },
        {
          "internalType": "uint256[]",
          "name": "_endTimes",
          "type": "uint256[]"
        }
      ],
      "stateMutability": "view",
      "type": "function"
    },
    {
      "inputs": [
        {
          "internalType": "uint256",
          "name": "_cursor",
          "type": "uint256"
        },
        {
          "internalType": "uint256",
          "name": "_count",
          "type": "uint256"
        }
      ],
      "name": "getUserLoanDetails",
      "outputs": [
        {
          "internalType": "uint256[]",
          "name": "_loanIndexes",
          "type": "uint256[]"
        },
        {
          "internalType": "uint256[]",
          "name": "_loanIds",
          "type": "uint256[]"
        },
        {
          "internalType": "uint256[]",
          "name": "_amounts",
          "type": "uint256[]"
        },
        {
          "internalType": "uint256[]",
          "name": "_durations",
          "type": "uint256[]"
        },
        {
          "internalType": "uint256[]",
          "name": "_interests",
          "type": "uint256[]"
        },
        {
          "internalType": "uint256[]",
          "name": "_endTimes",
          "type": "uint256[]"
        },
        {
          "internalType": "uint256[]",
          "name": "_loanStatus",
          "type": "uint256[]"
        }
      ],
      "stateMutability": "view",
      "type": "function"
    },
    {
      "inputs": [],
      "name": "isOwner",
      "outputs": [
        {
          "internalType": "bool",
          "name": "",
          "type": "bool"
        }
      ],
      "stateMutability": "view",
      "type": "function"
    },
    {
      "inputs": [
        {
          "internalType": "uint256",
          "name": "",
          "type": "uint256"
        }
      ],
      "name": "lnTariffIdToInfo",
      "outputs": [
        {
          "internalType": "uint256",
          "name": "duration",
          "type": "uint256"
        },
        {
          "internalType": "uint256",
          "name": "interest",
          "type": "uint256"
        }
      ],
      "stateMutability": "view",
      "type": "function"
    },
    {
      "inputs": [
        {
          "internalType": "uint256",
          "name": "",
          "type": "uint256"
        }
      ],
      "name": "lnTariffIdToLnTfIdIndex",
      "outputs": [
        {
          "internalType": "uint256",
          "name": "",
          "type": "uint256"
        }
      ],
      "stateMutability": "view",
      "type": "function"
    },
    {
      "inputs": [
        {
          "internalType": "uint256",
          "name": "",
          "type": "uint256"
        }
      ],
      "name": "lnTfId",
      "outputs": [
        {
          "internalType": "uint256",
          "name": "",
          "type": "uint256"
        }
      ],
      "stateMutability": "view",
      "type": "function"
    },
    {
      "inputs": [],
      "name": "loanAvailable",
      "outputs": [
        {
          "internalType": "bool",
          "name": "",
          "type": "bool"
        }
      ],
      "stateMutability": "view",
      "type": "function"
    },
    {
      "inputs": [],
      "name": "loanInterestAmountShare",
      "outputs": [
        {
          "internalType": "uint256",
          "name": "",
          "type": "uint256"
        }
      ],
      "stateMutability": "view",
      "type": "function"
    },
    {
      "inputs": [],
      "name": "managerAddress",
      "outputs": [
        {
          "internalType": "address",
          "name": "",
          "type": "address"
        }
      ],
      "stateMutability": "view",
      "type": "function"
    },
    {
      "inputs": [],
      "name": "owner",
      "outputs": [
        {
          "internalType": "address",
          "name": "",
          "type": "address"
        }
      ],
      "stateMutability": "view",
      "type": "function"
    },
    {
      "inputs": [
        {
          "internalType": "uint256",
          "name": "_amount",
          "type": "uint256"
        }
      ],
      "name": "ownerWithdraw",
      "outputs": [],
      "stateMutability": "nonpayable",
      "type": "function"
    },
    {
      "inputs": [],
      "name": "pauseNewDeposits",
      "outputs": [],
      "stateMutability": "nonpayable",
      "type": "function"
    },
    {
      "inputs": [],
      "name": "pauseNewLoans",
      "outputs": [],
      "stateMutability": "nonpayable",
      "type": "function"
    },
    {
      "inputs": [],
      "name": "renounceOwnership",
      "outputs": [],
      "stateMutability": "nonpayable",
      "type": "function"
    },
    {
      "inputs": [],
      "name": "resumeNewDeposits",
      "outputs": [],
      "stateMutability": "nonpayable",
      "type": "function"
    },
    {
      "inputs": [],
      "name": "resumeNewLoans",
      "outputs": [],
      "stateMutability": "nonpayable",
      "type": "function"
    },
    {
      "inputs": [],
      "name": "totalFixedDeposit",
      "outputs": [
        {
          "internalType": "uint256",
          "name": "",
          "type": "uint256"
        }
      ],
      "stateMutability": "view",
      "type": "function"
    },
    {
      "inputs": [
        {
          "internalType": "address",
          "name": "newOwner",
          "type": "address"
        }
      ],
      "name": "transferOwnership",
      "outputs": [],
      "stateMutability": "nonpayable",
      "type": "function"
    },
    {
      "inputs": [],
      "name": "deposit",
      "outputs": [],
      "stateMutability": "payable",
      "type": "function"
    },
    {
      "inputs": [
        {
          "internalType": "uint256",
          "name": "_amount",
          "type": "uint256"
        }
      ],
      "name": "withdraw",
      "outputs": [],
      "stateMutability": "nonpayable",
      "type": "function"
    },
    {
      "inputs": [
        {
          "internalType": "uint256",
          "name": "_tariffId",
          "type": "uint256"
        }
      ],
      "name": "fixedDeposit",
      "outputs": [],
      "stateMutability": "payable",
      "type": "function"
    },
    {
      "inputs": [
        {
          "internalType": "uint256",
          "name": "_fdIndex",
          "type": "uint256"
        }
      ],
      "name": "withdrawFD",
      "outputs": [],
      "stateMutability": "nonpayable",
      "type": "function"
    },
    {
      "inputs": [
        {
          "internalType": "uint256",
          "name": "_fdIndex",
          "type": "uint256"
        }
      ],
      "name": "withdrawFDBeforeMaturity",
      "outputs": [],
      "stateMutability": "nonpayable",
      "type": "function"
    },
    {
      "inputs": [
        {
          "internalType": "uint256",
          "name": "_amount",
          "type": "uint256"
        },
        {
          "internalType": "uint256",
          "name": "_tariffId",
          "type": "uint256"
        }
      ],
      "name": "requestLoan",
      "outputs": [],
      "stateMutability": "nonpayable",
      "type": "function"
    },
    {
      "inputs": [
        {
          "internalType": "uint256",
          "name": "_loanIndex",
          "type": "uint256"
        }
      ],
      "name": "repayLoan",
      "outputs": [],
      "stateMutability": "payable",
      "type": "function"
    },
    {
      "inputs": [
        {
          "internalType": "uint256",
          "name": "_cancelLoanId",
          "type": "uint256"
        }
      ],
      "name": "cancelLoanRequest",
      "outputs": [],
      "stateMutability": "nonpayable",
      "type": "function"
    },
    {
      "inputs": [
        {
          "internalType": "uint256",
          "name": "_cursor",
          "type": "uint256"
        },
        {
          "internalType": "uint256",
          "name": "_count",
          "type": "uint256"
        }
      ],
      "name": "viewLoanRequests",
      "outputs": [
        {
          "internalType": "uint256[]",
          "name": "_loanIds",
          "type": "uint256[]"
        },
        {
          "internalType": "address[]",
          "name": "_userAddrs",
          "type": "address[]"
        },
        {
          "internalType": "uint256[]",
          "name": "_amounts",
          "type": "uint256[]"
        },
        {
          "internalType": "uint256[]",
          "name": "_durations",
          "type": "uint256[]"
        },
        {
          "internalType": "uint256[]",
          "name": "_interests",
          "type": "uint256[]"
        }
      ],
      "stateMutability": "view",
      "type": "function"
    },
    {
      "inputs": [
        {
          "internalType": "uint256",
          "name": "_duration",
          "type": "uint256"
        },
        {
          "internalType": "uint256",
          "name": "_interest",
          "type": "uint256"
        }
      ],
      "name": "setLoanDurationAndInterest",
      "outputs": [],
      "stateMutability": "nonpayable",
      "type": "function"
    },
    {
      "inputs": [
        {
          "internalType": "uint256",
          "name": "_cursor",
          "type": "uint256"
        },
        {
          "internalType": "uint256",
          "name": "_count",
          "type": "uint256"
        }
      ],
      "name": "getLoanDurationAndInterest",
      "outputs": [
        {
          "internalType": "uint256[]",
          "name": "_duration",
          "type": "uint256[]"
        },
        {
          "internalType": "uint256[]",
          "name": "_interest",
          "type": "uint256[]"
        }
      ],
      "stateMutability": "view",
      "type": "function"
    },
    {
      "inputs": [
        {
          "internalType": "uint256",
          "name": "_tariffId",
          "type": "uint256"
        }
      ],
      "name": "removeLoanDurationAndInterest",
      "outputs": [],
      "stateMutability": "nonpayable",
      "type": "function"
    },
    {
      "inputs": [
        {
          "internalType": "uint256",
          "name": "_duration",
          "type": "uint256"
        },
        {
          "internalType": "uint256",
          "name": "_interest",
          "type": "uint256"
        }
      ],
      "name": "setFDDurationAndInterest",
      "outputs": [],
      "stateMutability": "nonpayable",
      "type": "function"
    },
    {
      "inputs": [
        {
          "internalType": "uint256",
          "name": "_cursor",
          "type": "uint256"
        },
        {
          "internalType": "uint256",
          "name": "_count",
          "type": "uint256"
        }
      ],
      "name": "getFDDurationAndInterest",
      "outputs": [
        {
          "internalType": "uint256[]",
          "name": "_duration",
          "type": "uint256[]"
        },
        {
          "internalType": "uint256[]",
          "name": "_interest",
          "type": "uint256[]"
        }
      ],
      "stateMutability": "view",
      "type": "function"
    },
    {
      "inputs": [
        {
          "internalType": "uint256",
          "name": "_tariffId",
          "type": "uint256"
        }
      ],
      "name": "removeFDDurationAndInterest",
      "outputs": [],
      "stateMutability": "nonpayable",
      "type": "function"
    },
    {
      "inputs": [
        {
          "internalType": "uint256",
          "name": "_amount",
          "type": "uint256"
        }
      ],
      "name": "increaseReserveBalance",
      "outputs": [],
      "stateMutability": "nonpayable",
      "type": "function"
    },
    {
      "inputs": [
        {
          "internalType": "address",
          "name": "_managerAddrs",
          "type": "address"
        }
      ],
      "name": "setManager",
      "outputs": [],
      "stateMutability": "nonpayable",
      "type": "function"
    },
    {
      "inputs": [],
      "name": "getAllUsers",
      "outputs": [
        {
          "internalType": "address[]",
          "name": "_userAddrs",
          "type": "address[]"
        }
      ],
      "stateMutability": "view",
      "type": "function"
    }
  ],
  "bytecode": "0x60806040523480156200001157600080fd5b50604051620080d3380380620080d3833981810160405281019062000037919062000117565b336000806101000a81548173ffffffffffffffffffffffffffffffffffffffff021916908373ffffffffffffffffffffffffffffffffffffffff16021790555060008054906101000a900473ffffffffffffffffffffffffffffffffffffffff1673ffffffffffffffffffffffffffffffffffffffff16600073ffffffffffffffffffffffffffffffffffffffff167f8be0079c531659141344cd1fd0a4f28419497f9722a3daafe3b4186f6b6457e060405160405180910390a3806003819055505062000167565b60008151905062000111816200014d565b92915050565b6000602082840312156200012a57600080fd5b60006200013a8482850162000100565b91505092915050565b6000819050919050565b620001588162000143565b81146200016457600080fd5b50565b617f5c80620001776000396000f3fe6080604052600436106102725760003560e01c80638da5cb5b1161014f578063cf73a1bc116100c1578063e2842d791161007a578063e2842d7914610910578063f2fde38b1461093b578063f38250e014610964578063f8feb7171461096e578063fc5c5be814610997578063ff92d19c146109c057610272565b8063cf73a1bc1461081f578063d0e30db01461084a578063d0ebdbe714610854578063d28b71031461087d578063d4a3803f146108ba578063d79d06d8146108e557610272565b806396713d891161011357806396713d891461070e578063a42644b81461074b578063a9a7cfaa14610774578063aa452fa6146107b1578063ab7b1c89146107da578063c84242b1146107f657610272565b80638da5cb5b146106145780638f32d59b1461063f57806390eaab0f1461066a578063922cff80146106a75780639642f161146106d057610272565b806333f707d1116101e85780635f9570aa116101ac5780635f9570aa146105525780636cc9aaeb1461057b578063715018a6146105925780637c33fc05146105a9578063834a9cf5146105c05780638b7afe2e146105e957610272565b806333f707d11461047b5780634986094b146104a45780634bae6659146104cf5780634f954d87146104eb5780635a6803671461052957610272565b806320d8c7fa1161023a57806320d8c7fa1461037d57806326971883146103a857806328fbdc69146103bf5780632bda0c85146103fd5780632e1a7d4d146104295780633333cb671461045257610272565b806304c814c3146102775780630952680f146102a05780630d95e3c6146102b757806317ad7155146102f85780631f3a11f91461033b575b600080fd5b34801561028357600080fd5b5061029e60048036038101906102999190616ed5565b6109fe565b005b3480156102ac57600080fd5b506102b5610bce565b005b3480156102c357600080fd5b506102de60048036038101906102d99190616f3a565b610ca7565b6040516102ef959493929190617461565b60405180910390f35b34801561030457600080fd5b5061031f600480360381019061031a9190616f3a565b611158565b6040516103329796959493929190617599565b60405180910390f35b34801561034757600080fd5b50610362600480360381019061035d9190616f3a565b611c59565b6040516103749695949392919061750e565b60405180910390f35b34801561038957600080fd5b506103926121e4565b60405161039f9190617639565b60405180910390f35b3480156103b457600080fd5b506103bd6121f7565b005b3480156103cb57600080fd5b506103e660048036038101906103e19190616f3a565b6122d0565b6040516103f49291906174d7565b60405180910390f35b34801561040957600080fd5b50610412612462565b604051610420929190617871565b60405180910390f35b34801561043557600080fd5b50610450600480360381019061044b9190616ed5565b612588565b005b34801561045e57600080fd5b5061047960048036038101906104749190616f3a565b6127a0565b005b34801561048757600080fd5b506104a2600480360381019061049d9190616ed5565b61293f565b005b3480156104b057600080fd5b506104b9612aa4565b6040516104c69190617856565b60405180910390f35b6104e960048036038101906104e49190616ed5565b612aaa565b005b3480156104f757600080fd5b50610512600480360381019061050d9190616ed5565b612db8565b604051610520929190617871565b60405180910390f35b34801561053557600080fd5b50610550600480360381019061054b9190616ed5565b612ddc565b005b34801561055e57600080fd5b5061057960048036038101906105749190616ed5565b6133fa565b005b34801561058757600080fd5b50610590613be2565b005b34801561059e57600080fd5b506105a7613cbb565b005b3480156105b557600080fd5b506105be613d8a565b005b3480156105cc57600080fd5b506105e760048036038101906105e29190616efe565b613e63565b005b3480156105f557600080fd5b506105fe6144cf565b60405161060b9190617856565b60405180910390f35b34801561062057600080fd5b506106296144d5565b604051610636919061739b565b60405180910390f35b34801561064b57600080fd5b506106546144fe565b6040516106619190617639565b60405180910390f35b34801561067657600080fd5b50610691600480360381019061068c9190616ed5565b614555565b60405161069e9190617856565b60405180910390f35b3480156106b357600080fd5b506106ce60048036038101906106c99190616ed5565b61456d565b005b3480156106dc57600080fd5b506106f760048036038101906106f29190616f3a565b61473d565b6040516107059291906174d7565b60405180910390f35b34801561071a57600080fd5b5061073560048036038101906107309190616ed5565b6148cf565b6040516107429190617856565b60405180910390f35b34801561075757600080fd5b50610772600480360381019061076d9190616ed5565b6148f3565b005b34801561078057600080fd5b5061079b60048036038101906107969190616ed5565b61516a565b6040516107a89190617856565b60405180910390f35b3480156107bd57600080fd5b506107d860048036038101906107d39190616f3a565b615182565b005b6107f460048036038101906107ef9190616ed5565b6155d3565b005b34801561080257600080fd5b5061081d60048036038101906108189190616ed5565b61610e565b005b34801561082b57600080fd5b50610834616176565b604051610841919061739b565b60405180910390f35b61085261619c565b005b34801561086057600080fd5b5061087b60048036038101906108769190616eac565b6162f9565b005b34801561088957600080fd5b506108a4600480360381019061089f9190616ed5565b616385565b6040516108b19190617856565b60405180910390f35b3480156108c657600080fd5b506108cf6163a9565b6040516108dc9190617639565b60405180910390f35b3480156108f157600080fd5b506108fa6163bc565b6040516109079190617856565b60405180910390f35b34801561091c57600080fd5b506109256163c1565b604051610932919061743f565b60405180910390f35b34801561094757600080fd5b50610962600480360381019061095d9190616eac565b6164df565b005b61096c6164fc565b005b34801561097a57600080fd5b5061099560048036038101906109909190616ed5565b616561565b005b3480156109a357600080fd5b506109be60048036038101906109b99190616f3a565b616833565b005b3480156109cc57600080fd5b506109e760048036038101906109e29190616ed5565b6169d2565b6040516109f5929190617871565b60405180910390f35b3373ffffffffffffffffffffffffffffffffffffffff16600260009054906101000a900473ffffffffffffffffffffffffffffffffffffffff1673ffffffffffffffffffffffffffffffffffffffff1614610a8e576040517f08c379a0000000000000000000000000000000000000000000000000000000008152600401610a85906176b6565b60405180910390fd5b6008610aa960016008805490506169f690919063ffffffff16565b81548110610ae0577f4e487b7100000000000000000000000000000000000000000000000000000000600052603260045260246000fd5b90600052602060002001546008601160008481526020019081526020016000205481548110610b38577f4e487b7100000000000000000000000000000000000000000000000000000000600052603260045260246000fd5b90600052602060002001819055506008805480610b7e577f4e487b7100000000000000000000000000000000000000000000000000000000600052603160045260246000fd5b600190038181906000526020600020016000905590557f5fbf03b0b0838391bce5038e7a3ba900984a3f4d2d9476980da3d4fce41bcc1881604051610bc39190617856565b60405180910390a150565b3373ffffffffffffffffffffffffffffffffffffffff16600260009054906101000a900473ffffffffffffffffffffffffffffffffffffffff1673ffffffffffffffffffffffffffffffffffffffff1614610c5e576040517f08c379a0000000000000000000000000000000000000000000000000000000008152600401610c55906176b6565b60405180910390fd5b6000600a60016101000a81548160ff0219169083151502179055507fe3e20cc9304e7e46208466a4d4d61fd8e52b0bfa9843411f77ac350d11d5c3af60405160405180910390a1565b60608060608060603373ffffffffffffffffffffffffffffffffffffffff16600260009054906101000a900473ffffffffffffffffffffffffffffffffffffffff1673ffffffffffffffffffffffffffffffffffffffff1614610d3f576040517f08c379a0000000000000000000000000000000000000000000000000000000008152600401610d36906176b6565b60405180910390fd5b6000806000808a90505b60078054905081108015610d725750898b610d64919061795f565b811080610d71575060008a145b5b1561114a5760078181548110610db1577f4e487b7100000000000000000000000000000000000000000000000000000000600052603260045260246000fd5b90600052602060002001549350600c600085815260200190815260200160002060009054906101000a900473ffffffffffffffffffffffffffffffffffffffff169150600e600085815260200190815260200160002054925083898281518110610e44577f4e487b7100000000000000000000000000000000000000000000000000000000600052603260045260246000fd5b60200260200101818152505081888281518110610e8a577f4e487b7100000000000000000000000000000000000000000000000000000000600052603260045260246000fd5b602002602001019073ffffffffffffffffffffffffffffffffffffffff16908173ffffffffffffffffffffffffffffffffffffffff1681525050600b60008373ffffffffffffffffffffffffffffffffffffffff1673ffffffffffffffffffffffffffffffffffffffff1681526020019081526020016000206003018381548110610f3e577f4e487b7100000000000000000000000000000000000000000000000000000000600052603260045260246000fd5b906000526020600020906007020160010154878281518110610f89577f4e487b7100000000000000000000000000000000000000000000000000000000600052603260045260246000fd5b602002602001018181525050600b60008373ffffffffffffffffffffffffffffffffffffffff1673ffffffffffffffffffffffffffffffffffffffff168152602001908152602001600020600301838154811061100f577f4e487b7100000000000000000000000000000000000000000000000000000000600052603260045260246000fd5b90600052602060002090600702016002015486828151811061105a577f4e487b7100000000000000000000000000000000000000000000000000000000600052603260045260246000fd5b602002602001018181525050600b60008373ffffffffffffffffffffffffffffffffffffffff1673ffffffffffffffffffffffffffffffffffffffff16815260200190815260200160002060030183815481106110e0577f4e487b7100000000000000000000000000000000000000000000000000000000600052603260045260246000fd5b90600052602060002090600702016003015485828151811061112b577f4e487b7100000000000000000000000000000000000000000000000000000000600052603260045260246000fd5b602002602001018181525050808061114290617aef565b915050610d49565b505050509295509295909350565b6060806060806060806060600b60003373ffffffffffffffffffffffffffffffffffffffff1673ffffffffffffffffffffffffffffffffffffffff16815260200190815260200160002060000160009054906101000a900460ff166111f2576040517f08c379a00000000000000000000000000000000000000000000000000000000081526004016111e990617676565b60405180910390fd5b600033905060008a90505b600b60008373ffffffffffffffffffffffffffffffffffffffff1673ffffffffffffffffffffffffffffffffffffffff16815260200190815260200160002060030180549050811080156112665750898b611258919061795f565b811080611265575060008a145b5b15611c4b57808982815181106112a5577f4e487b7100000000000000000000000000000000000000000000000000000000600052603260045260246000fd5b602002602001018181525050600b60008373ffffffffffffffffffffffffffffffffffffffff1673ffffffffffffffffffffffffffffffffffffffff168152602001908152602001600020600301818154811061132b577f4e487b7100000000000000000000000000000000000000000000000000000000600052603260045260246000fd5b906000526020600020906007020160000154888281518110611376577f4e487b7100000000000000000000000000000000000000000000000000000000600052603260045260246000fd5b602002602001018181525050600b60008373ffffffffffffffffffffffffffffffffffffffff1673ffffffffffffffffffffffffffffffffffffffff16815260200190815260200160002060030181815481106113fc577f4e487b7100000000000000000000000000000000000000000000000000000000600052603260045260246000fd5b906000526020600020906007020160010154878281518110611447577f4e487b7100000000000000000000000000000000000000000000000000000000600052603260045260246000fd5b602002602001018181525050600b60008373ffffffffffffffffffffffffffffffffffffffff1673ffffffffffffffffffffffffffffffffffffffff16815260200190815260200160002060030181815481106114cd577f4e487b7100000000000000000000000000000000000000000000000000000000600052603260045260246000fd5b906000526020600020906007020160020154868281518110611518577f4e487b7100000000000000000000000000000000000000000000000000000000600052603260045260246000fd5b602002602001018181525050600b60008373ffffffffffffffffffffffffffffffffffffffff1673ffffffffffffffffffffffffffffffffffffffff168152602001908152602001600020600301818154811061159e577f4e487b7100000000000000000000000000000000000000000000000000000000600052603260045260246000fd5b9060005260206000209060070201600301548582815181106115e9577f4e487b7100000000000000000000000000000000000000000000000000000000600052603260045260246000fd5b602002602001018181525050600b60008373ffffffffffffffffffffffffffffffffffffffff1673ffffffffffffffffffffffffffffffffffffffff168152602001908152602001600020600301818154811061166f577f4e487b7100000000000000000000000000000000000000000000000000000000600052603260045260246000fd5b9060005260206000209060070201600401548482815181106116ba577f4e487b7100000000000000000000000000000000000000000000000000000000600052603260045260246000fd5b60200260200101818152505060006003811115611700577f4e487b7100000000000000000000000000000000000000000000000000000000600052602160045260246000fd5b600b60008473ffffffffffffffffffffffffffffffffffffffff1673ffffffffffffffffffffffffffffffffffffffff168152602001908152602001600020600301828154811061177a577f4e487b7100000000000000000000000000000000000000000000000000000000600052603260045260246000fd5b906000526020600020906007020160060160009054906101000a900460ff1660038111156117d1577f4e487b7100000000000000000000000000000000000000000000000000000000600052602160045260246000fd5b1415611823576001838281518110611812577f4e487b7100000000000000000000000000000000000000000000000000000000600052603260045260246000fd5b602002602001018181525050611c38565b6001600381111561185d577f4e487b7100000000000000000000000000000000000000000000000000000000600052602160045260246000fd5b600b60008473ffffffffffffffffffffffffffffffffffffffff1673ffffffffffffffffffffffffffffffffffffffff16815260200190815260200160002060030182815481106118d7577f4e487b7100000000000000000000000000000000000000000000000000000000600052603260045260246000fd5b906000526020600020906007020160060160009054906101000a900460ff16600381111561192e577f4e487b7100000000000000000000000000000000000000000000000000000000600052602160045260246000fd5b141561198057600283828151811061196f577f4e487b7100000000000000000000000000000000000000000000000000000000600052603260045260246000fd5b602002602001018181525050611c37565b600260038111156119ba577f4e487b7100000000000000000000000000000000000000000000000000000000600052602160045260246000fd5b600b60008473ffffffffffffffffffffffffffffffffffffffff1673ffffffffffffffffffffffffffffffffffffffff1681526020019081526020016000206003018281548110611a34577f4e487b7100000000000000000000000000000000000000000000000000000000600052603260045260246000fd5b906000526020600020906007020160060160009054906101000a900460ff166003811115611a8b577f4e487b7100000000000000000000000000000000000000000000000000000000600052602160045260246000fd5b1415611add576003838281518110611acc577f4e487b7100000000000000000000000000000000000000000000000000000000600052603260045260246000fd5b602002602001018181525050611c36565b600380811115611b16577f4e487b7100000000000000000000000000000000000000000000000000000000600052602160045260246000fd5b600b60008473ffffffffffffffffffffffffffffffffffffffff1673ffffffffffffffffffffffffffffffffffffffff1681526020019081526020016000206003018281548110611b90577f4e487b7100000000000000000000000000000000000000000000000000000000600052603260045260246000fd5b906000526020600020906007020160060160009054906101000a900460ff166003811115611be7577f4e487b7100000000000000000000000000000000000000000000000000000000600052602160045260246000fd5b1415611c35576004838281518110611c28577f4e487b7100000000000000000000000000000000000000000000000000000000600052603260045260246000fd5b6020026020010181815250505b5b5b5b8080611c4390617aef565b9150506111fd565b505092959891949750929550565b606080606080606080600b60003373ffffffffffffffffffffffffffffffffffffffff1673ffffffffffffffffffffffffffffffffffffffff16815260200190815260200160002060000160009054906101000a900460ff16611cf1576040517f08c379a0000000000000000000000000000000000000000000000000000000008152600401611ce890617676565b60405180910390fd5b600033905060008990505b600b60008373ffffffffffffffffffffffffffffffffffffffff1673ffffffffffffffffffffffffffffffffffffffff1681526020019081526020016000206004018054905081108015611d655750888a611d57919061795f565b811080611d645750600089145b5b156121d85780888281518110611da4577f4e487b7100000000000000000000000000000000000000000000000000000000600052603260045260246000fd5b602002602001018181525050600b60008373ffffffffffffffffffffffffffffffffffffffff1673ffffffffffffffffffffffffffffffffffffffff1681526020019081526020016000206004018181548110611e2a577f4e487b7100000000000000000000000000000000000000000000000000000000600052603260045260246000fd5b906000526020600020906005020160000154878281518110611e75577f4e487b7100000000000000000000000000000000000000000000000000000000600052603260045260246000fd5b602002602001018181525050600b60008373ffffffffffffffffffffffffffffffffffffffff1673ffffffffffffffffffffffffffffffffffffffff1681526020019081526020016000206004018181548110611efb577f4e487b7100000000000000000000000000000000000000000000000000000000600052603260045260246000fd5b906000526020600020906005020160010154868281518110611f46577f4e487b7100000000000000000000000000000000000000000000000000000000600052603260045260246000fd5b602002602001018181525050600b60008373ffffffffffffffffffffffffffffffffffffffff1673ffffffffffffffffffffffffffffffffffffffff1681526020019081526020016000206004018181548110611fcc577f4e487b7100000000000000000000000000000000000000000000000000000000600052603260045260246000fd5b906000526020600020906005020160020154858281518110612017577f4e487b7100000000000000000000000000000000000000000000000000000000600052603260045260246000fd5b602002602001018181525050600b60008373ffffffffffffffffffffffffffffffffffffffff1673ffffffffffffffffffffffffffffffffffffffff168152602001908152602001600020600401818154811061209d577f4e487b7100000000000000000000000000000000000000000000000000000000600052603260045260246000fd5b9060005260206000209060050201600301548482815181106120e8577f4e487b7100000000000000000000000000000000000000000000000000000000600052603260045260246000fd5b602002602001018181525050600b60008373ffffffffffffffffffffffffffffffffffffffff1673ffffffffffffffffffffffffffffffffffffffff168152602001908152602001600020600401818154811061216e577f4e487b7100000000000000000000000000000000000000000000000000000000600052603260045260246000fd5b9060005260206000209060050201600401548382815181106121b9577f4e487b7100000000000000000000000000000000000000000000000000000000600052603260045260246000fd5b60200260200101818152505080806121d090617aef565b915050611cfc565b50509295509295509295565b600a60019054906101000a900460ff1681565b3373ffffffffffffffffffffffffffffffffffffffff16600260009054906101000a900473ffffffffffffffffffffffffffffffffffffffff1673ffffffffffffffffffffffffffffffffffffffff1614612287576040517f08c379a000000000000000000000000000000000000000000000000000000000815260040161227e906176b6565b60405180910390fd5b6000600a60006101000a81548160ff0219169083151502179055507fe3e20cc9304e7e46208466a4d4d61fd8e52b0bfa9843411f77ac350d11d5c3af60405160405180910390a1565b60608060008490505b60098054905081108015612302575083856122f4919061795f565b8110806123015750600084145b5b1561245a576010600060098381548110612345577f4e487b7100000000000000000000000000000000000000000000000000000000600052603260045260246000fd5b906000526020600020015481526020019081526020016000206000015483828151811061239b577f4e487b7100000000000000000000000000000000000000000000000000000000600052603260045260246000fd5b60200260200101818152505060106000600983815481106123e5577f4e487b7100000000000000000000000000000000000000000000000000000000600052603260045260246000fd5b906000526020600020015481526020019081526020016000206001015482828151811061243b577f4e487b7100000000000000000000000000000000000000000000000000000000600052603260045260246000fd5b602002602001018181525050808061245290617aef565b9150506122d9565b509250929050565b600080600b60003373ffffffffffffffffffffffffffffffffffffffff1673ffffffffffffffffffffffffffffffffffffffff16815260200190815260200160002060000160009054906101000a900460ff166124f4576040517f08c379a00000000000000000000000000000000000000000000000000000000081526004016124eb90617676565b60405180910390fd5b6000339050600b60008273ffffffffffffffffffffffffffffffffffffffff1673ffffffffffffffffffffffffffffffffffffffff168152602001908152602001600020600101549250600b60008273ffffffffffffffffffffffffffffffffffffffff1673ffffffffffffffffffffffffffffffffffffffff168152602001908152602001600020600201549150509091565b80600b60003373ffffffffffffffffffffffffffffffffffffffff1673ffffffffffffffffffffffffffffffffffffffff16815260200190815260200160002060010154101561260d576040517f08c379a0000000000000000000000000000000000000000000000000000000008152600401612604906177d6565b60405180910390fd5b806004541015612652576040517f08c379a000000000000000000000000000000000000000000000000000000000815260040161264990617776565b60405180910390fd5b6126a781600b60003373ffffffffffffffffffffffffffffffffffffffff1673ffffffffffffffffffffffffffffffffffffffff168152602001908152602001600020600101546169f690919063ffffffff16565b600b60003373ffffffffffffffffffffffffffffffffffffffff1673ffffffffffffffffffffffffffffffffffffffff16815260200190815260200160002060010181905550612702816004546169f690919063ffffffff16565b6004819055503373ffffffffffffffffffffffffffffffffffffffff166108fc829081150290604051600060405180830381858888f1935050505015801561274e573d6000803e3d6000fd5b503373ffffffffffffffffffffffffffffffffffffffff167f884edad9ce6fa2440d8a54cc123490eb96d2768479d49ff9c7366125a9424364826040516127959190617856565b60405180910390a250565b3373ffffffffffffffffffffffffffffffffffffffff16600260009054906101000a900473ffffffffffffffffffffffffffffffffffffffff1673ffffffffffffffffffffffffffffffffffffffff1614612830576040517f08c379a0000000000000000000000000000000000000000000000000000000008152600401612827906176b6565b60405180910390fd5b6000600880549050428460405160200161284c9392919061735e565b6040516020818303038152906040528051906020012060001c90506008819080600181540180825580915050600190039060005260206000200160009091909190915055604051806040016040528084815260200183815250600f600083815260200190815260200160002060008201518160000155602082015181600101559050506128e860016008805490506169f690919063ffffffff16565b60116000838152602001908152602001600020819055507f7e119130fab57aa1f7f6c422daa875057f82701b631a137460c685b55583eff78184846040516129329392919061789a565b60405180910390a1505050565b6129476144fe565b61295057600080fd5b600554811115612995576040517f08c379a000000000000000000000000000000000000000000000000000000000815260040161298c90617716565b60405180910390fd5b6003546129ad826004546169f690919063ffffffff16565b116129ed576040517f08c379a00000000000000000000000000000000000000000000000000000000081526004016129e4906177d6565b60405180910390fd5b612a02816004546169f690919063ffffffff16565b600481905550612a1d816005546169f690919063ffffffff16565b6005819055503373ffffffffffffffffffffffffffffffffffffffff166108fc829081150290604051600060405180830381858888f19350505050158015612a69573d6000803e3d6000fd5b507fa20809e697380eaea0fd13bf4d14b00e2ef29559ef361501189d3be2e9b0ec8581604051612a999190617856565b60405180910390a150565b60065481565b600a60009054906101000a900460ff16612af9576040517f08c379a0000000000000000000000000000000000000000000000000000000008152600401612af090617696565b60405180910390fd5b612b01616a40565b612b5634600b60003373ffffffffffffffffffffffffffffffffffffffff1673ffffffffffffffffffffffffffffffffffffffff16815260200190815260200160002060020154616b8c90919063ffffffff16565b600b60003373ffffffffffffffffffffffffffffffffffffffff1673ffffffffffffffffffffffffffffffffffffffff168152602001908152602001600020600201819055506000600b60003373ffffffffffffffffffffffffffffffffffffffff1673ffffffffffffffffffffffffffffffffffffffff168152602001908152602001600020600401805490504233604051602001612bf893929190617321565b6040516020818303038152906040528051906020012060001c9050600b60003373ffffffffffffffffffffffffffffffffffffffff1673ffffffffffffffffffffffffffffffffffffffff1681526020019081526020016000206004016040518060a00160405280838152602001348152602001600f6000868152602001908152602001600020600001548152602001600f6000868152602001908152602001600020600101548152602001612ce2612cd362015180600f600089815260200190815260200160002060000154616bea90919063ffffffff16565b42616b8c90919063ffffffff16565b815250908060018154018082558091505060019003906000526020600020906005020160009091909190915060008201518160000155602082015181600101556040820151816002015560608201518160030155608082015181600401555050612d5734600454616b8c90919063ffffffff16565b600481905550612d7234600654616b8c90919063ffffffff16565b600681905550807fa123d26d0d55f5bf1072b31ac2df8ba9e7da00dbb95088f2e2df528a2bbf9095333485604051612dac93929190617408565b60405180910390a25050565b60106020528060005260406000206000915090508060000154908060010154905082565b60006003811115612e16577f4e487b7100000000000000000000000000000000000000000000000000000000600052602160045260246000fd5b600b60003373ffffffffffffffffffffffffffffffffffffffff1673ffffffffffffffffffffffffffffffffffffffff168152602001908152602001600020600301600e60008481526020019081526020016000205481548110612ea3577f4e487b7100000000000000000000000000000000000000000000000000000000600052603260045260246000fd5b906000526020600020906007020160060160009054906101000a900460ff166003811115612efa577f4e487b7100000000000000000000000000000000000000000000000000000000600052602160045260246000fd5b14612f3a576040517f08c379a0000000000000000000000000000000000000000000000000000000008152600401612f31906177f6565b60405180910390fd5b600d600082815260200190815260200160002054600d60006007612f6d60016007805490506169f690919063ffffffff16565b81548110612fa4577f4e487b7100000000000000000000000000000000000000000000000000000000600052603260045260246000fd5b90600052602060002001548152602001908152602001600020819055506007612fdc60016007805490506169f690919063ffffffff16565b81548110613013577f4e487b7100000000000000000000000000000000000000000000000000000000600052603260045260246000fd5b90600052602060002001546007600d6000848152602001908152602001600020548154811061306b577f4e487b7100000000000000000000000000000000000000000000000000000000600052603260045260246000fd5b906000526020600020018190555060078054806130b1577f4e487b7100000000000000000000000000000000000000000000000000000000600052603160045260246000fd5b600190038181906000526020600020016000905590556000600b60003373ffffffffffffffffffffffffffffffffffffffff1673ffffffffffffffffffffffffffffffffffffffff168152602001908152602001600020600301805490509050600b60003373ffffffffffffffffffffffffffffffffffffffff1673ffffffffffffffffffffffffffffffffffffffff1681526020019081526020016000206003016131676001836169f690919063ffffffff16565b8154811061319e577f4e487b7100000000000000000000000000000000000000000000000000000000600052603260045260246000fd5b9060005260206000209060070201600b60003373ffffffffffffffffffffffffffffffffffffffff1673ffffffffffffffffffffffffffffffffffffffff168152602001908152602001600020600301600e60008581526020019081526020016000205481548110613239577f4e487b7100000000000000000000000000000000000000000000000000000000600052603260045260246000fd5b90600052602060002090600702016000820154816000015560018201548160010155600282015481600201556003820154816003015560048201548160040155600582015481600501556006820160009054906101000a900460ff168160060160006101000a81548160ff021916908360038111156132e1577f4e487b7100000000000000000000000000000000000000000000000000000000600052602160045260246000fd5b0217905550905050600b60003373ffffffffffffffffffffffffffffffffffffffff1673ffffffffffffffffffffffffffffffffffffffff168152602001908152602001600020600301805480613361577f4e487b7100000000000000000000000000000000000000000000000000000000600052603160045260246000fd5b6001900381819060005260206000209060070201600080820160009055600182016000905560028201600090556003820160009055600482016000905560058201600090556006820160006101000a81549060ff021916905550509055817fb8c46d7a9085898800a987ac9416359765dea360d380829245ee1356cb454071336040516133ee919061739b565b60405180910390a25050565b42600b60003373ffffffffffffffffffffffffffffffffffffffff1673ffffffffffffffffffffffffffffffffffffffff1681526020019081526020016000206004018281548110613475577f4e487b7100000000000000000000000000000000000000000000000000000000600052603260045260246000fd5b9060005260206000209060050201600401541061349a57613495816148f3565b613bdf565b6000600b60003373ffffffffffffffffffffffffffffffffffffffff1673ffffffffffffffffffffffffffffffffffffffff168152602001908152602001600020600401805490509050808210613526576040517f08c379a000000000000000000000000000000000000000000000000000000000815260040161351d90617816565b60405180910390fd5b6000600b60003373ffffffffffffffffffffffffffffffffffffffff1673ffffffffffffffffffffffffffffffffffffffff16815260200190815260200160002060040183815481106135a2577f4e487b7100000000000000000000000000000000000000000000000000000000600052603260045260246000fd5b9060005260206000209060050201600301549050600061366b6201518061365d42600b60003373ffffffffffffffffffffffffffffffffffffffff1673ffffffffffffffffffffffffffffffffffffffff168152602001908152602001600020600401888154811061363d577f4e487b7100000000000000000000000000000000000000000000000000000000600052603260045260246000fd5b9060005260206000209060050201600401546169f690919063ffffffff16565b616c6590919063ffffffff16565b90506000600b60003373ffffffffffffffffffffffffffffffffffffffff1673ffffffffffffffffffffffffffffffffffffffff16815260200190815260200160002060040185815481106136e9577f4e487b7100000000000000000000000000000000000000000000000000000000600052603260045260246000fd5b9060005260206000209060050201600101549050600061373961016d61372b8661371d606487616c6590919063ffffffff16565b616bea90919063ffffffff16565b616c6590919063ffffffff16565b905061374e8382616bea90919063ffffffff16565b90506137638183616b8c90919063ffffffff16565b915061379e61378f6005613781606485616c6590919063ffffffff16565b616bea90919063ffffffff16565b836169f690919063ffffffff16565b91508160045410156137e5576040517f08c379a00000000000000000000000000000000000000000000000000000000081526004016137dc90617736565b60405180910390fd5b61383a82600b60003373ffffffffffffffffffffffffffffffffffffffff1673ffffffffffffffffffffffffffffffffffffffff168152602001908152602001600020600201546169f690919063ffffffff16565b600b60003373ffffffffffffffffffffffffffffffffffffffff1673ffffffffffffffffffffffffffffffffffffffff16815260200190815260200160002060020181905550613895826004546169f690919063ffffffff16565b6004819055506138b0826006546169f690919063ffffffff16565b6006819055506000600b60003373ffffffffffffffffffffffffffffffffffffffff1673ffffffffffffffffffffffffffffffffffffffff1681526020019081526020016000206004018781548110613932577f4e487b7100000000000000000000000000000000000000000000000000000000600052603260045260246000fd5b9060005260206000209060050201600001549050600b60003373ffffffffffffffffffffffffffffffffffffffff1673ffffffffffffffffffffffffffffffffffffffff16815260200190815260200160002060040161399c6001886169f690919063ffffffff16565b815481106139d3577f4e487b7100000000000000000000000000000000000000000000000000000000600052603260045260246000fd5b9060005260206000209060050201600b60003373ffffffffffffffffffffffffffffffffffffffff1673ffffffffffffffffffffffffffffffffffffffff1681526020019081526020016000206004018881548110613a5b577f4e487b7100000000000000000000000000000000000000000000000000000000600052603260045260246000fd5b90600052602060002090600502016000820154816000015560018201548160010155600282015481600201556003820154816003015560048201548160040155905050600b60003373ffffffffffffffffffffffffffffffffffffffff1673ffffffffffffffffffffffffffffffffffffffff168152602001908152602001600020600401805480613b16577f4e487b7100000000000000000000000000000000000000000000000000000000600052603160045260246000fd5b60019003818190600052602060002090600502016000808201600090556001820160009055600282016000905560038201600090556004820160009055505090553373ffffffffffffffffffffffffffffffffffffffff166108fc849081150290604051600060405180830381858888f19350505050158015613b9d573d6000803e3d6000fd5b50807fff75e181e68c7bca3b737ffb2e8c1a1eb457f80910b791dcaf80d81f90131a143385604051613bd09291906173df565b60405180910390a25050505050505b50565b3373ffffffffffffffffffffffffffffffffffffffff16600260009054906101000a900473ffffffffffffffffffffffffffffffffffffffff1673ffffffffffffffffffffffffffffffffffffffff1614613c72576040517f08c379a0000000000000000000000000000000000000000000000000000000008152600401613c69906176b6565b60405180910390fd5b6001600a60016101000a81548160ff0219169083151502179055507fb208bcac273d115c3c6e50674a1f6aabe56c60aa269d723be76d8b12d57b67d060405160405180910390a1565b613cc36144fe565b613ccc57600080fd5b600073ffffffffffffffffffffffffffffffffffffffff1660008054906101000a900473ffffffffffffffffffffffffffffffffffffffff1673ffffffffffffffffffffffffffffffffffffffff167f8be0079c531659141344cd1fd0a4f28419497f9722a3daafe3b4186f6b6457e060405160405180910390a360008060006101000a81548173ffffffffffffffffffffffffffffffffffffffff021916908373ffffffffffffffffffffffffffffffffffffffff160217905550565b3373ffffffffffffffffffffffffffffffffffffffff16600260009054906101000a900473ffffffffffffffffffffffffffffffffffffffff1673ffffffffffffffffffffffffffffffffffffffff1614613e1a576040517f08c379a0000000000000000000000000000000000000000000000000000000008152600401613e11906176b6565b60405180910390fd5b6001600a60006101000a81548160ff0219169083151502179055507fa35ec68af9d45be222786f2d15214338e6a43668598f19c67733155ffec5cdb860405160405180910390a1565b3373ffffffffffffffffffffffffffffffffffffffff16600260009054906101000a900473ffffffffffffffffffffffffffffffffffffffff1673ffffffffffffffffffffffffffffffffffffffff1614613ef3576040517f08c379a0000000000000000000000000000000000000000000000000000000008152600401613eea906176b6565b60405180910390fd5b6000600c600084815260200190815260200160002060009054906101000a900473ffffffffffffffffffffffffffffffffffffffff1690506000600e60008581526020019081526020016000205490506000600b60008473ffffffffffffffffffffffffffffffffffffffff1673ffffffffffffffffffffffffffffffffffffffff1681526020019081526020016000206003018281548110613fbf577f4e487b7100000000000000000000000000000000000000000000000000000000600052603260045260246000fd5b906000526020600020906007020160010154905083156142ad5760035481600454613fea9190617a40565b1161402a576040517f08c379a0000000000000000000000000000000000000000000000000000000008152600401614021906177d6565b60405180910390fd5b6140dd6140ce62015180600b60008773ffffffffffffffffffffffffffffffffffffffff1673ffffffffffffffffffffffffffffffffffffffff16815260200190815260200160002060030185815481106140ae577f4e487b7100000000000000000000000000000000000000000000000000000000600052603260045260246000fd5b906000526020600020906007020160020154616bea90919063ffffffff16565b42616b8c90919063ffffffff16565b600b60008573ffffffffffffffffffffffffffffffffffffffff1673ffffffffffffffffffffffffffffffffffffffff1681526020019081526020016000206003018381548110614157577f4e487b7100000000000000000000000000000000000000000000000000000000600052603260045260246000fd5b9060005260206000209060070201600401819055506001600b60008573ffffffffffffffffffffffffffffffffffffffff1673ffffffffffffffffffffffffffffffffffffffff16815260200190815260200160002060030183815481106141e8577f4e487b7100000000000000000000000000000000000000000000000000000000600052603260045260246000fd5b906000526020600020906007020160060160006101000a81548160ff02191690836003811115614241577f4e487b7100000000000000000000000000000000000000000000000000000000600052602160045260246000fd5b02179055508273ffffffffffffffffffffffffffffffffffffffff166108fc829081150290604051600060405180830381858888f1935050505015801561428c573d6000803e3d6000fd5b506142a2816004546169f690919063ffffffff16565b600481905550614388565b6002600b60008573ffffffffffffffffffffffffffffffffffffffff1673ffffffffffffffffffffffffffffffffffffffff1681526020019081526020016000206003018381548110614329577f4e487b7100000000000000000000000000000000000000000000000000000000600052603260045260246000fd5b906000526020600020906007020160060160006101000a81548160ff02191690836003811115614382577f4e487b7100000000000000000000000000000000000000000000000000000000600052602160045260246000fd5b02179055505b60076143a360016007805490506169f690919063ffffffff16565b815481106143da577f4e487b7100000000000000000000000000000000000000000000000000000000600052603260045260246000fd5b90600052602060002001546007600d60008881526020019081526020016000205481548110614432577f4e487b7100000000000000000000000000000000000000000000000000000000600052603260045260246000fd5b90600052602060002001819055506007805480614478577f4e487b7100000000000000000000000000000000000000000000000000000000600052603160045260246000fd5b60019003818190600052602060002001600090559055847f7aaeba210f793a9180a7d04cbaa4338ec277e58454aaa2545314841e1b4d2d7f84866040516144c09291906173b6565b60405180910390a25050505050565b60045481565b60008060009054906101000a900473ffffffffffffffffffffffffffffffffffffffff16905090565b60008060009054906101000a900473ffffffffffffffffffffffffffffffffffffffff1673ffffffffffffffffffffffffffffffffffffffff163373ffffffffffffffffffffffffffffffffffffffff1614905090565b60116020528060005260406000206000915090505481565b3373ffffffffffffffffffffffffffffffffffffffff16600260009054906101000a900473ffffffffffffffffffffffffffffffffffffffff1673ffffffffffffffffffffffffffffffffffffffff16146145fd576040517f08c379a00000000000000000000000000000000000000000000000000000000081526004016145f4906176b6565b60405180910390fd5b600961461860016009805490506169f690919063ffffffff16565b8154811061464f577f4e487b7100000000000000000000000000000000000000000000000000000000600052603260045260246000fd5b906000526020600020015460096011600084815260200190815260200160002054815481106146a7577f4e487b7100000000000000000000000000000000000000000000000000000000600052603260045260246000fd5b906000526020600020018190555060098054806146ed577f4e487b7100000000000000000000000000000000000000000000000000000000600052603160045260246000fd5b600190038181906000526020600020016000905590557f60aad2455364b944d1a72a42bb88a32a65314ea7d27e873df76920e1ad7311c8816040516147329190617856565b60405180910390a150565b60608060008490505b6008805490508110801561476f57508385614761919061795f565b81108061476e5750600084145b5b156148c757600f6000600883815481106147b2577f4e487b7100000000000000000000000000000000000000000000000000000000600052603260045260246000fd5b9060005260206000200154815260200190815260200160002060000154838281518110614808577f4e487b7100000000000000000000000000000000000000000000000000000000600052603260045260246000fd5b602002602001018181525050600f600060088381548110614852577f4e487b7100000000000000000000000000000000000000000000000000000000600052603260045260246000fd5b90600052602060002001548152602001908152602001600020600101548282815181106148a8577f4e487b7100000000000000000000000000000000000000000000000000000000600052603260045260246000fd5b60200260200101818152505080806148bf90617aef565b915050614746565b509250929050565b600981815481106148df57600080fd5b906000526020600020016000915090505481565b6000600b60003373ffffffffffffffffffffffffffffffffffffffff1673ffffffffffffffffffffffffffffffffffffffff16815260200190815260200160002060040180549050905080821061497f576040517f08c379a000000000000000000000000000000000000000000000000000000000815260040161497690617816565b60405180910390fd5b42600b60003373ffffffffffffffffffffffffffffffffffffffff1673ffffffffffffffffffffffffffffffffffffffff16815260200190815260200160002060040183815481106149fa577f4e487b7100000000000000000000000000000000000000000000000000000000600052603260045260246000fd5b9060005260206000209060050201600401541015614a4d576040517f08c379a0000000000000000000000000000000000000000000000000000000008152600401614a4490617836565b60405180910390fd5b6000600b60003373ffffffffffffffffffffffffffffffffffffffff1673ffffffffffffffffffffffffffffffffffffffff1681526020019081526020016000206004018381548110614ac9577f4e487b7100000000000000000000000000000000000000000000000000000000600052603260045260246000fd5b90600052602060002090600502016003015490506000614c2f614b9562015180614b87600b60003373ffffffffffffffffffffffffffffffffffffffff1673ffffffffffffffffffffffffffffffffffffffff1681526020019081526020016000206004018881548110614b66577f4e487b7100000000000000000000000000000000000000000000000000000000600052603260045260246000fd5b906000526020600020906005020160040154426169f690919063ffffffff16565b616c6590919063ffffffff16565b600b60003373ffffffffffffffffffffffffffffffffffffffff1673ffffffffffffffffffffffffffffffffffffffff1681526020019081526020016000206004018681548110614c0f577f4e487b7100000000000000000000000000000000000000000000000000000000600052603260045260246000fd5b906000526020600020906005020160020154616b8c90919063ffffffff16565b90506000600b60003373ffffffffffffffffffffffffffffffffffffffff1673ffffffffffffffffffffffffffffffffffffffff1681526020019081526020016000206004018581548110614cad577f4e487b7100000000000000000000000000000000000000000000000000000000600052603260045260246000fd5b90600052602060002090600502016001015490506000614cfd61016d614cef86614ce1606487616c6590919063ffffffff16565b616bea90919063ffffffff16565b616c6590919063ffffffff16565b9050614d128382616bea90919063ffffffff16565b9050614d278183616b8c90919063ffffffff16565b91506000600b60003373ffffffffffffffffffffffffffffffffffffffff1673ffffffffffffffffffffffffffffffffffffffff1681526020019081526020016000206004018781548110614da5577f4e487b7100000000000000000000000000000000000000000000000000000000600052603260045260246000fd5b9060005260206000209060050201600001549050826004541015614dfe576040517f08c379a0000000000000000000000000000000000000000000000000000000008152600401614df590617736565b60405180910390fd5b614e5383600b60003373ffffffffffffffffffffffffffffffffffffffff1673ffffffffffffffffffffffffffffffffffffffff168152602001908152602001600020600201546169f690919063ffffffff16565b600b60003373ffffffffffffffffffffffffffffffffffffffff1673ffffffffffffffffffffffffffffffffffffffff16815260200190815260200160002060020181905550614eae836004546169f690919063ffffffff16565b600481905550614ec9836006546169f690919063ffffffff16565b600681905550600b60003373ffffffffffffffffffffffffffffffffffffffff1673ffffffffffffffffffffffffffffffffffffffff168152602001908152602001600020600401614f256001886169f690919063ffffffff16565b81548110614f5c577f4e487b7100000000000000000000000000000000000000000000000000000000600052603260045260246000fd5b9060005260206000209060050201600b60003373ffffffffffffffffffffffffffffffffffffffff1673ffffffffffffffffffffffffffffffffffffffff1681526020019081526020016000206004018881548110614fe4577f4e487b7100000000000000000000000000000000000000000000000000000000600052603260045260246000fd5b90600052602060002090600502016000820154816000015560018201548160010155600282015481600201556003820154816003015560048201548160040155905050600b60003373ffffffffffffffffffffffffffffffffffffffff1673ffffffffffffffffffffffffffffffffffffffff16815260200190815260200160002060040180548061509f577f4e487b7100000000000000000000000000000000000000000000000000000000600052603160045260246000fd5b60019003818190600052602060002090600502016000808201600090556001820160009055600282016000905560038201600090556004820160009055505090553373ffffffffffffffffffffffffffffffffffffffff166108fc849081150290604051600060405180830381858888f19350505050158015615126573d6000803e3d6000fd5b50807ffd064f8a401a58afd87a45b07127ca97644f02168c9052380316c4cadea57cf733856040516151599291906173df565b60405180910390a250505050505050565b60126020528060005260406000206000915090505481565b600a60019054906101000a900460ff166151d1576040517f08c379a00000000000000000000000000000000000000000000000000000000081526004016151c8906176f6565b60405180910390fd5b6151d9616a40565b6000600b60003373ffffffffffffffffffffffffffffffffffffffff1673ffffffffffffffffffffffffffffffffffffffff16815260200190815260200160002060030180549050423360405160200161523593929190617321565b6040516020818303038152906040528051906020012060001c905060006152dc6152cd60106000868152602001908152602001600020600001546152bf61016d6152b1601060008a8152602001908152602001600020600101546152a360648c616c6590919063ffffffff16565b616bea90919063ffffffff16565b616c6590919063ffffffff16565b616bea90919063ffffffff16565b85616b8c90919063ffffffff16565b9050600b60003373ffffffffffffffffffffffffffffffffffffffff1673ffffffffffffffffffffffffffffffffffffffff1681526020019081526020016000206003016040518060e00160405280848152602001868152602001601060008781526020019081526020016000206000015481526020016010600087815260200190815260200160002060010154815260200160008152602001838152602001600060038111156153b6577f4e487b7100000000000000000000000000000000000000000000000000000000600052602160045260246000fd5b8152509080600181540180825580915050600190039060005260206000209060070201600090919091909150600082015181600001556020820151816001015560408201518160020155606082015181600301556080820151816004015560a0820151816005015560c08201518160060160006101000a81548160ff0219169083600381111561546f577f4e487b7100000000000000000000000000000000000000000000000000000000600052602160045260246000fd5b021790555050506154cf6001600b60003373ffffffffffffffffffffffffffffffffffffffff1673ffffffffffffffffffffffffffffffffffffffff168152602001908152602001600020600301805490506169f690919063ffffffff16565b600e60008481526020019081526020016000208190555033600c600084815260200190815260200160002060006101000a81548173ffffffffffffffffffffffffffffffffffffffff021916908373ffffffffffffffffffffffffffffffffffffffff160217905550600782908060018154018082558091505060019003906000526020600020016000909190919091505561557a60016007805490506169f690919063ffffffff16565b600d600084815260200190815260200160002081905550817f6c5b635903e300a53470ec4c5153e85ef116217101a53c0d74b0aecb37da65d73386866040516155c593929190617408565b60405180910390a250505050565b60003490506000600b60003373ffffffffffffffffffffffffffffffffffffffff1673ffffffffffffffffffffffffffffffffffffffff168152602001908152602001600020600301805490509050808310615664576040517f08c379a000000000000000000000000000000000000000000000000000000000815260040161565b90617816565b60405180910390fd5b42600b60003373ffffffffffffffffffffffffffffffffffffffff1673ffffffffffffffffffffffffffffffffffffffff16815260200190815260200160002060030184815481106156df577f4e487b7100000000000000000000000000000000000000000000000000000000600052603260045260246000fd5b90600052602060002090600702016004015410615898576003600b60003373ffffffffffffffffffffffffffffffffffffffff1673ffffffffffffffffffffffffffffffffffffffff1681526020019081526020016000206003018481548110615772577f4e487b7100000000000000000000000000000000000000000000000000000000600052603260045260246000fd5b906000526020600020906007020160060160006101000a81548160ff021916908360038111156157cb577f4e487b7100000000000000000000000000000000000000000000000000000000600052602160045260246000fd5b0217905550600b60003373ffffffffffffffffffffffffffffffffffffffff1673ffffffffffffffffffffffffffffffffffffffff168152602001908152602001600020600301838154811061584a577f4e487b7100000000000000000000000000000000000000000000000000000000600052603260045260246000fd5b9060005260206000209060070201600001547f89753c7b58bfc293194132c57d8fc1ac6a4d453b350c9bca28cc88c8903665003360405161588b919061739b565b60405180910390a2616109565b6000600b60003373ffffffffffffffffffffffffffffffffffffffff1673ffffffffffffffffffffffffffffffffffffffff1681526020019081526020016000206003018481548110615914577f4e487b7100000000000000000000000000000000000000000000000000000000600052603260045260246000fd5b90600052602060002090600702016005015490508083111561596b576040517f08c379a0000000000000000000000000000000000000000000000000000000008152600401615962906177b6565b60405180910390fd5b615a0983600b60003373ffffffffffffffffffffffffffffffffffffffff1673ffffffffffffffffffffffffffffffffffffffff16815260200190815260200160002060030186815481106159e9577f4e487b7100000000000000000000000000000000000000000000000000000000600052603260045260246000fd5b9060005260206000209060070201600501546169f690919063ffffffff16565b600b60003373ffffffffffffffffffffffffffffffffffffffff1673ffffffffffffffffffffffffffffffffffffffff1681526020019081526020016000206003018581548110615a83577f4e487b7100000000000000000000000000000000000000000000000000000000600052603260045260246000fd5b906000526020600020906007020160050181905550615aad83600454616b8c90919063ffffffff16565b6004819055506000600b60003373ffffffffffffffffffffffffffffffffffffffff1673ffffffffffffffffffffffffffffffffffffffff1681526020019081526020016000206003018581548110615b2f577f4e487b7100000000000000000000000000000000000000000000000000000000600052603260045260246000fd5b906000526020600020906007020160050154141561604257600b60003373ffffffffffffffffffffffffffffffffffffffff1673ffffffffffffffffffffffffffffffffffffffff1681526020019081526020016000206003018481548110615bc1577f4e487b7100000000000000000000000000000000000000000000000000000000600052603260045260246000fd5b9060005260206000209060070201600001547f19fac8cdcd0bcf1377b5f3516205a8db06089e32e286f2a98bfe4889de35b83233604051615c02919061739b565b60405180910390a26000615d6e600a615d606064615d52600b60003373ffffffffffffffffffffffffffffffffffffffff1673ffffffffffffffffffffffffffffffffffffffff1681526020019081526020016000206003018a81548110615c93577f4e487b7100000000000000000000000000000000000000000000000000000000600052603260045260246000fd5b906000526020600020906007020160030154615d446064600b60003373ffffffffffffffffffffffffffffffffffffffff1673ffffffffffffffffffffffffffffffffffffffff1681526020019081526020016000206003018d81548110615d24577f4e487b7100000000000000000000000000000000000000000000000000000000600052603260045260246000fd5b906000526020600020906007020160010154616c6590919063ffffffff16565b616bea90919063ffffffff16565b616c6590919063ffffffff16565b616bea90919063ffffffff16565b9050615d8581600554616b8c90919063ffffffff16565b600581905550615da0816004546169f690919063ffffffff16565b600481905550600b60003373ffffffffffffffffffffffffffffffffffffffff1673ffffffffffffffffffffffffffffffffffffffff168152602001908152602001600020600301615dfc6001856169f690919063ffffffff16565b81548110615e33577f4e487b7100000000000000000000000000000000000000000000000000000000600052603260045260246000fd5b9060005260206000209060070201600b60003373ffffffffffffffffffffffffffffffffffffffff1673ffffffffffffffffffffffffffffffffffffffff1681526020019081526020016000206003018681548110615ebb577f4e487b7100000000000000000000000000000000000000000000000000000000600052603260045260246000fd5b90600052602060002090600702016000820154816000015560018201548160010155600282015481600201556003820154816003015560048201548160040155600582015481600501556006820160009054906101000a900460ff168160060160006101000a81548160ff02191690836003811115615f63577f4e487b7100000000000000000000000000000000000000000000000000000000600052602160045260246000fd5b0217905550905050600b60003373ffffffffffffffffffffffffffffffffffffffff1673ffffffffffffffffffffffffffffffffffffffff168152602001908152602001600020600301805480615fe3577f4e487b7100000000000000000000000000000000000000000000000000000000600052603160045260246000fd5b6001900381819060005260206000209060070201600080820160009055600182016000905560028201600090556003820160009055600482016000905560058201600090556006820160006101000a81549060ff021916905550509055505b600b60003373ffffffffffffffffffffffffffffffffffffffff1673ffffffffffffffffffffffffffffffffffffffff16815260200190815260200160002060030184815481106160bc577f4e487b7100000000000000000000000000000000000000000000000000000000600052603260045260246000fd5b9060005260206000209060070201600001547f56f4bd331ad656b18a885f48e538fa57df28aaa74314d9ed1f7a4db564d4fbe133856040516160ff9291906173df565b60405180910390a2505b505050565b6161166144fe565b61611f57600080fd5b61613481600354616b8c90919063ffffffff16565b6003819055507fcd27308a347486a5c5d40f1a851c65e2ee84b53c4644d06fd342b059f9eb29fd60035460405161616b9190617856565b60405180910390a150565b600260009054906101000a900473ffffffffffffffffffffffffffffffffffffffff1681565b600a60009054906101000a900460ff166161eb576040517f08c379a00000000000000000000000000000000000000000000000000000000081526004016161e290617696565b60405180910390fd5b6161f3616a40565b61624834600b60003373ffffffffffffffffffffffffffffffffffffffff1673ffffffffffffffffffffffffffffffffffffffff16815260200190815260200160002060010154616b8c90919063ffffffff16565b600b60003373ffffffffffffffffffffffffffffffffffffffff1673ffffffffffffffffffffffffffffffffffffffff168152602001908152602001600020600101819055506162a334600454616b8c90919063ffffffff16565b6004819055503373ffffffffffffffffffffffffffffffffffffffff167fe1fffcc4923d04b559f4d29a8bfc6cda04eb5b0d3c460751c2402c5c5cc9109c346040516162ef9190617856565b60405180910390a2565b6163016144fe565b61630a57600080fd5b80600260006101000a81548173ffffffffffffffffffffffffffffffffffffffff021916908373ffffffffffffffffffffffffffffffffffffffff1602179055507f54a6385aa0292b04e1ef8513253c17d1863f7cdfc87029d77fd55cc4c2e717e28160405161637a919061739b565b60405180910390a150565b6008818154811061639557600080fd5b906000526020600020016000915090505481565b600a60009054906101000a900460ff1681565b600a81565b60603373ffffffffffffffffffffffffffffffffffffffff16600260009054906101000a900473ffffffffffffffffffffffffffffffffffffffff1673ffffffffffffffffffffffffffffffffffffffff1614616453576040517f08c379a000000000000000000000000000000000000000000000000000000000815260040161644a906176b6565b60405180910390fd5b60018054806020026020016040519081016040528092919081815260200182805480156164d557602002820191906000526020600020905b8160009054906101000a900473ffffffffffffffffffffffffffffffffffffffff1673ffffffffffffffffffffffffffffffffffffffff168152602001906001019080831161648b575b5050505050905090565b6164e76144fe565b6164f057600080fd5b6164f981616caf565b50565b6165046144fe565b61650d57600080fd5b61652234600454616b8c90919063ffffffff16565b6004819055507f81bb4299a1a34702f45bf19a704351eb83dce855cf8ff5014c64b704efb7f645346040516165579190617856565b60405180910390a1565b3373ffffffffffffffffffffffffffffffffffffffff16600260009054906101000a900473ffffffffffffffffffffffffffffffffffffffff1673ffffffffffffffffffffffffffffffffffffffff16146165f1576040517f08c379a00000000000000000000000000000000000000000000000000000000081526004016165e8906176b6565b60405180910390fd5b6000600c600083815260200190815260200160002060009054906101000a900473ffffffffffffffffffffffffffffffffffffffff16905042600b60008373ffffffffffffffffffffffffffffffffffffffff1673ffffffffffffffffffffffffffffffffffffffff168152602001908152602001600020600301600e600085815260200190815260200160002054815481106166b7577f4e487b7100000000000000000000000000000000000000000000000000000000600052603260045260246000fd5b906000526020600020906007020160040154111561670a576040517f08c379a000000000000000000000000000000000000000000000000000000000815260040161670190617796565b60405180910390fd5b6003600b60008373ffffffffffffffffffffffffffffffffffffffff1673ffffffffffffffffffffffffffffffffffffffff168152602001908152602001600020600301600e60008581526020019081526020016000205481548110616799577f4e487b7100000000000000000000000000000000000000000000000000000000600052603260045260246000fd5b906000526020600020906007020160060160006101000a81548160ff021916908360038111156167f2577f4e487b7100000000000000000000000000000000000000000000000000000000600052602160045260246000fd5b0217905550817f89753c7b58bfc293194132c57d8fc1ac6a4d453b350c9bca28cc88c89036650082604051616827919061739b565b60405180910390a25050565b3373ffffffffffffffffffffffffffffffffffffffff16600260009054906101000a900473ffffffffffffffffffffffffffffffffffffffff1673ffffffffffffffffffffffffffffffffffffffff16146168c3576040517f08c379a00000000000000000000000000000000000000000000000000000000081526004016168ba906176b6565b60405180910390fd5b600060098054905042846040516020016168df9392919061735e565b6040516020818303038152906040528051906020012060001c9050600981908060018154018082558091505060019003906000526020600020016000909190919091505560405180604001604052808481526020018381525060106000838152602001908152602001600020600082015181600001556020820151816001015590505061697b60016009805490506169f690919063ffffffff16565b60126000838152602001908152602001600020819055507fe57b5a3f90a02eb83b7ca7f3546fc090127f0eab09a224edc9f64ccd4b18b1c58184846040516169c59392919061789a565b60405180910390a1505050565b600f6020528060005260406000206000915090508060000154908060010154905082565b6000616a3883836040518060400160405280601e81526020017f536166654d6174683a207375627472616374696f6e206f766572666c6f770000815250616da6565b905092915050565b600b60003373ffffffffffffffffffffffffffffffffffffffff1673ffffffffffffffffffffffffffffffffffffffff16815260200190815260200160002060000160009054906101000a900460ff16616b8a576001600b60003373ffffffffffffffffffffffffffffffffffffffff1673ffffffffffffffffffffffffffffffffffffffff16815260200190815260200160002060000160006101000a81548160ff0219169083151502179055506001339080600181540180825580915050600190039060005260206000200160009091909190916101000a81548173ffffffffffffffffffffffffffffffffffffffff021916908373ffffffffffffffffffffffffffffffffffffffff1602179055507f2921fdc6b33de0e91685031b6c5b9958c91317946af501315b29f1ec4577824933604051616b81919061739b565b60405180910390a15b565b6000808284616b9b919061795f565b905083811015616be0576040517f08c379a0000000000000000000000000000000000000000000000000000000008152600401616bd7906176d6565b60405180910390fd5b8091505092915050565b600080831415616bfd5760009050616c5f565b60008284616c0b91906179e6565b9050828482616c1a91906179b5565b14616c5a576040517f08c379a0000000000000000000000000000000000000000000000000000000008152600401616c5190617756565b60405180910390fd5b809150505b92915050565b6000616ca783836040518060400160405280601a81526020017f536166654d6174683a206469766973696f6e206279207a65726f000000000000815250616e0a565b905092915050565b600073ffffffffffffffffffffffffffffffffffffffff168173ffffffffffffffffffffffffffffffffffffffff161415616ce957600080fd5b8073ffffffffffffffffffffffffffffffffffffffff1660008054906101000a900473ffffffffffffffffffffffffffffffffffffffff1673ffffffffffffffffffffffffffffffffffffffff167f8be0079c531659141344cd1fd0a4f28419497f9722a3daafe3b4186f6b6457e060405160405180910390a3806000806101000a81548173ffffffffffffffffffffffffffffffffffffffff021916908373ffffffffffffffffffffffffffffffffffffffff16021790555050565b6000838311158290616dee576040517f08c379a0000000000000000000000000000000000000000000000000000000008152600401616de59190617654565b60405180910390fd5b5060008385616dfd9190617a40565b9050809150509392505050565b60008083118290616e51576040517f08c379a0000000000000000000000000000000000000000000000000000000008152600401616e489190617654565b60405180910390fd5b5060008385616e6091906179b5565b9050809150509392505050565b600081359050616e7c81617ee1565b92915050565b600081359050616e9181617ef8565b92915050565b600081359050616ea681617f0f565b92915050565b600060208284031215616ebe57600080fd5b6000616ecc84828501616e6d565b91505092915050565b600060208284031215616ee757600080fd5b6000616ef584828501616e97565b91505092915050565b60008060408385031215616f1157600080fd5b6000616f1f85828601616e97565b9250506020616f3085828601616e82565b9150509250929050565b60008060408385031215616f4d57600080fd5b6000616f5b85828601616e97565b9250506020616f6c85828601616e97565b9150509250929050565b6000616f828383616fa6565b60208301905092915050565b6000616f9a83836172ec565b60208301905092915050565b616faf81617a74565b82525050565b616fbe81617a74565b82525050565b616fd5616fd082617a74565b617b38565b82525050565b6000616fe6826178f1565b616ff0818561792c565b9350616ffb836178d1565b8060005b8381101561702c5781516170138882616f76565b975061701e83617912565b925050600181019050616fff565b5085935050505092915050565b6000617044826178fc565b61704e818561793d565b9350617059836178e1565b8060005b8381101561708a5781516170718882616f8e565b975061707c8361791f565b92505060018101905061705d565b5085935050505092915050565b6170a081617a86565b82525050565b60006170b182617907565b6170bb818561794e565b93506170cb818560208601617abc565b6170d481617bc4565b840191505092915050565b60006170ec600e8361794e565b91506170f782617be2565b602082019050919050565b600061710f60218361794e565b915061711a82617c0b565b604082019050919050565b600061713260218361794e565b915061713d82617c5a565b604082019050919050565b6000617155601b8361794e565b915061716082617ca9565b602082019050919050565b600061717860118361794e565b915061718382617cd2565b602082019050919050565b600061719b601a8361794e565b91506171a682617cfb565b602082019050919050565b60006171be60208361794e565b91506171c982617d24565b602082019050919050565b60006171e160218361794e565b91506171ec82617d4d565b604082019050919050565b6000617204601d8361794e565b915061720f82617d9c565b602082019050919050565b600061722760188361794e565b915061723282617dc5565b602082019050919050565b600061724a600e8361794e565b915061725582617dee565b602082019050919050565b600061726d60148361794e565b915061727882617e17565b602082019050919050565b600061729060108361794e565b915061729b82617e40565b602082019050919050565b60006172b3600e8361794e565b91506172be82617e69565b602082019050919050565b60006172d660218361794e565b91506172e182617e92565b604082019050919050565b6172f581617ab2565b82525050565b61730481617ab2565b82525050565b61731b61731682617ab2565b617b5c565b82525050565b600061732d828661730a565b60208201915061733d828561730a565b60208201915061734d8284616fc4565b601482019150819050949350505050565b600061736a828661730a565b60208201915061737a828561730a565b60208201915061738a828461730a565b602082019150819050949350505050565b60006020820190506173b06000830184616fb5565b92915050565b60006040820190506173cb6000830185616fb5565b6173d86020830184617097565b9392505050565b60006040820190506173f46000830185616fb5565b61740160208301846172fb565b9392505050565b600060608201905061741d6000830186616fb5565b61742a60208301856172fb565b61743760408301846172fb565b949350505050565b600060208201905081810360008301526174598184616fdb565b905092915050565b600060a082019050818103600083015261747b8188617039565b9050818103602083015261748f8187616fdb565b905081810360408301526174a38186617039565b905081810360608301526174b78185617039565b905081810360808301526174cb8184617039565b90509695505050505050565b600060408201905081810360008301526174f18185617039565b905081810360208301526175058184617039565b90509392505050565b600060c08201905081810360008301526175288189617039565b9050818103602083015261753c8188617039565b905081810360408301526175508187617039565b905081810360608301526175648186617039565b905081810360808301526175788185617039565b905081810360a083015261758c8184617039565b9050979650505050505050565b600060e08201905081810360008301526175b3818a617039565b905081810360208301526175c78189617039565b905081810360408301526175db8188617039565b905081810360608301526175ef8187617039565b905081810360808301526176038186617039565b905081810360a08301526176178185617039565b905081810360c083015261762b8184617039565b905098975050505050505050565b600060208201905061764e6000830184617097565b92915050565b6000602082019050818103600083015261766e81846170a6565b905092915050565b6000602082019050818103600083015261768f816170df565b9050919050565b600060208201905081810360008301526176af81617102565b9050919050565b600060208201905081810360008301526176cf81617125565b9050919050565b600060208201905081810360008301526176ef81617148565b9050919050565b6000602082019050818103600083015261770f8161716b565b9050919050565b6000602082019050818103600083015261772f8161718e565b9050919050565b6000602082019050818103600083015261774f816171b1565b9050919050565b6000602082019050818103600083015261776f816171d4565b9050919050565b6000602082019050818103600083015261778f816171f7565b9050919050565b600060208201905081810360008301526177af8161721a565b9050919050565b600060208201905081810360008301526177cf8161723d565b9050919050565b600060208201905081810360008301526177ef81617260565b9050919050565b6000602082019050818103600083015261780f81617283565b9050919050565b6000602082019050818103600083015261782f816172a6565b9050919050565b6000602082019050818103600083015261784f816172c9565b9050919050565b600060208201905061786b60008301846172fb565b92915050565b600060408201905061788660008301856172fb565b61789360208301846172fb565b9392505050565b60006060820190506178af60008301866172fb565b6178bc60208301856172fb565b6178c960408301846172fb565b949350505050565b6000819050602082019050919050565b6000819050602082019050919050565b600081519050919050565b600081519050919050565b600081519050919050565b6000602082019050919050565b6000602082019050919050565b600082825260208201905092915050565b600082825260208201905092915050565b600082825260208201905092915050565b600061796a82617ab2565b915061797583617ab2565b9250827fffffffffffffffffffffffffffffffffffffffffffffffffffffffffffffffff038211156179aa576179a9617b66565b5b828201905092915050565b60006179c082617ab2565b91506179cb83617ab2565b9250826179db576179da617b95565b5b828204905092915050565b60006179f182617ab2565b91506179fc83617ab2565b9250817fffffffffffffffffffffffffffffffffffffffffffffffffffffffffffffffff0483118215151615617a3557617a34617b66565b5b828202905092915050565b6000617a4b82617ab2565b9150617a5683617ab2565b925082821015617a6957617a68617b66565b5b828203905092915050565b6000617a7f82617a92565b9050919050565b60008115159050919050565b600073ffffffffffffffffffffffffffffffffffffffff82169050919050565b6000819050919050565b60005b83811015617ada578082015181840152602081019050617abf565b83811115617ae9576000848401525b50505050565b6000617afa82617ab2565b91507fffffffffffffffffffffffffffffffffffffffffffffffffffffffffffffffff821415617b2d57617b2c617b66565b5b600182019050919050565b6000617b4382617b4a565b9050919050565b6000617b5582617bd5565b9050919050565b6000819050919050565b7f4e487b7100000000000000000000000000000000000000000000000000000000600052601160045260246000fd5b7f4e487b7100000000000000000000000000000000000000000000000000000000600052601260045260246000fd5b6000601f19601f8301169050919050565b60008160601b9050919050565b7f496e76616c696420416363657373000000000000000000000000000000000000600082015250565b7f4465706f7369742066756e6374696f6e20667265657a6564206279204f776e6560008201527f7200000000000000000000000000000000000000000000000000000000000000602082015250565b7f416363657373207265737472696374656420746f204d616e61676572206f6e6c60008201527f7900000000000000000000000000000000000000000000000000000000000000602082015250565b7f536166654d6174683a206164646974696f6e206f766572666c6f770000000000600082015250565b7f4c6f616e7320556e617661696c61626c65000000000000000000000000000000600082015250565b7f496e73756666696369656e74206f776e65722062616c616e6365000000000000600082015250565b7f496e73756666696369656e742062616c616e636520696e20636f6e7472616374600082015250565b7f536166654d6174683a206d756c7469706c69636174696f6e206f766572666c6f60008201527f7700000000000000000000000000000000000000000000000000000000000000602082015250565b7f496e73756666696369656e7420436f6e74726163742042616c616e6365000000600082015250565b7f4e6f7420726561636865642074686520446561646c696e650000000000000000600082015250565b7f457863657373205061796d656e74000000000000000000000000000000000000600082015250565b7f496e73756666696369656e742042616c616e6365000000000000000000000000600082015250565b7f556e61626c6520746f2063616e63656c00000000000000000000000000000000600082015250565b7f496e76616c69642063686f696365000000000000000000000000000000000000600082015250565b7f54686973204669786564206465706f736974206973206e6f74206d617475726560008201527f6400000000000000000000000000000000000000000000000000000000000000602082015250565b617eea81617a74565b8114617ef557600080fd5b50565b617f0181617a86565b8114617f0c57600080fd5b50565b617f1881617ab2565b8114617f2357600080fd5b5056fea2646970667358221220e8d3109ca0d6f1b71c1282159e77fb1c48f8dfcf0a1bd9bbc2382d43106c8b2e64736f6c63430008010033",
  "immutableReferences": {},
  "source": "// SPDX-License-Identifier: UNLICENSED\r\n\r\npragma solidity >=0.6.0;\r\n     \r\n/* Imports */\r\n\r\n import \"./BankStorage.sol\";\r\nimport \"./SafeMath.sol\"; \r\n\r\n     \r\n/**\r\n * @author Joby Augustine\r\n * @notice You use this contract for banking operations. \r\n * @dev The main Bank contract for banking operations.\r\n * @title Decentralized Bank\r\n */     \r\n/*Contract */\r\ncontract BankLogic is BankStorage {\r\n    \r\n    \r\n        /* library */\r\n    using SafeMath for uint256;\r\n    \r\n    \r\n    \r\n         \r\n  \r\n    \r\n    \r\n    /*Constructor */\r\n\r\n    /** @dev Constructs the Bank contract.\r\n     *  @param _reserveBalance Reserve balance that is to be maintained in the contract.\r\n     */\r\n    \r\n    constructor (uint256 _reserveBalance) {\r\n        \r\n        reserveBalance = _reserveBalance;\r\n    }\r\n    \r\n    \r\n    /* Functions */\r\n    \r\n\r\n    /**\r\n     * @notice Send eth to deposit it in the account.\r\n     * @dev User deposits to his/her account.\r\n     */\r\n    function deposit() external payable{\r\n        \r\n        require(acceptDeposit,\"Deposit function freezed by Owner\");\r\n\r\n        _createAccount();\r\n\r\n        userInfo[msg.sender].balance = userInfo[msg.sender].balance.add(msg.value);\r\n        contractBalance = contractBalance.add(msg.value);\r\n        \r\n        emit Deposit(msg.sender, msg.value);\r\n    }\r\n    \r\n    /**\r\n     * @notice Withdraw an amount from account. \r\n     * @dev User withdraw from his/her account.\r\n     * @param _amount Withdrawal amount.\r\n     */\r\n    function withdraw(uint256 _amount) external {\r\n        \r\n        require(userInfo[msg.sender].balance >= _amount, \"Insufficient Balance\");\r\n        require(contractBalance >= _amount, \"Insufficient Contract Balance\");\r\n\r\n        userInfo[msg.sender].balance = userInfo[msg.sender].balance.sub(_amount);\r\n        contractBalance = contractBalance.sub(_amount);\r\n        payable(msg.sender).transfer(_amount);\r\n        \r\n        emit Withdraw(msg.sender, _amount);\r\n    }\r\n    \r\n    /**\r\n     * @notice Send fixed deposit amount in Eth and choose a tariff.\r\n     * @dev User deposits an amount for a fixed duration.\r\n     * @param _tariffId Tariff id for fixed deposit.\r\n     */\r\n    function fixedDeposit(uint256 _tariffId) external payable {\r\n        \r\n        require(acceptDeposit,\"Deposit function freezed by Owner\");\r\n\r\n        _createAccount();\r\n        \r\n        userInfo[msg.sender].totalUsrFD = userInfo[msg.sender].totalUsrFD.add(msg.value);\r\n        \r\n        uint256 _fdId = uint256(keccak256(abi.encodePacked(userInfo[msg.sender].fdInfo.length, block.timestamp, msg.sender)));\r\n        userInfo[msg.sender].fdInfo.push(\r\n            FxDptInfo(\r\n                _fdId,\r\n                msg.value,\r\n                fdTariffIdToInfo[_tariffId].duration,\r\n                fdTariffIdToInfo[_tariffId].interest,\r\n                block.timestamp.add(fdTariffIdToInfo[_tariffId].duration.mul(1 days) )\r\n            ));\r\n        \r\n        contractBalance = contractBalance.add(msg.value); \r\n        totalFixedDeposit = totalFixedDeposit.add(msg.value);\r\n        \r\n        emit FixedDeposit(_fdId, msg.sender, msg.value, _tariffId);\r\n    }\r\n    \r\n    /**\r\n     * @notice Withdraw fixed deposit.\r\n     * @dev User withdraws his/her fixed deposit with interest.\r\n     * @param _fdIndex Index of the Fixed deposit to be withdrawn.\r\n     */\r\n    function withdrawFD(uint256 _fdIndex) public {\r\n        \r\n        uint256 _fdCount = userInfo[msg.sender].fdInfo.length;\r\n        require(_fdIndex < _fdCount, \"Invalid choice\");\r\n        require(userInfo[msg.sender].fdInfo[_fdIndex].endTime >= block.timestamp, \"This Fixed deposit is not matured\");\r\n    \r\n        uint256 _interest =  userInfo[msg.sender].fdInfo[_fdIndex].interest;\r\n        uint256 _numOfDays = userInfo[msg.sender].fdInfo[_fdIndex].duration\r\n            .add((block.timestamp.sub(userInfo[msg.sender].fdInfo[_fdIndex].endTime))\r\n            .div(1 days));\r\n        uint256 _amount =  userInfo[msg.sender].fdInfo[_fdIndex].amount;\r\n        uint256 _interestAmt = (_amount.div(100).mul(_interest)).div(365); // Interest Amount for 1 day.\r\n        _interestAmt = _interestAmt.mul(_numOfDays);\r\n        _amount = _amount.add(_interestAmt);\r\n        \r\n        uint256 _fdId = userInfo[msg.sender].fdInfo[_fdIndex].fdId;\r\n        \r\n        require(contractBalance >= _amount, \"Insufficient balance in contract\");\r\n        userInfo[msg.sender].totalUsrFD = userInfo[msg.sender].totalUsrFD.sub(_amount);\r\n        contractBalance = contractBalance.sub(_amount); \r\n        totalFixedDeposit = totalFixedDeposit.sub(_amount);\r\n    \r\n        userInfo[msg.sender].fdInfo[_fdIndex] =  userInfo[msg.sender].fdInfo[_fdCount.sub(1)];\r\n        userInfo[msg.sender].fdInfo.pop();\r\n        \r\n        payable(msg.sender).transfer(_amount);\r\n        \r\n        emit WithdrawFD(_fdId, msg.sender, _amount);\r\n    }\r\n    \r\n    /**\r\n     * @notice Withdraw fixed deposit before maturity period.\r\n     * @dev User withdraws his/her fixed deposit before maturity period with penality of 5 percent of the FD Interest.\r\n     * @param _fdIndex Index of the Fixed deposit to be withdrawn.\r\n     */\r\n    function withdrawFDBeforeMaturity(uint256 _fdIndex) external {\r\n        \r\n        if(userInfo[msg.sender].fdInfo[_fdIndex].endTime >= block.timestamp) {\r\n            withdrawFD(_fdIndex);\r\n        }\r\n        else {\r\n            uint256 _fdCount = userInfo[msg.sender].fdInfo.length;\r\n            \r\n            require(_fdIndex < _fdCount, \"Invalid choice\");\r\n            uint256 _interest =  userInfo[msg.sender].fdInfo[_fdIndex].interest;\r\n            uint256 _numOfDays = (userInfo[msg.sender].fdInfo[_fdIndex].endTime.sub(block.timestamp)).div(1 days);\r\n            uint256 _amount =  userInfo[msg.sender].fdInfo[_fdIndex].amount;\r\n            uint256 _interestAmt = (_amount.div(100).mul(_interest)).div(365); // Interest Amount for 1 day.\r\n            _interestAmt = _interestAmt.mul(_numOfDays);\r\n            _amount = _amount.add(_interestAmt);\r\n            _amount = _amount.sub(_interestAmt.div(100).mul(5)); // Penality deducted.\r\n            \r\n            require(contractBalance >= _amount, \"Insufficient balance in contract\");\r\n            userInfo[msg.sender].totalUsrFD = userInfo[msg.sender].totalUsrFD.sub(_amount);\r\n            contractBalance = contractBalance.sub(_amount); \r\n            totalFixedDeposit = totalFixedDeposit.sub(_amount);\r\n            \r\n            uint256 _fdId = userInfo[msg.sender].fdInfo[_fdIndex].fdId;\r\n            \r\n            userInfo[msg.sender].fdInfo[_fdIndex] =  userInfo[msg.sender].fdInfo[_fdCount.sub(1)];\r\n            userInfo[msg.sender].fdInfo.pop();\r\n            \r\n            payable(msg.sender).transfer(_amount);\r\n            \r\n            emit WithdrawFDBeforeMaturity(_fdId, msg.sender, _amount);\r\n        }\r\n    }\r\n    \r\n    /**\r\n     * @notice Request for a loan.\r\n     * @dev User requests for a loan.\r\n     * @param _amount Loan amount.\r\n     * @param _tariffId Tariff id for Loan.\r\n     */\r\n    function requestLoan(uint256 _amount, uint256 _tariffId) external {\r\n        \r\n        require(loanAvailable,\"Loans Unavailable\");\r\n        \r\n        _createAccount();\r\n        \r\n        uint256 _loanId = uint256(keccak256(abi.encodePacked(userInfo[msg.sender].loanInfo.length, block.timestamp, msg.sender)));\r\n        uint256 _repayAmountBal = _amount.add(\r\n            (_amount.div(100).mul(lnTariffIdToInfo[_tariffId].interest))\r\n            .div(365).mul(lnTariffIdToInfo[_tariffId].duration)\r\n            );\r\n        userInfo[msg.sender].loanInfo.push(\r\n            LnInfo(\r\n                _loanId,\r\n                _amount,\r\n                lnTariffIdToInfo[_tariffId].duration,\r\n                lnTariffIdToInfo[_tariffId].interest,\r\n                0,\r\n                _repayAmountBal,\r\n                LnStatus.WaitingForCollateralVerification\r\n            ));\r\n        loanIdToUserLoanInfoIndex[_loanId] = userInfo[msg.sender].loanInfo.length.sub(1);\r\n        loanIdToUser[_loanId] = msg.sender;\r\n\r\n        loanIdsOfPendingRequests.push(_loanId);\r\n        loanIdToPendingRequestIndex[_loanId] = loanIdsOfPendingRequests.length.sub(1);\r\n         \r\n        emit RequestLoan(_loanId, msg.sender, _amount, _tariffId);\r\n    }\r\n    \r\n    /**\r\n     * @notice Repay loan partially or completely.\r\n      * @dev User repays the loan.\r\n     * @param _loanIndex Index of this Loan.\r\n     */\r\n    function repayLoan(uint256 _loanIndex) external payable {\r\n        \r\n        uint256 _amount = msg.value; \r\n        uint256 _lnCount = userInfo[msg.sender].loanInfo.length;\r\n        \r\n        require(_loanIndex < _lnCount, \"Invalid choice\");\r\n        \r\n         if(userInfo[msg.sender].loanInfo[_loanIndex].endTime >= block.timestamp){\r\n            userInfo[msg.sender].loanInfo[_loanIndex].loanStatus = LnStatus.CrossedDeadline;\r\n            emit LoanDeadLineCrosssed(userInfo[msg.sender].loanInfo[_loanIndex].loanId, msg.sender );\r\n        }\r\n        else{\r\n            uint256 _repayAmount = userInfo[msg.sender].loanInfo[_loanIndex].repayAmountBal;\r\n            \r\n            require(_amount <= _repayAmount , \"Excess Payment\");\r\n            userInfo[msg.sender].loanInfo[_loanIndex].repayAmountBal = userInfo[msg.sender].loanInfo[_loanIndex].repayAmountBal.sub(_amount); \r\n            contractBalance = contractBalance.add(_amount);\r\n            \r\n            \r\n            if( userInfo[msg.sender].loanInfo[_loanIndex].repayAmountBal == 0 ) {\r\n                emit LoanClosed(userInfo[msg.sender].loanInfo[_loanIndex].loanId, msg.sender);  \r\n                \r\n                uint256 _ownerShare = (userInfo[msg.sender].loanInfo[_loanIndex].amount\r\n                    .div(100)\r\n                    .mul(userInfo[msg.sender].loanInfo[_loanIndex].interest)\r\n                    )\r\n                    .div(100)\r\n                    .mul(loanInterestAmountShare); // `loanInterestAmountShare` percent of intrest amount\r\n                ownerBalance = ownerBalance.add(_ownerShare);\r\n                contractBalance = contractBalance.sub(_ownerShare);\r\n                userInfo[msg.sender].loanInfo[_loanIndex] =  userInfo[msg.sender].loanInfo[_lnCount.sub(1)];\r\n                userInfo[msg.sender].loanInfo.pop();\r\n            }\r\n\r\n            emit RepayLoan(userInfo[msg.sender].loanInfo[_loanIndex].loanId, msg.sender, _amount);\r\n        }\r\n    }\r\n    \r\n    /** \r\n     * @notice Cancel Loan Request.\r\n     * @dev User cancels requested loan.\r\n     * @param _cancelLoanId id of the loan to be cancelled.\r\n     */\r\n    function cancelLoanRequest(uint256 _cancelLoanId) external {\r\n        \r\n        require(userInfo[msg.sender].loanInfo[ loanIdToUserLoanInfoIndex[_cancelLoanId]].loanStatus == LnStatus.WaitingForCollateralVerification, \"Unable to cancel\");\r\n\r\n        loanIdToPendingRequestIndex[loanIdsOfPendingRequests[loanIdsOfPendingRequests.length.sub(1)]] = loanIdToPendingRequestIndex[_cancelLoanId]; // Updating loanIdToPendingRequestIndex of last element with the index of cancelled loan id's index.\r\n        \r\n        loanIdsOfPendingRequests[loanIdToPendingRequestIndex[_cancelLoanId]] = loanIdsOfPendingRequests[loanIdsOfPendingRequests.length.sub(1)]; // Replacing the cancelled loan request id in the  loanIdsOfPendingRequests array with last element of the array.\r\n        loanIdsOfPendingRequests.pop();\r\n\r\n        uint256 _lnCount = userInfo[msg.sender].loanInfo.length;\r\n        userInfo[msg.sender].loanInfo[loanIdToUserLoanInfoIndex[_cancelLoanId]] =  userInfo[msg.sender].loanInfo[_lnCount.sub(1)];\r\n        userInfo[msg.sender].loanInfo.pop();\r\n        \r\n        emit CancelLoanRequest(_cancelLoanId, msg.sender);\r\n    }\r\n    \r\n    /**\r\n     * @notice View loan requests.\r\n     * @dev Manager can view all loan requests waiting for approval.\r\n     * @param _cursor Starting value of the index that is to be fetched from loanIdsOfPendingRequests array.\r\n     * @param _count Number of loan requests that is to be fetched from the array. In order to fetch entire array, set count to zero or a number higher than the last index of the array. \r\n     */\r\n    function viewLoanRequests(uint256 _cursor, uint256 _count) external onlyByManager view returns(uint[] memory _loanIds, address[] memory _userAddrs, uint256[] memory _amounts, uint256[] memory _durations, uint256[] memory _interests) {\r\n             \r\n        uint256 _lnId;\r\n        uint256 _userLoanIndex;\r\n        address _usrAdrs;\r\n        \r\n        for (uint256 i = _cursor; i < loanIdsOfPendingRequests.length && (i < _cursor + _count || _count == 0 ); i++) {\r\n            _lnId = loanIdsOfPendingRequests[i];\r\n            _usrAdrs = loanIdToUser[_lnId];\r\n            _userLoanIndex = loanIdToUserLoanInfoIndex[_lnId];\r\n            \r\n            _loanIds[i] = _lnId;\r\n            _userAddrs[i] = _usrAdrs;\r\n            _amounts[i] = userInfo[_usrAdrs].loanInfo[_userLoanIndex].amount;\r\n            _durations[i] = userInfo[_usrAdrs].loanInfo[_userLoanIndex].duration;\r\n            _interests[i] = userInfo[_usrAdrs].loanInfo[_userLoanIndex].interest;\r\n                \r\n        }\r\n        return(_loanIds, _userAddrs, _amounts, _durations, _interests);\r\n    }\r\n    \r\n  \r\n    \r\n    \r\n    /**\r\n     * @notice Set a loan duration and its interest rate.\r\n     * @dev Owner sets a loan duration and its interest rate.\r\n     * @param _duration Loan duration.\r\n     * @param _interest Loan interest.\r\n     * \r\n     */\r\n    function setLoanDurationAndInterest(uint256 _duration, uint256 _interest) external onlyByManager{\r\n        uint256 _tariffId = uint256(keccak256(abi.encodePacked(lnTfId.length, block.timestamp, _duration)));\r\n        lnTfId.push(_tariffId);\r\n        lnTariffIdToInfo[_tariffId] = LoanTariff(_duration, _interest);\r\n        lnTariffIdToLnTfIdIndex[_tariffId] = lnTfId.length.sub(1);\r\n        \r\n        emit SetLoanDurationAndInterest(_tariffId, _duration, _interest);\r\n    }\r\n    \r\n    /**\r\n     * @notice Get all loan durations and their interest rates\r\n     * @dev Get all loan durations and their interest rates.\r\n     * @param _cursor Starting value of the index that is to be fetched from lnTariffToInfo array.\r\n     * @param _count Number of tariff that is to be fetched from  lnTariffToInfo array. In order to fetch entire array, set count to zero or a number higher than the last index of the array. \r\n     * @return _duration Loan duration.\r\n     * @return _interest Loan interest.\r\n     */\r\n    function getLoanDurationAndInterest(uint256 _cursor, uint256 _count) external view returns(uint256[] memory _duration, uint256[] memory  _interest) {\r\n        for (uint256 i = _cursor; i < lnTfId.length && (i < _cursor + _count || _count == 0 ); i++) {\r\n            _duration[i] = lnTariffIdToInfo[lnTfId[i]].duration;\r\n            _interest[i] = lnTariffIdToInfo[lnTfId[i]].interest;\r\n        }\r\n    }\r\n    \r\n    /**\r\n     * @notice Owner can remove a loan duration and its interest rate.\r\n     * @dev Owner remove a loan duration and its interest rate.\r\n     * @param _tariffId Loan tariff Id..\r\n     */\r\n    function removeLoanDurationAndInterest(uint256 _tariffId) external onlyByManager {\r\n\r\n        lnTfId[fdTariffIdToFdTfIdIndex[_tariffId]] = lnTfId[lnTfId.length.sub(1)];\r\n        lnTfId.pop();\r\n\r\n        emit RemoveLoanDurationAndInterest(_tariffId);\r\n    }\r\n    \r\n    \r\n    /**\r\n     * @notice Owner sets fixed deposit duration and its interest rate.\r\n     * @dev Owner sets fixed deposit duration and its interest rate\r\n     * @param _duration Fixed deposit duration.\r\n     * @param _interest Interest rate for fixed deposit.\r\n     */\r\n    function setFDDurationAndInterest(uint256 _duration, uint256 _interest) external onlyByManager{\r\n        \r\n        uint256 _tariffId = uint256(keccak256(abi.encodePacked(fdTfId.length, block.timestamp, _duration)));\r\n        fdTfId.push(_tariffId);\r\n        fdTariffIdToInfo[_tariffId] = FdTariff(_duration, _interest);\r\n        fdTariffIdToFdTfIdIndex[_tariffId] = fdTfId.length.sub(1);\r\n\r\n        emit SetFDDurationAndInterest(_tariffId, _duration, _interest);\r\n    }\r\n    \r\n    /**\r\n     * @notice Get all fixed deposit durations and their interest rates.\r\n     * @dev Get all fixed deposit durations and their interest rates. \r\n     * @param _cursor Starting value of the index that is to be fetched from fdTariffToInfo array.\r\n     * @param _count Number of tariff that is to be fetched from  fdTariffToInfo array. In order to fetch entire array, set count to zero or a number higher than the last index of the array. \r\n     * @return _duration Fixed deposit duration.\r\n     * @return _interest Interest rate for fixed deposit.\r\n     */\r\n    function getFDDurationAndInterest(uint256 _cursor, uint256 _count) external view returns (uint256[] memory _duration, uint256[] memory _interest) {\r\n\r\n        for (uint256 i = _cursor; i < fdTfId.length && (i < _cursor + _count || _count == 0 ); i++) {\r\n            _duration[i] = fdTariffIdToInfo[fdTfId[i]].duration;\r\n            _interest[i] = fdTariffIdToInfo[fdTfId[i]].interest;\r\n        }\r\n    }\r\n    \r\n    \r\n     /**\r\n     * @notice Owner can remove a fixed deposit duration and its interest rate.\r\n     * @dev Owner remove a fixed deposit duration and its interest rate.\r\n     * @param _tariffId Fixed deposit tariff.\r\n     */\r\n    function removeFDDurationAndInterest(uint256 _tariffId) external onlyByManager {\r\n\r\n        fdTfId[fdTariffIdToFdTfIdIndex[_tariffId]] = fdTfId[fdTfId.length.sub(1)];\r\n        fdTfId.pop();\r\n\r\n        emit RemoveFDDurationAndInterest(_tariffId);\r\n    }\r\n\r\n    /**\r\n     * @notice Owner can increase the reserve balance that is to be maintained in the contract. \r\n     * @dev Owner increase the reserveBalance.\r\n     * @param _amount Amount that is to be increased.\r\n     */\r\n    function increaseReserveBalance(uint256 _amount) external onlyOwner {\r\n        \r\n        reserveBalance = reserveBalance.add(_amount);\r\n\r\n        emit IncreaseReserveBalance(reserveBalance);\r\n    }\r\n    \r\n    /**\r\n     * @notice Owner can change the manager. \r\n     * @dev Owner changes the manager.\r\n     * @param _managerAddrs Manager's address.\r\n     */\r\n    function setManager(address _managerAddrs) external onlyOwner {\r\n        \r\n        managerAddress = _managerAddrs; \r\n        \r\n        emit SetManager(_managerAddrs);\r\n    }\r\n    \r\n    /**\r\n     * @notice Manager can get addresses of all Users. \r\n     * @dev Manager can get addresses of all Users\r\n     * @return _userAddrs Addresses of all Users.\r\n     */\r\n     \r\n    function getAllUsers() external view onlyByManager returns(address[] memory _userAddrs) {\r\n        \r\n        _userAddrs = userAddress;\r\n    }\r\n\r\n    /* Internal */\r\n    \r\n    /**\r\n     * @notice Adds user account.\r\n     * @dev Adds user address to userInfo array.\r\n     */\r\n    function _createAccount() internal {\r\n\r\n        if(!userInfo[msg.sender].accStatus) {\r\n            userInfo[msg.sender].accStatus = true;\r\n            userAddress.push(msg.sender);\r\n\r\n            emit CreateAccount(msg.sender);\r\n        }\r\n\r\n    }\r\n}\r\n",
  "sourcePath": "E:/Blockchain/Bank-dApp/contracts/BankLogic.sol",
  "compiler": {
    "name": "solc",
    "version": "0.8.1+commit.df193b15.Emscripten.clang"
  },
  "schemaVersion": "3.3.3",
  "updatedAt": "2021-02-03T17:45:22.050Z",
  "devdoc": {
    "author": "Joby Augustine",
    "details": "The main Bank contract for banking operations.",
    "kind": "dev",
    "methods": {
      "approveOrRejectLoan(uint256,bool)": {
        "details": "Manager approve or reject loan.",
        "params": {
          "_approve": "`true` value indicates the approval and `false` indicates rejection.",
          "_loanId": "Loan Id."
        }
      },
      "cancelLoanRequest(uint256)": {
        "details": "User cancels requested loan.",
        "params": {
          "_cancelLoanId": "id of the loan to be cancelled."
        }
      },
      "constructor": {
        "details": "Constructs the Bank contract.",
        "params": {
          "_reserveBalance": "Reserve balance that is to be maintained in the contract."
        }
      },
      "deadLineCrossed(uint256)": {
        "details": "Change Loan status to deadline crossed.",
        "params": {
          "_loanId": "Loan Id of the loan."
        }
      },
      "deposit()": {
        "details": "User deposits to his/her account."
      },
      "depositEthToBank()": {
        "details": "Owner deposits Eth to the Bank."
      },
      "fixedDeposit(uint256)": {
        "details": "User deposits an amount for a fixed duration.",
        "params": {
          "_tariffId": "Tariff id for fixed deposit."
        }
      },
      "getAllUsers()": {
        "details": "Manager can get addresses of all Users",
        "returns": {
          "_userAddrs": "Addresses of all Users."
        }
      },
      "getFDDurationAndInterest(uint256,uint256)": {
        "details": "Get all fixed deposit durations and their interest rates. ",
        "params": {
          "_count": "Number of tariff that is to be fetched from  fdTariffToInfo array. In order to fetch entire array, set count to zero or a number higher than the last index of the array. ",
          "_cursor": "Starting value of the index that is to be fetched from fdTariffToInfo array."
        },
        "returns": {
          "_duration": "Fixed deposit duration.",
          "_interest": "Interest rate for fixed deposit."
        }
      },
      "getLoanDurationAndInterest(uint256,uint256)": {
        "details": "Get all loan durations and their interest rates.",
        "params": {
          "_count": "Number of tariff that is to be fetched from  lnTariffToInfo array. In order to fetch entire array, set count to zero or a number higher than the last index of the array. ",
          "_cursor": "Starting value of the index that is to be fetched from lnTariffToInfo array."
        },
        "returns": {
          "_duration": "Loan duration.",
          "_interest": "Loan interest."
        }
      },
      "getUserDepositDetails()": {
        "details": "Get the deposit details of an user."
      },
      "getUserFdDetails(uint256,uint256)": {
        "details": "Get the fixed deposit details of an user.",
        "params": {
          "_count": "Number of fd status that is to be fetched from user's fdInfo array. In order to fetch entire array, set count to zero or a number higher than the last index of the array. ",
          "_cursor": "Starting value of the index that is to be fetched from user's fdInfo array."
        }
      },
      "getUserLoanDetails(uint256,uint256)": {
        "details": "Get the loan details of an user.",
        "params": {
          "_count": "Number of loan status that is to be fetched from user's loanInfo array. In order to fetch entire array, set count to zero or a number higher than the last index of the array. ",
          "_cursor": "Starting value of the index that is to be fetched from user's loanInfo array."
        }
      },
      "increaseReserveBalance(uint256)": {
        "details": "Owner increase the reserveBalance.",
        "params": {
          "_amount": "Amount that is to be increased."
        }
      },
      "isOwner()": {
        "returns": {
          "_0": "true if `msg.sender` is the owner of the contract."
        }
      },
      "owner()": {
        "returns": {
          "_0": "the address of the owner."
        }
      },
      "ownerWithdraw(uint256)": {
        "details": "Owner withdraws profit.",
        "params": {
          "_amount": "Withdraw amount."
        }
      },
      "pauseNewDeposits()": {
        "details": "Prevent new deposits."
      },
      "pauseNewLoans()": {
        "details": "Prevent new loans."
      },
      "removeFDDurationAndInterest(uint256)": {
        "details": "Owner remove a fixed deposit duration and its interest rate.",
        "params": {
          "_tariffId": "Fixed deposit tariff."
        }
      },
      "removeLoanDurationAndInterest(uint256)": {
        "details": "Owner remove a loan duration and its interest rate.",
        "params": {
          "_tariffId": "Loan tariff Id.."
        }
      },
      "renounceOwnership()": {
        "details": "Allows the current owner to relinquish control of the contract."
      },
      "repayLoan(uint256)": {
        "details": "User repays the loan.",
        "params": {
          "_loanIndex": "Index of this Loan."
        }
      },
      "requestLoan(uint256,uint256)": {
        "details": "User requests for a loan.",
        "params": {
          "_amount": "Loan amount.",
          "_tariffId": "Tariff id for Loan."
        }
      },
      "resumeNewDeposits()": {
        "details": "Allow new deposits."
      },
      "resumeNewLoans()": {
        "details": "Allow new loans."
      },
      "setFDDurationAndInterest(uint256,uint256)": {
        "details": "Owner sets fixed deposit duration and its interest rate",
        "params": {
          "_duration": "Fixed deposit duration.",
          "_interest": "Interest rate for fixed deposit."
        }
      },
      "setLoanDurationAndInterest(uint256,uint256)": {
        "details": "Owner sets a loan duration and its interest rate.",
        "params": {
          "_duration": "Loan duration.",
          "_interest": "Loan interest. "
        }
      },
      "setManager(address)": {
        "details": "Owner changes the manager.",
        "params": {
          "_managerAddrs": "Manager's address."
        }
      },
      "transferOwnership(address)": {
        "details": "Allows the current owner to transfer control of the contract to a newOwner.",
        "params": {
          "newOwner": "The address to transfer ownership to."
        }
      },
      "viewLoanRequests(uint256,uint256)": {
        "details": "Manager can view all loan requests waiting for approval.",
        "params": {
          "_count": "Number of loan requests that is to be fetched from the array. In order to fetch entire array, set count to zero or a number higher than the last index of the array. ",
          "_cursor": "Starting value of the index that is to be fetched from loanIdsOfPendingRequests array."
        }
      },
      "withdraw(uint256)": {
        "details": "User withdraw from his/her account.",
        "params": {
          "_amount": "Withdrawal amount."
        }
      },
      "withdrawFD(uint256)": {
        "details": "User withdraws his/her fixed deposit with interest.",
        "params": {
          "_fdIndex": "Index of the Fixed deposit to be withdrawn."
        }
      },
      "withdrawFDBeforeMaturity(uint256)": {
        "details": "User withdraws his/her fixed deposit before maturity period with penality of 5 percent of the FD Interest.",
        "params": {
          "_fdIndex": "Index of the Fixed deposit to be withdrawn."
        }
      }
    },
    "title": "Decentralized Bank",
    "version": 1
  },
  "userdoc": {
    "kind": "user",
    "methods": {
      "approveOrRejectLoan(uint256,bool)": {
        "notice": "Approve or reject loan."
      },
      "cancelLoanRequest(uint256)": {
        "notice": "Cancel Loan Request."
      },
      "deadLineCrossed(uint256)": {
        "notice": "Change Loan status to deadline crossed."
      },
      "deposit()": {
        "notice": "Send eth to deposit it in the account."
      },
      "depositEthToBank()": {
        "notice": "Deposits Eth to the Bank."
      },
      "fixedDeposit(uint256)": {
        "notice": "Send fixed deposit amount in Eth and choose a tariff."
      },
      "getAllUsers()": {
        "notice": "Manager can get addresses of all Users. "
      },
      "getFDDurationAndInterest(uint256,uint256)": {
        "notice": "Get all fixed deposit durations and their interest rates."
      },
      "getLoanDurationAndInterest(uint256,uint256)": {
        "notice": "Get all loan durations and their interest rates"
      },
      "getUserDepositDetails()": {
        "notice": "Get the deposit details of an user."
      },
      "getUserFdDetails(uint256,uint256)": {
        "notice": "Get the fixed deposit details of an user."
      },
      "getUserLoanDetails(uint256,uint256)": {
        "notice": "Get the loan details of an user."
      },
      "increaseReserveBalance(uint256)": {
        "notice": "Owner can increase the reserve balance that is to be maintained in the contract. "
      },
      "ownerWithdraw(uint256)": {
        "notice": "Owner can withdraws profit."
      },
      "pauseNewDeposits()": {
        "notice": "Prevent new deposits."
      },
      "pauseNewLoans()": {
        "notice": "Prevent new loans."
      },
      "removeFDDurationAndInterest(uint256)": {
        "notice": "Owner can remove a fixed deposit duration and its interest rate."
      },
      "removeLoanDurationAndInterest(uint256)": {
        "notice": "Owner can remove a loan duration and its interest rate."
      },
      "renounceOwnership()": {
        "notice": "Renouncing to ownership will leave the contract without an owner. It will not be possible to call the functions with the `onlyOwner` modifier anymore."
      },
      "repayLoan(uint256)": {
        "notice": "Repay loan partially or completely."
      },
      "requestLoan(uint256,uint256)": {
        "notice": "Request for a loan."
      },
      "resumeNewDeposits()": {
        "notice": "Allow new deposits."
      },
      "resumeNewLoans()": {
        "notice": "Allow new loans."
      },
      "setFDDurationAndInterest(uint256,uint256)": {
        "notice": "Owner sets fixed deposit duration and its interest rate."
      },
      "setLoanDurationAndInterest(uint256,uint256)": {
        "notice": "Set a loan duration and its interest rate."
      },
      "setManager(address)": {
        "notice": "Owner can change the manager. "
      },
      "viewLoanRequests(uint256,uint256)": {
        "notice": "View loan requests."
      },
      "withdraw(uint256)": {
        "notice": "Withdraw an amount from account. "
      },
      "withdrawFD(uint256)": {
        "notice": "Withdraw fixed deposit."
      },
      "withdrawFDBeforeMaturity(uint256)": {
        "notice": "Withdraw fixed deposit before maturity period."
      }
    },
    "notice": "You use this contract for banking operations. ",
    "version": 1
  }
}