{
  "contractName": "Bank",
  "abi": [
    {
      "inputs": [
        {
          "internalType": "uint256",
          "name": "_reserveBalance",
          "type": "uint256"
        }
      ],
      "stateMutability": "nonpayable",
      "type": "constructor"
    },
    {
      "anonymous": false,
      "inputs": [
        {
          "indexed": true,
          "internalType": "uint256",
          "name": "loanId",
          "type": "uint256"
        },
        {
          "indexed": false,
          "internalType": "address",
          "name": "userAddr",
          "type": "address"
        },
        {
          "indexed": false,
          "internalType": "bool",
          "name": "status",
          "type": "bool"
        }
      ],
      "name": "ApproveOrRejectLoan",
      "type": "event"
    },
    {
      "anonymous": false,
      "inputs": [
        {
          "indexed": true,
          "internalType": "uint256",
          "name": "loanId",
          "type": "uint256"
        },
        {
          "indexed": false,
          "internalType": "address",
          "name": "userAddr",
          "type": "address"
        }
      ],
      "name": "CancelLoanRequest",
      "type": "event"
    },
    {
      "anonymous": false,
      "inputs": [
        {
          "indexed": false,
          "internalType": "address",
          "name": "userAddress",
          "type": "address"
        }
      ],
      "name": "CreateAccount",
      "type": "event"
    },
    {
      "anonymous": false,
      "inputs": [
        {
          "indexed": true,
          "internalType": "address",
          "name": "userAddr",
          "type": "address"
        },
        {
          "indexed": false,
          "internalType": "uint256",
          "name": "amount",
          "type": "uint256"
        }
      ],
      "name": "Deposit",
      "type": "event"
    },
    {
      "anonymous": false,
      "inputs": [
        {
          "indexed": false,
          "internalType": "uint256",
          "name": "amount",
          "type": "uint256"
        }
      ],
      "name": "DepositEthToBank",
      "type": "event"
    },
    {
      "anonymous": false,
      "inputs": [
        {
          "indexed": true,
          "internalType": "uint256",
          "name": "fdId",
          "type": "uint256"
        },
        {
          "indexed": false,
          "internalType": "address",
          "name": "userAddr",
          "type": "address"
        },
        {
          "indexed": false,
          "internalType": "uint256",
          "name": "amount",
          "type": "uint256"
        },
        {
          "indexed": false,
          "internalType": "uint256",
          "name": "tariffId",
          "type": "uint256"
        }
      ],
      "name": "FixedDeposit",
      "type": "event"
    },
    {
      "anonymous": false,
      "inputs": [
        {
          "indexed": false,
          "internalType": "uint256",
          "name": "reserveBalance",
          "type": "uint256"
        }
      ],
      "name": "IncreaseReserveBalance",
      "type": "event"
    },
    {
      "anonymous": false,
      "inputs": [
        {
          "indexed": true,
          "internalType": "uint256",
          "name": "loanId",
          "type": "uint256"
        },
        {
          "indexed": false,
          "internalType": "address",
          "name": "userAddr",
          "type": "address"
        }
      ],
      "name": "LoanClosed",
      "type": "event"
    },
    {
      "anonymous": false,
      "inputs": [
        {
          "indexed": true,
          "internalType": "uint256",
          "name": "loanId",
          "type": "uint256"
        },
        {
          "indexed": false,
          "internalType": "address",
          "name": "userAddr",
          "type": "address"
        }
      ],
      "name": "LoanDeadLineCrosssed",
      "type": "event"
    },
    {
      "anonymous": false,
      "inputs": [
        {
          "indexed": false,
          "internalType": "uint256",
          "name": "amount",
          "type": "uint256"
        }
      ],
      "name": "OwnerWithdraw",
      "type": "event"
    },
    {
      "anonymous": false,
      "inputs": [
        {
          "indexed": true,
          "internalType": "address",
          "name": "previousOwner",
          "type": "address"
        },
        {
          "indexed": true,
          "internalType": "address",
          "name": "newOwner",
          "type": "address"
        }
      ],
      "name": "OwnershipTransferred",
      "type": "event"
    },
    {
      "anonymous": false,
      "inputs": [],
      "name": "PausedNewDeposits",
      "type": "event"
    },
    {
      "anonymous": false,
      "inputs": [],
      "name": "PausedNewLoans",
      "type": "event"
    },
    {
      "anonymous": false,
      "inputs": [
        {
          "indexed": false,
          "internalType": "uint256",
          "name": "tariffId",
          "type": "uint256"
        }
      ],
      "name": "RemoveFDDurationAndInterest",
      "type": "event"
    },
    {
      "anonymous": false,
      "inputs": [
        {
          "indexed": false,
          "internalType": "uint256",
          "name": "tariffId",
          "type": "uint256"
        }
      ],
      "name": "RemoveLoanDurationAndInterest",
      "type": "event"
    },
    {
      "anonymous": false,
      "inputs": [
        {
          "indexed": true,
          "internalType": "uint256",
          "name": "loanId",
          "type": "uint256"
        },
        {
          "indexed": false,
          "internalType": "address",
          "name": "userAddr",
          "type": "address"
        },
        {
          "indexed": false,
          "internalType": "uint256",
          "name": "amount",
          "type": "uint256"
        }
      ],
      "name": "RepayLoan",
      "type": "event"
    },
    {
      "anonymous": false,
      "inputs": [
        {
          "indexed": true,
          "internalType": "uint256",
          "name": "loanId",
          "type": "uint256"
        },
        {
          "indexed": false,
          "internalType": "address",
          "name": "userAddr",
          "type": "address"
        },
        {
          "indexed": false,
          "internalType": "uint256",
          "name": "amount",
          "type": "uint256"
        },
        {
          "indexed": false,
          "internalType": "uint256",
          "name": "tariffId",
          "type": "uint256"
        }
      ],
      "name": "RequestLoan",
      "type": "event"
    },
    {
      "anonymous": false,
      "inputs": [],
      "name": "ResumedNewDeposits",
      "type": "event"
    },
    {
      "anonymous": false,
      "inputs": [],
      "name": "ResumedNewLoans",
      "type": "event"
    },
    {
      "anonymous": false,
      "inputs": [
        {
          "indexed": false,
          "internalType": "uint256",
          "name": "tariffId",
          "type": "uint256"
        },
        {
          "indexed": false,
          "internalType": "uint256",
          "name": "duration",
          "type": "uint256"
        },
        {
          "indexed": false,
          "internalType": "uint256",
          "name": "interest",
          "type": "uint256"
        }
      ],
      "name": "SetFDDurationAndInterest",
      "type": "event"
    },
    {
      "anonymous": false,
      "inputs": [
        {
          "indexed": false,
          "internalType": "uint256",
          "name": "tariffId",
          "type": "uint256"
        },
        {
          "indexed": false,
          "internalType": "uint256",
          "name": "duration",
          "type": "uint256"
        },
        {
          "indexed": false,
          "internalType": "uint256",
          "name": "interest",
          "type": "uint256"
        }
      ],
      "name": "SetLoanDurationAndInterest",
      "type": "event"
    },
    {
      "anonymous": false,
      "inputs": [
        {
          "indexed": false,
          "internalType": "address",
          "name": "managerAddrs",
          "type": "address"
        }
      ],
      "name": "SetManager",
      "type": "event"
    },
    {
      "anonymous": false,
      "inputs": [
        {
          "indexed": true,
          "internalType": "address",
          "name": "userAddr",
          "type": "address"
        },
        {
          "indexed": false,
          "internalType": "uint256",
          "name": "amount",
          "type": "uint256"
        }
      ],
      "name": "Withdraw",
      "type": "event"
    },
    {
      "anonymous": false,
      "inputs": [
        {
          "indexed": true,
          "internalType": "uint256",
          "name": "fdId",
          "type": "uint256"
        },
        {
          "indexed": false,
          "internalType": "address",
          "name": "userAddr",
          "type": "address"
        },
        {
          "indexed": false,
          "internalType": "uint256",
          "name": "amount",
          "type": "uint256"
        }
      ],
      "name": "WithdrawFD",
      "type": "event"
    },
    {
      "anonymous": false,
      "inputs": [
        {
          "indexed": true,
          "internalType": "uint256",
          "name": "fdId",
          "type": "uint256"
        },
        {
          "indexed": false,
          "internalType": "address",
          "name": "userAddr",
          "type": "address"
        },
        {
          "indexed": false,
          "internalType": "uint256",
          "name": "amount",
          "type": "uint256"
        }
      ],
      "name": "WithdrawFDBeforeMaturity",
      "type": "event"
    },
    {
      "inputs": [],
      "name": "acceptDeposit",
      "outputs": [
        {
          "internalType": "bool",
          "name": "",
          "type": "bool"
        }
      ],
      "stateMutability": "view",
      "type": "function"
    },
    {
      "inputs": [],
      "name": "contractBalance",
      "outputs": [
        {
          "internalType": "uint256",
          "name": "",
          "type": "uint256"
        }
      ],
      "stateMutability": "view",
      "type": "function"
    },
    {
      "inputs": [
        {
          "internalType": "uint256",
          "name": "",
          "type": "uint256"
        }
      ],
      "name": "fdTariffIdToFdTfIdIndex",
      "outputs": [
        {
          "internalType": "uint256",
          "name": "",
          "type": "uint256"
        }
      ],
      "stateMutability": "view",
      "type": "function"
    },
    {
      "inputs": [
        {
          "internalType": "uint256",
          "name": "",
          "type": "uint256"
        }
      ],
      "name": "fdTariffIdToInfo",
      "outputs": [
        {
          "internalType": "uint256",
          "name": "duration",
          "type": "uint256"
        },
        {
          "internalType": "uint256",
          "name": "interest",
          "type": "uint256"
        }
      ],
      "stateMutability": "view",
      "type": "function"
    },
    {
      "inputs": [
        {
          "internalType": "uint256",
          "name": "",
          "type": "uint256"
        }
      ],
      "name": "fdTfId",
      "outputs": [
        {
          "internalType": "uint256",
          "name": "",
          "type": "uint256"
        }
      ],
      "stateMutability": "view",
      "type": "function"
    },
    {
      "inputs": [],
      "name": "isOwner",
      "outputs": [
        {
          "internalType": "bool",
          "name": "",
          "type": "bool"
        }
      ],
      "stateMutability": "view",
      "type": "function"
    },
    {
      "inputs": [
        {
          "internalType": "uint256",
          "name": "",
          "type": "uint256"
        }
      ],
      "name": "lnTariffIdToInfo",
      "outputs": [
        {
          "internalType": "uint256",
          "name": "duration",
          "type": "uint256"
        },
        {
          "internalType": "uint256",
          "name": "interest",
          "type": "uint256"
        }
      ],
      "stateMutability": "view",
      "type": "function"
    },
    {
      "inputs": [
        {
          "internalType": "uint256",
          "name": "",
          "type": "uint256"
        }
      ],
      "name": "lnTariffIdToLnTfIdIndex",
      "outputs": [
        {
          "internalType": "uint256",
          "name": "",
          "type": "uint256"
        }
      ],
      "stateMutability": "view",
      "type": "function"
    },
    {
      "inputs": [
        {
          "internalType": "uint256",
          "name": "",
          "type": "uint256"
        }
      ],
      "name": "lnTfId",
      "outputs": [
        {
          "internalType": "uint256",
          "name": "",
          "type": "uint256"
        }
      ],
      "stateMutability": "view",
      "type": "function"
    },
    {
      "inputs": [],
      "name": "loanAvailable",
      "outputs": [
        {
          "internalType": "bool",
          "name": "",
          "type": "bool"
        }
      ],
      "stateMutability": "view",
      "type": "function"
    },
    {
      "inputs": [],
      "name": "loanInterestAmountShare",
      "outputs": [
        {
          "internalType": "uint256",
          "name": "",
          "type": "uint256"
        }
      ],
      "stateMutability": "view",
      "type": "function"
    },
    {
      "inputs": [],
      "name": "managerAddress",
      "outputs": [
        {
          "internalType": "address",
          "name": "",
          "type": "address"
        }
      ],
      "stateMutability": "view",
      "type": "function"
    },
    {
      "inputs": [],
      "name": "owner",
      "outputs": [
        {
          "internalType": "address",
          "name": "",
          "type": "address"
        }
      ],
      "stateMutability": "view",
      "type": "function"
    },
    {
      "inputs": [],
      "name": "renounceOwnership",
      "outputs": [],
      "stateMutability": "nonpayable",
      "type": "function"
    },
    {
      "inputs": [],
      "name": "totalFixedDeposit",
      "outputs": [
        {
          "internalType": "uint256",
          "name": "",
          "type": "uint256"
        }
      ],
      "stateMutability": "view",
      "type": "function"
    },
    {
      "inputs": [
        {
          "internalType": "address",
          "name": "newOwner",
          "type": "address"
        }
      ],
      "name": "transferOwnership",
      "outputs": [],
      "stateMutability": "nonpayable",
      "type": "function"
    },
    {
      "inputs": [],
      "name": "deposit",
      "outputs": [],
      "stateMutability": "payable",
      "type": "function"
    },
    {
      "inputs": [
        {
          "internalType": "uint256",
          "name": "_amount",
          "type": "uint256"
        }
      ],
      "name": "withdraw",
      "outputs": [],
      "stateMutability": "nonpayable",
      "type": "function"
    },
    {
      "inputs": [
        {
          "internalType": "uint256",
          "name": "_tariffId",
          "type": "uint256"
        }
      ],
      "name": "fixedDeposit",
      "outputs": [],
      "stateMutability": "payable",
      "type": "function"
    },
    {
      "inputs": [
        {
          "internalType": "uint256",
          "name": "_fdIndex",
          "type": "uint256"
        }
      ],
      "name": "withdrawFD",
      "outputs": [],
      "stateMutability": "nonpayable",
      "type": "function"
    },
    {
      "inputs": [
        {
          "internalType": "uint256",
          "name": "_fdIndex",
          "type": "uint256"
        }
      ],
      "name": "withdrawFDBeforeMaturity",
      "outputs": [],
      "stateMutability": "nonpayable",
      "type": "function"
    },
    {
      "inputs": [
        {
          "internalType": "uint256",
          "name": "_amount",
          "type": "uint256"
        },
        {
          "internalType": "uint256",
          "name": "_tariffId",
          "type": "uint256"
        }
      ],
      "name": "requestLoan",
      "outputs": [],
      "stateMutability": "nonpayable",
      "type": "function"
    },
    {
      "inputs": [
        {
          "internalType": "uint256",
          "name": "_loanIndex",
          "type": "uint256"
        }
      ],
      "name": "repayLoan",
      "outputs": [],
      "stateMutability": "payable",
      "type": "function"
    },
    {
      "inputs": [
        {
          "internalType": "uint256",
          "name": "_cancelLoanId",
          "type": "uint256"
        }
      ],
      "name": "cancelLoanRequest",
      "outputs": [],
      "stateMutability": "nonpayable",
      "type": "function"
    },
    {
      "inputs": [
        {
          "internalType": "uint256",
          "name": "_loanId",
          "type": "uint256"
        },
        {
          "internalType": "bool",
          "name": "_approve",
          "type": "bool"
        }
      ],
      "name": "approveOrRejectLoan",
      "outputs": [],
      "stateMutability": "nonpayable",
      "type": "function"
    },
    {
      "inputs": [
        {
          "internalType": "uint256",
          "name": "_loanId",
          "type": "uint256"
        }
      ],
      "name": "deadLineCrossed",
      "outputs": [],
      "stateMutability": "nonpayable",
      "type": "function"
    },
    {
      "inputs": [],
      "name": "pauseNewDeposits",
      "outputs": [],
      "stateMutability": "nonpayable",
      "type": "function"
    },
    {
      "inputs": [],
      "name": "resumeNewDeposits",
      "outputs": [],
      "stateMutability": "nonpayable",
      "type": "function"
    },
    {
      "inputs": [],
      "name": "pauseNewLoans",
      "outputs": [],
      "stateMutability": "nonpayable",
      "type": "function"
    },
    {
      "inputs": [],
      "name": "resumeNewLoans",
      "outputs": [],
      "stateMutability": "nonpayable",
      "type": "function"
    },
    {
      "inputs": [],
      "name": "depositEthToBank",
      "outputs": [],
      "stateMutability": "payable",
      "type": "function"
    },
    {
      "inputs": [
        {
          "internalType": "uint256",
          "name": "_amount",
          "type": "uint256"
        }
      ],
      "name": "ownerWithdraw",
      "outputs": [],
      "stateMutability": "nonpayable",
      "type": "function"
    },
    {
      "inputs": [],
      "name": "getUserDepositDetails",
      "outputs": [
        {
          "internalType": "uint256",
          "name": "_balance",
          "type": "uint256"
        },
        {
          "internalType": "uint256",
          "name": "_totalFdAmount",
          "type": "uint256"
        }
      ],
      "stateMutability": "view",
      "type": "function"
    },
    {
      "inputs": [
        {
          "internalType": "uint256",
          "name": "_cursor",
          "type": "uint256"
        },
        {
          "internalType": "uint256",
          "name": "_count",
          "type": "uint256"
        }
      ],
      "name": "getUserLoanDetails",
      "outputs": [
        {
          "internalType": "uint256[]",
          "name": "_loanIndexes",
          "type": "uint256[]"
        },
        {
          "internalType": "uint256[]",
          "name": "_loanIds",
          "type": "uint256[]"
        },
        {
          "internalType": "uint256[]",
          "name": "_amounts",
          "type": "uint256[]"
        },
        {
          "internalType": "uint256[]",
          "name": "_durations",
          "type": "uint256[]"
        },
        {
          "internalType": "uint256[]",
          "name": "_interests",
          "type": "uint256[]"
        },
        {
          "internalType": "uint256[]",
          "name": "_endTimes",
          "type": "uint256[]"
        },
        {
          "internalType": "uint256[]",
          "name": "_loanStatus",
          "type": "uint256[]"
        }
      ],
      "stateMutability": "view",
      "type": "function"
    },
    {
      "inputs": [
        {
          "internalType": "uint256",
          "name": "_duration",
          "type": "uint256"
        },
        {
          "internalType": "uint256",
          "name": "_interest",
          "type": "uint256"
        }
      ],
      "name": "setLoanDurationAndInterest",
      "outputs": [],
      "stateMutability": "nonpayable",
      "type": "function"
    },
    {
      "inputs": [
        {
          "internalType": "uint256",
          "name": "_cursor",
          "type": "uint256"
        },
        {
          "internalType": "uint256",
          "name": "_count",
          "type": "uint256"
        }
      ],
      "name": "getLoanDurationAndInterest",
      "outputs": [
        {
          "internalType": "uint256[]",
          "name": "_duration",
          "type": "uint256[]"
        },
        {
          "internalType": "uint256[]",
          "name": "_interest",
          "type": "uint256[]"
        }
      ],
      "stateMutability": "view",
      "type": "function"
    },
    {
      "inputs": [
        {
          "internalType": "uint256",
          "name": "_tariffId",
          "type": "uint256"
        }
      ],
      "name": "removeLoanDurationAndInterest",
      "outputs": [],
      "stateMutability": "nonpayable",
      "type": "function"
    },
    {
      "inputs": [
        {
          "internalType": "uint256",
          "name": "_duration",
          "type": "uint256"
        },
        {
          "internalType": "uint256",
          "name": "_interest",
          "type": "uint256"
        }
      ],
      "name": "setFDDurationAndInterest",
      "outputs": [],
      "stateMutability": "nonpayable",
      "type": "function"
    },
    {
      "inputs": [
        {
          "internalType": "uint256",
          "name": "_cursor",
          "type": "uint256"
        },
        {
          "internalType": "uint256",
          "name": "_count",
          "type": "uint256"
        }
      ],
      "name": "getFDDurationAndInterest",
      "outputs": [
        {
          "internalType": "uint256[]",
          "name": "_duration",
          "type": "uint256[]"
        },
        {
          "internalType": "uint256[]",
          "name": "_interest",
          "type": "uint256[]"
        }
      ],
      "stateMutability": "view",
      "type": "function"
    },
    {
      "inputs": [
        {
          "internalType": "uint256",
          "name": "_tariffId",
          "type": "uint256"
        }
      ],
      "name": "removeFDDurationAndInterest",
      "outputs": [],
      "stateMutability": "nonpayable",
      "type": "function"
    },
    {
      "inputs": [
        {
          "internalType": "uint256",
          "name": "_amount",
          "type": "uint256"
        }
      ],
      "name": "increaseReserveBalance",
      "outputs": [],
      "stateMutability": "nonpayable",
      "type": "function"
    },
    {
      "inputs": [
        {
          "internalType": "address",
          "name": "_managerAddrs",
          "type": "address"
        }
      ],
      "name": "setManager",
      "outputs": [],
      "stateMutability": "nonpayable",
      "type": "function"
    },
    {
      "inputs": [],
      "name": "getAllUsers",
      "outputs": [
        {
          "internalType": "address[]",
          "name": "_userAddrs",
          "type": "address[]"
        }
      ],
      "stateMutability": "view",
      "type": "function"
    }
  ],
  "bytecode": "0x60806040523480156200001157600080fd5b50604051620074fd380380620074fd833981810160405281019062000037919062000117565b336000806101000a81548173ffffffffffffffffffffffffffffffffffffffff021916908373ffffffffffffffffffffffffffffffffffffffff16021790555060008054906101000a900473ffffffffffffffffffffffffffffffffffffffff1673ffffffffffffffffffffffffffffffffffffffff16600073ffffffffffffffffffffffffffffffffffffffff167f8be0079c531659141344cd1fd0a4f28419497f9722a3daafe3b4186f6b6457e060405160405180910390a3806003819055505062000167565b60008151905062000111816200014d565b92915050565b6000602082840312156200012a57600080fd5b60006200013a8482850162000100565b91505092915050565b6000819050919050565b620001588162000143565b81146200016457600080fd5b50565b61738680620001776000396000f3fe60806040526004361061025c5760003560e01c80638f32d59b11610144578063d0e30db0116100b6578063e2842d791161007a578063e2842d7914610877578063f2fde38b146108a2578063f38250e0146108cb578063f8feb717146108d5578063fc5c5be8146108fe578063ff92d19c146109275761025c565b8063d0e30db0146107b1578063d0ebdbe7146107bb578063d28b7103146107e4578063d4a3803f14610821578063d79d06d81461084c5761025c565b8063a42644b811610108578063a42644b8146106b2578063a9a7cfaa146106db578063aa452fa614610718578063ab7b1c8914610741578063c84242b11461075d578063cf73a1bc146107865761025c565b80638f32d59b146105a657806390eaab0f146105d1578063922cff801461060e5780639642f1611461063757806396713d89146106755761025c565b80634986094b116101dd5780636cc9aaeb116101a15780636cc9aaeb146104e2578063715018a6146104f95780637c33fc0514610510578063834a9cf5146105275780638b7afe2e146105505780638da5cb5b1461057b5761025c565b80634986094b1461040b5780634bae6659146104365780634f954d87146104525780635a680367146104905780635f9570aa146104b95761025c565b806328fbdc691161022457806328fbdc69146103265780632bda0c85146103645780632e1a7d4d146103905780633333cb67146103b957806333f707d1146103e25761025c565b806304c814c3146102615780630952680f1461028a57806317ad7155146102a157806320d8c7fa146102e4578063269718831461030f575b600080fd5b34801561026d57600080fd5b5061028860048036038101906102839190616400565b610965565b005b34801561029657600080fd5b5061029f610b35565b005b3480156102ad57600080fd5b506102c860048036038101906102c39190616465565b610c0e565b6040516102db97969594939291906169c3565b60405180910390f35b3480156102f057600080fd5b506102f961170f565b6040516103069190616a63565b60405180910390f35b34801561031b57600080fd5b50610324611722565b005b34801561033257600080fd5b5061034d60048036038101906103489190616465565b6117fb565b60405161035b92919061698c565b60405180910390f35b34801561037057600080fd5b5061037961198d565b604051610387929190616c9b565b60405180910390f35b34801561039c57600080fd5b506103b760048036038101906103b29190616400565b611ab3565b005b3480156103c557600080fd5b506103e060048036038101906103db9190616465565b611ccb565b005b3480156103ee57600080fd5b5061040960048036038101906104049190616400565b611e6a565b005b34801561041757600080fd5b50610420611fcf565b60405161042d9190616c80565b60405180910390f35b610450600480360381019061044b9190616400565b611fd5565b005b34801561045e57600080fd5b5061047960048036038101906104749190616400565b6122e3565b604051610487929190616c9b565b60405180910390f35b34801561049c57600080fd5b506104b760048036038101906104b29190616400565b612307565b005b3480156104c557600080fd5b506104e060048036038101906104db9190616400565b612925565b005b3480156104ee57600080fd5b506104f761310d565b005b34801561050557600080fd5b5061050e6131e6565b005b34801561051c57600080fd5b506105256132b5565b005b34801561053357600080fd5b5061054e60048036038101906105499190616429565b61338e565b005b34801561055c57600080fd5b506105656139fa565b6040516105729190616c80565b60405180910390f35b34801561058757600080fd5b50610590613a00565b60405161059d91906168c6565b60405180910390f35b3480156105b257600080fd5b506105bb613a29565b6040516105c89190616a63565b60405180910390f35b3480156105dd57600080fd5b506105f860048036038101906105f39190616400565b613a80565b6040516106059190616c80565b60405180910390f35b34801561061a57600080fd5b5061063560048036038101906106309190616400565b613a98565b005b34801561064357600080fd5b5061065e60048036038101906106599190616465565b613c68565b60405161066c92919061698c565b60405180910390f35b34801561068157600080fd5b5061069c60048036038101906106979190616400565b613dfa565b6040516106a99190616c80565b60405180910390f35b3480156106be57600080fd5b506106d960048036038101906106d49190616400565b613e1e565b005b3480156106e757600080fd5b5061070260048036038101906106fd9190616400565b614695565b60405161070f9190616c80565b60405180910390f35b34801561072457600080fd5b5061073f600480360381019061073a9190616465565b6146ad565b005b61075b60048036038101906107569190616400565b614afe565b005b34801561076957600080fd5b50610784600480360381019061077f9190616400565b615639565b005b34801561079257600080fd5b5061079b6156a1565b6040516107a891906168c6565b60405180910390f35b6107b96156c7565b005b3480156107c757600080fd5b506107e260048036038101906107dd91906163d7565b615824565b005b3480156107f057600080fd5b5061080b60048036038101906108069190616400565b6158b0565b6040516108189190616c80565b60405180910390f35b34801561082d57600080fd5b506108366158d4565b6040516108439190616a63565b60405180910390f35b34801561085857600080fd5b506108616158e7565b60405161086e9190616c80565b60405180910390f35b34801561088357600080fd5b5061088c6158ec565b604051610899919061696a565b60405180910390f35b3480156108ae57600080fd5b506108c960048036038101906108c491906163d7565b615a0a565b005b6108d3615a27565b005b3480156108e157600080fd5b506108fc60048036038101906108f79190616400565b615a8c565b005b34801561090a57600080fd5b5061092560048036038101906109209190616465565b615d5e565b005b34801561093357600080fd5b5061094e60048036038101906109499190616400565b615efd565b60405161095c929190616c9b565b60405180910390f35b3373ffffffffffffffffffffffffffffffffffffffff16600260009054906101000a900473ffffffffffffffffffffffffffffffffffffffff1673ffffffffffffffffffffffffffffffffffffffff16146109f5576040517f08c379a00000000000000000000000000000000000000000000000000000000081526004016109ec90616ae0565b60405180910390fd5b6008610a106001600880549050615f2190919063ffffffff16565b81548110610a47577f4e487b7100000000000000000000000000000000000000000000000000000000600052603260045260246000fd5b90600052602060002001546008601160008481526020019081526020016000205481548110610a9f577f4e487b7100000000000000000000000000000000000000000000000000000000600052603260045260246000fd5b90600052602060002001819055506008805480610ae5577f4e487b7100000000000000000000000000000000000000000000000000000000600052603160045260246000fd5b600190038181906000526020600020016000905590557f5fbf03b0b0838391bce5038e7a3ba900984a3f4d2d9476980da3d4fce41bcc1881604051610b2a9190616c80565b60405180910390a150565b3373ffffffffffffffffffffffffffffffffffffffff16600260009054906101000a900473ffffffffffffffffffffffffffffffffffffffff1673ffffffffffffffffffffffffffffffffffffffff1614610bc5576040517f08c379a0000000000000000000000000000000000000000000000000000000008152600401610bbc90616ae0565b60405180910390fd5b6000600a60016101000a81548160ff0219169083151502179055507fe3e20cc9304e7e46208466a4d4d61fd8e52b0bfa9843411f77ac350d11d5c3af60405160405180910390a1565b6060806060806060806060600b60003373ffffffffffffffffffffffffffffffffffffffff1673ffffffffffffffffffffffffffffffffffffffff16815260200190815260200160002060000160009054906101000a900460ff16610ca8576040517f08c379a0000000000000000000000000000000000000000000000000000000008152600401610c9f90616aa0565b60405180910390fd5b600033905060008a90505b600b60008373ffffffffffffffffffffffffffffffffffffffff1673ffffffffffffffffffffffffffffffffffffffff1681526020019081526020016000206003018054905081108015610d1c5750898b610d0e9190616d89565b811080610d1b575060008a145b5b156117015780898281518110610d5b577f4e487b7100000000000000000000000000000000000000000000000000000000600052603260045260246000fd5b602002602001018181525050600b60008373ffffffffffffffffffffffffffffffffffffffff1673ffffffffffffffffffffffffffffffffffffffff1681526020019081526020016000206003018181548110610de1577f4e487b7100000000000000000000000000000000000000000000000000000000600052603260045260246000fd5b906000526020600020906007020160000154888281518110610e2c577f4e487b7100000000000000000000000000000000000000000000000000000000600052603260045260246000fd5b602002602001018181525050600b60008373ffffffffffffffffffffffffffffffffffffffff1673ffffffffffffffffffffffffffffffffffffffff1681526020019081526020016000206003018181548110610eb2577f4e487b7100000000000000000000000000000000000000000000000000000000600052603260045260246000fd5b906000526020600020906007020160010154878281518110610efd577f4e487b7100000000000000000000000000000000000000000000000000000000600052603260045260246000fd5b602002602001018181525050600b60008373ffffffffffffffffffffffffffffffffffffffff1673ffffffffffffffffffffffffffffffffffffffff1681526020019081526020016000206003018181548110610f83577f4e487b7100000000000000000000000000000000000000000000000000000000600052603260045260246000fd5b906000526020600020906007020160020154868281518110610fce577f4e487b7100000000000000000000000000000000000000000000000000000000600052603260045260246000fd5b602002602001018181525050600b60008373ffffffffffffffffffffffffffffffffffffffff1673ffffffffffffffffffffffffffffffffffffffff1681526020019081526020016000206003018181548110611054577f4e487b7100000000000000000000000000000000000000000000000000000000600052603260045260246000fd5b90600052602060002090600702016003015485828151811061109f577f4e487b7100000000000000000000000000000000000000000000000000000000600052603260045260246000fd5b602002602001018181525050600b60008373ffffffffffffffffffffffffffffffffffffffff1673ffffffffffffffffffffffffffffffffffffffff1681526020019081526020016000206003018181548110611125577f4e487b7100000000000000000000000000000000000000000000000000000000600052603260045260246000fd5b906000526020600020906007020160040154848281518110611170577f4e487b7100000000000000000000000000000000000000000000000000000000600052603260045260246000fd5b602002602001018181525050600060038111156111b6577f4e487b7100000000000000000000000000000000000000000000000000000000600052602160045260246000fd5b600b60008473ffffffffffffffffffffffffffffffffffffffff1673ffffffffffffffffffffffffffffffffffffffff1681526020019081526020016000206003018281548110611230577f4e487b7100000000000000000000000000000000000000000000000000000000600052603260045260246000fd5b906000526020600020906007020160060160009054906101000a900460ff166003811115611287577f4e487b7100000000000000000000000000000000000000000000000000000000600052602160045260246000fd5b14156112d95760018382815181106112c8577f4e487b7100000000000000000000000000000000000000000000000000000000600052603260045260246000fd5b6020026020010181815250506116ee565b60016003811115611313577f4e487b7100000000000000000000000000000000000000000000000000000000600052602160045260246000fd5b600b60008473ffffffffffffffffffffffffffffffffffffffff1673ffffffffffffffffffffffffffffffffffffffff168152602001908152602001600020600301828154811061138d577f4e487b7100000000000000000000000000000000000000000000000000000000600052603260045260246000fd5b906000526020600020906007020160060160009054906101000a900460ff1660038111156113e4577f4e487b7100000000000000000000000000000000000000000000000000000000600052602160045260246000fd5b1415611436576002838281518110611425577f4e487b7100000000000000000000000000000000000000000000000000000000600052603260045260246000fd5b6020026020010181815250506116ed565b60026003811115611470577f4e487b7100000000000000000000000000000000000000000000000000000000600052602160045260246000fd5b600b60008473ffffffffffffffffffffffffffffffffffffffff1673ffffffffffffffffffffffffffffffffffffffff16815260200190815260200160002060030182815481106114ea577f4e487b7100000000000000000000000000000000000000000000000000000000600052603260045260246000fd5b906000526020600020906007020160060160009054906101000a900460ff166003811115611541577f4e487b7100000000000000000000000000000000000000000000000000000000600052602160045260246000fd5b1415611593576003838281518110611582577f4e487b7100000000000000000000000000000000000000000000000000000000600052603260045260246000fd5b6020026020010181815250506116ec565b6003808111156115cc577f4e487b7100000000000000000000000000000000000000000000000000000000600052602160045260246000fd5b600b60008473ffffffffffffffffffffffffffffffffffffffff1673ffffffffffffffffffffffffffffffffffffffff1681526020019081526020016000206003018281548110611646577f4e487b7100000000000000000000000000000000000000000000000000000000600052603260045260246000fd5b906000526020600020906007020160060160009054906101000a900460ff16600381111561169d577f4e487b7100000000000000000000000000000000000000000000000000000000600052602160045260246000fd5b14156116eb5760048382815181106116de577f4e487b7100000000000000000000000000000000000000000000000000000000600052603260045260246000fd5b6020026020010181815250505b5b5b5b80806116f990616f19565b915050610cb3565b505092959891949750929550565b600a60019054906101000a900460ff1681565b3373ffffffffffffffffffffffffffffffffffffffff16600260009054906101000a900473ffffffffffffffffffffffffffffffffffffffff1673ffffffffffffffffffffffffffffffffffffffff16146117b2576040517f08c379a00000000000000000000000000000000000000000000000000000000081526004016117a990616ae0565b60405180910390fd5b6000600a60006101000a81548160ff0219169083151502179055507fe3e20cc9304e7e46208466a4d4d61fd8e52b0bfa9843411f77ac350d11d5c3af60405160405180910390a1565b60608060008490505b6009805490508110801561182d5750838561181f9190616d89565b81108061182c5750600084145b5b15611985576010600060098381548110611870577f4e487b7100000000000000000000000000000000000000000000000000000000600052603260045260246000fd5b90600052602060002001548152602001908152602001600020600001548382815181106118c6577f4e487b7100000000000000000000000000000000000000000000000000000000600052603260045260246000fd5b6020026020010181815250506010600060098381548110611910577f4e487b7100000000000000000000000000000000000000000000000000000000600052603260045260246000fd5b9060005260206000200154815260200190815260200160002060010154828281518110611966577f4e487b7100000000000000000000000000000000000000000000000000000000600052603260045260246000fd5b602002602001018181525050808061197d90616f19565b915050611804565b509250929050565b600080600b60003373ffffffffffffffffffffffffffffffffffffffff1673ffffffffffffffffffffffffffffffffffffffff16815260200190815260200160002060000160009054906101000a900460ff16611a1f576040517f08c379a0000000000000000000000000000000000000000000000000000000008152600401611a1690616aa0565b60405180910390fd5b6000339050600b60008273ffffffffffffffffffffffffffffffffffffffff1673ffffffffffffffffffffffffffffffffffffffff168152602001908152602001600020600101549250600b60008273ffffffffffffffffffffffffffffffffffffffff1673ffffffffffffffffffffffffffffffffffffffff168152602001908152602001600020600201549150509091565b80600b60003373ffffffffffffffffffffffffffffffffffffffff1673ffffffffffffffffffffffffffffffffffffffff168152602001908152602001600020600101541015611b38576040517f08c379a0000000000000000000000000000000000000000000000000000000008152600401611b2f90616c00565b60405180910390fd5b806004541015611b7d576040517f08c379a0000000000000000000000000000000000000000000000000000000008152600401611b7490616ba0565b60405180910390fd5b611bd281600b60003373ffffffffffffffffffffffffffffffffffffffff1673ffffffffffffffffffffffffffffffffffffffff16815260200190815260200160002060010154615f2190919063ffffffff16565b600b60003373ffffffffffffffffffffffffffffffffffffffff1673ffffffffffffffffffffffffffffffffffffffff16815260200190815260200160002060010181905550611c2d81600454615f2190919063ffffffff16565b6004819055503373ffffffffffffffffffffffffffffffffffffffff166108fc829081150290604051600060405180830381858888f19350505050158015611c79573d6000803e3d6000fd5b503373ffffffffffffffffffffffffffffffffffffffff167f884edad9ce6fa2440d8a54cc123490eb96d2768479d49ff9c7366125a942436482604051611cc09190616c80565b60405180910390a250565b3373ffffffffffffffffffffffffffffffffffffffff16600260009054906101000a900473ffffffffffffffffffffffffffffffffffffffff1673ffffffffffffffffffffffffffffffffffffffff1614611d5b576040517f08c379a0000000000000000000000000000000000000000000000000000000008152600401611d5290616ae0565b60405180910390fd5b60006008805490504284604051602001611d7793929190616889565b6040516020818303038152906040528051906020012060001c90506008819080600181540180825580915050600190039060005260206000200160009091909190915055604051806040016040528084815260200183815250600f60008381526020019081526020016000206000820151816000015560208201518160010155905050611e136001600880549050615f2190919063ffffffff16565b60116000838152602001908152602001600020819055507f7e119130fab57aa1f7f6c422daa875057f82701b631a137460c685b55583eff7818484604051611e5d93929190616cc4565b60405180910390a1505050565b611e72613a29565b611e7b57600080fd5b600554811115611ec0576040517f08c379a0000000000000000000000000000000000000000000000000000000008152600401611eb790616b40565b60405180910390fd5b600354611ed882600454615f2190919063ffffffff16565b11611f18576040517f08c379a0000000000000000000000000000000000000000000000000000000008152600401611f0f90616c00565b60405180910390fd5b611f2d81600454615f2190919063ffffffff16565b600481905550611f4881600554615f2190919063ffffffff16565b6005819055503373ffffffffffffffffffffffffffffffffffffffff166108fc829081150290604051600060405180830381858888f19350505050158015611f94573d6000803e3d6000fd5b507fa20809e697380eaea0fd13bf4d14b00e2ef29559ef361501189d3be2e9b0ec8581604051611fc49190616c80565b60405180910390a150565b60065481565b600a60009054906101000a900460ff16612024576040517f08c379a000000000000000000000000000000000000000000000000000000000815260040161201b90616ac0565b60405180910390fd5b61202c615f6b565b61208134600b60003373ffffffffffffffffffffffffffffffffffffffff1673ffffffffffffffffffffffffffffffffffffffff168152602001908152602001600020600201546160b790919063ffffffff16565b600b60003373ffffffffffffffffffffffffffffffffffffffff1673ffffffffffffffffffffffffffffffffffffffff168152602001908152602001600020600201819055506000600b60003373ffffffffffffffffffffffffffffffffffffffff1673ffffffffffffffffffffffffffffffffffffffff1681526020019081526020016000206004018054905042336040516020016121239392919061684c565b6040516020818303038152906040528051906020012060001c9050600b60003373ffffffffffffffffffffffffffffffffffffffff1673ffffffffffffffffffffffffffffffffffffffff1681526020019081526020016000206004016040518060a00160405280838152602001348152602001600f6000868152602001908152602001600020600001548152602001600f600086815260200190815260200160002060010154815260200161220d6121fe62015180600f60008981526020019081526020016000206000015461611590919063ffffffff16565b426160b790919063ffffffff16565b815250908060018154018082558091505060019003906000526020600020906005020160009091909190915060008201518160000155602082015181600101556040820151816002015560608201518160030155608082015181600401555050612282346004546160b790919063ffffffff16565b60048190555061229d346006546160b790919063ffffffff16565b600681905550807fa123d26d0d55f5bf1072b31ac2df8ba9e7da00dbb95088f2e2df528a2bbf90953334856040516122d793929190616933565b60405180910390a25050565b60106020528060005260406000206000915090508060000154908060010154905082565b60006003811115612341577f4e487b7100000000000000000000000000000000000000000000000000000000600052602160045260246000fd5b600b60003373ffffffffffffffffffffffffffffffffffffffff1673ffffffffffffffffffffffffffffffffffffffff168152602001908152602001600020600301600e600084815260200190815260200160002054815481106123ce577f4e487b7100000000000000000000000000000000000000000000000000000000600052603260045260246000fd5b906000526020600020906007020160060160009054906101000a900460ff166003811115612425577f4e487b7100000000000000000000000000000000000000000000000000000000600052602160045260246000fd5b14612465576040517f08c379a000000000000000000000000000000000000000000000000000000000815260040161245c90616c20565b60405180910390fd5b600d600082815260200190815260200160002054600d600060076124986001600780549050615f2190919063ffffffff16565b815481106124cf577f4e487b7100000000000000000000000000000000000000000000000000000000600052603260045260246000fd5b906000526020600020015481526020019081526020016000208190555060076125076001600780549050615f2190919063ffffffff16565b8154811061253e577f4e487b7100000000000000000000000000000000000000000000000000000000600052603260045260246000fd5b90600052602060002001546007600d60008481526020019081526020016000205481548110612596577f4e487b7100000000000000000000000000000000000000000000000000000000600052603260045260246000fd5b906000526020600020018190555060078054806125dc577f4e487b7100000000000000000000000000000000000000000000000000000000600052603160045260246000fd5b600190038181906000526020600020016000905590556000600b60003373ffffffffffffffffffffffffffffffffffffffff1673ffffffffffffffffffffffffffffffffffffffff168152602001908152602001600020600301805490509050600b60003373ffffffffffffffffffffffffffffffffffffffff1673ffffffffffffffffffffffffffffffffffffffff168152602001908152602001600020600301612692600183615f2190919063ffffffff16565b815481106126c9577f4e487b7100000000000000000000000000000000000000000000000000000000600052603260045260246000fd5b9060005260206000209060070201600b60003373ffffffffffffffffffffffffffffffffffffffff1673ffffffffffffffffffffffffffffffffffffffff168152602001908152602001600020600301600e60008581526020019081526020016000205481548110612764577f4e487b7100000000000000000000000000000000000000000000000000000000600052603260045260246000fd5b90600052602060002090600702016000820154816000015560018201548160010155600282015481600201556003820154816003015560048201548160040155600582015481600501556006820160009054906101000a900460ff168160060160006101000a81548160ff0219169083600381111561280c577f4e487b7100000000000000000000000000000000000000000000000000000000600052602160045260246000fd5b0217905550905050600b60003373ffffffffffffffffffffffffffffffffffffffff1673ffffffffffffffffffffffffffffffffffffffff16815260200190815260200160002060030180548061288c577f4e487b7100000000000000000000000000000000000000000000000000000000600052603160045260246000fd5b6001900381819060005260206000209060070201600080820160009055600182016000905560028201600090556003820160009055600482016000905560058201600090556006820160006101000a81549060ff021916905550509055817fb8c46d7a9085898800a987ac9416359765dea360d380829245ee1356cb4540713360405161291991906168c6565b60405180910390a25050565b42600b60003373ffffffffffffffffffffffffffffffffffffffff1673ffffffffffffffffffffffffffffffffffffffff16815260200190815260200160002060040182815481106129a0577f4e487b7100000000000000000000000000000000000000000000000000000000600052603260045260246000fd5b906000526020600020906005020160040154106129c5576129c081613e1e565b61310a565b6000600b60003373ffffffffffffffffffffffffffffffffffffffff1673ffffffffffffffffffffffffffffffffffffffff168152602001908152602001600020600401805490509050808210612a51576040517f08c379a0000000000000000000000000000000000000000000000000000000008152600401612a4890616c40565b60405180910390fd5b6000600b60003373ffffffffffffffffffffffffffffffffffffffff1673ffffffffffffffffffffffffffffffffffffffff1681526020019081526020016000206004018381548110612acd577f4e487b7100000000000000000000000000000000000000000000000000000000600052603260045260246000fd5b90600052602060002090600502016003015490506000612b9662015180612b8842600b60003373ffffffffffffffffffffffffffffffffffffffff1673ffffffffffffffffffffffffffffffffffffffff1681526020019081526020016000206004018881548110612b68577f4e487b7100000000000000000000000000000000000000000000000000000000600052603260045260246000fd5b906000526020600020906005020160040154615f2190919063ffffffff16565b61619090919063ffffffff16565b90506000600b60003373ffffffffffffffffffffffffffffffffffffffff1673ffffffffffffffffffffffffffffffffffffffff1681526020019081526020016000206004018581548110612c14577f4e487b7100000000000000000000000000000000000000000000000000000000600052603260045260246000fd5b90600052602060002090600502016001015490506000612c6461016d612c5686612c4860648761619090919063ffffffff16565b61611590919063ffffffff16565b61619090919063ffffffff16565b9050612c79838261611590919063ffffffff16565b9050612c8e81836160b790919063ffffffff16565b9150612cc9612cba6005612cac60648561619090919063ffffffff16565b61611590919063ffffffff16565b83615f2190919063ffffffff16565b9150816004541015612d10576040517f08c379a0000000000000000000000000000000000000000000000000000000008152600401612d0790616b60565b60405180910390fd5b612d6582600b60003373ffffffffffffffffffffffffffffffffffffffff1673ffffffffffffffffffffffffffffffffffffffff16815260200190815260200160002060020154615f2190919063ffffffff16565b600b60003373ffffffffffffffffffffffffffffffffffffffff1673ffffffffffffffffffffffffffffffffffffffff16815260200190815260200160002060020181905550612dc082600454615f2190919063ffffffff16565b600481905550612ddb82600654615f2190919063ffffffff16565b6006819055506000600b60003373ffffffffffffffffffffffffffffffffffffffff1673ffffffffffffffffffffffffffffffffffffffff1681526020019081526020016000206004018781548110612e5d577f4e487b7100000000000000000000000000000000000000000000000000000000600052603260045260246000fd5b9060005260206000209060050201600001549050600b60003373ffffffffffffffffffffffffffffffffffffffff1673ffffffffffffffffffffffffffffffffffffffff168152602001908152602001600020600401612ec7600188615f2190919063ffffffff16565b81548110612efe577f4e487b7100000000000000000000000000000000000000000000000000000000600052603260045260246000fd5b9060005260206000209060050201600b60003373ffffffffffffffffffffffffffffffffffffffff1673ffffffffffffffffffffffffffffffffffffffff1681526020019081526020016000206004018881548110612f86577f4e487b7100000000000000000000000000000000000000000000000000000000600052603260045260246000fd5b90600052602060002090600502016000820154816000015560018201548160010155600282015481600201556003820154816003015560048201548160040155905050600b60003373ffffffffffffffffffffffffffffffffffffffff1673ffffffffffffffffffffffffffffffffffffffff168152602001908152602001600020600401805480613041577f4e487b7100000000000000000000000000000000000000000000000000000000600052603160045260246000fd5b60019003818190600052602060002090600502016000808201600090556001820160009055600282016000905560038201600090556004820160009055505090553373ffffffffffffffffffffffffffffffffffffffff166108fc849081150290604051600060405180830381858888f193505050501580156130c8573d6000803e3d6000fd5b50807fff75e181e68c7bca3b737ffb2e8c1a1eb457f80910b791dcaf80d81f90131a1433856040516130fb92919061690a565b60405180910390a25050505050505b50565b3373ffffffffffffffffffffffffffffffffffffffff16600260009054906101000a900473ffffffffffffffffffffffffffffffffffffffff1673ffffffffffffffffffffffffffffffffffffffff161461319d576040517f08c379a000000000000000000000000000000000000000000000000000000000815260040161319490616ae0565b60405180910390fd5b6001600a60016101000a81548160ff0219169083151502179055507fb208bcac273d115c3c6e50674a1f6aabe56c60aa269d723be76d8b12d57b67d060405160405180910390a1565b6131ee613a29565b6131f757600080fd5b600073ffffffffffffffffffffffffffffffffffffffff1660008054906101000a900473ffffffffffffffffffffffffffffffffffffffff1673ffffffffffffffffffffffffffffffffffffffff167f8be0079c531659141344cd1fd0a4f28419497f9722a3daafe3b4186f6b6457e060405160405180910390a360008060006101000a81548173ffffffffffffffffffffffffffffffffffffffff021916908373ffffffffffffffffffffffffffffffffffffffff160217905550565b3373ffffffffffffffffffffffffffffffffffffffff16600260009054906101000a900473ffffffffffffffffffffffffffffffffffffffff1673ffffffffffffffffffffffffffffffffffffffff1614613345576040517f08c379a000000000000000000000000000000000000000000000000000000000815260040161333c90616ae0565b60405180910390fd5b6001600a60006101000a81548160ff0219169083151502179055507fa35ec68af9d45be222786f2d15214338e6a43668598f19c67733155ffec5cdb860405160405180910390a1565b3373ffffffffffffffffffffffffffffffffffffffff16600260009054906101000a900473ffffffffffffffffffffffffffffffffffffffff1673ffffffffffffffffffffffffffffffffffffffff161461341e576040517f08c379a000000000000000000000000000000000000000000000000000000000815260040161341590616ae0565b60405180910390fd5b6000600c600084815260200190815260200160002060009054906101000a900473ffffffffffffffffffffffffffffffffffffffff1690506000600e60008581526020019081526020016000205490506000600b60008473ffffffffffffffffffffffffffffffffffffffff1673ffffffffffffffffffffffffffffffffffffffff16815260200190815260200160002060030182815481106134ea577f4e487b7100000000000000000000000000000000000000000000000000000000600052603260045260246000fd5b906000526020600020906007020160010154905083156137d857600354816004546135159190616e6a565b11613555576040517f08c379a000000000000000000000000000000000000000000000000000000000815260040161354c90616c00565b60405180910390fd5b6136086135f962015180600b60008773ffffffffffffffffffffffffffffffffffffffff1673ffffffffffffffffffffffffffffffffffffffff16815260200190815260200160002060030185815481106135d9577f4e487b7100000000000000000000000000000000000000000000000000000000600052603260045260246000fd5b90600052602060002090600702016002015461611590919063ffffffff16565b426160b790919063ffffffff16565b600b60008573ffffffffffffffffffffffffffffffffffffffff1673ffffffffffffffffffffffffffffffffffffffff1681526020019081526020016000206003018381548110613682577f4e487b7100000000000000000000000000000000000000000000000000000000600052603260045260246000fd5b9060005260206000209060070201600401819055506001600b60008573ffffffffffffffffffffffffffffffffffffffff1673ffffffffffffffffffffffffffffffffffffffff1681526020019081526020016000206003018381548110613713577f4e487b7100000000000000000000000000000000000000000000000000000000600052603260045260246000fd5b906000526020600020906007020160060160006101000a81548160ff0219169083600381111561376c577f4e487b7100000000000000000000000000000000000000000000000000000000600052602160045260246000fd5b02179055508273ffffffffffffffffffffffffffffffffffffffff166108fc829081150290604051600060405180830381858888f193505050501580156137b7573d6000803e3d6000fd5b506137cd81600454615f2190919063ffffffff16565b6004819055506138b3565b6002600b60008573ffffffffffffffffffffffffffffffffffffffff1673ffffffffffffffffffffffffffffffffffffffff1681526020019081526020016000206003018381548110613854577f4e487b7100000000000000000000000000000000000000000000000000000000600052603260045260246000fd5b906000526020600020906007020160060160006101000a81548160ff021916908360038111156138ad577f4e487b7100000000000000000000000000000000000000000000000000000000600052602160045260246000fd5b02179055505b60076138ce6001600780549050615f2190919063ffffffff16565b81548110613905577f4e487b7100000000000000000000000000000000000000000000000000000000600052603260045260246000fd5b90600052602060002001546007600d6000888152602001908152602001600020548154811061395d577f4e487b7100000000000000000000000000000000000000000000000000000000600052603260045260246000fd5b906000526020600020018190555060078054806139a3577f4e487b7100000000000000000000000000000000000000000000000000000000600052603160045260246000fd5b60019003818190600052602060002001600090559055847f7aaeba210f793a9180a7d04cbaa4338ec277e58454aaa2545314841e1b4d2d7f84866040516139eb9291906168e1565b60405180910390a25050505050565b60045481565b60008060009054906101000a900473ffffffffffffffffffffffffffffffffffffffff16905090565b60008060009054906101000a900473ffffffffffffffffffffffffffffffffffffffff1673ffffffffffffffffffffffffffffffffffffffff163373ffffffffffffffffffffffffffffffffffffffff1614905090565b60116020528060005260406000206000915090505481565b3373ffffffffffffffffffffffffffffffffffffffff16600260009054906101000a900473ffffffffffffffffffffffffffffffffffffffff1673ffffffffffffffffffffffffffffffffffffffff1614613b28576040517f08c379a0000000000000000000000000000000000000000000000000000000008152600401613b1f90616ae0565b60405180910390fd5b6009613b436001600980549050615f2190919063ffffffff16565b81548110613b7a577f4e487b7100000000000000000000000000000000000000000000000000000000600052603260045260246000fd5b90600052602060002001546009601160008481526020019081526020016000205481548110613bd2577f4e487b7100000000000000000000000000000000000000000000000000000000600052603260045260246000fd5b90600052602060002001819055506009805480613c18577f4e487b7100000000000000000000000000000000000000000000000000000000600052603160045260246000fd5b600190038181906000526020600020016000905590557f60aad2455364b944d1a72a42bb88a32a65314ea7d27e873df76920e1ad7311c881604051613c5d9190616c80565b60405180910390a150565b60608060008490505b60088054905081108015613c9a57508385613c8c9190616d89565b811080613c995750600084145b5b15613df257600f600060088381548110613cdd577f4e487b7100000000000000000000000000000000000000000000000000000000600052603260045260246000fd5b9060005260206000200154815260200190815260200160002060000154838281518110613d33577f4e487b7100000000000000000000000000000000000000000000000000000000600052603260045260246000fd5b602002602001018181525050600f600060088381548110613d7d577f4e487b7100000000000000000000000000000000000000000000000000000000600052603260045260246000fd5b9060005260206000200154815260200190815260200160002060010154828281518110613dd3577f4e487b7100000000000000000000000000000000000000000000000000000000600052603260045260246000fd5b6020026020010181815250508080613dea90616f19565b915050613c71565b509250929050565b60098181548110613e0a57600080fd5b906000526020600020016000915090505481565b6000600b60003373ffffffffffffffffffffffffffffffffffffffff1673ffffffffffffffffffffffffffffffffffffffff168152602001908152602001600020600401805490509050808210613eaa576040517f08c379a0000000000000000000000000000000000000000000000000000000008152600401613ea190616c40565b60405180910390fd5b42600b60003373ffffffffffffffffffffffffffffffffffffffff1673ffffffffffffffffffffffffffffffffffffffff1681526020019081526020016000206004018381548110613f25577f4e487b7100000000000000000000000000000000000000000000000000000000600052603260045260246000fd5b9060005260206000209060050201600401541015613f78576040517f08c379a0000000000000000000000000000000000000000000000000000000008152600401613f6f90616c60565b60405180910390fd5b6000600b60003373ffffffffffffffffffffffffffffffffffffffff1673ffffffffffffffffffffffffffffffffffffffff1681526020019081526020016000206004018381548110613ff4577f4e487b7100000000000000000000000000000000000000000000000000000000600052603260045260246000fd5b9060005260206000209060050201600301549050600061415a6140c0620151806140b2600b60003373ffffffffffffffffffffffffffffffffffffffff1673ffffffffffffffffffffffffffffffffffffffff1681526020019081526020016000206004018881548110614091577f4e487b7100000000000000000000000000000000000000000000000000000000600052603260045260246000fd5b90600052602060002090600502016004015442615f2190919063ffffffff16565b61619090919063ffffffff16565b600b60003373ffffffffffffffffffffffffffffffffffffffff1673ffffffffffffffffffffffffffffffffffffffff168152602001908152602001600020600401868154811061413a577f4e487b7100000000000000000000000000000000000000000000000000000000600052603260045260246000fd5b9060005260206000209060050201600201546160b790919063ffffffff16565b90506000600b60003373ffffffffffffffffffffffffffffffffffffffff1673ffffffffffffffffffffffffffffffffffffffff16815260200190815260200160002060040185815481106141d8577f4e487b7100000000000000000000000000000000000000000000000000000000600052603260045260246000fd5b9060005260206000209060050201600101549050600061422861016d61421a8661420c60648761619090919063ffffffff16565b61611590919063ffffffff16565b61619090919063ffffffff16565b905061423d838261611590919063ffffffff16565b905061425281836160b790919063ffffffff16565b91506000600b60003373ffffffffffffffffffffffffffffffffffffffff1673ffffffffffffffffffffffffffffffffffffffff16815260200190815260200160002060040187815481106142d0577f4e487b7100000000000000000000000000000000000000000000000000000000600052603260045260246000fd5b9060005260206000209060050201600001549050826004541015614329576040517f08c379a000000000000000000000000000000000000000000000000000000000815260040161432090616b60565b60405180910390fd5b61437e83600b60003373ffffffffffffffffffffffffffffffffffffffff1673ffffffffffffffffffffffffffffffffffffffff16815260200190815260200160002060020154615f2190919063ffffffff16565b600b60003373ffffffffffffffffffffffffffffffffffffffff1673ffffffffffffffffffffffffffffffffffffffff168152602001908152602001600020600201819055506143d983600454615f2190919063ffffffff16565b6004819055506143f483600654615f2190919063ffffffff16565b600681905550600b60003373ffffffffffffffffffffffffffffffffffffffff1673ffffffffffffffffffffffffffffffffffffffff168152602001908152602001600020600401614450600188615f2190919063ffffffff16565b81548110614487577f4e487b7100000000000000000000000000000000000000000000000000000000600052603260045260246000fd5b9060005260206000209060050201600b60003373ffffffffffffffffffffffffffffffffffffffff1673ffffffffffffffffffffffffffffffffffffffff168152602001908152602001600020600401888154811061450f577f4e487b7100000000000000000000000000000000000000000000000000000000600052603260045260246000fd5b90600052602060002090600502016000820154816000015560018201548160010155600282015481600201556003820154816003015560048201548160040155905050600b60003373ffffffffffffffffffffffffffffffffffffffff1673ffffffffffffffffffffffffffffffffffffffff1681526020019081526020016000206004018054806145ca577f4e487b7100000000000000000000000000000000000000000000000000000000600052603160045260246000fd5b60019003818190600052602060002090600502016000808201600090556001820160009055600282016000905560038201600090556004820160009055505090553373ffffffffffffffffffffffffffffffffffffffff166108fc849081150290604051600060405180830381858888f19350505050158015614651573d6000803e3d6000fd5b50807ffd064f8a401a58afd87a45b07127ca97644f02168c9052380316c4cadea57cf7338560405161468492919061690a565b60405180910390a250505050505050565b60126020528060005260406000206000915090505481565b600a60019054906101000a900460ff166146fc576040517f08c379a00000000000000000000000000000000000000000000000000000000081526004016146f390616b20565b60405180910390fd5b614704615f6b565b6000600b60003373ffffffffffffffffffffffffffffffffffffffff1673ffffffffffffffffffffffffffffffffffffffff1681526020019081526020016000206003018054905042336040516020016147609392919061684c565b6040516020818303038152906040528051906020012060001c905060006148076147f860106000868152602001908152602001600020600001546147ea61016d6147dc601060008a8152602001908152602001600020600101546147ce60648c61619090919063ffffffff16565b61611590919063ffffffff16565b61619090919063ffffffff16565b61611590919063ffffffff16565b856160b790919063ffffffff16565b9050600b60003373ffffffffffffffffffffffffffffffffffffffff1673ffffffffffffffffffffffffffffffffffffffff1681526020019081526020016000206003016040518060e00160405280848152602001868152602001601060008781526020019081526020016000206000015481526020016010600087815260200190815260200160002060010154815260200160008152602001838152602001600060038111156148e1577f4e487b7100000000000000000000000000000000000000000000000000000000600052602160045260246000fd5b8152509080600181540180825580915050600190039060005260206000209060070201600090919091909150600082015181600001556020820151816001015560408201518160020155606082015181600301556080820151816004015560a0820151816005015560c08201518160060160006101000a81548160ff0219169083600381111561499a577f4e487b7100000000000000000000000000000000000000000000000000000000600052602160045260246000fd5b021790555050506149fa6001600b60003373ffffffffffffffffffffffffffffffffffffffff1673ffffffffffffffffffffffffffffffffffffffff16815260200190815260200160002060030180549050615f2190919063ffffffff16565b600e60008481526020019081526020016000208190555033600c600084815260200190815260200160002060006101000a81548173ffffffffffffffffffffffffffffffffffffffff021916908373ffffffffffffffffffffffffffffffffffffffff1602179055506007829080600181540180825580915050600190039060005260206000200160009091909190915055614aa56001600780549050615f2190919063ffffffff16565b600d600084815260200190815260200160002081905550817f6c5b635903e300a53470ec4c5153e85ef116217101a53c0d74b0aecb37da65d7338686604051614af093929190616933565b60405180910390a250505050565b60003490506000600b60003373ffffffffffffffffffffffffffffffffffffffff1673ffffffffffffffffffffffffffffffffffffffff168152602001908152602001600020600301805490509050808310614b8f576040517f08c379a0000000000000000000000000000000000000000000000000000000008152600401614b8690616c40565b60405180910390fd5b42600b60003373ffffffffffffffffffffffffffffffffffffffff1673ffffffffffffffffffffffffffffffffffffffff1681526020019081526020016000206003018481548110614c0a577f4e487b7100000000000000000000000000000000000000000000000000000000600052603260045260246000fd5b90600052602060002090600702016004015410614dc3576003600b60003373ffffffffffffffffffffffffffffffffffffffff1673ffffffffffffffffffffffffffffffffffffffff1681526020019081526020016000206003018481548110614c9d577f4e487b7100000000000000000000000000000000000000000000000000000000600052603260045260246000fd5b906000526020600020906007020160060160006101000a81548160ff02191690836003811115614cf6577f4e487b7100000000000000000000000000000000000000000000000000000000600052602160045260246000fd5b0217905550600b60003373ffffffffffffffffffffffffffffffffffffffff1673ffffffffffffffffffffffffffffffffffffffff1681526020019081526020016000206003018381548110614d75577f4e487b7100000000000000000000000000000000000000000000000000000000600052603260045260246000fd5b9060005260206000209060070201600001547f89753c7b58bfc293194132c57d8fc1ac6a4d453b350c9bca28cc88c89036650033604051614db691906168c6565b60405180910390a2615634565b6000600b60003373ffffffffffffffffffffffffffffffffffffffff1673ffffffffffffffffffffffffffffffffffffffff1681526020019081526020016000206003018481548110614e3f577f4e487b7100000000000000000000000000000000000000000000000000000000600052603260045260246000fd5b906000526020600020906007020160050154905080831115614e96576040517f08c379a0000000000000000000000000000000000000000000000000000000008152600401614e8d90616be0565b60405180910390fd5b614f3483600b60003373ffffffffffffffffffffffffffffffffffffffff1673ffffffffffffffffffffffffffffffffffffffff1681526020019081526020016000206003018681548110614f14577f4e487b7100000000000000000000000000000000000000000000000000000000600052603260045260246000fd5b906000526020600020906007020160050154615f2190919063ffffffff16565b600b60003373ffffffffffffffffffffffffffffffffffffffff1673ffffffffffffffffffffffffffffffffffffffff1681526020019081526020016000206003018581548110614fae577f4e487b7100000000000000000000000000000000000000000000000000000000600052603260045260246000fd5b906000526020600020906007020160050181905550614fd8836004546160b790919063ffffffff16565b6004819055506000600b60003373ffffffffffffffffffffffffffffffffffffffff1673ffffffffffffffffffffffffffffffffffffffff168152602001908152602001600020600301858154811061505a577f4e487b7100000000000000000000000000000000000000000000000000000000600052603260045260246000fd5b906000526020600020906007020160050154141561556d57600b60003373ffffffffffffffffffffffffffffffffffffffff1673ffffffffffffffffffffffffffffffffffffffff16815260200190815260200160002060030184815481106150ec577f4e487b7100000000000000000000000000000000000000000000000000000000600052603260045260246000fd5b9060005260206000209060070201600001547f19fac8cdcd0bcf1377b5f3516205a8db06089e32e286f2a98bfe4889de35b8323360405161512d91906168c6565b60405180910390a26000615299600a61528b606461527d600b60003373ffffffffffffffffffffffffffffffffffffffff1673ffffffffffffffffffffffffffffffffffffffff1681526020019081526020016000206003018a815481106151be577f4e487b7100000000000000000000000000000000000000000000000000000000600052603260045260246000fd5b90600052602060002090600702016003015461526f6064600b60003373ffffffffffffffffffffffffffffffffffffffff1673ffffffffffffffffffffffffffffffffffffffff1681526020019081526020016000206003018d8154811061524f577f4e487b7100000000000000000000000000000000000000000000000000000000600052603260045260246000fd5b90600052602060002090600702016001015461619090919063ffffffff16565b61611590919063ffffffff16565b61619090919063ffffffff16565b61611590919063ffffffff16565b90506152b0816005546160b790919063ffffffff16565b6005819055506152cb81600454615f2190919063ffffffff16565b600481905550600b60003373ffffffffffffffffffffffffffffffffffffffff1673ffffffffffffffffffffffffffffffffffffffff168152602001908152602001600020600301615327600185615f2190919063ffffffff16565b8154811061535e577f4e487b7100000000000000000000000000000000000000000000000000000000600052603260045260246000fd5b9060005260206000209060070201600b60003373ffffffffffffffffffffffffffffffffffffffff1673ffffffffffffffffffffffffffffffffffffffff16815260200190815260200160002060030186815481106153e6577f4e487b7100000000000000000000000000000000000000000000000000000000600052603260045260246000fd5b90600052602060002090600702016000820154816000015560018201548160010155600282015481600201556003820154816003015560048201548160040155600582015481600501556006820160009054906101000a900460ff168160060160006101000a81548160ff0219169083600381111561548e577f4e487b7100000000000000000000000000000000000000000000000000000000600052602160045260246000fd5b0217905550905050600b60003373ffffffffffffffffffffffffffffffffffffffff1673ffffffffffffffffffffffffffffffffffffffff16815260200190815260200160002060030180548061550e577f4e487b7100000000000000000000000000000000000000000000000000000000600052603160045260246000fd5b6001900381819060005260206000209060070201600080820160009055600182016000905560028201600090556003820160009055600482016000905560058201600090556006820160006101000a81549060ff021916905550509055505b600b60003373ffffffffffffffffffffffffffffffffffffffff1673ffffffffffffffffffffffffffffffffffffffff16815260200190815260200160002060030184815481106155e7577f4e487b7100000000000000000000000000000000000000000000000000000000600052603260045260246000fd5b9060005260206000209060070201600001547f56f4bd331ad656b18a885f48e538fa57df28aaa74314d9ed1f7a4db564d4fbe1338560405161562a92919061690a565b60405180910390a2505b505050565b615641613a29565b61564a57600080fd5b61565f816003546160b790919063ffffffff16565b6003819055507fcd27308a347486a5c5d40f1a851c65e2ee84b53c4644d06fd342b059f9eb29fd6003546040516156969190616c80565b60405180910390a150565b600260009054906101000a900473ffffffffffffffffffffffffffffffffffffffff1681565b600a60009054906101000a900460ff16615716576040517f08c379a000000000000000000000000000000000000000000000000000000000815260040161570d90616ac0565b60405180910390fd5b61571e615f6b565b61577334600b60003373ffffffffffffffffffffffffffffffffffffffff1673ffffffffffffffffffffffffffffffffffffffff168152602001908152602001600020600101546160b790919063ffffffff16565b600b60003373ffffffffffffffffffffffffffffffffffffffff1673ffffffffffffffffffffffffffffffffffffffff168152602001908152602001600020600101819055506157ce346004546160b790919063ffffffff16565b6004819055503373ffffffffffffffffffffffffffffffffffffffff167fe1fffcc4923d04b559f4d29a8bfc6cda04eb5b0d3c460751c2402c5c5cc9109c3460405161581a9190616c80565b60405180910390a2565b61582c613a29565b61583557600080fd5b80600260006101000a81548173ffffffffffffffffffffffffffffffffffffffff021916908373ffffffffffffffffffffffffffffffffffffffff1602179055507f54a6385aa0292b04e1ef8513253c17d1863f7cdfc87029d77fd55cc4c2e717e2816040516158a591906168c6565b60405180910390a150565b600881815481106158c057600080fd5b906000526020600020016000915090505481565b600a60009054906101000a900460ff1681565b600a81565b60603373ffffffffffffffffffffffffffffffffffffffff16600260009054906101000a900473ffffffffffffffffffffffffffffffffffffffff1673ffffffffffffffffffffffffffffffffffffffff161461597e576040517f08c379a000000000000000000000000000000000000000000000000000000000815260040161597590616ae0565b60405180910390fd5b6001805480602002602001604051908101604052809291908181526020018280548015615a0057602002820191906000526020600020905b8160009054906101000a900473ffffffffffffffffffffffffffffffffffffffff1673ffffffffffffffffffffffffffffffffffffffff16815260200190600101908083116159b6575b5050505050905090565b615a12613a29565b615a1b57600080fd5b615a24816161da565b50565b615a2f613a29565b615a3857600080fd5b615a4d346004546160b790919063ffffffff16565b6004819055507f81bb4299a1a34702f45bf19a704351eb83dce855cf8ff5014c64b704efb7f64534604051615a829190616c80565b60405180910390a1565b3373ffffffffffffffffffffffffffffffffffffffff16600260009054906101000a900473ffffffffffffffffffffffffffffffffffffffff1673ffffffffffffffffffffffffffffffffffffffff1614615b1c576040517f08c379a0000000000000000000000000000000000000000000000000000000008152600401615b1390616ae0565b60405180910390fd5b6000600c600083815260200190815260200160002060009054906101000a900473ffffffffffffffffffffffffffffffffffffffff16905042600b60008373ffffffffffffffffffffffffffffffffffffffff1673ffffffffffffffffffffffffffffffffffffffff168152602001908152602001600020600301600e60008581526020019081526020016000205481548110615be2577f4e487b7100000000000000000000000000000000000000000000000000000000600052603260045260246000fd5b9060005260206000209060070201600401541115615c35576040517f08c379a0000000000000000000000000000000000000000000000000000000008152600401615c2c90616bc0565b60405180910390fd5b6003600b60008373ffffffffffffffffffffffffffffffffffffffff1673ffffffffffffffffffffffffffffffffffffffff168152602001908152602001600020600301600e60008581526020019081526020016000205481548110615cc4577f4e487b7100000000000000000000000000000000000000000000000000000000600052603260045260246000fd5b906000526020600020906007020160060160006101000a81548160ff02191690836003811115615d1d577f4e487b7100000000000000000000000000000000000000000000000000000000600052602160045260246000fd5b0217905550817f89753c7b58bfc293194132c57d8fc1ac6a4d453b350c9bca28cc88c89036650082604051615d5291906168c6565b60405180910390a25050565b3373ffffffffffffffffffffffffffffffffffffffff16600260009054906101000a900473ffffffffffffffffffffffffffffffffffffffff1673ffffffffffffffffffffffffffffffffffffffff1614615dee576040517f08c379a0000000000000000000000000000000000000000000000000000000008152600401615de590616ae0565b60405180910390fd5b60006009805490504284604051602001615e0a93929190616889565b6040516020818303038152906040528051906020012060001c90506009819080600181540180825580915050600190039060005260206000200160009091909190915055604051806040016040528084815260200183815250601060008381526020019081526020016000206000820151816000015560208201518160010155905050615ea66001600980549050615f2190919063ffffffff16565b60126000838152602001908152602001600020819055507fe57b5a3f90a02eb83b7ca7f3546fc090127f0eab09a224edc9f64ccd4b18b1c5818484604051615ef093929190616cc4565b60405180910390a1505050565b600f6020528060005260406000206000915090508060000154908060010154905082565b6000615f6383836040518060400160405280601e81526020017f536166654d6174683a207375627472616374696f6e206f766572666c6f7700008152506162d1565b905092915050565b600b60003373ffffffffffffffffffffffffffffffffffffffff1673ffffffffffffffffffffffffffffffffffffffff16815260200190815260200160002060000160009054906101000a900460ff166160b5576001600b60003373ffffffffffffffffffffffffffffffffffffffff1673ffffffffffffffffffffffffffffffffffffffff16815260200190815260200160002060000160006101000a81548160ff0219169083151502179055506001339080600181540180825580915050600190039060005260206000200160009091909190916101000a81548173ffffffffffffffffffffffffffffffffffffffff021916908373ffffffffffffffffffffffffffffffffffffffff1602179055507f2921fdc6b33de0e91685031b6c5b9958c91317946af501315b29f1ec45778249336040516160ac91906168c6565b60405180910390a15b565b60008082846160c69190616d89565b90508381101561610b576040517f08c379a000000000000000000000000000000000000000000000000000000000815260040161610290616b00565b60405180910390fd5b8091505092915050565b600080831415616128576000905061618a565b600082846161369190616e10565b90508284826161459190616ddf565b14616185576040517f08c379a000000000000000000000000000000000000000000000000000000000815260040161617c90616b80565b60405180910390fd5b809150505b92915050565b60006161d283836040518060400160405280601a81526020017f536166654d6174683a206469766973696f6e206279207a65726f000000000000815250616335565b905092915050565b600073ffffffffffffffffffffffffffffffffffffffff168173ffffffffffffffffffffffffffffffffffffffff16141561621457600080fd5b8073ffffffffffffffffffffffffffffffffffffffff1660008054906101000a900473ffffffffffffffffffffffffffffffffffffffff1673ffffffffffffffffffffffffffffffffffffffff167f8be0079c531659141344cd1fd0a4f28419497f9722a3daafe3b4186f6b6457e060405160405180910390a3806000806101000a81548173ffffffffffffffffffffffffffffffffffffffff021916908373ffffffffffffffffffffffffffffffffffffffff16021790555050565b6000838311158290616319576040517f08c379a00000000000000000000000000000000000000000000000000000000081526004016163109190616a7e565b60405180910390fd5b50600083856163289190616e6a565b9050809150509392505050565b6000808311829061637c576040517f08c379a00000000000000000000000000000000000000000000000000000000081526004016163739190616a7e565b60405180910390fd5b506000838561638b9190616ddf565b9050809150509392505050565b6000813590506163a78161730b565b92915050565b6000813590506163bc81617322565b92915050565b6000813590506163d181617339565b92915050565b6000602082840312156163e957600080fd5b60006163f784828501616398565b91505092915050565b60006020828403121561641257600080fd5b6000616420848285016163c2565b91505092915050565b6000806040838503121561643c57600080fd5b600061644a858286016163c2565b925050602061645b858286016163ad565b9150509250929050565b6000806040838503121561647857600080fd5b6000616486858286016163c2565b9250506020616497858286016163c2565b9150509250929050565b60006164ad83836164d1565b60208301905092915050565b60006164c58383616817565b60208301905092915050565b6164da81616e9e565b82525050565b6164e981616e9e565b82525050565b6165006164fb82616e9e565b616f62565b82525050565b600061651182616d1b565b61651b8185616d56565b935061652683616cfb565b8060005b8381101561655757815161653e88826164a1565b975061654983616d3c565b92505060018101905061652a565b5085935050505092915050565b600061656f82616d26565b6165798185616d67565b935061658483616d0b565b8060005b838110156165b557815161659c88826164b9565b97506165a783616d49565b925050600181019050616588565b5085935050505092915050565b6165cb81616eb0565b82525050565b60006165dc82616d31565b6165e68185616d78565b93506165f6818560208601616ee6565b6165ff81616fee565b840191505092915050565b6000616617600e83616d78565b91506166228261700c565b602082019050919050565b600061663a602183616d78565b915061664582617035565b604082019050919050565b600061665d602183616d78565b915061666882617084565b604082019050919050565b6000616680601b83616d78565b915061668b826170d3565b602082019050919050565b60006166a3601183616d78565b91506166ae826170fc565b602082019050919050565b60006166c6601a83616d78565b91506166d182617125565b602082019050919050565b60006166e9602083616d78565b91506166f48261714e565b602082019050919050565b600061670c602183616d78565b915061671782617177565b604082019050919050565b600061672f601d83616d78565b915061673a826171c6565b602082019050919050565b6000616752601883616d78565b915061675d826171ef565b602082019050919050565b6000616775600e83616d78565b915061678082617218565b602082019050919050565b6000616798601483616d78565b91506167a382617241565b602082019050919050565b60006167bb601083616d78565b91506167c68261726a565b602082019050919050565b60006167de600e83616d78565b91506167e982617293565b602082019050919050565b6000616801602183616d78565b915061680c826172bc565b604082019050919050565b61682081616edc565b82525050565b61682f81616edc565b82525050565b61684661684182616edc565b616f86565b82525050565b60006168588286616835565b6020820191506168688285616835565b60208201915061687882846164ef565b601482019150819050949350505050565b60006168958286616835565b6020820191506168a58285616835565b6020820191506168b58284616835565b602082019150819050949350505050565b60006020820190506168db60008301846164e0565b92915050565b60006040820190506168f660008301856164e0565b61690360208301846165c2565b9392505050565b600060408201905061691f60008301856164e0565b61692c6020830184616826565b9392505050565b600060608201905061694860008301866164e0565b6169556020830185616826565b6169626040830184616826565b949350505050565b600060208201905081810360008301526169848184616506565b905092915050565b600060408201905081810360008301526169a68185616564565b905081810360208301526169ba8184616564565b90509392505050565b600060e08201905081810360008301526169dd818a616564565b905081810360208301526169f18189616564565b90508181036040830152616a058188616564565b90508181036060830152616a198187616564565b90508181036080830152616a2d8186616564565b905081810360a0830152616a418185616564565b905081810360c0830152616a558184616564565b905098975050505050505050565b6000602082019050616a7860008301846165c2565b92915050565b60006020820190508181036000830152616a9881846165d1565b905092915050565b60006020820190508181036000830152616ab98161660a565b9050919050565b60006020820190508181036000830152616ad98161662d565b9050919050565b60006020820190508181036000830152616af981616650565b9050919050565b60006020820190508181036000830152616b1981616673565b9050919050565b60006020820190508181036000830152616b3981616696565b9050919050565b60006020820190508181036000830152616b59816166b9565b9050919050565b60006020820190508181036000830152616b79816166dc565b9050919050565b60006020820190508181036000830152616b99816166ff565b9050919050565b60006020820190508181036000830152616bb981616722565b9050919050565b60006020820190508181036000830152616bd981616745565b9050919050565b60006020820190508181036000830152616bf981616768565b9050919050565b60006020820190508181036000830152616c198161678b565b9050919050565b60006020820190508181036000830152616c39816167ae565b9050919050565b60006020820190508181036000830152616c59816167d1565b9050919050565b60006020820190508181036000830152616c79816167f4565b9050919050565b6000602082019050616c956000830184616826565b92915050565b6000604082019050616cb06000830185616826565b616cbd6020830184616826565b9392505050565b6000606082019050616cd96000830186616826565b616ce66020830185616826565b616cf36040830184616826565b949350505050565b6000819050602082019050919050565b6000819050602082019050919050565b600081519050919050565b600081519050919050565b600081519050919050565b6000602082019050919050565b6000602082019050919050565b600082825260208201905092915050565b600082825260208201905092915050565b600082825260208201905092915050565b6000616d9482616edc565b9150616d9f83616edc565b9250827fffffffffffffffffffffffffffffffffffffffffffffffffffffffffffffffff03821115616dd457616dd3616f90565b5b828201905092915050565b6000616dea82616edc565b9150616df583616edc565b925082616e0557616e04616fbf565b5b828204905092915050565b6000616e1b82616edc565b9150616e2683616edc565b9250817fffffffffffffffffffffffffffffffffffffffffffffffffffffffffffffffff0483118215151615616e5f57616e5e616f90565b5b828202905092915050565b6000616e7582616edc565b9150616e8083616edc565b925082821015616e9357616e92616f90565b5b828203905092915050565b6000616ea982616ebc565b9050919050565b60008115159050919050565b600073ffffffffffffffffffffffffffffffffffffffff82169050919050565b6000819050919050565b60005b83811015616f04578082015181840152602081019050616ee9565b83811115616f13576000848401525b50505050565b6000616f2482616edc565b91507fffffffffffffffffffffffffffffffffffffffffffffffffffffffffffffffff821415616f5757616f56616f90565b5b600182019050919050565b6000616f6d82616f74565b9050919050565b6000616f7f82616fff565b9050919050565b6000819050919050565b7f4e487b7100000000000000000000000000000000000000000000000000000000600052601160045260246000fd5b7f4e487b7100000000000000000000000000000000000000000000000000000000600052601260045260246000fd5b6000601f19601f8301169050919050565b60008160601b9050919050565b7f496e76616c696420416363657373000000000000000000000000000000000000600082015250565b7f4465706f7369742066756e6374696f6e20667265657a6564206279204f776e6560008201527f7200000000000000000000000000000000000000000000000000000000000000602082015250565b7f416363657373207265737472696374656420746f204d616e61676572206f6e6c60008201527f7900000000000000000000000000000000000000000000000000000000000000602082015250565b7f536166654d6174683a206164646974696f6e206f766572666c6f770000000000600082015250565b7f4c6f616e7320556e617661696c61626c65000000000000000000000000000000600082015250565b7f496e73756666696369656e74206f776e65722062616c616e6365000000000000600082015250565b7f496e73756666696369656e742062616c616e636520696e20636f6e7472616374600082015250565b7f536166654d6174683a206d756c7469706c69636174696f6e206f766572666c6f60008201527f7700000000000000000000000000000000000000000000000000000000000000602082015250565b7f496e73756666696369656e7420436f6e74726163742042616c616e6365000000600082015250565b7f4e6f7420726561636865642074686520446561646c696e650000000000000000600082015250565b7f457863657373205061796d656e74000000000000000000000000000000000000600082015250565b7f496e73756666696369656e742042616c616e6365000000000000000000000000600082015250565b7f556e61626c6520746f2063616e63656c00000000000000000000000000000000600082015250565b7f496e76616c69642063686f696365000000000000000000000000000000000000600082015250565b7f54686973204669786564206465706f736974206973206e6f74206d617475726560008201527f6400000000000000000000000000000000000000000000000000000000000000602082015250565b61731481616e9e565b811461731f57600080fd5b50565b61732b81616eb0565b811461733657600080fd5b50565b61734281616edc565b811461734d57600080fd5b5056fea26469706673582212207ca2591f91c6f0095f3da57b75f1fc9e94fc70140f4787e39a32a990f620640264736f6c63430008010033",
  "immutableReferences": {},
  "source": "// SPDX-License-Identifier: UNLICENSED\r\n\r\npragma solidity >=0.6.0;\r\n     \r\n/* Imports */\r\nimport \"./SafeMath.sol\"; \r\nimport \"./ownable.sol\";\r\n     \r\n/**\r\n * @author Joby Augustine\r\n * @notice You use this contract for banking operations. \r\n * @dev The main Bank contract for banking operations.\r\n * @title Decentralized Bank\r\n */     \r\n/*Contract */\r\ncontract Bank is Ownable {\r\n    \r\n    /* library */\r\n    using SafeMath for uint256;\r\n    \r\n    /* Enuns */\r\n    \r\n    // Loan Status.\r\n    enum LnStatus { \r\n                \r\n        WaitingForCollateralVerification, // Waiting for collateral verification by the Manager.\r\n        Approved, // Loan approved by Manager after collateral verification.\r\n        Rejected, // Loan rejected by Manager.\r\n        CrossedDeadline // Failed to repay the loan.\r\n    }\r\n            \r\n            \r\n    /* Structs */\r\n    \r\n    // Store Loan information.\r\n    struct LnInfo { \r\n        \r\n        uint256 loanId; // loan Id.\r\n        uint256 amount; // Loan amount.\r\n        uint256 duration; // Duration of Loan in Days. \r\n        uint256 interest; // Interest for the Loan.\r\n        uint256 endTime; // Loan end time\r\n        uint256 repayAmountBal; // Repayment amount left.\r\n        LnStatus loanStatus; //Loan status\r\n    }\r\n    \r\n    // Store Fixed Deposit information.\r\n    struct FxDptInfo {\r\n            \r\n        uint256 fdId; // Fixied deposit Id.\r\n        uint256 amount; // Fixed Deposit amount.\r\n        uint256 duration; // Duration of Fixed Deposit in Days.\r\n        uint256 interest; // Interest for the Fixed Deposit.\r\n        uint256 endTime; // Fixed Deposit end time.\r\n    }\r\n     \r\n    // Store information of the User.\r\n    struct UsrInfo{\r\n        \r\n        bool accStatus; // Account status. `true` value denoted existing user.\r\n        uint256 balance; // Balance amount.\r\n        uint256 totalUsrFD; // Sum total of all Fixed Deposit.\r\n        LnInfo[] loanInfo; // Store details of all Loans of an User.\r\n        FxDptInfo[] fdInfo; // Store details of all Fixed Deposits of an User.\r\n    }\r\n    \r\n    // Loan tariff\r\n    struct LoanTariff{\r\n\r\n        uint256 duration; // Loan duration in Days.\r\n        uint256 interest; // Loan intrest.\r\n    }\r\n    \r\n    \r\n    // Fixed Deposit tariff\r\n    struct FdTariff{\r\n        \r\n        uint256 duration; // Fixed Deposit duration in Days.\r\n        uint256 interest; // Fixed Deposit intrest.\r\n    }\r\n    \r\n    \r\n    /*Events */\r\n    \r\n    /**\r\n     * @dev Emitted when User deposits to his/her account.\r\n     * @param userAddr User address.\r\n     * @param amount Amount deposited.\r\n     */\r\n    event Deposit(address indexed userAddr, uint amount);  \r\n    \r\n    /**\r\n     * @dev Emitted when User withdraws from his/her account.\r\n     * @param userAddr User address.\r\n     * @param amount Amount withdrawn.\r\n     */\r\n    event Withdraw(address indexed userAddr, uint256 amount);  \r\n    \r\n    /**\r\n     * @dev Emitted when User deposits an amount for a fixed duration.\r\n     * @param fdId Fixed deposit Id\r\n     * @param userAddr User address.\r\n     * @param amount Deposit amount.\r\n     * @param tariffId Tariff Id for fixed deposit.\r\n     */\r\n    event FixedDeposit(uint256 indexed fdId, address userAddr, uint256 amount, uint256 tariffId); \r\n        \r\n    /**\r\n     * @dev Emitted when User withdraws his/her fixed deposit.\r\n     * @param fdId Fixed deposit Id\r\n     * @param userAddr User address.\r\n     * @param amount Amount withdrawn.\r\n     */\r\n    event WithdrawFD(uint256 indexed fdId, address userAddr, uint256 amount);  \r\n        \r\n    /**\r\n     * @dev Emitted when User withdraws his/her fixed deposit before maturity period.\r\n     * @param fdId Fixed deposit Id\r\n     * @param userAddr User address.\r\n     * @param amount Amount withdrawn.\r\n     */\r\n    event WithdrawFDBeforeMaturity(uint256 indexed fdId, address userAddr, uint256 amount);  \r\n         \r\n    /**\r\n     * @dev Emitted when User requests for a loan.\r\n     * @param loanId Loan id.\r\n     * @param userAddr User address.\r\n     * @param amount Loan amount.\r\n     * @param tariffId Tariff Id for Loan.\r\n     */\r\n    event RequestLoan(uint256 indexed loanId, address userAddr, uint256 amount, uint256 tariffId);  \r\n    \r\n    /**\r\n     * @dev Emitted when User cancel Loan request.\r\n     * @param loanId Loan id.\r\n     * @param userAddr User address.\r\n     */\r\n    event CancelLoanRequest(uint256 indexed loanId, address userAddr); \r\n        \r\n    /**\r\n     * @dev Emitted when User repays the loan.\r\n     * @param loanId Loan id.\r\n     * @param userAddr User address.\r\n     * @param amount Repay amount.\r\n     */\r\n    event RepayLoan(uint256 indexed loanId, address userAddr, uint256 amount);   \r\n    \r\n    /**\r\n     * @dev Emitted when User failed to repay loan.\r\n     * @param loanId Loan id.\r\n     * @param userAddr User address.\r\n     */\r\n    event LoanDeadLineCrosssed(uint256 indexed loanId, address userAddr); \r\n    \r\n    /**\r\n     * @dev Emitted when Loan is closed.\r\n     * @param loanId Loan Id.\r\n     * @param userAddr User address.\r\n     */\r\n    event LoanClosed(uint256 indexed loanId, address userAddr); \r\n        \r\n    /**\r\n     * @dev Emitted when Manager approve or reject loan.\r\n     * @param loanId Loan Id\r\n     * @param userAddr User address.\r\n     * @param status Loan status, if `true` then loan approved else if `false` then loan rejected.\r\n     */\r\n    event ApproveOrRejectLoan(uint indexed loanId, address userAddr, bool status);  \r\n        \r\n    /**\r\n     * @dev Emitted when new deposits are freezed.\r\n     */\r\n    event PausedNewDeposits();  \r\n        \r\n    /**\r\n     * @dev Emitted when allows new deposits.\r\n     */\r\n    event ResumedNewDeposits();  \r\n        \r\n    /**\r\n     * @dev Emitted when new loans are freezed.\r\n     */\r\n    event PausedNewLoans();  \r\n        \r\n    /**\r\n     * @dev Emitted when new loans are available.\r\n     */\r\n    event ResumedNewLoans();  \r\n        \r\n    /**\r\n     * @dev Emitted when Owner deposits Eth to the Bank.\r\n     * @param amount Deposit amount.\r\n     */\r\n    event DepositEthToBank(uint256 amount);   \r\n        \r\n    /**\r\n     * @dev Emitted when Owner withdraws profit.\r\n     * @param amount Withdraw amount.\r\n     */\r\n    event OwnerWithdraw(uint256 amount);  \r\n        \r\n    /**\r\n     * @dev Emitted when Manager sets a loan duration and its interest rate.\r\n     * @param tariffId Loan tarrif Id.\r\n     * @param duration Loan duration.\r\n     * @param interest Loan interest.\r\n     * \r\n     */\r\n    event SetLoanDurationAndInterest(uint256 tariffId, uint256 duration, uint256 interest);  \r\n\r\n    /**\r\n     * @dev Emitted when Manager remove a loan duration and its interest rate.\r\n     * @param tariffId Loan tariff Id.\r\n     */\r\n    event RemoveLoanDurationAndInterest(uint256 tariffId);\r\n        \r\n    /**\r\n     * @dev Emitted when Manager sets a Fixed deposit duration and its interest rate.\r\n     * @param tariffId Fixed deposit tarrif Id.\r\n     * @param duration of Fixed deposit.\r\n     * @param interest Fixed deposit interest.\r\n     */\r\n    event SetFDDurationAndInterest(uint256 tariffId, uint256 duration, uint256 interest); \r\n    \r\n     /**\r\n     * @dev Emitted when Manager remove a fixed deposit duration and its interest rate.\r\n     * @param tariffId Fixed deposit tariff Id.\r\n     */\r\n    event RemoveFDDurationAndInterest(uint256 tariffId);  \r\n        \r\n    /**\r\n     * @dev Emitted when Owner increases reserve balance.\r\n     * @param reserveBalance New reserve balance amount.\r\n     */\r\n    event IncreaseReserveBalance(uint256 reserveBalance );  \r\n\r\n     /**\r\n     * @dev Emitted when Owner changes the manager.\r\n     * @param managerAddrs Manager's address.\r\n     */\r\n    event SetManager(address managerAddrs); \r\n\r\n    /**\r\n     * @dev Emitted when a new user is added.\r\n     * @param userAddress User's address.\r\n     */\r\n    event CreateAccount(address userAddress);  \r\n\r\n        \r\n    \r\n     /* Storage */\r\n    \r\n    address[] userAddress; // Array of User addresses.\r\n    address public managerAddress; // Managers's Address.\r\n    uint256 reserveBalance; // Reserve balance that is to be maintained in the contract.\r\n    \r\n    uint256 public contractBalance; // Balance amount of the contract.\r\n    uint256 private ownerBalance; // Owner Balance.\r\n    uint256 constant public loanInterestAmountShare = 10 ; // Loan interest amount share for owner in percent.\r\n    uint256 public totalFixedDeposit; // Total fixed deposit.\r\n    uint256[] private loanIdsOfPendingRequests; // Loan ids of pending Loan requests.\r\n    uint256[] public fdTfId; // Fixed Deposit tariff Ids.\r\n    uint256[] public lnTfId; // Loan tariff Ids.\r\n    \r\n    bool public acceptDeposit; // User can deposit Eth only if `acceptDeposit` is `true`;\r\n    bool public loanAvailable; // User can request Loan only if `loanAvailable` is `true`;\r\n    \r\n    mapping(address => UsrInfo) userInfo; // Information of User.\r\n    mapping(uint256 => address) loanIdToUser; // Mapping from loan ids of pending Loan requests to user address .\r\n    mapping(uint256 => uint256) loanIdToPendingRequestIndex; //Mapping from Loan Id to loanIdsOfPendingRequest array index.\r\n    mapping(uint256 => uint256) loanIdToUserLoanInfoIndex; //Mapping from Loan Id to user's loanInfo array index.\r\n    mapping(uint256 => FdTariff) public fdTariffIdToInfo; // Mapping from Fixed deposit tariff Id to information(Fd duration and interest).\r\n    mapping(uint256 => LoanTariff) public lnTariffIdToInfo; // Mapping from Loan tariff Id to information(Loan duration and interest).\r\n    mapping(uint256 => uint256) public fdTariffIdToFdTfIdIndex; // Mapping from Fixed deposit tariff Id to fdTfId index.\r\n    mapping(uint256 => uint256) public lnTariffIdToLnTfIdIndex; // Mapping from Loan tariff Id to lnTfId index.\r\n\r\n    \r\n    /* Modifiers */\r\n    \r\n    /** @dev Requires that the sender is the Manager */\r\n    modifier onlyByManager() {\r\n        require(managerAddress == msg.sender, \"Access restricted to Manager only\");\r\n        _;\r\n        \r\n    }\r\n    \r\n    \r\n    /*Constructor */\r\n\r\n    /** @dev Constructs the Bank contract.\r\n     *  @param _reserveBalance Reserve balance that is to be maintained in the contract.\r\n     */\r\n    \r\n    constructor (uint256 _reserveBalance) {\r\n        \r\n        reserveBalance = _reserveBalance;\r\n    }\r\n    \r\n    \r\n    /* Functions */\r\n    \r\n\r\n    /**\r\n     * @notice Send eth to deposit it in the account.\r\n     * @dev User deposits to his/her account.\r\n     */\r\n    function deposit() external payable{\r\n        \r\n        require(acceptDeposit,\"Deposit function freezed by Owner\");\r\n\r\n        _createAccount();\r\n\r\n        userInfo[msg.sender].balance = userInfo[msg.sender].balance.add(msg.value);\r\n        contractBalance = contractBalance.add(msg.value);\r\n        \r\n        emit Deposit(msg.sender, msg.value);\r\n    }\r\n    \r\n    /**\r\n     * @notice Withdraw an amount from account. \r\n     * @dev User withdraw from his/her account.\r\n     * @param _amount Withdrawal amount.\r\n     */\r\n    function withdraw(uint256 _amount) external {\r\n        \r\n        require(userInfo[msg.sender].balance >= _amount, \"Insufficient Balance\");\r\n        require(contractBalance >= _amount, \"Insufficient Contract Balance\");\r\n\r\n        userInfo[msg.sender].balance = userInfo[msg.sender].balance.sub(_amount);\r\n        contractBalance = contractBalance.sub(_amount);\r\n        payable(msg.sender).transfer(_amount);\r\n        \r\n        emit Withdraw(msg.sender, _amount);\r\n    }\r\n    \r\n    /**\r\n     * @notice Send fixed deposit amount in Eth and choose a tariff.\r\n     * @dev User deposits an amount for a fixed duration.\r\n     * @param _tariffId Tariff id for fixed deposit.\r\n     */\r\n    function fixedDeposit(uint256 _tariffId) external payable {\r\n        \r\n        require(acceptDeposit,\"Deposit function freezed by Owner\");\r\n\r\n        _createAccount();\r\n        \r\n        userInfo[msg.sender].totalUsrFD = userInfo[msg.sender].totalUsrFD.add(msg.value);\r\n        \r\n        uint256 _fdId = uint256(keccak256(abi.encodePacked(userInfo[msg.sender].fdInfo.length, block.timestamp, msg.sender)));\r\n        userInfo[msg.sender].fdInfo.push(\r\n            FxDptInfo(\r\n                _fdId,\r\n                msg.value,\r\n                fdTariffIdToInfo[_tariffId].duration,\r\n                fdTariffIdToInfo[_tariffId].interest,\r\n                block.timestamp.add(fdTariffIdToInfo[_tariffId].duration.mul(1 days) )\r\n            ));\r\n        \r\n        contractBalance = contractBalance.add(msg.value); \r\n        totalFixedDeposit = totalFixedDeposit.add(msg.value);\r\n        \r\n        emit FixedDeposit(_fdId, msg.sender, msg.value, _tariffId);\r\n    }\r\n    \r\n    /**\r\n     * @notice Withdraw fixed deposit.\r\n     * @dev User withdraws his/her fixed deposit with interest.\r\n     * @param _fdIndex Index of the Fixed deposit to be withdrawn.\r\n     */\r\n    function withdrawFD(uint256 _fdIndex) public {\r\n        \r\n        uint256 _fdCount = userInfo[msg.sender].fdInfo.length;\r\n        require(_fdIndex < _fdCount, \"Invalid choice\");\r\n        require(userInfo[msg.sender].fdInfo[_fdIndex].endTime >= block.timestamp, \"This Fixed deposit is not matured\");\r\n    \r\n        uint256 _interest =  userInfo[msg.sender].fdInfo[_fdIndex].interest;\r\n        uint256 _numOfDays = userInfo[msg.sender].fdInfo[_fdIndex].duration\r\n            .add((block.timestamp.sub(userInfo[msg.sender].fdInfo[_fdIndex].endTime))\r\n            .div(1 days));\r\n        uint256 _amount =  userInfo[msg.sender].fdInfo[_fdIndex].amount;\r\n        uint256 _interestAmt = (_amount.div(100).mul(_interest)).div(365); // Interest Amount for 1 day.\r\n        _interestAmt = _interestAmt.mul(_numOfDays);\r\n        _amount = _amount.add(_interestAmt);\r\n        \r\n        uint256 _fdId = userInfo[msg.sender].fdInfo[_fdIndex].fdId;\r\n        \r\n        require(contractBalance >= _amount, \"Insufficient balance in contract\");\r\n        userInfo[msg.sender].totalUsrFD = userInfo[msg.sender].totalUsrFD.sub(_amount);\r\n        contractBalance = contractBalance.sub(_amount); \r\n        totalFixedDeposit = totalFixedDeposit.sub(_amount);\r\n    \r\n        userInfo[msg.sender].fdInfo[_fdIndex] =  userInfo[msg.sender].fdInfo[_fdCount.sub(1)];\r\n        userInfo[msg.sender].fdInfo.pop();\r\n        \r\n        payable(msg.sender).transfer(_amount);\r\n        \r\n        emit WithdrawFD(_fdId, msg.sender, _amount);\r\n    }\r\n    \r\n    /**\r\n     * @notice Withdraw fixed deposit before maturity period.\r\n     * @dev User withdraws his/her fixed deposit before maturity period with penality of 5 percent of the FD Interest.\r\n     * @param _fdIndex Index of the Fixed deposit to be withdrawn.\r\n     */\r\n    function withdrawFDBeforeMaturity(uint256 _fdIndex) external {\r\n        \r\n        if(userInfo[msg.sender].fdInfo[_fdIndex].endTime >= block.timestamp) {\r\n            withdrawFD(_fdIndex);\r\n        }\r\n        else {\r\n            uint256 _fdCount = userInfo[msg.sender].fdInfo.length;\r\n            \r\n            require(_fdIndex < _fdCount, \"Invalid choice\");\r\n            uint256 _interest =  userInfo[msg.sender].fdInfo[_fdIndex].interest;\r\n            uint256 _numOfDays = (userInfo[msg.sender].fdInfo[_fdIndex].endTime.sub(block.timestamp)).div(1 days);\r\n            uint256 _amount =  userInfo[msg.sender].fdInfo[_fdIndex].amount;\r\n            uint256 _interestAmt = (_amount.div(100).mul(_interest)).div(365); // Interest Amount for 1 day.\r\n            _interestAmt = _interestAmt.mul(_numOfDays);\r\n            _amount = _amount.add(_interestAmt);\r\n            _amount = _amount.sub(_interestAmt.div(100).mul(5)); // Penality deducted.\r\n            \r\n            require(contractBalance >= _amount, \"Insufficient balance in contract\");\r\n            userInfo[msg.sender].totalUsrFD = userInfo[msg.sender].totalUsrFD.sub(_amount);\r\n            contractBalance = contractBalance.sub(_amount); \r\n            totalFixedDeposit = totalFixedDeposit.sub(_amount);\r\n            \r\n            uint256 _fdId = userInfo[msg.sender].fdInfo[_fdIndex].fdId;\r\n            \r\n            userInfo[msg.sender].fdInfo[_fdIndex] =  userInfo[msg.sender].fdInfo[_fdCount.sub(1)];\r\n            userInfo[msg.sender].fdInfo.pop();\r\n            \r\n            payable(msg.sender).transfer(_amount);\r\n            \r\n            emit WithdrawFDBeforeMaturity(_fdId, msg.sender, _amount);\r\n        }\r\n    }\r\n    \r\n    /**\r\n     * @notice Request for a loan.\r\n     * @dev User requests for a loan.\r\n     * @param _amount Loan amount.\r\n     * @param _tariffId Tariff id for Loan.\r\n     */\r\n    function requestLoan(uint256 _amount, uint256 _tariffId) external {\r\n        \r\n        require(loanAvailable,\"Loans Unavailable\");\r\n        \r\n        _createAccount();\r\n        \r\n        uint256 _loanId = uint256(keccak256(abi.encodePacked(userInfo[msg.sender].loanInfo.length, block.timestamp, msg.sender)));\r\n        uint256 _repayAmountBal = _amount.add(\r\n            (_amount.div(100).mul(lnTariffIdToInfo[_tariffId].interest))\r\n            .div(365).mul(lnTariffIdToInfo[_tariffId].duration)\r\n            );\r\n        userInfo[msg.sender].loanInfo.push(\r\n            LnInfo(\r\n                _loanId,\r\n                _amount,\r\n                lnTariffIdToInfo[_tariffId].duration,\r\n                lnTariffIdToInfo[_tariffId].interest,\r\n                0,\r\n                _repayAmountBal,\r\n                LnStatus.WaitingForCollateralVerification\r\n            ));\r\n        loanIdToUserLoanInfoIndex[_loanId] = userInfo[msg.sender].loanInfo.length.sub(1);\r\n        loanIdToUser[_loanId] = msg.sender;\r\n\r\n        loanIdsOfPendingRequests.push(_loanId);\r\n        loanIdToPendingRequestIndex[_loanId] = loanIdsOfPendingRequests.length.sub(1);\r\n         \r\n        emit RequestLoan(_loanId, msg.sender, _amount, _tariffId);\r\n    }\r\n    \r\n    /**\r\n     * @notice Repay loan partially or completely.\r\n      * @dev User repays the loan.\r\n     * @param _loanIndex Index of this Loan.\r\n     */\r\n    function repayLoan(uint256 _loanIndex) external payable {\r\n        \r\n        uint256 _amount = msg.value; \r\n        uint256 _lnCount = userInfo[msg.sender].loanInfo.length;\r\n        \r\n        require(_loanIndex < _lnCount, \"Invalid choice\");\r\n        \r\n         if(userInfo[msg.sender].loanInfo[_loanIndex].endTime >= block.timestamp){\r\n            userInfo[msg.sender].loanInfo[_loanIndex].loanStatus = LnStatus.CrossedDeadline;\r\n            emit LoanDeadLineCrosssed(userInfo[msg.sender].loanInfo[_loanIndex].loanId, msg.sender );\r\n        }\r\n        else{\r\n            uint256 _repayAmount = userInfo[msg.sender].loanInfo[_loanIndex].repayAmountBal;\r\n            \r\n            require(_amount <= _repayAmount , \"Excess Payment\");\r\n            userInfo[msg.sender].loanInfo[_loanIndex].repayAmountBal = userInfo[msg.sender].loanInfo[_loanIndex].repayAmountBal.sub(_amount); \r\n            contractBalance = contractBalance.add(_amount);\r\n            \r\n            \r\n            if( userInfo[msg.sender].loanInfo[_loanIndex].repayAmountBal == 0 ) {\r\n                emit LoanClosed(userInfo[msg.sender].loanInfo[_loanIndex].loanId, msg.sender);  \r\n                \r\n                uint256 _ownerShare = (userInfo[msg.sender].loanInfo[_loanIndex].amount\r\n                    .div(100)\r\n                    .mul(userInfo[msg.sender].loanInfo[_loanIndex].interest)\r\n                    )\r\n                    .div(100)\r\n                    .mul(loanInterestAmountShare); // `loanInterestAmountShare` percent of intrest amount\r\n                ownerBalance = ownerBalance.add(_ownerShare);\r\n                contractBalance = contractBalance.sub(_ownerShare);\r\n                userInfo[msg.sender].loanInfo[_loanIndex] =  userInfo[msg.sender].loanInfo[_lnCount.sub(1)];\r\n                userInfo[msg.sender].loanInfo.pop();\r\n            }\r\n\r\n            emit RepayLoan(userInfo[msg.sender].loanInfo[_loanIndex].loanId, msg.sender, _amount);\r\n        }\r\n    }\r\n    \r\n    /** \r\n     * @notice Cancel Loan Request.\r\n     * @dev User cancels requested loan.\r\n     * @param _cancelLoanId id of the loan to be cancelled.\r\n     */\r\n    function cancelLoanRequest(uint256 _cancelLoanId) external {\r\n        \r\n        require(userInfo[msg.sender].loanInfo[ loanIdToUserLoanInfoIndex[_cancelLoanId]].loanStatus == LnStatus.WaitingForCollateralVerification, \"Unable to cancel\");\r\n\r\n        loanIdToPendingRequestIndex[loanIdsOfPendingRequests[loanIdsOfPendingRequests.length.sub(1)]] = loanIdToPendingRequestIndex[_cancelLoanId]; // Updating loanIdToPendingRequestIndex of last element with the index of cancelled loan id's index.\r\n        \r\n        loanIdsOfPendingRequests[loanIdToPendingRequestIndex[_cancelLoanId]] = loanIdsOfPendingRequests[loanIdsOfPendingRequests.length.sub(1)]; // Replacing the cancelled loan request id in the  loanIdsOfPendingRequests array with last element of the array.\r\n        loanIdsOfPendingRequests.pop();\r\n\r\n        uint256 _lnCount = userInfo[msg.sender].loanInfo.length;\r\n        userInfo[msg.sender].loanInfo[loanIdToUserLoanInfoIndex[_cancelLoanId]] =  userInfo[msg.sender].loanInfo[_lnCount.sub(1)];\r\n        userInfo[msg.sender].loanInfo.pop();\r\n        \r\n        emit CancelLoanRequest(_cancelLoanId, msg.sender);\r\n    }\r\n    \r\n    \r\n    \r\n    /**\r\n     * @notice Approve or reject loan.\r\n     * @dev Manager approve or reject loan.\r\n     * @param _loanId Loan Id.\r\n     * @param _approve `true` value indicates the approval and `false` indicates rejection.\r\n     */\r\n    function approveOrRejectLoan(uint _loanId, bool _approve) external onlyByManager {\r\n\r\n        address _userAddrs = loanIdToUser[_loanId];\r\n        uint256 _userLoanIndex = loanIdToUserLoanInfoIndex[_loanId];\r\n        uint256 _loanAmount = userInfo[_userAddrs].loanInfo[_userLoanIndex].amount;\r\n        \r\n        if(_approve){\r\n            require( contractBalance - _loanAmount  > reserveBalance, \"Insufficient Balance\");\r\n            userInfo[_userAddrs].loanInfo[_userLoanIndex].endTime = block.timestamp.add(userInfo[_userAddrs].loanInfo[_userLoanIndex].duration.mul(1 days));\r\n            userInfo[_userAddrs].loanInfo[_userLoanIndex].loanStatus = LnStatus.Approved;\r\n            payable(_userAddrs).transfer(_loanAmount);\r\n            contractBalance = contractBalance.sub(_loanAmount);\r\n        }\r\n        else{\r\n            userInfo[_userAddrs].loanInfo[_userLoanIndex].loanStatus = LnStatus.Rejected;\r\n        }\r\n\r\n        loanIdsOfPendingRequests[loanIdToPendingRequestIndex[_loanId]] = loanIdsOfPendingRequests[loanIdsOfPendingRequests.length.sub(1)]; // Copy last element to current element's position.\r\n        loanIdsOfPendingRequests.pop(); // Remove last element\r\n\r\n        emit ApproveOrRejectLoan(_loanId,_userAddrs, _approve);\r\n    }\r\n    \r\n    /**\r\n     * @notice Change Loan status to deadline crossed.\r\n     * @dev Change Loan status to deadline crossed.\r\n     * @param _loanId Loan Id of the loan.\r\n     */\r\n    function deadLineCrossed(uint256 _loanId) external onlyByManager {\r\n        \r\n        address _userAddrs = loanIdToUser[_loanId];\r\n\r\n        require(userInfo[_userAddrs].loanInfo[loanIdToUserLoanInfoIndex[_loanId]].endTime <= block.timestamp, \"Not reached the Deadline\" );\r\n        \r\n        userInfo[_userAddrs].loanInfo[loanIdToUserLoanInfoIndex[_loanId]].loanStatus = LnStatus.CrossedDeadline;\r\n        \r\n        emit LoanDeadLineCrosssed(_loanId, _userAddrs);\r\n    }\r\n    \r\n    /**\r\n     * @notice Prevent new deposits.\r\n     * @dev Prevent new deposits.\r\n     */\r\n    function pauseNewDeposits() external onlyByManager {\r\n        \r\n        acceptDeposit = false;\r\n        emit PausedNewDeposits();\r\n    }\r\n    \r\n    /**\r\n     * @notice Allow new deposits.\r\n     * @dev Allow new deposits.\r\n     */\r\n    function resumeNewDeposits() external onlyByManager {\r\n        \r\n        acceptDeposit = true;\r\n        emit ResumedNewDeposits();\r\n    }\r\n    \r\n    /**\r\n     * @notice Prevent new loans.\r\n     * @dev Prevent new loans.\r\n     */\r\n    function pauseNewLoans() external onlyByManager {\r\n        \r\n        loanAvailable = false;\r\n        emit PausedNewDeposits();\r\n        \r\n    }\r\n    \r\n    /**\r\n     * @notice Allow new loans.\r\n     * @dev Allow new loans.\r\n     */\r\n    function resumeNewLoans() external onlyByManager {\r\n        \r\n        loanAvailable = true;\r\n        emit ResumedNewLoans();\r\n    }\r\n    \r\n    /**\r\n     * @notice Deposits Eth to the Bank.\r\n     * @dev Owner deposits Eth to the Bank.\r\n     */\r\n    function depositEthToBank() external onlyOwner payable {\r\n    \r\n        contractBalance = contractBalance.add(msg.value);\r\n        emit DepositEthToBank(msg.value);\r\n    }\r\n    \r\n    /**\r\n     * @notice Owner can withdraws profit.\r\n     * @dev Owner withdraws profit.\r\n     * @param _amount Withdraw amount.\r\n     */\r\n    function ownerWithdraw(uint256 _amount) external onlyOwner {\r\n        \r\n        require( _amount <= ownerBalance, \"Insufficient owner balance\");\r\n        require( contractBalance.sub(_amount) > reserveBalance, \"Insufficient Balance\");\r\n        contractBalance = contractBalance.sub(_amount);\r\n        ownerBalance = ownerBalance.sub(_amount);\r\n        payable(msg.sender).transfer(_amount);\r\n        \r\n        emit OwnerWithdraw(_amount);\r\n    }\r\n    \r\n    \r\n    /**\r\n     * @notice Get the deposit details of an user.\r\n     * @dev Get the deposit details of an user.\r\n     */\r\n    function getUserDepositDetails() public view returns(uint256 _balance, uint256 _totalFdAmount) {\r\n        require(userInfo[msg.sender].accStatus, \"Invalid Access\");\r\n        address _userAddrs = msg.sender;\r\n        _balance = userInfo[_userAddrs].balance;\r\n        _totalFdAmount = userInfo[_userAddrs].totalUsrFD;\r\n    }\r\n    \r\n    /**\r\n     * @notice Get the loan details of an user.\r\n     * @dev Get the loan details of an user.\r\n     * @param _cursor Starting value of the index that is to be fetched from user's loanInfo array.\r\n     * @param _count Number of loan status that is to be fetched from user's loanInfo array. In order to fetch entire array, set count to zero or a number higher than the last index of the array. \r\n     */\r\n    function getUserLoanDetails(uint256 _cursor, uint256 _count) public view \r\n        returns(uint256[] memory _loanIndexes, uint256[] memory _loanIds, uint256[] memory _amounts,\r\n        uint256[] memory _durations, uint256[] memory _interests, uint256[] memory _endTimes, uint256[] memory _loanStatus) {\r\n            \r\n        require(userInfo[msg.sender].accStatus, \"Invalid Access\");\r\n        address _userAddrs = msg.sender;\r\n\r\n        for (uint256 i = _cursor; i < userInfo[_userAddrs].loanInfo.length && (i < _cursor + _count || _count == 0 ); i++) {\r\n            _loanIndexes[i] = i;\r\n            _loanIds[i] = userInfo[_userAddrs].loanInfo[i].loanId;\r\n            _amounts[i] = userInfo[_userAddrs].loanInfo[i].amount;\r\n            _durations[i] = userInfo[_userAddrs].loanInfo[i].duration;\r\n            _interests[i] = userInfo[_userAddrs].loanInfo[i].interest;\r\n            _endTimes[i] = userInfo[_userAddrs].loanInfo[i].endTime;\r\n\r\n            if(userInfo[_userAddrs].loanInfo[i].loanStatus == LnStatus.WaitingForCollateralVerification) {\r\n                _loanStatus[i] = 1;\r\n            }else if(userInfo[_userAddrs].loanInfo[i].loanStatus == LnStatus.Approved) {\r\n                _loanStatus[i] = 2;\r\n            }else if(userInfo[_userAddrs].loanInfo[i].loanStatus == LnStatus.Rejected) {\r\n                _loanStatus[i] = 3;\r\n            }else if(userInfo[_userAddrs].loanInfo[i].loanStatus == LnStatus.CrossedDeadline) {\r\n                _loanStatus[i] = 4;\r\n            }\r\n        }\r\n    }\r\n    \r\n    \r\n    /**\r\n     * @notice Set a loan duration and its interest rate.\r\n     * @dev Owner sets a loan duration and its interest rate.\r\n     * @param _duration Loan duration.\r\n     * @param _interest Loan interest.\r\n     * \r\n     */\r\n    function setLoanDurationAndInterest(uint256 _duration, uint256 _interest) external onlyByManager{\r\n        uint256 _tariffId = uint256(keccak256(abi.encodePacked(lnTfId.length, block.timestamp, _duration)));\r\n        lnTfId.push(_tariffId);\r\n        lnTariffIdToInfo[_tariffId] = LoanTariff(_duration, _interest);\r\n        lnTariffIdToLnTfIdIndex[_tariffId] = lnTfId.length.sub(1);\r\n        \r\n        emit SetLoanDurationAndInterest(_tariffId, _duration, _interest);\r\n    }\r\n    \r\n    /**\r\n     * @notice Get all loan durations and their interest rates\r\n     * @dev Get all loan durations and their interest rates.\r\n     * @param _cursor Starting value of the index that is to be fetched from lnTariffToInfo array.\r\n     * @param _count Number of tariff that is to be fetched from  lnTariffToInfo array. In order to fetch entire array, set count to zero or a number higher than the last index of the array. \r\n     * @return _duration Loan duration.\r\n     * @return _interest Loan interest.\r\n     */\r\n    function getLoanDurationAndInterest(uint256 _cursor, uint256 _count) external view returns(uint256[] memory _duration, uint256[] memory  _interest) {\r\n        for (uint256 i = _cursor; i < lnTfId.length && (i < _cursor + _count || _count == 0 ); i++) {\r\n            _duration[i] = lnTariffIdToInfo[lnTfId[i]].duration;\r\n            _interest[i] = lnTariffIdToInfo[lnTfId[i]].interest;\r\n        }\r\n    }\r\n    \r\n    /**\r\n     * @notice Owner can remove a loan duration and its interest rate.\r\n     * @dev Owner remove a loan duration and its interest rate.\r\n     * @param _tariffId Loan tariff Id..\r\n     */\r\n    function removeLoanDurationAndInterest(uint256 _tariffId) external onlyByManager {\r\n\r\n        lnTfId[fdTariffIdToFdTfIdIndex[_tariffId]] = lnTfId[lnTfId.length.sub(1)];\r\n        lnTfId.pop();\r\n\r\n        emit RemoveLoanDurationAndInterest(_tariffId);\r\n    }\r\n    \r\n    \r\n    /**\r\n     * @notice Owner sets fixed deposit duration and its interest rate.\r\n     * @dev Owner sets fixed deposit duration and its interest rate\r\n     * @param _duration Fixed deposit duration.\r\n     * @param _interest Interest rate for fixed deposit.\r\n     */\r\n    function setFDDurationAndInterest(uint256 _duration, uint256 _interest) external onlyByManager{\r\n        \r\n        uint256 _tariffId = uint256(keccak256(abi.encodePacked(fdTfId.length, block.timestamp, _duration)));\r\n        fdTfId.push(_tariffId);\r\n        fdTariffIdToInfo[_tariffId] = FdTariff(_duration, _interest);\r\n        fdTariffIdToFdTfIdIndex[_tariffId] = fdTfId.length.sub(1);\r\n\r\n        emit SetFDDurationAndInterest(_tariffId, _duration, _interest);\r\n    }\r\n    \r\n    /**\r\n     * @notice Get all fixed deposit durations and their interest rates.\r\n     * @dev Get all fixed deposit durations and their interest rates. \r\n     * @param _cursor Starting value of the index that is to be fetched from fdTariffToInfo array.\r\n     * @param _count Number of tariff that is to be fetched from  fdTariffToInfo array. In order to fetch entire array, set count to zero or a number higher than the last index of the array. \r\n     * @return _duration Fixed deposit duration.\r\n     * @return _interest Interest rate for fixed deposit.\r\n     */\r\n    function getFDDurationAndInterest(uint256 _cursor, uint256 _count) external view returns (uint256[] memory _duration, uint256[] memory _interest) {\r\n\r\n        for (uint256 i = _cursor; i < fdTfId.length && (i < _cursor + _count || _count == 0 ); i++) {\r\n            _duration[i] = fdTariffIdToInfo[fdTfId[i]].duration;\r\n            _interest[i] = fdTariffIdToInfo[fdTfId[i]].interest;\r\n        }\r\n    }\r\n    \r\n    \r\n     /**\r\n     * @notice Owner can remove a fixed deposit duration and its interest rate.\r\n     * @dev Owner remove a fixed deposit duration and its interest rate.\r\n     * @param _tariffId Fixed deposit tariff.\r\n     */\r\n    function removeFDDurationAndInterest(uint256 _tariffId) external onlyByManager {\r\n\r\n        fdTfId[fdTariffIdToFdTfIdIndex[_tariffId]] = fdTfId[fdTfId.length.sub(1)];\r\n        fdTfId.pop();\r\n\r\n        emit RemoveFDDurationAndInterest(_tariffId);\r\n    }\r\n\r\n    /**\r\n     * @notice Owner can increase the reserve balance that is to be maintained in the contract. \r\n     * @dev Owner increase the reserveBalance.\r\n     * @param _amount Amount that is to be increased.\r\n     */\r\n    function increaseReserveBalance(uint256 _amount) external onlyOwner {\r\n        \r\n        reserveBalance = reserveBalance.add(_amount);\r\n\r\n        emit IncreaseReserveBalance(reserveBalance);\r\n    }\r\n    \r\n    /**\r\n     * @notice Owner can change the manager. \r\n     * @dev Owner changes the manager.\r\n     * @param _managerAddrs Manager's address.\r\n     */\r\n    function setManager(address _managerAddrs) external onlyOwner {\r\n        \r\n        managerAddress = _managerAddrs; \r\n        \r\n        emit SetManager(_managerAddrs);\r\n    }\r\n    \r\n    /**\r\n     * @notice Manager can get addresses of all Users. \r\n     * @dev Manager can get addresses of all Users\r\n     * @return _userAddrs Addresses of all Users.\r\n     */\r\n     \r\n    function getAllUsers() external view onlyByManager returns(address[] memory _userAddrs) {\r\n        \r\n        _userAddrs = userAddress;\r\n    }\r\n\r\n    /* Internal */\r\n    \r\n    /**\r\n     * @notice Adds user account.\r\n     * @dev Adds user address to userInfo array.\r\n     */\r\n    function _createAccount() internal {\r\n\r\n        if(!userInfo[msg.sender].accStatus) {\r\n            userInfo[msg.sender].accStatus = true;\r\n            userAddress.push(msg.sender);\r\n\r\n            emit CreateAccount(msg.sender);\r\n        }\r\n\r\n    }\r\n}\r\n",
  "sourcePath": "E:/Blockchain/Bank-dApp/contracts/Bank.sol",
  "compiler": {
    "name": "solc",
    "version": "0.8.1+commit.df193b15.Emscripten.clang"
  },
  "schemaVersion": "3.3.3",
  "updatedAt": "2021-02-02T06:34:00.633Z",
  "devdoc": {
    "author": "Joby Augustine",
    "details": "The main Bank contract for banking operations.",
    "events": {
      "ApproveOrRejectLoan(uint256,address,bool)": {
        "details": "Emitted when Manager approve or reject loan.",
        "params": {
          "loanId": "Loan Id",
          "status": "Loan status, if `true` then loan approved else if `false` then loan rejected.",
          "userAddr": "User address."
        }
      },
      "CancelLoanRequest(uint256,address)": {
        "details": "Emitted when User cancel Loan request.",
        "params": {
          "loanId": "Loan id.",
          "userAddr": "User address."
        }
      },
      "CreateAccount(address)": {
        "details": "Emitted when a new user is added.",
        "params": {
          "userAddress": "User's address."
        }
      },
      "Deposit(address,uint256)": {
        "details": "Emitted when User deposits to his/her account.",
        "params": {
          "amount": "Amount deposited.",
          "userAddr": "User address."
        }
      },
      "DepositEthToBank(uint256)": {
        "details": "Emitted when Owner deposits Eth to the Bank.",
        "params": {
          "amount": "Deposit amount."
        }
      },
      "FixedDeposit(uint256,address,uint256,uint256)": {
        "details": "Emitted when User deposits an amount for a fixed duration.",
        "params": {
          "amount": "Deposit amount.",
          "fdId": "Fixed deposit Id",
          "tariffId": "Tariff Id for fixed deposit.",
          "userAddr": "User address."
        }
      },
      "IncreaseReserveBalance(uint256)": {
        "details": "Emitted when Owner increases reserve balance.",
        "params": {
          "reserveBalance": "New reserve balance amount."
        }
      },
      "LoanClosed(uint256,address)": {
        "details": "Emitted when Loan is closed.",
        "params": {
          "loanId": "Loan Id.",
          "userAddr": "User address."
        }
      },
      "LoanDeadLineCrosssed(uint256,address)": {
        "details": "Emitted when User failed to repay loan.",
        "params": {
          "loanId": "Loan id.",
          "userAddr": "User address."
        }
      },
      "OwnerWithdraw(uint256)": {
        "details": "Emitted when Owner withdraws profit.",
        "params": {
          "amount": "Withdraw amount."
        }
      },
      "PausedNewDeposits()": {
        "details": "Emitted when new deposits are freezed."
      },
      "PausedNewLoans()": {
        "details": "Emitted when new loans are freezed."
      },
      "RemoveFDDurationAndInterest(uint256)": {
        "details": "Emitted when Manager remove a fixed deposit duration and its interest rate.",
        "params": {
          "tariffId": "Fixed deposit tariff Id."
        }
      },
      "RemoveLoanDurationAndInterest(uint256)": {
        "details": "Emitted when Manager remove a loan duration and its interest rate.",
        "params": {
          "tariffId": "Loan tariff Id."
        }
      },
      "RepayLoan(uint256,address,uint256)": {
        "details": "Emitted when User repays the loan.",
        "params": {
          "amount": "Repay amount.",
          "loanId": "Loan id.",
          "userAddr": "User address."
        }
      },
      "RequestLoan(uint256,address,uint256,uint256)": {
        "details": "Emitted when User requests for a loan.",
        "params": {
          "amount": "Loan amount.",
          "loanId": "Loan id.",
          "tariffId": "Tariff Id for Loan.",
          "userAddr": "User address."
        }
      },
      "ResumedNewDeposits()": {
        "details": "Emitted when allows new deposits."
      },
      "ResumedNewLoans()": {
        "details": "Emitted when new loans are available."
      },
      "SetFDDurationAndInterest(uint256,uint256,uint256)": {
        "details": "Emitted when Manager sets a Fixed deposit duration and its interest rate.",
        "params": {
          "duration": "of Fixed deposit.",
          "interest": "Fixed deposit interest.",
          "tariffId": "Fixed deposit tarrif Id."
        }
      },
      "SetLoanDurationAndInterest(uint256,uint256,uint256)": {
        "details": "Emitted when Manager sets a loan duration and its interest rate.",
        "params": {
          "duration": "Loan duration.",
          "interest": "Loan interest. ",
          "tariffId": "Loan tarrif Id."
        }
      },
      "SetManager(address)": {
        "details": "Emitted when Owner changes the manager.",
        "params": {
          "managerAddrs": "Manager's address."
        }
      },
      "Withdraw(address,uint256)": {
        "details": "Emitted when User withdraws from his/her account.",
        "params": {
          "amount": "Amount withdrawn.",
          "userAddr": "User address."
        }
      },
      "WithdrawFD(uint256,address,uint256)": {
        "details": "Emitted when User withdraws his/her fixed deposit.",
        "params": {
          "amount": "Amount withdrawn.",
          "fdId": "Fixed deposit Id",
          "userAddr": "User address."
        }
      },
      "WithdrawFDBeforeMaturity(uint256,address,uint256)": {
        "details": "Emitted when User withdraws his/her fixed deposit before maturity period.",
        "params": {
          "amount": "Amount withdrawn.",
          "fdId": "Fixed deposit Id",
          "userAddr": "User address."
        }
      }
    },
    "kind": "dev",
    "methods": {
      "approveOrRejectLoan(uint256,bool)": {
        "details": "Manager approve or reject loan.",
        "params": {
          "_approve": "`true` value indicates the approval and `false` indicates rejection.",
          "_loanId": "Loan Id."
        }
      },
      "cancelLoanRequest(uint256)": {
        "details": "User cancels requested loan.",
        "params": {
          "_cancelLoanId": "id of the loan to be cancelled."
        }
      },
      "constructor": {
        "details": "Constructs the Bank contract.",
        "params": {
          "_reserveBalance": "Reserve balance that is to be maintained in the contract."
        }
      },
      "deadLineCrossed(uint256)": {
        "details": "Change Loan status to deadline crossed.",
        "params": {
          "_loanId": "Loan Id of the loan."
        }
      },
      "deposit()": {
        "details": "User deposits to his/her account."
      },
      "depositEthToBank()": {
        "details": "Owner deposits Eth to the Bank."
      },
      "fixedDeposit(uint256)": {
        "details": "User deposits an amount for a fixed duration.",
        "params": {
          "_tariffId": "Tariff id for fixed deposit."
        }
      },
      "getAllUsers()": {
        "details": "Manager can get addresses of all Users",
        "returns": {
          "_userAddrs": "Addresses of all Users."
        }
      },
      "getFDDurationAndInterest(uint256,uint256)": {
        "details": "Get all fixed deposit durations and their interest rates. ",
        "params": {
          "_count": "Number of tariff that is to be fetched from  fdTariffToInfo array. In order to fetch entire array, set count to zero or a number higher than the last index of the array. ",
          "_cursor": "Starting value of the index that is to be fetched from fdTariffToInfo array."
        },
        "returns": {
          "_duration": "Fixed deposit duration.",
          "_interest": "Interest rate for fixed deposit."
        }
      },
      "getLoanDurationAndInterest(uint256,uint256)": {
        "details": "Get all loan durations and their interest rates.",
        "params": {
          "_count": "Number of tariff that is to be fetched from  lnTariffToInfo array. In order to fetch entire array, set count to zero or a number higher than the last index of the array. ",
          "_cursor": "Starting value of the index that is to be fetched from lnTariffToInfo array."
        },
        "returns": {
          "_duration": "Loan duration.",
          "_interest": "Loan interest."
        }
      },
      "getUserDepositDetails()": {
        "details": "Get the deposit details of an user."
      },
      "getUserLoanDetails(uint256,uint256)": {
        "details": "Get the loan details of an user.",
        "params": {
          "_count": "Number of loan status that is to be fetched from user's loanInfo array. In order to fetch entire array, set count to zero or a number higher than the last index of the array. ",
          "_cursor": "Starting value of the index that is to be fetched from user's loanInfo array."
        }
      },
      "increaseReserveBalance(uint256)": {
        "details": "Owner increase the reserveBalance.",
        "params": {
          "_amount": "Amount that is to be increased."
        }
      },
      "isOwner()": {
        "returns": {
          "_0": "true if `msg.sender` is the owner of the contract."
        }
      },
      "owner()": {
        "returns": {
          "_0": "the address of the owner."
        }
      },
      "ownerWithdraw(uint256)": {
        "details": "Owner withdraws profit.",
        "params": {
          "_amount": "Withdraw amount."
        }
      },
      "pauseNewDeposits()": {
        "details": "Prevent new deposits."
      },
      "pauseNewLoans()": {
        "details": "Prevent new loans."
      },
      "removeFDDurationAndInterest(uint256)": {
        "details": "Owner remove a fixed deposit duration and its interest rate.",
        "params": {
          "_tariffId": "Fixed deposit tariff."
        }
      },
      "removeLoanDurationAndInterest(uint256)": {
        "details": "Owner remove a loan duration and its interest rate.",
        "params": {
          "_tariffId": "Loan tariff Id.."
        }
      },
      "renounceOwnership()": {
        "details": "Allows the current owner to relinquish control of the contract."
      },
      "repayLoan(uint256)": {
        "details": "User repays the loan.",
        "params": {
          "_loanIndex": "Index of this Loan."
        }
      },
      "requestLoan(uint256,uint256)": {
        "details": "User requests for a loan.",
        "params": {
          "_amount": "Loan amount.",
          "_tariffId": "Tariff id for Loan."
        }
      },
      "resumeNewDeposits()": {
        "details": "Allow new deposits."
      },
      "resumeNewLoans()": {
        "details": "Allow new loans."
      },
      "setFDDurationAndInterest(uint256,uint256)": {
        "details": "Owner sets fixed deposit duration and its interest rate",
        "params": {
          "_duration": "Fixed deposit duration.",
          "_interest": "Interest rate for fixed deposit."
        }
      },
      "setLoanDurationAndInterest(uint256,uint256)": {
        "details": "Owner sets a loan duration and its interest rate.",
        "params": {
          "_duration": "Loan duration.",
          "_interest": "Loan interest. "
        }
      },
      "setManager(address)": {
        "details": "Owner changes the manager.",
        "params": {
          "_managerAddrs": "Manager's address."
        }
      },
      "transferOwnership(address)": {
        "details": "Allows the current owner to transfer control of the contract to a newOwner.",
        "params": {
          "newOwner": "The address to transfer ownership to."
        }
      },
      "withdraw(uint256)": {
        "details": "User withdraw from his/her account.",
        "params": {
          "_amount": "Withdrawal amount."
        }
      },
      "withdrawFD(uint256)": {
        "details": "User withdraws his/her fixed deposit with interest.",
        "params": {
          "_fdIndex": "Index of the Fixed deposit to be withdrawn."
        }
      },
      "withdrawFDBeforeMaturity(uint256)": {
        "details": "User withdraws his/her fixed deposit before maturity period with penality of 5 percent of the FD Interest.",
        "params": {
          "_fdIndex": "Index of the Fixed deposit to be withdrawn."
        }
      }
    },
    "title": "Decentralized Bank",
    "version": 1
  },
  "userdoc": {
    "kind": "user",
    "methods": {
      "approveOrRejectLoan(uint256,bool)": {
        "notice": "Approve or reject loan."
      },
      "cancelLoanRequest(uint256)": {
        "notice": "Cancel Loan Request."
      },
      "deadLineCrossed(uint256)": {
        "notice": "Change Loan status to deadline crossed."
      },
      "deposit()": {
        "notice": "Send eth to deposit it in the account."
      },
      "depositEthToBank()": {
        "notice": "Deposits Eth to the Bank."
      },
      "fixedDeposit(uint256)": {
        "notice": "Send fixed deposit amount in Eth and choose a tariff."
      },
      "getAllUsers()": {
        "notice": "Manager can get addresses of all Users. "
      },
      "getFDDurationAndInterest(uint256,uint256)": {
        "notice": "Get all fixed deposit durations and their interest rates."
      },
      "getLoanDurationAndInterest(uint256,uint256)": {
        "notice": "Get all loan durations and their interest rates"
      },
      "getUserDepositDetails()": {
        "notice": "Get the deposit details of an user."
      },
      "getUserLoanDetails(uint256,uint256)": {
        "notice": "Get the loan details of an user."
      },
      "increaseReserveBalance(uint256)": {
        "notice": "Owner can increase the reserve balance that is to be maintained in the contract. "
      },
      "ownerWithdraw(uint256)": {
        "notice": "Owner can withdraws profit."
      },
      "pauseNewDeposits()": {
        "notice": "Prevent new deposits."
      },
      "pauseNewLoans()": {
        "notice": "Prevent new loans."
      },
      "removeFDDurationAndInterest(uint256)": {
        "notice": "Owner can remove a fixed deposit duration and its interest rate."
      },
      "removeLoanDurationAndInterest(uint256)": {
        "notice": "Owner can remove a loan duration and its interest rate."
      },
      "renounceOwnership()": {
        "notice": "Renouncing to ownership will leave the contract without an owner. It will not be possible to call the functions with the `onlyOwner` modifier anymore."
      },
      "repayLoan(uint256)": {
        "notice": "Repay loan partially or completely."
      },
      "requestLoan(uint256,uint256)": {
        "notice": "Request for a loan."
      },
      "resumeNewDeposits()": {
        "notice": "Allow new deposits."
      },
      "resumeNewLoans()": {
        "notice": "Allow new loans."
      },
      "setFDDurationAndInterest(uint256,uint256)": {
        "notice": "Owner sets fixed deposit duration and its interest rate."
      },
      "setLoanDurationAndInterest(uint256,uint256)": {
        "notice": "Set a loan duration and its interest rate."
      },
      "setManager(address)": {
        "notice": "Owner can change the manager. "
      },
      "withdraw(uint256)": {
        "notice": "Withdraw an amount from account. "
      },
      "withdrawFD(uint256)": {
        "notice": "Withdraw fixed deposit."
      },
      "withdrawFDBeforeMaturity(uint256)": {
        "notice": "Withdraw fixed deposit before maturity period."
      }
    },
    "notice": "You use this contract for banking operations. ",
    "version": 1
  }
}